{
	"octo_flattened.sol": {
		"OCTO": {
			"abi": [
				{
					"inputs": [
						{
							"internalType": "address",
							"name": "router",
							"type": "address"
						},
						{
							"internalType": "address",
							"name": "_developmentWallet",
							"type": "address"
						}
					],
					"stateMutability": "nonpayable",
					"type": "constructor"
				},
				{
					"inputs": [
						{
							"internalType": "address",
							"name": "spender",
							"type": "address"
						},
						{
							"internalType": "uint256",
							"name": "allowance",
							"type": "uint256"
						},
						{
							"internalType": "uint256",
							"name": "needed",
							"type": "uint256"
						}
					],
					"name": "ERC20InsufficientAllowance",
					"type": "error"
				},
				{
					"inputs": [
						{
							"internalType": "address",
							"name": "sender",
							"type": "address"
						},
						{
							"internalType": "uint256",
							"name": "balance",
							"type": "uint256"
						},
						{
							"internalType": "uint256",
							"name": "needed",
							"type": "uint256"
						}
					],
					"name": "ERC20InsufficientBalance",
					"type": "error"
				},
				{
					"inputs": [
						{
							"internalType": "address",
							"name": "approver",
							"type": "address"
						}
					],
					"name": "ERC20InvalidApprover",
					"type": "error"
				},
				{
					"inputs": [
						{
							"internalType": "address",
							"name": "receiver",
							"type": "address"
						}
					],
					"name": "ERC20InvalidReceiver",
					"type": "error"
				},
				{
					"inputs": [
						{
							"internalType": "address",
							"name": "sender",
							"type": "address"
						}
					],
					"name": "ERC20InvalidSender",
					"type": "error"
				},
				{
					"inputs": [
						{
							"internalType": "address",
							"name": "spender",
							"type": "address"
						}
					],
					"name": "ERC20InvalidSpender",
					"type": "error"
				},
				{
					"inputs": [
						{
							"internalType": "address",
							"name": "owner",
							"type": "address"
						}
					],
					"name": "OwnableInvalidOwner",
					"type": "error"
				},
				{
					"inputs": [
						{
							"internalType": "address",
							"name": "account",
							"type": "address"
						}
					],
					"name": "OwnableUnauthorizedAccount",
					"type": "error"
				},
				{
					"anonymous": false,
					"inputs": [
						{
							"indexed": true,
							"internalType": "address",
							"name": "owner",
							"type": "address"
						},
						{
							"indexed": true,
							"internalType": "address",
							"name": "spender",
							"type": "address"
						},
						{
							"indexed": false,
							"internalType": "uint256",
							"name": "value",
							"type": "uint256"
						}
					],
					"name": "Approval",
					"type": "event"
				},
				{
					"anonymous": false,
					"inputs": [
						{
							"indexed": true,
							"internalType": "address",
							"name": "provider",
							"type": "address"
						},
						{
							"indexed": false,
							"internalType": "uint256",
							"name": "tokenAmount",
							"type": "uint256"
						},
						{
							"indexed": false,
							"internalType": "uint256",
							"name": "ethAmount",
							"type": "uint256"
						}
					],
					"name": "LiquidityAdded",
					"type": "event"
				},
				{
					"anonymous": false,
					"inputs": [
						{
							"indexed": true,
							"internalType": "address",
							"name": "user",
							"type": "address"
						},
						{
							"indexed": false,
							"internalType": "uint256",
							"name": "reward",
							"type": "uint256"
						}
					],
					"name": "LiquidityMiningRewardPaid",
					"type": "event"
				},
				{
					"anonymous": false,
					"inputs": [
						{
							"indexed": true,
							"internalType": "address",
							"name": "provider",
							"type": "address"
						},
						{
							"indexed": false,
							"internalType": "uint256",
							"name": "amount",
							"type": "uint256"
						}
					],
					"name": "LiquidityRemoved",
					"type": "event"
				},
				{
					"anonymous": false,
					"inputs": [
						{
							"indexed": true,
							"internalType": "address",
							"name": "previousOwner",
							"type": "address"
						},
						{
							"indexed": true,
							"internalType": "address",
							"name": "newOwner",
							"type": "address"
						}
					],
					"name": "OwnershipTransferred",
					"type": "event"
				},
				{
					"anonymous": false,
					"inputs": [
						{
							"indexed": true,
							"internalType": "address",
							"name": "user",
							"type": "address"
						},
						{
							"indexed": false,
							"internalType": "uint256",
							"name": "reward",
							"type": "uint256"
						}
					],
					"name": "RewardPaid",
					"type": "event"
				},
				{
					"anonymous": false,
					"inputs": [
						{
							"indexed": true,
							"internalType": "address",
							"name": "beneficiary",
							"type": "address"
						},
						{
							"indexed": false,
							"internalType": "uint256",
							"name": "amount",
							"type": "uint256"
						}
					],
					"name": "TokensReleased",
					"type": "event"
				},
				{
					"anonymous": false,
					"inputs": [
						{
							"indexed": true,
							"internalType": "address",
							"name": "beneficiary",
							"type": "address"
						},
						{
							"indexed": false,
							"internalType": "uint256",
							"name": "amount",
							"type": "uint256"
						},
						{
							"indexed": false,
							"internalType": "uint256",
							"name": "start",
							"type": "uint256"
						},
						{
							"indexed": false,
							"internalType": "uint256",
							"name": "duration",
							"type": "uint256"
						}
					],
					"name": "TokensVested",
					"type": "event"
				},
				{
					"anonymous": false,
					"inputs": [
						{
							"indexed": true,
							"internalType": "address",
							"name": "from",
							"type": "address"
						},
						{
							"indexed": true,
							"internalType": "address",
							"name": "to",
							"type": "address"
						},
						{
							"indexed": false,
							"internalType": "uint256",
							"name": "value",
							"type": "uint256"
						}
					],
					"name": "Transfer",
					"type": "event"
				},
				{
					"inputs": [
						{
							"internalType": "address",
							"name": "owner",
							"type": "address"
						},
						{
							"internalType": "address",
							"name": "spender",
							"type": "address"
						}
					],
					"name": "allowance",
					"outputs": [
						{
							"internalType": "uint256",
							"name": "",
							"type": "uint256"
						}
					],
					"stateMutability": "view",
					"type": "function"
				},
				{
					"inputs": [
						{
							"internalType": "address",
							"name": "spender",
							"type": "address"
						},
						{
							"internalType": "uint256",
							"name": "value",
							"type": "uint256"
						}
					],
					"name": "approve",
					"outputs": [
						{
							"internalType": "bool",
							"name": "",
							"type": "bool"
						}
					],
					"stateMutability": "nonpayable",
					"type": "function"
				},
				{
					"inputs": [
						{
							"internalType": "address",
							"name": "account",
							"type": "address"
						}
					],
					"name": "balanceOf",
					"outputs": [
						{
							"internalType": "uint256",
							"name": "",
							"type": "uint256"
						}
					],
					"stateMutability": "view",
					"type": "function"
				},
				{
					"inputs": [
						{
							"internalType": "address",
							"name": "provider",
							"type": "address"
						}
					],
					"name": "calculateLiquidityMiningRewards",
					"outputs": [
						{
							"internalType": "uint256",
							"name": "",
							"type": "uint256"
						}
					],
					"stateMutability": "view",
					"type": "function"
				},
				{
					"inputs": [],
					"name": "currentRewardRate",
					"outputs": [
						{
							"internalType": "uint256",
							"name": "",
							"type": "uint256"
						}
					],
					"stateMutability": "view",
					"type": "function"
				},
				{
					"inputs": [],
					"name": "decimals",
					"outputs": [
						{
							"internalType": "uint8",
							"name": "",
							"type": "uint8"
						}
					],
					"stateMutability": "view",
					"type": "function"
				},
				{
					"inputs": [],
					"name": "developmentWallet",
					"outputs": [
						{
							"internalType": "address",
							"name": "",
							"type": "address"
						}
					],
					"stateMutability": "view",
					"type": "function"
				},
				{
					"inputs": [],
					"name": "distributeLiquidityMiningRewards",
					"outputs": [],
					"stateMutability": "nonpayable",
					"type": "function"
				},
				{
					"inputs": [
						{
							"internalType": "address",
							"name": "account",
							"type": "address"
						}
					],
					"name": "earned",
					"outputs": [
						{
							"internalType": "uint256",
							"name": "",
							"type": "uint256"
						}
					],
					"stateMutability": "view",
					"type": "function"
				},
				{
					"inputs": [],
					"name": "finalRewardRate",
					"outputs": [
						{
							"internalType": "uint256",
							"name": "",
							"type": "uint256"
						}
					],
					"stateMutability": "view",
					"type": "function"
				},
				{
					"inputs": [],
					"name": "getReward",
					"outputs": [],
					"stateMutability": "nonpayable",
					"type": "function"
				},
				{
					"inputs": [],
					"name": "initialRewardRate",
					"outputs": [
						{
							"internalType": "uint256",
							"name": "",
							"type": "uint256"
						}
					],
					"stateMutability": "view",
					"type": "function"
				},
				{
					"inputs": [
						{
							"internalType": "address",
							"name": "",
							"type": "address"
						}
					],
					"name": "isLiquidityProvider",
					"outputs": [
						{
							"internalType": "bool",
							"name": "",
							"type": "bool"
						}
					],
					"stateMutability": "view",
					"type": "function"
				},
				{
					"inputs": [],
					"name": "lastUpdateTime",
					"outputs": [
						{
							"internalType": "uint256",
							"name": "",
							"type": "uint256"
						}
					],
					"stateMutability": "view",
					"type": "function"
				},
				{
					"inputs": [
						{
							"internalType": "address",
							"name": "",
							"type": "address"
						}
					],
					"name": "liquidityBalance",
					"outputs": [
						{
							"internalType": "uint256",
							"name": "",
							"type": "uint256"
						}
					],
					"stateMutability": "view",
					"type": "function"
				},
				{
					"inputs": [],
					"name": "liquidityMiningRate",
					"outputs": [
						{
							"internalType": "uint256",
							"name": "",
							"type": "uint256"
						}
					],
					"stateMutability": "view",
					"type": "function"
				},
				{
					"inputs": [
						{
							"internalType": "address",
							"name": "",
							"type": "address"
						}
					],
					"name": "liquidityMiningRewards",
					"outputs": [
						{
							"internalType": "uint256",
							"name": "",
							"type": "uint256"
						}
					],
					"stateMutability": "view",
					"type": "function"
				},
				{
					"inputs": [
						{
							"internalType": "uint256",
							"name": "",
							"type": "uint256"
						}
					],
					"name": "liquidityProviders",
					"outputs": [
						{
							"internalType": "address",
							"name": "",
							"type": "address"
						}
					],
					"stateMutability": "view",
					"type": "function"
				},
				{
					"inputs": [
						{
							"internalType": "address",
							"name": "",
							"type": "address"
						}
					],
					"name": "lpTokenBalance",
					"outputs": [
						{
							"internalType": "uint256",
							"name": "",
							"type": "uint256"
						}
					],
					"stateMutability": "view",
					"type": "function"
				},
				{
					"inputs": [],
					"name": "name",
					"outputs": [
						{
							"internalType": "string",
							"name": "",
							"type": "string"
						}
					],
					"stateMutability": "view",
					"type": "function"
				},
				{
					"inputs": [],
					"name": "owner",
					"outputs": [
						{
							"internalType": "address",
							"name": "",
							"type": "address"
						}
					],
					"stateMutability": "view",
					"type": "function"
				},
				{
					"inputs": [
						{
							"internalType": "uint256",
							"name": "tokenAmount",
							"type": "uint256"
						}
					],
					"name": "provideInitialLiquidity",
					"outputs": [],
					"stateMutability": "nonpayable",
					"type": "function"
				},
				{
					"inputs": [
						{
							"internalType": "address",
							"name": "beneficiary",
							"type": "address"
						}
					],
					"name": "releasableAmount",
					"outputs": [
						{
							"internalType": "uint256",
							"name": "",
							"type": "uint256"
						}
					],
					"stateMutability": "view",
					"type": "function"
				},
				{
					"inputs": [],
					"name": "releaseVestedTokens",
					"outputs": [],
					"stateMutability": "nonpayable",
					"type": "function"
				},
				{
					"inputs": [],
					"name": "renounceOwnership",
					"outputs": [],
					"stateMutability": "nonpayable",
					"type": "function"
				},
				{
					"inputs": [],
					"name": "rewardPerToken",
					"outputs": [
						{
							"internalType": "uint256",
							"name": "",
							"type": "uint256"
						}
					],
					"stateMutability": "view",
					"type": "function"
				},
				{
					"inputs": [],
					"name": "rewardPerTokenStored",
					"outputs": [
						{
							"internalType": "uint256",
							"name": "",
							"type": "uint256"
						}
					],
					"stateMutability": "view",
					"type": "function"
				},
				{
					"inputs": [
						{
							"internalType": "address",
							"name": "pair",
							"type": "address"
						}
					],
					"name": "setUniswapPair",
					"outputs": [],
					"stateMutability": "nonpayable",
					"type": "function"
				},
				{
					"inputs": [
						{
							"internalType": "uint256",
							"name": "amount",
							"type": "uint256"
						}
					],
					"name": "stake",
					"outputs": [],
					"stateMutability": "nonpayable",
					"type": "function"
				},
				{
					"inputs": [
						{
							"internalType": "address",
							"name": "",
							"type": "address"
						}
					],
					"name": "stakeStartTime",
					"outputs": [
						{
							"internalType": "uint256",
							"name": "",
							"type": "uint256"
						}
					],
					"stateMutability": "view",
					"type": "function"
				},
				{
					"inputs": [],
					"name": "symbol",
					"outputs": [
						{
							"internalType": "string",
							"name": "",
							"type": "string"
						}
					],
					"stateMutability": "view",
					"type": "function"
				},
				{
					"inputs": [],
					"name": "taxRate",
					"outputs": [
						{
							"internalType": "uint256",
							"name": "",
							"type": "uint256"
						}
					],
					"stateMutability": "view",
					"type": "function"
				},
				{
					"inputs": [],
					"name": "totalSupply",
					"outputs": [
						{
							"internalType": "uint256",
							"name": "",
							"type": "uint256"
						}
					],
					"stateMutability": "view",
					"type": "function"
				},
				{
					"inputs": [
						{
							"internalType": "address",
							"name": "to",
							"type": "address"
						},
						{
							"internalType": "uint256",
							"name": "value",
							"type": "uint256"
						}
					],
					"name": "transfer",
					"outputs": [
						{
							"internalType": "bool",
							"name": "",
							"type": "bool"
						}
					],
					"stateMutability": "nonpayable",
					"type": "function"
				},
				{
					"inputs": [
						{
							"internalType": "address",
							"name": "from",
							"type": "address"
						},
						{
							"internalType": "address",
							"name": "to",
							"type": "address"
						},
						{
							"internalType": "uint256",
							"name": "value",
							"type": "uint256"
						}
					],
					"name": "transferFrom",
					"outputs": [
						{
							"internalType": "bool",
							"name": "",
							"type": "bool"
						}
					],
					"stateMutability": "nonpayable",
					"type": "function"
				},
				{
					"inputs": [
						{
							"internalType": "address",
							"name": "newOwner",
							"type": "address"
						}
					],
					"name": "transferOwnership",
					"outputs": [],
					"stateMutability": "nonpayable",
					"type": "function"
				},
				{
					"inputs": [],
					"name": "uniswapPair",
					"outputs": [
						{
							"internalType": "contract IUniswapV2Pair",
							"name": "",
							"type": "address"
						}
					],
					"stateMutability": "view",
					"type": "function"
				},
				{
					"inputs": [],
					"name": "uniswapRouter",
					"outputs": [
						{
							"internalType": "contract IUniswapV2Router02",
							"name": "",
							"type": "address"
						}
					],
					"stateMutability": "view",
					"type": "function"
				},
				{
					"inputs": [
						{
							"internalType": "address",
							"name": "",
							"type": "address"
						}
					],
					"name": "vestedAmount",
					"outputs": [
						{
							"internalType": "uint256",
							"name": "",
							"type": "uint256"
						}
					],
					"stateMutability": "view",
					"type": "function"
				},
				{
					"inputs": [
						{
							"internalType": "address",
							"name": "",
							"type": "address"
						}
					],
					"name": "vestingStart",
					"outputs": [
						{
							"internalType": "uint256",
							"name": "",
							"type": "uint256"
						}
					],
					"stateMutability": "view",
					"type": "function"
				},
				{
					"inputs": [
						{
							"internalType": "uint256",
							"name": "amount",
							"type": "uint256"
						}
					],
					"name": "withdraw",
					"outputs": [],
					"stateMutability": "nonpayable",
					"type": "function"
				},
				{
					"stateMutability": "payable",
					"type": "receive"
				}
			],
			"devdoc": {
				"errors": {
					"ERC20InsufficientAllowance(address,uint256,uint256)": [
						{
							"details": "Indicates a failure with the `spender`’s `allowance`. Used in transfers.",
							"params": {
								"allowance": "Amount of tokens a `spender` is allowed to operate with.",
								"needed": "Minimum amount required to perform a transfer.",
								"spender": "Address that may be allowed to operate on tokens without being their owner."
							}
						}
					],
					"ERC20InsufficientBalance(address,uint256,uint256)": [
						{
							"details": "Indicates an error related to the current `balance` of a `sender`. Used in transfers.",
							"params": {
								"balance": "Current balance for the interacting account.",
								"needed": "Minimum amount required to perform a transfer.",
								"sender": "Address whose tokens are being transferred."
							}
						}
					],
					"ERC20InvalidApprover(address)": [
						{
							"details": "Indicates a failure with the `approver` of a token to be approved. Used in approvals.",
							"params": {
								"approver": "Address initiating an approval operation."
							}
						}
					],
					"ERC20InvalidReceiver(address)": [
						{
							"details": "Indicates a failure with the token `receiver`. Used in transfers.",
							"params": {
								"receiver": "Address to which tokens are being transferred."
							}
						}
					],
					"ERC20InvalidSender(address)": [
						{
							"details": "Indicates a failure with the token `sender`. Used in transfers.",
							"params": {
								"sender": "Address whose tokens are being transferred."
							}
						}
					],
					"ERC20InvalidSpender(address)": [
						{
							"details": "Indicates a failure with the `spender` to be approved. Used in approvals.",
							"params": {
								"spender": "Address that may be allowed to operate on tokens without being their owner."
							}
						}
					],
					"OwnableInvalidOwner(address)": [
						{
							"details": "The owner is not a valid owner account. (eg. `address(0)`)"
						}
					],
					"OwnableUnauthorizedAccount(address)": [
						{
							"details": "The caller account is not authorized to perform an operation."
						}
					]
				},
				"events": {
					"Approval(address,address,uint256)": {
						"details": "Emitted when the allowance of a `spender` for an `owner` is set by a call to {approve}. `value` is the new allowance."
					},
					"Transfer(address,address,uint256)": {
						"details": "Emitted when `value` tokens are moved from one account (`from`) to another (`to`). Note that `value` may be zero."
					}
				},
				"kind": "dev",
				"methods": {
					"allowance(address,address)": {
						"details": "See {IERC20-allowance}."
					},
					"approve(address,uint256)": {
						"details": "See {IERC20-approve}. NOTE: If `value` is the maximum `uint256`, the allowance is not updated on `transferFrom`. This is semantically equivalent to an infinite approval. Requirements: - `spender` cannot be the zero address."
					},
					"balanceOf(address)": {
						"details": "See {IERC20-balanceOf}."
					},
					"decimals()": {
						"details": "Returns the number of decimals used to get its user representation. For example, if `decimals` equals `2`, a balance of `505` tokens should be displayed to a user as `5.05` (`505 / 10 ** 2`). Tokens usually opt for a value of 18, imitating the relationship between Ether and Wei. This is the default value returned by this function, unless it's overridden. NOTE: This information is only used for _display_ purposes: it in no way affects any of the arithmetic of the contract, including {IERC20-balanceOf} and {IERC20-transfer}."
					},
					"name()": {
						"details": "Returns the name of the token."
					},
					"owner()": {
						"details": "Returns the address of the current owner."
					},
					"renounceOwnership()": {
						"details": "Leaves the contract without owner. It will not be possible to call `onlyOwner` functions. Can only be called by the current owner. NOTE: Renouncing ownership will leave the contract without an owner, thereby disabling any functionality that is only available to the owner."
					},
					"symbol()": {
						"details": "Returns the symbol of the token, usually a shorter version of the name."
					},
					"totalSupply()": {
						"details": "See {IERC20-totalSupply}."
					},
					"transfer(address,uint256)": {
						"details": "See {IERC20-transfer}. Requirements: - `to` cannot be the zero address. - the caller must have a balance of at least `value`."
					},
					"transferFrom(address,address,uint256)": {
						"details": "See {IERC20-transferFrom}. Emits an {Approval} event indicating the updated allowance. This is not required by the EIP. See the note at the beginning of {ERC20}. NOTE: Does not update the allowance if the current allowance is the maximum `uint256`. Requirements: - `from` and `to` cannot be the zero address. - `from` must have a balance of at least `value`. - the caller must have allowance for ``from``'s tokens of at least `value`."
					},
					"transferOwnership(address)": {
						"details": "Transfers ownership of the contract to a new account (`newOwner`). Can only be called by the current owner."
					}
				},
				"version": 1
			},
			"evm": {
				"assembly": "    /* \"octo_flattened.sol\":38890:49054  contract OCTO is ERC20, ReentrancyGuard, Ownable {... */\n  mstore(0x40, 0x80)\n    /* \"octo_flattened.sol\":39209:39210  4 */\n  0x04\n    /* \"octo_flattened.sol\":39184:39210  uint256 public taxRate = 4 */\n  0x0a\n  sstore\n    /* \"octo_flattened.sol\":39666:39675  10 * 1e18 */\n  0x8ac7230489e80000\n    /* \"octo_flattened.sol\":39629:39675  uint256 public liquidityMiningRate = 10 * 1e18 */\n  0x13\n  sstore\n    /* \"octo_flattened.sol\":40296:40867  constructor(address router, address _developmentWallet) ERC20(\"OCTO Labs\", \"OCTO\") Ownable(msg.sender) {... */\n  callvalue\n  dup1\n  iszero\n  tag_1\n  jumpi\n  0x00\n  dup1\n  revert\ntag_1:\n  pop\n  mload(0x40)\n  sub(codesize, bytecodeSize)\n  dup1\n  bytecodeSize\n  dup4\n  codecopy\n  dup2\n  dup2\n  add\n  0x40\n  mstore\n  dup2\n  add\n  swap1\n  tag_2\n  swap2\n  swap1\n  tag_3\n  jump\t// in\ntag_2:\n    /* \"octo_flattened.sol\":40387:40397  msg.sender */\n  caller\n    /* \"octo_flattened.sol\":28384:28497  constructor(string memory name_, string memory symbol_) {... */\n  mload(0x40)\n  dup1\n  0x40\n  add\n  0x40\n  mstore\n  dup1\n  0x09\n  dup2\n  mstore\n  0x20\n  add\n  0x4f43544f204c6162730000000000000000000000000000000000000000000000\n  dup2\n  mstore\n  pop\n  mload(0x40)\n  dup1\n  0x40\n  add\n  0x40\n  mstore\n  dup1\n  0x04\n  dup2\n  mstore\n  0x20\n  add\n  0x4f43544f00000000000000000000000000000000000000000000000000000000\n  dup2\n  mstore\n  pop\n    /* \"octo_flattened.sol\":28458:28463  name_ */\n  dup2\n    /* \"octo_flattened.sol\":28450:28455  _name */\n  0x03\n    /* \"octo_flattened.sol\":28450:28463  _name = name_ */\n  swap1\n  dup2\n  tag_9\n  swap2\n  swap1\n  tag_10\n  jump\t// in\ntag_9:\n  pop\n    /* \"octo_flattened.sol\":28483:28490  symbol_ */\n  dup1\n    /* \"octo_flattened.sol\":28473:28480  _symbol */\n  0x04\n    /* \"octo_flattened.sol\":28473:28490  _symbol = symbol_ */\n  swap1\n  dup2\n  tag_11\n  swap2\n  swap1\n  tag_10\n  jump\t// in\ntag_11:\n  pop\n    /* \"octo_flattened.sol\":28384:28497  constructor(string memory name_, string memory symbol_) {... */\n  pop\n  pop\n    /* \"octo_flattened.sol\":11138:11139  1 */\n  0x01\n    /* \"octo_flattened.sol\":11243:11250  _status */\n  0x05\n    /* \"octo_flattened.sol\":11243:11265  _status = _NOT_ENTERED */\n  dup2\n  swap1\n  sstore\n  pop\n    /* \"octo_flattened.sol\":21373:21374  0 */\n  0x00\n    /* \"octo_flattened.sol\":21349:21375  initialOwner == address(0) */\n  0xffffffffffffffffffffffffffffffffffffffff\n  and\n    /* \"octo_flattened.sol\":21349:21361  initialOwner */\n  dup2\n    /* \"octo_flattened.sol\":21349:21375  initialOwner == address(0) */\n  0xffffffffffffffffffffffffffffffffffffffff\n  and\n  sub\n    /* \"octo_flattened.sol\":21345:21440  if (initialOwner == address(0)) {... */\n  tag_14\n  jumpi\n    /* \"octo_flattened.sol\":21426:21427  0 */\n  0x00\n    /* \"octo_flattened.sol\":21398:21429  OwnableInvalidOwner(address(0)) */\n  mload(0x40)\n  0x1e4fbdf700000000000000000000000000000000000000000000000000000000\n  dup2\n  mstore\n  0x04\n  add\n  tag_15\n  swap2\n  swap1\n  tag_16\n  jump\t// in\ntag_15:\n  mload(0x40)\n  dup1\n  swap2\n  sub\n  swap1\n  revert\n    /* \"octo_flattened.sol\":21345:21440  if (initialOwner == address(0)) {... */\ntag_14:\n    /* \"octo_flattened.sol\":21449:21481  _transferOwnership(initialOwner) */\n  tag_17\n    /* \"octo_flattened.sol\":21468:21480  initialOwner */\n  dup2\n    /* \"octo_flattened.sol\":21449:21467  _transferOwnership */\n  shl(0x20, tag_18)\n    /* \"octo_flattened.sol\":21449:21481  _transferOwnership(initialOwner) */\n  0x20\n  shr\n  jump\t// in\ntag_17:\n    /* \"octo_flattened.sol\":21301:21488  constructor(address initialOwner) {... */\n  pop\n    /* \"octo_flattened.sol\":40429:40447  _developmentWallet */\n  dup1\n    /* \"octo_flattened.sol\":40409:40426  developmentWallet */\n  0x09\n  0x00\n    /* \"octo_flattened.sol\":40409:40447  developmentWallet = _developmentWallet */\n  0x0100\n  exp\n  dup2\n  sload\n  dup2\n  0xffffffffffffffffffffffffffffffffffffffff\n  mul\n  not\n  and\n  swap1\n  dup4\n  0xffffffffffffffffffffffffffffffffffffffff\n  and\n  mul\n  or\n  swap1\n  sstore\n  pop\n    /* \"octo_flattened.sol\":40492:40498  router */\n  dup2\n    /* \"octo_flattened.sol\":40457:40470  uniswapRouter */\n  0x07\n  0x00\n    /* \"octo_flattened.sol\":40457:40499  uniswapRouter = IUniswapV2Router02(router) */\n  0x0100\n  exp\n  dup2\n  sload\n  dup2\n  0xffffffffffffffffffffffffffffffffffffffff\n  mul\n  not\n  and\n  swap1\n  dup4\n  0xffffffffffffffffffffffffffffffffffffffff\n  and\n  mul\n  or\n  swap1\n  sstore\n  pop\n    /* \"octo_flattened.sol\":40510:40529  uint256 totalSupply */\n  0x00\n    /* \"octo_flattened.sol\":40532:40548  1_000_000 * 1e18 */\n  0xd3c21bcecceda1000000\n    /* \"octo_flattened.sol\":40510:40548  uint256 totalSupply = 1_000_000 * 1e18 */\n  swap1\n  pop\n    /* \"octo_flattened.sol\":40559:40582  uint256 devWalletSupply */\n  0x00\n    /* \"octo_flattened.sol\":40599:40600  5 */\n  0x05\n    /* \"octo_flattened.sol\":40585:40596  totalSupply */\n  dup3\n    /* \"octo_flattened.sol\":40585:40600  totalSupply / 5 */\n  tag_20\n  swap2\n  swap1\n  tag_21\n  jump\t// in\ntag_20:\n    /* \"octo_flattened.sol\":40559:40600  uint256 devWalletSupply = totalSupply / 5 */\n  swap1\n  pop\n    /* \"octo_flattened.sol\":40611:40630  uint256 ownerSupply */\n  0x00\n    /* \"octo_flattened.sol\":40647:40662  devWalletSupply */\n  dup2\n    /* \"octo_flattened.sol\":40633:40644  totalSupply */\n  dup4\n    /* \"octo_flattened.sol\":40633:40662  totalSupply - devWalletSupply */\n  tag_22\n  swap2\n  swap1\n  tag_23\n  jump\t// in\ntag_22:\n    /* \"octo_flattened.sol\":40611:40662  uint256 ownerSupply = totalSupply - devWalletSupply */\n  swap1\n  pop\n    /* \"octo_flattened.sol\":40673:40710  _mint(address(this), devWalletSupply) */\n  tag_24\n    /* \"octo_flattened.sol\":40687:40691  this */\n  address\n    /* \"octo_flattened.sol\":40694:40709  devWalletSupply */\n  dup4\n    /* \"octo_flattened.sol\":40673:40678  _mint */\n  shl(0x20, tag_25)\n    /* \"octo_flattened.sol\":40673:40710  _mint(address(this), devWalletSupply) */\n  0x20\n  shr\n  jump\t// in\ntag_24:\n    /* \"octo_flattened.sol\":40720:40750  _mint(msg.sender, ownerSupply) */\n  tag_26\n    /* \"octo_flattened.sol\":40726:40736  msg.sender */\n  caller\n    /* \"octo_flattened.sol\":40738:40749  ownerSupply */\n  dup3\n    /* \"octo_flattened.sol\":40720:40725  _mint */\n  shl(0x20, tag_25)\n    /* \"octo_flattened.sol\":40720:40750  _mint(msg.sender, ownerSupply) */\n  0x20\n  shr\n  jump\t// in\ntag_26:\n    /* \"octo_flattened.sol\":40761:40835  _vestTokens(developmentWallet, devWalletSupply, block.timestamp, 365 days) */\n  tag_27\n    /* \"octo_flattened.sol\":40773:40790  developmentWallet */\n  0x09\n  0x00\n  swap1\n  sload\n  swap1\n  0x0100\n  exp\n  swap1\n  div\n  0xffffffffffffffffffffffffffffffffffffffff\n  and\n    /* \"octo_flattened.sol\":40792:40807  devWalletSupply */\n  dup4\n    /* \"octo_flattened.sol\":40809:40824  block.timestamp */\n  timestamp\n    /* \"octo_flattened.sol\":40826:40834  365 days */\n  0x01e13380\n    /* \"octo_flattened.sol\":40761:40772  _vestTokens */\n  shl(0x20, tag_28)\n    /* \"octo_flattened.sol\":40761:40835  _vestTokens(developmentWallet, devWalletSupply, block.timestamp, 365 days) */\n  0x20\n  shr\n  jump\t// in\ntag_27:\n    /* \"octo_flattened.sol\":40399:40867  {... */\n  pop\n  pop\n  pop\n    /* \"octo_flattened.sol\":40296:40867  constructor(address router, address _developmentWallet) ERC20(\"OCTO Labs\", \"OCTO\") Ownable(msg.sender) {... */\n  pop\n  pop\n    /* \"octo_flattened.sol\":38890:49054  contract OCTO is ERC20, ReentrancyGuard, Ownable {... */\n  jump(tag_29)\n    /* \"octo_flattened.sol\":22988:23175  function _transferOwnership(address newOwner) internal virtual {... */\ntag_18:\n    /* \"octo_flattened.sol\":23061:23077  address oldOwner */\n  0x00\n    /* \"octo_flattened.sol\":23080:23086  _owner */\n  0x06\n  0x00\n  swap1\n  sload\n  swap1\n  0x0100\n  exp\n  swap1\n  div\n  0xffffffffffffffffffffffffffffffffffffffff\n  and\n    /* \"octo_flattened.sol\":23061:23086  address oldOwner = _owner */\n  swap1\n  pop\n    /* \"octo_flattened.sol\":23105:23113  newOwner */\n  dup2\n    /* \"octo_flattened.sol\":23096:23102  _owner */\n  0x06\n  0x00\n    /* \"octo_flattened.sol\":23096:23113  _owner = newOwner */\n  0x0100\n  exp\n  dup2\n  sload\n  dup2\n  0xffffffffffffffffffffffffffffffffffffffff\n  mul\n  not\n  and\n  swap1\n  dup4\n  0xffffffffffffffffffffffffffffffffffffffff\n  and\n  mul\n  or\n  swap1\n  sstore\n  pop\n    /* \"octo_flattened.sol\":23159:23167  newOwner */\n  dup2\n    /* \"octo_flattened.sol\":23128:23168  OwnershipTransferred(oldOwner, newOwner) */\n  0xffffffffffffffffffffffffffffffffffffffff\n  and\n    /* \"octo_flattened.sol\":23149:23157  oldOwner */\n  dup2\n    /* \"octo_flattened.sol\":23128:23168  OwnershipTransferred(oldOwner, newOwner) */\n  0xffffffffffffffffffffffffffffffffffffffff\n  and\n  0x8be0079c531659141344cd1fd0a4f28419497f9722a3daafe3b4186f6b6457e0\n  mload(0x40)\n  mload(0x40)\n  dup1\n  swap2\n  sub\n  swap1\n  log3\n    /* \"octo_flattened.sol\":23051:23175  {... */\n  pop\n    /* \"octo_flattened.sol\":22988:23175  function _transferOwnership(address newOwner) internal virtual {... */\n  pop\n  jump\t// out\n    /* \"octo_flattened.sol\":34216:34424  function _mint(address account, uint256 value) internal {... */\ntag_25:\n    /* \"octo_flattened.sol\":34305:34306  0 */\n  0x00\n    /* \"octo_flattened.sol\":34286:34307  account == address(0) */\n  0xffffffffffffffffffffffffffffffffffffffff\n  and\n    /* \"octo_flattened.sol\":34286:34293  account */\n  dup3\n    /* \"octo_flattened.sol\":34286:34307  account == address(0) */\n  0xffffffffffffffffffffffffffffffffffffffff\n  and\n  sub\n    /* \"octo_flattened.sol\":34282:34373  if (account == address(0)) {... */\n  tag_32\n  jumpi\n    /* \"octo_flattened.sol\":34359:34360  0 */\n  0x00\n    /* \"octo_flattened.sol\":34330:34362  ERC20InvalidReceiver(address(0)) */\n  mload(0x40)\n  0xec442f0500000000000000000000000000000000000000000000000000000000\n  dup2\n  mstore\n  0x04\n  add\n  tag_33\n  swap2\n  swap1\n  tag_16\n  jump\t// in\ntag_33:\n  mload(0x40)\n  dup1\n  swap2\n  sub\n  swap1\n  revert\n    /* \"octo_flattened.sol\":34282:34373  if (account == address(0)) {... */\ntag_32:\n    /* \"octo_flattened.sol\":34382:34417  _update(address(0), account, value) */\n  tag_34\n    /* \"octo_flattened.sol\":34398:34399  0 */\n  0x00\n    /* \"octo_flattened.sol\":34402:34409  account */\n  dup4\n    /* \"octo_flattened.sol\":34411:34416  value */\n  dup4\n    /* \"octo_flattened.sol\":34382:34389  _update */\n  shl(0x20, tag_35)\n    /* \"octo_flattened.sol\":34382:34417  _update(address(0), account, value) */\n  0x20\n  shr\n  jump\t// in\ntag_34:\n    /* \"octo_flattened.sol\":34216:34424  function _mint(address account, uint256 value) internal {... */\n  pop\n  pop\n  jump\t// out\n    /* \"octo_flattened.sol\":44952:45402  function _vestTokens(address beneficiary, uint256 amount, uint256 start, uint256 duration) internal {... */\ntag_28:\n    /* \"octo_flattened.sol\":45093:45094  0 */\n  0x00\n    /* \"octo_flattened.sol\":45070:45095  beneficiary != address(0) */\n  0xffffffffffffffffffffffffffffffffffffffff\n  and\n    /* \"octo_flattened.sol\":45070:45081  beneficiary */\n  dup5\n    /* \"octo_flattened.sol\":45070:45095  beneficiary != address(0) */\n  0xffffffffffffffffffffffffffffffffffffffff\n  and\n  sub\n    /* \"octo_flattened.sol\":45062:45127  require(beneficiary != address(0), \"Beneficiary is zero address\") */\n  tag_37\n  jumpi\n  mload(0x40)\n  0x08c379a000000000000000000000000000000000000000000000000000000000\n  dup2\n  mstore\n  0x04\n  add\n  tag_38\n  swap1\n  tag_39\n  jump\t// in\ntag_38:\n  mload(0x40)\n  dup1\n  swap2\n  sub\n  swap1\n  revert\ntag_37:\n    /* \"octo_flattened.sol\":45154:45155  0 */\n  0x00\n    /* \"octo_flattened.sol\":45145:45151  amount */\n  dup4\n    /* \"octo_flattened.sol\":45145:45155  amount > 0 */\n  gt\n    /* \"octo_flattened.sol\":45137:45174  require(amount > 0, \"Amount is zero\") */\n  tag_40\n  jumpi\n  mload(0x40)\n  0x08c379a000000000000000000000000000000000000000000000000000000000\n  dup2\n  mstore\n  0x04\n  add\n  tag_41\n  swap1\n  tag_42\n  jump\t// in\ntag_41:\n  mload(0x40)\n  dup1\n  swap2\n  sub\n  swap1\n  revert\ntag_40:\n    /* \"octo_flattened.sol\":45221:45222  0 */\n  0x00\n    /* \"octo_flattened.sol\":45192:45204  vestingStart */\n  0x0e\n    /* \"octo_flattened.sol\":45192:45217  vestingStart[beneficiary] */\n  0x00\n    /* \"octo_flattened.sol\":45205:45216  beneficiary */\n  dup7\n    /* \"octo_flattened.sol\":45192:45217  vestingStart[beneficiary] */\n  0xffffffffffffffffffffffffffffffffffffffff\n  and\n  0xffffffffffffffffffffffffffffffffffffffff\n  and\n  dup2\n  mstore\n  0x20\n  add\n  swap1\n  dup2\n  mstore\n  0x20\n  add\n  0x00\n  keccak256\n  sload\n    /* \"octo_flattened.sol\":45192:45222  vestingStart[beneficiary] == 0 */\n  eq\n    /* \"octo_flattened.sol\":45184:45241  require(vestingStart[beneficiary] == 0, \"Already vested\") */\n  tag_43\n  jumpi\n  mload(0x40)\n  0x08c379a000000000000000000000000000000000000000000000000000000000\n  dup2\n  mstore\n  0x04\n  add\n  tag_44\n  swap1\n  tag_45\n  jump\t// in\ntag_44:\n  mload(0x40)\n  dup1\n  swap2\n  sub\n  swap1\n  revert\ntag_43:\n    /* \"octo_flattened.sol\":45280:45286  amount */\n  dup3\n    /* \"octo_flattened.sol\":45252:45264  vestedAmount */\n  0x0f\n    /* \"octo_flattened.sol\":45252:45277  vestedAmount[beneficiary] */\n  0x00\n    /* \"octo_flattened.sol\":45265:45276  beneficiary */\n  dup7\n    /* \"octo_flattened.sol\":45252:45277  vestedAmount[beneficiary] */\n  0xffffffffffffffffffffffffffffffffffffffff\n  and\n  0xffffffffffffffffffffffffffffffffffffffff\n  and\n  dup2\n  mstore\n  0x20\n  add\n  swap1\n  dup2\n  mstore\n  0x20\n  add\n  0x00\n  keccak256\n    /* \"octo_flattened.sol\":45252:45286  vestedAmount[beneficiary] = amount */\n  dup2\n  swap1\n  sstore\n  pop\n    /* \"octo_flattened.sol\":45324:45329  start */\n  dup2\n    /* \"octo_flattened.sol\":45296:45308  vestingStart */\n  0x0e\n    /* \"octo_flattened.sol\":45296:45321  vestingStart[beneficiary] */\n  0x00\n    /* \"octo_flattened.sol\":45309:45320  beneficiary */\n  dup7\n    /* \"octo_flattened.sol\":45296:45321  vestingStart[beneficiary] */\n  0xffffffffffffffffffffffffffffffffffffffff\n  and\n  0xffffffffffffffffffffffffffffffffffffffff\n  and\n  dup2\n  mstore\n  0x20\n  add\n  swap1\n  dup2\n  mstore\n  0x20\n  add\n  0x00\n  keccak256\n    /* \"octo_flattened.sol\":45296:45329  vestingStart[beneficiary] = start */\n  dup2\n  swap1\n  sstore\n  pop\n    /* \"octo_flattened.sol\":45358:45369  beneficiary */\n  dup4\n    /* \"octo_flattened.sol\":45345:45395  TokensVested(beneficiary, amount, start, duration) */\n  0xffffffffffffffffffffffffffffffffffffffff\n  and\n  0xcf204ce1b55772bfa423f3f0c5d9a2cfe3197a5110073875f0b9c7dd3538c7d6\n    /* \"octo_flattened.sol\":45371:45377  amount */\n  dup5\n    /* \"octo_flattened.sol\":45379:45384  start */\n  dup5\n    /* \"octo_flattened.sol\":45386:45394  duration */\n  dup5\n    /* \"octo_flattened.sol\":45345:45395  TokensVested(beneficiary, amount, start, duration) */\n  mload(0x40)\n  tag_46\n  swap4\n  swap3\n  swap2\n  swap1\n  tag_47\n  jump\t// in\ntag_46:\n  mload(0x40)\n  dup1\n  swap2\n  sub\n  swap1\n  log2\n    /* \"octo_flattened.sol\":44952:45402  function _vestTokens(address beneficiary, uint256 amount, uint256 start, uint256 duration) internal {... */\n  pop\n  pop\n  pop\n  pop\n  jump\t// out\n    /* \"octo_flattened.sol\":32766:33873  function _update(address from, address to, uint256 value) internal virtual {... */\ntag_35:\n    /* \"octo_flattened.sol\":32871:32872  0 */\n  0x00\n    /* \"octo_flattened.sol\":32855:32873  from == address(0) */\n  0xffffffffffffffffffffffffffffffffffffffff\n  and\n    /* \"octo_flattened.sol\":32855:32859  from */\n  dup4\n    /* \"octo_flattened.sol\":32855:32873  from == address(0) */\n  0xffffffffffffffffffffffffffffffffffffffff\n  and\n  sub\n    /* \"octo_flattened.sol\":32851:33391  if (from == address(0)) {... */\n  tag_49\n  jumpi\n    /* \"octo_flattened.sol\":33007:33012  value */\n  dup1\n    /* \"octo_flattened.sol\":32991:33003  _totalSupply */\n  0x02\n  0x00\n    /* \"octo_flattened.sol\":32991:33012  _totalSupply += value */\n  dup3\n  dup3\n  sload\n  tag_50\n  swap2\n  swap1\n  tag_51\n  jump\t// in\ntag_50:\n  swap3\n  pop\n  pop\n  dup2\n  swap1\n  sstore\n  pop\n    /* \"octo_flattened.sol\":32851:33391  if (from == address(0)) {... */\n  jump(tag_52)\ntag_49:\n    /* \"octo_flattened.sol\":33043:33062  uint256 fromBalance */\n  0x00\n    /* \"octo_flattened.sol\":33065:33074  _balances */\n  dup1\n    /* \"octo_flattened.sol\":33065:33080  _balances[from] */\n  0x00\n    /* \"octo_flattened.sol\":33075:33079  from */\n  dup6\n    /* \"octo_flattened.sol\":33065:33080  _balances[from] */\n  0xffffffffffffffffffffffffffffffffffffffff\n  and\n  0xffffffffffffffffffffffffffffffffffffffff\n  and\n  dup2\n  mstore\n  0x20\n  add\n  swap1\n  dup2\n  mstore\n  0x20\n  add\n  0x00\n  keccak256\n  sload\n    /* \"octo_flattened.sol\":33043:33080  uint256 fromBalance = _balances[from] */\n  swap1\n  pop\n    /* \"octo_flattened.sol\":33112:33117  value */\n  dup2\n    /* \"octo_flattened.sol\":33098:33109  fromBalance */\n  dup2\n    /* \"octo_flattened.sol\":33098:33117  fromBalance < value */\n  lt\n    /* \"octo_flattened.sol\":33094:33209  if (fromBalance < value) {... */\n  iszero\n  tag_53\n  jumpi\n    /* \"octo_flattened.sol\":33169:33173  from */\n  dup4\n    /* \"octo_flattened.sol\":33175:33186  fromBalance */\n  dup2\n    /* \"octo_flattened.sol\":33188:33193  value */\n  dup4\n    /* \"octo_flattened.sol\":33144:33194  ERC20InsufficientBalance(from, fromBalance, value) */\n  mload(0x40)\n  0xe450d38c00000000000000000000000000000000000000000000000000000000\n  dup2\n  mstore\n  0x04\n  add\n  tag_54\n  swap4\n  swap3\n  swap2\n  swap1\n  tag_55\n  jump\t// in\ntag_54:\n  mload(0x40)\n  dup1\n  swap2\n  sub\n  swap1\n  revert\n    /* \"octo_flattened.sol\":33094:33209  if (fromBalance < value) {... */\ntag_53:\n    /* \"octo_flattened.sol\":33361:33366  value */\n  dup2\n    /* \"octo_flattened.sol\":33347:33358  fromBalance */\n  dup2\n    /* \"octo_flattened.sol\":33347:33366  fromBalance - value */\n  sub\n    /* \"octo_flattened.sol\":33329:33338  _balances */\n  0x00\n    /* \"octo_flattened.sol\":33329:33344  _balances[from] */\n  dup1\n    /* \"octo_flattened.sol\":33339:33343  from */\n  dup7\n    /* \"octo_flattened.sol\":33329:33344  _balances[from] */\n  0xffffffffffffffffffffffffffffffffffffffff\n  and\n  0xffffffffffffffffffffffffffffffffffffffff\n  and\n  dup2\n  mstore\n  0x20\n  add\n  swap1\n  dup2\n  mstore\n  0x20\n  add\n  0x00\n  keccak256\n    /* \"octo_flattened.sol\":33329:33366  _balances[from] = fromBalance - value */\n  dup2\n  swap1\n  sstore\n  pop\n    /* \"octo_flattened.sol\":33029:33391  {... */\n  pop\n    /* \"octo_flattened.sol\":32851:33391  if (from == address(0)) {... */\ntag_52:\n    /* \"octo_flattened.sol\":33419:33420  0 */\n  0x00\n    /* \"octo_flattened.sol\":33405:33421  to == address(0) */\n  0xffffffffffffffffffffffffffffffffffffffff\n  and\n    /* \"octo_flattened.sol\":33405:33407  to */\n  dup3\n    /* \"octo_flattened.sol\":33405:33421  to == address(0) */\n  0xffffffffffffffffffffffffffffffffffffffff\n  and\n  sub\n    /* \"octo_flattened.sol\":33401:33826  if (to == address(0)) {... */\n  tag_56\n  jumpi\n    /* \"octo_flattened.sol\":33584:33589  value */\n  dup1\n    /* \"octo_flattened.sol\":33568:33580  _totalSupply */\n  0x02\n  0x00\n    /* \"octo_flattened.sol\":33568:33589  _totalSupply -= value */\n  dup3\n  dup3\n  sload\n  sub\n  swap3\n  pop\n  pop\n  dup2\n  swap1\n  sstore\n  pop\n    /* \"octo_flattened.sol\":33401:33826  if (to == address(0)) {... */\n  jump(tag_57)\ntag_56:\n    /* \"octo_flattened.sol\":33796:33801  value */\n  dup1\n    /* \"octo_flattened.sol\":33779:33788  _balances */\n  0x00\n    /* \"octo_flattened.sol\":33779:33792  _balances[to] */\n  dup1\n    /* \"octo_flattened.sol\":33789:33791  to */\n  dup5\n    /* \"octo_flattened.sol\":33779:33792  _balances[to] */\n  0xffffffffffffffffffffffffffffffffffffffff\n  and\n  0xffffffffffffffffffffffffffffffffffffffff\n  and\n  dup2\n  mstore\n  0x20\n  add\n  swap1\n  dup2\n  mstore\n  0x20\n  add\n  0x00\n  keccak256\n  0x00\n    /* \"octo_flattened.sol\":33779:33801  _balances[to] += value */\n  dup3\n  dup3\n  sload\n  add\n  swap3\n  pop\n  pop\n  dup2\n  swap1\n  sstore\n  pop\n    /* \"octo_flattened.sol\":33401:33826  if (to == address(0)) {... */\ntag_57:\n    /* \"octo_flattened.sol\":33856:33858  to */\n  dup2\n    /* \"octo_flattened.sol\":33841:33866  Transfer(from, to, value) */\n  0xffffffffffffffffffffffffffffffffffffffff\n  and\n    /* \"octo_flattened.sol\":33850:33854  from */\n  dup4\n    /* \"octo_flattened.sol\":33841:33866  Transfer(from, to, value) */\n  0xffffffffffffffffffffffffffffffffffffffff\n  and\n  0xddf252ad1be2c89b69c2b068fc378daa952ba7f163c4a11628f55a4df523b3ef\n    /* \"octo_flattened.sol\":33860:33865  value */\n  dup4\n    /* \"octo_flattened.sol\":33841:33866  Transfer(from, to, value) */\n  mload(0x40)\n  tag_58\n  swap2\n  swap1\n  tag_59\n  jump\t// in\ntag_58:\n  mload(0x40)\n  dup1\n  swap2\n  sub\n  swap1\n  log3\n    /* \"octo_flattened.sol\":32766:33873  function _update(address from, address to, uint256 value) internal virtual {... */\n  pop\n  pop\n  pop\n  jump\t// out\n    /* \"#utility.yul\":88:205   */\ntag_61:\n    /* \"#utility.yul\":197:198   */\n  0x00\n    /* \"#utility.yul\":194:195   */\n  dup1\n    /* \"#utility.yul\":187:199   */\n  revert\n    /* \"#utility.yul\":334:460   */\ntag_63:\n    /* \"#utility.yul\":371:378   */\n  0x00\n    /* \"#utility.yul\":411:453   */\n  0xffffffffffffffffffffffffffffffffffffffff\n    /* \"#utility.yul\":404:409   */\n  dup3\n    /* \"#utility.yul\":400:454   */\n  and\n    /* \"#utility.yul\":389:454   */\n  swap1\n  pop\n    /* \"#utility.yul\":334:460   */\n  swap2\n  swap1\n  pop\n  jump\t// out\n    /* \"#utility.yul\":466:562   */\ntag_64:\n    /* \"#utility.yul\":503:510   */\n  0x00\n    /* \"#utility.yul\":532:556   */\n  tag_104\n    /* \"#utility.yul\":550:555   */\n  dup3\n    /* \"#utility.yul\":532:556   */\n  tag_63\n  jump\t// in\ntag_104:\n    /* \"#utility.yul\":521:556   */\n  swap1\n  pop\n    /* \"#utility.yul\":466:562   */\n  swap2\n  swap1\n  pop\n  jump\t// out\n    /* \"#utility.yul\":568:690   */\ntag_65:\n    /* \"#utility.yul\":641:665   */\n  tag_106\n    /* \"#utility.yul\":659:664   */\n  dup2\n    /* \"#utility.yul\":641:665   */\n  tag_64\n  jump\t// in\ntag_106:\n    /* \"#utility.yul\":634:639   */\n  dup2\n    /* \"#utility.yul\":631:666   */\n  eq\n    /* \"#utility.yul\":621:684   */\n  tag_107\n  jumpi\n    /* \"#utility.yul\":680:681   */\n  0x00\n    /* \"#utility.yul\":677:678   */\n  dup1\n    /* \"#utility.yul\":670:682   */\n  revert\n    /* \"#utility.yul\":621:684   */\ntag_107:\n    /* \"#utility.yul\":568:690   */\n  pop\n  jump\t// out\n    /* \"#utility.yul\":696:839   */\ntag_66:\n    /* \"#utility.yul\":753:758   */\n  0x00\n    /* \"#utility.yul\":784:790   */\n  dup2\n    /* \"#utility.yul\":778:791   */\n  mload\n    /* \"#utility.yul\":769:791   */\n  swap1\n  pop\n    /* \"#utility.yul\":800:833   */\n  tag_109\n    /* \"#utility.yul\":827:832   */\n  dup2\n    /* \"#utility.yul\":800:833   */\n  tag_65\n  jump\t// in\ntag_109:\n    /* \"#utility.yul\":696:839   */\n  swap3\n  swap2\n  pop\n  pop\n  jump\t// out\n    /* \"#utility.yul\":845:1352   */\ntag_3:\n    /* \"#utility.yul\":924:930   */\n  0x00\n    /* \"#utility.yul\":932:938   */\n  dup1\n    /* \"#utility.yul\":981:983   */\n  0x40\n    /* \"#utility.yul\":969:978   */\n  dup4\n    /* \"#utility.yul\":960:967   */\n  dup6\n    /* \"#utility.yul\":956:979   */\n  sub\n    /* \"#utility.yul\":952:984   */\n  slt\n    /* \"#utility.yul\":949:1068   */\n  iszero\n  tag_111\n  jumpi\n    /* \"#utility.yul\":987:1066   */\n  tag_112\n  tag_61\n  jump\t// in\ntag_112:\n    /* \"#utility.yul\":949:1068   */\ntag_111:\n    /* \"#utility.yul\":1107:1108   */\n  0x00\n    /* \"#utility.yul\":1132:1196   */\n  tag_113\n    /* \"#utility.yul\":1188:1195   */\n  dup6\n    /* \"#utility.yul\":1179:1185   */\n  dup3\n    /* \"#utility.yul\":1168:1177   */\n  dup7\n    /* \"#utility.yul\":1164:1186   */\n  add\n    /* \"#utility.yul\":1132:1196   */\n  tag_66\n  jump\t// in\ntag_113:\n    /* \"#utility.yul\":1122:1196   */\n  swap3\n  pop\n    /* \"#utility.yul\":1078:1206   */\n  pop\n    /* \"#utility.yul\":1245:1247   */\n  0x20\n    /* \"#utility.yul\":1271:1335   */\n  tag_114\n    /* \"#utility.yul\":1327:1334   */\n  dup6\n    /* \"#utility.yul\":1318:1324   */\n  dup3\n    /* \"#utility.yul\":1307:1316   */\n  dup7\n    /* \"#utility.yul\":1303:1325   */\n  add\n    /* \"#utility.yul\":1271:1335   */\n  tag_66\n  jump\t// in\ntag_114:\n    /* \"#utility.yul\":1261:1335   */\n  swap2\n  pop\n    /* \"#utility.yul\":1216:1345   */\n  pop\n    /* \"#utility.yul\":845:1352   */\n  swap3\n  pop\n  swap3\n  swap1\n  pop\n  jump\t// out\n    /* \"#utility.yul\":1358:1457   */\ntag_67:\n    /* \"#utility.yul\":1410:1416   */\n  0x00\n    /* \"#utility.yul\":1444:1449   */\n  dup2\n    /* \"#utility.yul\":1438:1450   */\n  mload\n    /* \"#utility.yul\":1428:1450   */\n  swap1\n  pop\n    /* \"#utility.yul\":1358:1457   */\n  swap2\n  swap1\n  pop\n  jump\t// out\n    /* \"#utility.yul\":1463:1643   */\ntag_68:\n    /* \"#utility.yul\":1511:1588   */\n  0x4e487b7100000000000000000000000000000000000000000000000000000000\n    /* \"#utility.yul\":1508:1509   */\n  0x00\n    /* \"#utility.yul\":1501:1589   */\n  mstore\n    /* \"#utility.yul\":1608:1612   */\n  0x41\n    /* \"#utility.yul\":1605:1606   */\n  0x04\n    /* \"#utility.yul\":1598:1613   */\n  mstore\n    /* \"#utility.yul\":1632:1636   */\n  0x24\n    /* \"#utility.yul\":1629:1630   */\n  0x00\n    /* \"#utility.yul\":1622:1637   */\n  revert\n    /* \"#utility.yul\":1649:1829   */\ntag_69:\n    /* \"#utility.yul\":1697:1774   */\n  0x4e487b7100000000000000000000000000000000000000000000000000000000\n    /* \"#utility.yul\":1694:1695   */\n  0x00\n    /* \"#utility.yul\":1687:1775   */\n  mstore\n    /* \"#utility.yul\":1794:1798   */\n  0x22\n    /* \"#utility.yul\":1791:1792   */\n  0x04\n    /* \"#utility.yul\":1784:1799   */\n  mstore\n    /* \"#utility.yul\":1818:1822   */\n  0x24\n    /* \"#utility.yul\":1815:1816   */\n  0x00\n    /* \"#utility.yul\":1808:1823   */\n  revert\n    /* \"#utility.yul\":1835:2155   */\ntag_70:\n    /* \"#utility.yul\":1879:1885   */\n  0x00\n    /* \"#utility.yul\":1916:1917   */\n  0x02\n    /* \"#utility.yul\":1910:1914   */\n  dup3\n    /* \"#utility.yul\":1906:1918   */\n  div\n    /* \"#utility.yul\":1896:1918   */\n  swap1\n  pop\n    /* \"#utility.yul\":1963:1964   */\n  0x01\n    /* \"#utility.yul\":1957:1961   */\n  dup3\n    /* \"#utility.yul\":1953:1965   */\n  and\n    /* \"#utility.yul\":1984:2002   */\n  dup1\n    /* \"#utility.yul\":1974:2055   */\n  tag_119\n  jumpi\n    /* \"#utility.yul\":2040:2044   */\n  0x7f\n    /* \"#utility.yul\":2032:2038   */\n  dup3\n    /* \"#utility.yul\":2028:2045   */\n  and\n    /* \"#utility.yul\":2018:2045   */\n  swap2\n  pop\n    /* \"#utility.yul\":1974:2055   */\ntag_119:\n    /* \"#utility.yul\":2102:2104   */\n  0x20\n    /* \"#utility.yul\":2094:2100   */\n  dup3\n    /* \"#utility.yul\":2091:2105   */\n  lt\n    /* \"#utility.yul\":2071:2089   */\n  dup2\n    /* \"#utility.yul\":2068:2106   */\n  sub\n    /* \"#utility.yul\":2065:2149   */\n  tag_120\n  jumpi\n    /* \"#utility.yul\":2121:2139   */\n  tag_121\n  tag_69\n  jump\t// in\ntag_121:\n    /* \"#utility.yul\":2065:2149   */\ntag_120:\n    /* \"#utility.yul\":1886:2155   */\n  pop\n    /* \"#utility.yul\":1835:2155   */\n  swap2\n  swap1\n  pop\n  jump\t// out\n    /* \"#utility.yul\":2161:2302   */\ntag_71:\n    /* \"#utility.yul\":2210:2214   */\n  0x00\n    /* \"#utility.yul\":2233:2236   */\n  dup2\n    /* \"#utility.yul\":2225:2236   */\n  swap1\n  pop\n    /* \"#utility.yul\":2256:2259   */\n  dup2\n    /* \"#utility.yul\":2253:2254   */\n  0x00\n    /* \"#utility.yul\":2246:2260   */\n  mstore\n    /* \"#utility.yul\":2290:2294   */\n  0x20\n    /* \"#utility.yul\":2287:2288   */\n  0x00\n    /* \"#utility.yul\":2277:2295   */\n  keccak256\n    /* \"#utility.yul\":2269:2295   */\n  swap1\n  pop\n    /* \"#utility.yul\":2161:2302   */\n  swap2\n  swap1\n  pop\n  jump\t// out\n    /* \"#utility.yul\":2308:2401   */\ntag_72:\n    /* \"#utility.yul\":2345:2351   */\n  0x00\n    /* \"#utility.yul\":2392:2394   */\n  0x20\n    /* \"#utility.yul\":2387:2389   */\n  0x1f\n    /* \"#utility.yul\":2380:2385   */\n  dup4\n    /* \"#utility.yul\":2376:2390   */\n  add\n    /* \"#utility.yul\":2372:2395   */\n  div\n    /* \"#utility.yul\":2362:2395   */\n  swap1\n  pop\n    /* \"#utility.yul\":2308:2401   */\n  swap2\n  swap1\n  pop\n  jump\t// out\n    /* \"#utility.yul\":2407:2514   */\ntag_73:\n    /* \"#utility.yul\":2451:2459   */\n  0x00\n    /* \"#utility.yul\":2501:2506   */\n  dup3\n    /* \"#utility.yul\":2495:2499   */\n  dup3\n    /* \"#utility.yul\":2491:2507   */\n  shl\n    /* \"#utility.yul\":2470:2507   */\n  swap1\n  pop\n    /* \"#utility.yul\":2407:2514   */\n  swap3\n  swap2\n  pop\n  pop\n  jump\t// out\n    /* \"#utility.yul\":2520:2913   */\ntag_74:\n    /* \"#utility.yul\":2589:2595   */\n  0x00\n    /* \"#utility.yul\":2639:2640   */\n  0x08\n    /* \"#utility.yul\":2627:2637   */\n  dup4\n    /* \"#utility.yul\":2623:2641   */\n  mul\n    /* \"#utility.yul\":2662:2759   */\n  tag_126\n    /* \"#utility.yul\":2692:2758   */\n  0xffffffffffffffffffffffffffffffffffffffffffffffffffffffffffffffff\n    /* \"#utility.yul\":2681:2690   */\n  dup3\n    /* \"#utility.yul\":2662:2759   */\n  tag_73\n  jump\t// in\ntag_126:\n    /* \"#utility.yul\":2780:2819   */\n  tag_127\n    /* \"#utility.yul\":2810:2818   */\n  dup7\n    /* \"#utility.yul\":2799:2808   */\n  dup4\n    /* \"#utility.yul\":2780:2819   */\n  tag_73\n  jump\t// in\ntag_127:\n    /* \"#utility.yul\":2768:2819   */\n  swap6\n  pop\n    /* \"#utility.yul\":2852:2856   */\n  dup1\n    /* \"#utility.yul\":2848:2857   */\n  not\n    /* \"#utility.yul\":2841:2846   */\n  dup5\n    /* \"#utility.yul\":2837:2858   */\n  and\n    /* \"#utility.yul\":2828:2858   */\n  swap4\n  pop\n    /* \"#utility.yul\":2901:2905   */\n  dup1\n    /* \"#utility.yul\":2891:2899   */\n  dup7\n    /* \"#utility.yul\":2887:2906   */\n  and\n    /* \"#utility.yul\":2880:2885   */\n  dup5\n    /* \"#utility.yul\":2877:2907   */\n  or\n    /* \"#utility.yul\":2867:2907   */\n  swap3\n  pop\n    /* \"#utility.yul\":2596:2913   */\n  pop\n  pop\n    /* \"#utility.yul\":2520:2913   */\n  swap4\n  swap3\n  pop\n  pop\n  pop\n  jump\t// out\n    /* \"#utility.yul\":2919:2996   */\ntag_75:\n    /* \"#utility.yul\":2956:2963   */\n  0x00\n    /* \"#utility.yul\":2985:2990   */\n  dup2\n    /* \"#utility.yul\":2974:2990   */\n  swap1\n  pop\n    /* \"#utility.yul\":2919:2996   */\n  swap2\n  swap1\n  pop\n  jump\t// out\n    /* \"#utility.yul\":3002:3062   */\ntag_76:\n    /* \"#utility.yul\":3030:3033   */\n  0x00\n    /* \"#utility.yul\":3051:3056   */\n  dup2\n    /* \"#utility.yul\":3044:3056   */\n  swap1\n  pop\n    /* \"#utility.yul\":3002:3062   */\n  swap2\n  swap1\n  pop\n  jump\t// out\n    /* \"#utility.yul\":3068:3210   */\ntag_77:\n    /* \"#utility.yul\":3118:3127   */\n  0x00\n    /* \"#utility.yul\":3151:3204   */\n  tag_131\n    /* \"#utility.yul\":3169:3203   */\n  tag_132\n    /* \"#utility.yul\":3178:3202   */\n  tag_133\n    /* \"#utility.yul\":3196:3201   */\n  dup5\n    /* \"#utility.yul\":3178:3202   */\n  tag_75\n  jump\t// in\ntag_133:\n    /* \"#utility.yul\":3169:3203   */\n  tag_76\n  jump\t// in\ntag_132:\n    /* \"#utility.yul\":3151:3204   */\n  tag_75\n  jump\t// in\ntag_131:\n    /* \"#utility.yul\":3138:3204   */\n  swap1\n  pop\n    /* \"#utility.yul\":3068:3210   */\n  swap2\n  swap1\n  pop\n  jump\t// out\n    /* \"#utility.yul\":3216:3291   */\ntag_78:\n    /* \"#utility.yul\":3259:3262   */\n  0x00\n    /* \"#utility.yul\":3280:3285   */\n  dup2\n    /* \"#utility.yul\":3273:3285   */\n  swap1\n  pop\n    /* \"#utility.yul\":3216:3291   */\n  swap2\n  swap1\n  pop\n  jump\t// out\n    /* \"#utility.yul\":3297:3566   */\ntag_79:\n    /* \"#utility.yul\":3407:3446   */\n  tag_136\n    /* \"#utility.yul\":3438:3445   */\n  dup4\n    /* \"#utility.yul\":3407:3446   */\n  tag_77\n  jump\t// in\ntag_136:\n    /* \"#utility.yul\":3468:3559   */\n  tag_137\n    /* \"#utility.yul\":3517:3558   */\n  tag_138\n    /* \"#utility.yul\":3541:3557   */\n  dup3\n    /* \"#utility.yul\":3517:3558   */\n  tag_78\n  jump\t// in\ntag_138:\n    /* \"#utility.yul\":3509:3515   */\n  dup5\n    /* \"#utility.yul\":3502:3506   */\n  dup5\n    /* \"#utility.yul\":3496:3507   */\n  sload\n    /* \"#utility.yul\":3468:3559   */\n  tag_74\n  jump\t// in\ntag_137:\n    /* \"#utility.yul\":3462:3466   */\n  dup3\n    /* \"#utility.yul\":3455:3560   */\n  sstore\n    /* \"#utility.yul\":3373:3566   */\n  pop\n    /* \"#utility.yul\":3297:3566   */\n  pop\n  pop\n  pop\n  jump\t// out\n    /* \"#utility.yul\":3572:3645   */\ntag_80:\n    /* \"#utility.yul\":3617:3620   */\n  0x00\n    /* \"#utility.yul\":3572:3645   */\n  swap1\n  jump\t// out\n    /* \"#utility.yul\":3651:3840   */\ntag_81:\n    /* \"#utility.yul\":3728:3760   */\n  tag_141\n  tag_80\n  jump\t// in\ntag_141:\n    /* \"#utility.yul\":3769:3834   */\n  tag_142\n    /* \"#utility.yul\":3827:3833   */\n  dup2\n    /* \"#utility.yul\":3819:3825   */\n  dup5\n    /* \"#utility.yul\":3813:3817   */\n  dup5\n    /* \"#utility.yul\":3769:3834   */\n  tag_79\n  jump\t// in\ntag_142:\n    /* \"#utility.yul\":3704:3840   */\n  pop\n    /* \"#utility.yul\":3651:3840   */\n  pop\n  pop\n  jump\t// out\n    /* \"#utility.yul\":3846:4032   */\ntag_82:\n    /* \"#utility.yul\":3906:4026   */\ntag_144:\n    /* \"#utility.yul\":3923:3926   */\n  dup2\n    /* \"#utility.yul\":3916:3921   */\n  dup2\n    /* \"#utility.yul\":3913:3927   */\n  lt\n    /* \"#utility.yul\":3906:4026   */\n  iszero\n  tag_146\n  jumpi\n    /* \"#utility.yul\":3977:4016   */\n  tag_147\n    /* \"#utility.yul\":4014:4015   */\n  0x00\n    /* \"#utility.yul\":4007:4012   */\n  dup3\n    /* \"#utility.yul\":3977:4016   */\n  tag_81\n  jump\t// in\ntag_147:\n    /* \"#utility.yul\":3950:3951   */\n  0x01\n    /* \"#utility.yul\":3943:3948   */\n  dup2\n    /* \"#utility.yul\":3939:3952   */\n  add\n    /* \"#utility.yul\":3930:3952   */\n  swap1\n  pop\n    /* \"#utility.yul\":3906:4026   */\n  jump(tag_144)\ntag_146:\n    /* \"#utility.yul\":3846:4032   */\n  pop\n  pop\n  jump\t// out\n    /* \"#utility.yul\":4038:4581   */\ntag_83:\n    /* \"#utility.yul\":4139:4141   */\n  0x1f\n    /* \"#utility.yul\":4134:4137   */\n  dup3\n    /* \"#utility.yul\":4131:4142   */\n  gt\n    /* \"#utility.yul\":4128:4574   */\n  iszero\n  tag_149\n  jumpi\n    /* \"#utility.yul\":4173:4211   */\n  tag_150\n    /* \"#utility.yul\":4205:4210   */\n  dup2\n    /* \"#utility.yul\":4173:4211   */\n  tag_71\n  jump\t// in\ntag_150:\n    /* \"#utility.yul\":4257:4286   */\n  tag_151\n    /* \"#utility.yul\":4275:4285   */\n  dup5\n    /* \"#utility.yul\":4257:4286   */\n  tag_72\n  jump\t// in\ntag_151:\n    /* \"#utility.yul\":4247:4255   */\n  dup2\n    /* \"#utility.yul\":4243:4287   */\n  add\n    /* \"#utility.yul\":4440:4442   */\n  0x20\n    /* \"#utility.yul\":4428:4438   */\n  dup6\n    /* \"#utility.yul\":4425:4443   */\n  lt\n    /* \"#utility.yul\":4422:4471   */\n  iszero\n  tag_152\n  jumpi\n    /* \"#utility.yul\":4461:4469   */\n  dup2\n    /* \"#utility.yul\":4446:4469   */\n  swap1\n  pop\n    /* \"#utility.yul\":4422:4471   */\ntag_152:\n    /* \"#utility.yul\":4484:4564   */\n  tag_153\n    /* \"#utility.yul\":4540:4562   */\n  tag_154\n    /* \"#utility.yul\":4558:4561   */\n  dup6\n    /* \"#utility.yul\":4540:4562   */\n  tag_72\n  jump\t// in\ntag_154:\n    /* \"#utility.yul\":4530:4538   */\n  dup4\n    /* \"#utility.yul\":4526:4563   */\n  add\n    /* \"#utility.yul\":4513:4524   */\n  dup3\n    /* \"#utility.yul\":4484:4564   */\n  tag_82\n  jump\t// in\ntag_153:\n    /* \"#utility.yul\":4143:4574   */\n  pop\n  pop\n    /* \"#utility.yul\":4128:4574   */\ntag_149:\n    /* \"#utility.yul\":4038:4581   */\n  pop\n  pop\n  pop\n  jump\t// out\n    /* \"#utility.yul\":4587:4704   */\ntag_84:\n    /* \"#utility.yul\":4641:4649   */\n  0x00\n    /* \"#utility.yul\":4691:4696   */\n  dup3\n    /* \"#utility.yul\":4685:4689   */\n  dup3\n    /* \"#utility.yul\":4681:4697   */\n  shr\n    /* \"#utility.yul\":4660:4697   */\n  swap1\n  pop\n    /* \"#utility.yul\":4587:4704   */\n  swap3\n  swap2\n  pop\n  pop\n  jump\t// out\n    /* \"#utility.yul\":4710:4879   */\ntag_85:\n    /* \"#utility.yul\":4754:4760   */\n  0x00\n    /* \"#utility.yul\":4787:4838   */\n  tag_157\n    /* \"#utility.yul\":4835:4836   */\n  0x00\n    /* \"#utility.yul\":4831:4837   */\n  not\n    /* \"#utility.yul\":4823:4828   */\n  dup5\n    /* \"#utility.yul\":4820:4821   */\n  0x08\n    /* \"#utility.yul\":4816:4829   */\n  mul\n    /* \"#utility.yul\":4787:4838   */\n  tag_84\n  jump\t// in\ntag_157:\n    /* \"#utility.yul\":4783:4839   */\n  not\n    /* \"#utility.yul\":4868:4872   */\n  dup1\n    /* \"#utility.yul\":4862:4866   */\n  dup4\n    /* \"#utility.yul\":4858:4873   */\n  and\n    /* \"#utility.yul\":4848:4873   */\n  swap2\n  pop\n    /* \"#utility.yul\":4761:4879   */\n  pop\n    /* \"#utility.yul\":4710:4879   */\n  swap3\n  swap2\n  pop\n  pop\n  jump\t// out\n    /* \"#utility.yul\":4884:5179   */\ntag_86:\n    /* \"#utility.yul\":4960:4964   */\n  0x00\n    /* \"#utility.yul\":5106:5135   */\n  tag_159\n    /* \"#utility.yul\":5131:5134   */\n  dup4\n    /* \"#utility.yul\":5125:5129   */\n  dup4\n    /* \"#utility.yul\":5106:5135   */\n  tag_85\n  jump\t// in\ntag_159:\n    /* \"#utility.yul\":5098:5135   */\n  swap2\n  pop\n    /* \"#utility.yul\":5168:5171   */\n  dup3\n    /* \"#utility.yul\":5165:5166   */\n  0x02\n    /* \"#utility.yul\":5161:5172   */\n  mul\n    /* \"#utility.yul\":5155:5159   */\n  dup3\n    /* \"#utility.yul\":5152:5173   */\n  or\n    /* \"#utility.yul\":5144:5173   */\n  swap1\n  pop\n    /* \"#utility.yul\":4884:5179   */\n  swap3\n  swap2\n  pop\n  pop\n  jump\t// out\n    /* \"#utility.yul\":5184:6579   */\ntag_10:\n    /* \"#utility.yul\":5301:5338   */\n  tag_161\n    /* \"#utility.yul\":5334:5337   */\n  dup3\n    /* \"#utility.yul\":5301:5338   */\n  tag_67\n  jump\t// in\ntag_161:\n    /* \"#utility.yul\":5403:5421   */\n  0xffffffffffffffff\n    /* \"#utility.yul\":5395:5401   */\n  dup2\n    /* \"#utility.yul\":5392:5422   */\n  gt\n    /* \"#utility.yul\":5389:5445   */\n  iszero\n  tag_162\n  jumpi\n    /* \"#utility.yul\":5425:5443   */\n  tag_163\n  tag_68\n  jump\t// in\ntag_163:\n    /* \"#utility.yul\":5389:5445   */\ntag_162:\n    /* \"#utility.yul\":5469:5507   */\n  tag_164\n    /* \"#utility.yul\":5501:5505   */\n  dup3\n    /* \"#utility.yul\":5495:5506   */\n  sload\n    /* \"#utility.yul\":5469:5507   */\n  tag_70\n  jump\t// in\ntag_164:\n    /* \"#utility.yul\":5554:5621   */\n  tag_165\n    /* \"#utility.yul\":5614:5620   */\n  dup3\n    /* \"#utility.yul\":5606:5612   */\n  dup3\n    /* \"#utility.yul\":5600:5604   */\n  dup6\n    /* \"#utility.yul\":5554:5621   */\n  tag_83\n  jump\t// in\ntag_165:\n    /* \"#utility.yul\":5648:5649   */\n  0x00\n    /* \"#utility.yul\":5672:5676   */\n  0x20\n    /* \"#utility.yul\":5659:5676   */\n  swap1\n  pop\n    /* \"#utility.yul\":5704:5706   */\n  0x1f\n    /* \"#utility.yul\":5696:5702   */\n  dup4\n    /* \"#utility.yul\":5693:5707   */\n  gt\n    /* \"#utility.yul\":5721:5722   */\n  0x01\n    /* \"#utility.yul\":5716:6334   */\n  dup2\n  eq\n  tag_167\n  jumpi\n    /* \"#utility.yul\":6378:6379   */\n  0x00\n    /* \"#utility.yul\":6395:6401   */\n  dup5\n    /* \"#utility.yul\":6392:6469   */\n  iszero\n  tag_168\n  jumpi\n    /* \"#utility.yul\":6444:6453   */\n  dup3\n    /* \"#utility.yul\":6439:6442   */\n  dup8\n    /* \"#utility.yul\":6435:6454   */\n  add\n    /* \"#utility.yul\":6429:6455   */\n  mload\n    /* \"#utility.yul\":6420:6455   */\n  swap1\n  pop\n    /* \"#utility.yul\":6392:6469   */\ntag_168:\n    /* \"#utility.yul\":6495:6562   */\n  tag_169\n    /* \"#utility.yul\":6555:6561   */\n  dup6\n    /* \"#utility.yul\":6548:6553   */\n  dup3\n    /* \"#utility.yul\":6495:6562   */\n  tag_86\n  jump\t// in\ntag_169:\n    /* \"#utility.yul\":6489:6493   */\n  dup7\n    /* \"#utility.yul\":6482:6563   */\n  sstore\n    /* \"#utility.yul\":6351:6573   */\n  pop\n    /* \"#utility.yul\":5686:6573   */\n  jump(tag_166)\n    /* \"#utility.yul\":5716:6334   */\ntag_167:\n    /* \"#utility.yul\":5768:5772   */\n  0x1f\n    /* \"#utility.yul\":5764:5773   */\n  not\n    /* \"#utility.yul\":5756:5762   */\n  dup5\n    /* \"#utility.yul\":5752:5774   */\n  and\n    /* \"#utility.yul\":5802:5839   */\n  tag_170\n    /* \"#utility.yul\":5834:5838   */\n  dup7\n    /* \"#utility.yul\":5802:5839   */\n  tag_71\n  jump\t// in\ntag_170:\n    /* \"#utility.yul\":5861:5862   */\n  0x00\n    /* \"#utility.yul\":5875:6083   */\ntag_171:\n    /* \"#utility.yul\":5889:5896   */\n  dup3\n    /* \"#utility.yul\":5886:5887   */\n  dup2\n    /* \"#utility.yul\":5883:5897   */\n  lt\n    /* \"#utility.yul\":5875:6083   */\n  iszero\n  tag_173\n  jumpi\n    /* \"#utility.yul\":5968:5977   */\n  dup5\n    /* \"#utility.yul\":5963:5966   */\n  dup10\n    /* \"#utility.yul\":5959:5978   */\n  add\n    /* \"#utility.yul\":5953:5979   */\n  mload\n    /* \"#utility.yul\":5945:5951   */\n  dup3\n    /* \"#utility.yul\":5938:5980   */\n  sstore\n    /* \"#utility.yul\":6019:6020   */\n  0x01\n    /* \"#utility.yul\":6011:6017   */\n  dup3\n    /* \"#utility.yul\":6007:6021   */\n  add\n    /* \"#utility.yul\":5997:6021   */\n  swap2\n  pop\n    /* \"#utility.yul\":6066:6068   */\n  0x20\n    /* \"#utility.yul\":6055:6064   */\n  dup6\n    /* \"#utility.yul\":6051:6069   */\n  add\n    /* \"#utility.yul\":6038:6069   */\n  swap5\n  pop\n    /* \"#utility.yul\":5912:5916   */\n  0x20\n    /* \"#utility.yul\":5909:5910   */\n  dup2\n    /* \"#utility.yul\":5905:5917   */\n  add\n    /* \"#utility.yul\":5900:5917   */\n  swap1\n  pop\n    /* \"#utility.yul\":5875:6083   */\n  jump(tag_171)\ntag_173:\n    /* \"#utility.yul\":6111:6117   */\n  dup7\n    /* \"#utility.yul\":6102:6109   */\n  dup4\n    /* \"#utility.yul\":6099:6118   */\n  lt\n    /* \"#utility.yul\":6096:6275   */\n  iszero\n  tag_174\n  jumpi\n    /* \"#utility.yul\":6169:6178   */\n  dup5\n    /* \"#utility.yul\":6164:6167   */\n  dup10\n    /* \"#utility.yul\":6160:6179   */\n  add\n    /* \"#utility.yul\":6154:6180   */\n  mload\n    /* \"#utility.yul\":6212:6260   */\n  tag_175\n    /* \"#utility.yul\":6254:6258   */\n  0x1f\n    /* \"#utility.yul\":6246:6252   */\n  dup10\n    /* \"#utility.yul\":6242:6259   */\n  and\n    /* \"#utility.yul\":6231:6240   */\n  dup3\n    /* \"#utility.yul\":6212:6260   */\n  tag_85\n  jump\t// in\ntag_175:\n    /* \"#utility.yul\":6204:6210   */\n  dup4\n    /* \"#utility.yul\":6197:6261   */\n  sstore\n    /* \"#utility.yul\":6119:6275   */\n  pop\n    /* \"#utility.yul\":6096:6275   */\ntag_174:\n    /* \"#utility.yul\":6321:6322   */\n  0x01\n    /* \"#utility.yul\":6317:6318   */\n  0x02\n    /* \"#utility.yul\":6309:6315   */\n  dup9\n    /* \"#utility.yul\":6305:6319   */\n  mul\n    /* \"#utility.yul\":6301:6323   */\n  add\n    /* \"#utility.yul\":6295:6299   */\n  dup9\n    /* \"#utility.yul\":6288:6324   */\n  sstore\n    /* \"#utility.yul\":5723:6334   */\n  pop\n  pop\n  pop\n    /* \"#utility.yul\":5686:6573   */\ntag_166:\n  pop\n    /* \"#utility.yul\":5276:6579   */\n  pop\n  pop\n  pop\n    /* \"#utility.yul\":5184:6579   */\n  pop\n  pop\n  jump\t// out\n    /* \"#utility.yul\":6585:6703   */\ntag_87:\n    /* \"#utility.yul\":6672:6696   */\n  tag_177\n    /* \"#utility.yul\":6690:6695   */\n  dup2\n    /* \"#utility.yul\":6672:6696   */\n  tag_64\n  jump\t// in\ntag_177:\n    /* \"#utility.yul\":6667:6670   */\n  dup3\n    /* \"#utility.yul\":6660:6697   */\n  mstore\n    /* \"#utility.yul\":6585:6703   */\n  pop\n  pop\n  jump\t// out\n    /* \"#utility.yul\":6709:6931   */\ntag_16:\n    /* \"#utility.yul\":6802:6806   */\n  0x00\n    /* \"#utility.yul\":6840:6842   */\n  0x20\n    /* \"#utility.yul\":6829:6838   */\n  dup3\n    /* \"#utility.yul\":6825:6843   */\n  add\n    /* \"#utility.yul\":6817:6843   */\n  swap1\n  pop\n    /* \"#utility.yul\":6853:6924   */\n  tag_179\n    /* \"#utility.yul\":6921:6922   */\n  0x00\n    /* \"#utility.yul\":6910:6919   */\n  dup4\n    /* \"#utility.yul\":6906:6923   */\n  add\n    /* \"#utility.yul\":6897:6903   */\n  dup5\n    /* \"#utility.yul\":6853:6924   */\n  tag_87\n  jump\t// in\ntag_179:\n    /* \"#utility.yul\":6709:6931   */\n  swap3\n  swap2\n  pop\n  pop\n  jump\t// out\n    /* \"#utility.yul\":6937:7117   */\ntag_88:\n    /* \"#utility.yul\":6985:7062   */\n  0x4e487b7100000000000000000000000000000000000000000000000000000000\n    /* \"#utility.yul\":6982:6983   */\n  0x00\n    /* \"#utility.yul\":6975:7063   */\n  mstore\n    /* \"#utility.yul\":7082:7086   */\n  0x12\n    /* \"#utility.yul\":7079:7080   */\n  0x04\n    /* \"#utility.yul\":7072:7087   */\n  mstore\n    /* \"#utility.yul\":7106:7110   */\n  0x24\n    /* \"#utility.yul\":7103:7104   */\n  0x00\n    /* \"#utility.yul\":7096:7111   */\n  revert\n    /* \"#utility.yul\":7123:7303   */\ntag_89:\n    /* \"#utility.yul\":7171:7248   */\n  0x4e487b7100000000000000000000000000000000000000000000000000000000\n    /* \"#utility.yul\":7168:7169   */\n  0x00\n    /* \"#utility.yul\":7161:7249   */\n  mstore\n    /* \"#utility.yul\":7268:7272   */\n  0x11\n    /* \"#utility.yul\":7265:7266   */\n  0x04\n    /* \"#utility.yul\":7258:7273   */\n  mstore\n    /* \"#utility.yul\":7292:7296   */\n  0x24\n    /* \"#utility.yul\":7289:7290   */\n  0x00\n    /* \"#utility.yul\":7282:7297   */\n  revert\n    /* \"#utility.yul\":7309:7494   */\ntag_21:\n    /* \"#utility.yul\":7349:7350   */\n  0x00\n    /* \"#utility.yul\":7366:7386   */\n  tag_183\n    /* \"#utility.yul\":7384:7385   */\n  dup3\n    /* \"#utility.yul\":7366:7386   */\n  tag_75\n  jump\t// in\ntag_183:\n    /* \"#utility.yul\":7361:7386   */\n  swap2\n  pop\n    /* \"#utility.yul\":7400:7420   */\n  tag_184\n    /* \"#utility.yul\":7418:7419   */\n  dup4\n    /* \"#utility.yul\":7400:7420   */\n  tag_75\n  jump\t// in\ntag_184:\n    /* \"#utility.yul\":7395:7420   */\n  swap3\n  pop\n    /* \"#utility.yul\":7439:7440   */\n  dup3\n    /* \"#utility.yul\":7429:7464   */\n  tag_185\n  jumpi\n    /* \"#utility.yul\":7444:7462   */\n  tag_186\n  tag_88\n  jump\t// in\ntag_186:\n    /* \"#utility.yul\":7429:7464   */\ntag_185:\n    /* \"#utility.yul\":7486:7487   */\n  dup3\n    /* \"#utility.yul\":7483:7484   */\n  dup3\n    /* \"#utility.yul\":7479:7488   */\n  div\n    /* \"#utility.yul\":7474:7488   */\n  swap1\n  pop\n    /* \"#utility.yul\":7309:7494   */\n  swap3\n  swap2\n  pop\n  pop\n  jump\t// out\n    /* \"#utility.yul\":7500:7694   */\ntag_23:\n    /* \"#utility.yul\":7540:7544   */\n  0x00\n    /* \"#utility.yul\":7560:7580   */\n  tag_188\n    /* \"#utility.yul\":7578:7579   */\n  dup3\n    /* \"#utility.yul\":7560:7580   */\n  tag_75\n  jump\t// in\ntag_188:\n    /* \"#utility.yul\":7555:7580   */\n  swap2\n  pop\n    /* \"#utility.yul\":7594:7614   */\n  tag_189\n    /* \"#utility.yul\":7612:7613   */\n  dup4\n    /* \"#utility.yul\":7594:7614   */\n  tag_75\n  jump\t// in\ntag_189:\n    /* \"#utility.yul\":7589:7614   */\n  swap3\n  pop\n    /* \"#utility.yul\":7638:7639   */\n  dup3\n    /* \"#utility.yul\":7635:7636   */\n  dup3\n    /* \"#utility.yul\":7631:7640   */\n  sub\n    /* \"#utility.yul\":7623:7640   */\n  swap1\n  pop\n    /* \"#utility.yul\":7662:7663   */\n  dup2\n    /* \"#utility.yul\":7656:7660   */\n  dup2\n    /* \"#utility.yul\":7653:7664   */\n  gt\n    /* \"#utility.yul\":7650:7687   */\n  iszero\n  tag_190\n  jumpi\n    /* \"#utility.yul\":7667:7685   */\n  tag_191\n  tag_89\n  jump\t// in\ntag_191:\n    /* \"#utility.yul\":7650:7687   */\ntag_190:\n    /* \"#utility.yul\":7500:7694   */\n  swap3\n  swap2\n  pop\n  pop\n  jump\t// out\n    /* \"#utility.yul\":7700:7869   */\ntag_90:\n    /* \"#utility.yul\":7784:7795   */\n  0x00\n    /* \"#utility.yul\":7818:7824   */\n  dup3\n    /* \"#utility.yul\":7813:7816   */\n  dup3\n    /* \"#utility.yul\":7806:7825   */\n  mstore\n    /* \"#utility.yul\":7858:7862   */\n  0x20\n    /* \"#utility.yul\":7853:7856   */\n  dup3\n    /* \"#utility.yul\":7849:7863   */\n  add\n    /* \"#utility.yul\":7834:7863   */\n  swap1\n  pop\n    /* \"#utility.yul\":7700:7869   */\n  swap3\n  swap2\n  pop\n  pop\n  jump\t// out\n    /* \"#utility.yul\":7875:8052   */\ntag_91:\n    /* \"#utility.yul\":8015:8044   */\n  0x42656e6566696369617279206973207a65726f20616464726573730000000000\n    /* \"#utility.yul\":8011:8012   */\n  0x00\n    /* \"#utility.yul\":8003:8009   */\n  dup3\n    /* \"#utility.yul\":7999:8013   */\n  add\n    /* \"#utility.yul\":7992:8045   */\n  mstore\n    /* \"#utility.yul\":7875:8052   */\n  pop\n  jump\t// out\n    /* \"#utility.yul\":8058:8424   */\ntag_92:\n    /* \"#utility.yul\":8200:8203   */\n  0x00\n    /* \"#utility.yul\":8221:8288   */\n  tag_195\n    /* \"#utility.yul\":8285:8287   */\n  0x1b\n    /* \"#utility.yul\":8280:8283   */\n  dup4\n    /* \"#utility.yul\":8221:8288   */\n  tag_90\n  jump\t// in\ntag_195:\n    /* \"#utility.yul\":8214:8288   */\n  swap2\n  pop\n    /* \"#utility.yul\":8297:8390   */\n  tag_196\n    /* \"#utility.yul\":8386:8389   */\n  dup3\n    /* \"#utility.yul\":8297:8390   */\n  tag_91\n  jump\t// in\ntag_196:\n    /* \"#utility.yul\":8415:8417   */\n  0x20\n    /* \"#utility.yul\":8410:8413   */\n  dup3\n    /* \"#utility.yul\":8406:8418   */\n  add\n    /* \"#utility.yul\":8399:8418   */\n  swap1\n  pop\n    /* \"#utility.yul\":8058:8424   */\n  swap2\n  swap1\n  pop\n  jump\t// out\n    /* \"#utility.yul\":8430:8849   */\ntag_39:\n    /* \"#utility.yul\":8596:8600   */\n  0x00\n    /* \"#utility.yul\":8634:8636   */\n  0x20\n    /* \"#utility.yul\":8623:8632   */\n  dup3\n    /* \"#utility.yul\":8619:8637   */\n  add\n    /* \"#utility.yul\":8611:8637   */\n  swap1\n  pop\n    /* \"#utility.yul\":8683:8692   */\n  dup2\n    /* \"#utility.yul\":8677:8681   */\n  dup2\n    /* \"#utility.yul\":8673:8693   */\n  sub\n    /* \"#utility.yul\":8669:8670   */\n  0x00\n    /* \"#utility.yul\":8658:8667   */\n  dup4\n    /* \"#utility.yul\":8654:8671   */\n  add\n    /* \"#utility.yul\":8647:8694   */\n  mstore\n    /* \"#utility.yul\":8711:8842   */\n  tag_198\n    /* \"#utility.yul\":8837:8841   */\n  dup2\n    /* \"#utility.yul\":8711:8842   */\n  tag_92\n  jump\t// in\ntag_198:\n    /* \"#utility.yul\":8703:8842   */\n  swap1\n  pop\n    /* \"#utility.yul\":8430:8849   */\n  swap2\n  swap1\n  pop\n  jump\t// out\n    /* \"#utility.yul\":8855:9019   */\ntag_93:\n    /* \"#utility.yul\":8995:9011   */\n  0x416d6f756e74206973207a65726f000000000000000000000000000000000000\n    /* \"#utility.yul\":8991:8992   */\n  0x00\n    /* \"#utility.yul\":8983:8989   */\n  dup3\n    /* \"#utility.yul\":8979:8993   */\n  add\n    /* \"#utility.yul\":8972:9012   */\n  mstore\n    /* \"#utility.yul\":8855:9019   */\n  pop\n  jump\t// out\n    /* \"#utility.yul\":9025:9391   */\ntag_94:\n    /* \"#utility.yul\":9167:9170   */\n  0x00\n    /* \"#utility.yul\":9188:9255   */\n  tag_201\n    /* \"#utility.yul\":9252:9254   */\n  0x0e\n    /* \"#utility.yul\":9247:9250   */\n  dup4\n    /* \"#utility.yul\":9188:9255   */\n  tag_90\n  jump\t// in\ntag_201:\n    /* \"#utility.yul\":9181:9255   */\n  swap2\n  pop\n    /* \"#utility.yul\":9264:9357   */\n  tag_202\n    /* \"#utility.yul\":9353:9356   */\n  dup3\n    /* \"#utility.yul\":9264:9357   */\n  tag_93\n  jump\t// in\ntag_202:\n    /* \"#utility.yul\":9382:9384   */\n  0x20\n    /* \"#utility.yul\":9377:9380   */\n  dup3\n    /* \"#utility.yul\":9373:9385   */\n  add\n    /* \"#utility.yul\":9366:9385   */\n  swap1\n  pop\n    /* \"#utility.yul\":9025:9391   */\n  swap2\n  swap1\n  pop\n  jump\t// out\n    /* \"#utility.yul\":9397:9816   */\ntag_42:\n    /* \"#utility.yul\":9563:9567   */\n  0x00\n    /* \"#utility.yul\":9601:9603   */\n  0x20\n    /* \"#utility.yul\":9590:9599   */\n  dup3\n    /* \"#utility.yul\":9586:9604   */\n  add\n    /* \"#utility.yul\":9578:9604   */\n  swap1\n  pop\n    /* \"#utility.yul\":9650:9659   */\n  dup2\n    /* \"#utility.yul\":9644:9648   */\n  dup2\n    /* \"#utility.yul\":9640:9660   */\n  sub\n    /* \"#utility.yul\":9636:9637   */\n  0x00\n    /* \"#utility.yul\":9625:9634   */\n  dup4\n    /* \"#utility.yul\":9621:9638   */\n  add\n    /* \"#utility.yul\":9614:9661   */\n  mstore\n    /* \"#utility.yul\":9678:9809   */\n  tag_204\n    /* \"#utility.yul\":9804:9808   */\n  dup2\n    /* \"#utility.yul\":9678:9809   */\n  tag_94\n  jump\t// in\ntag_204:\n    /* \"#utility.yul\":9670:9809   */\n  swap1\n  pop\n    /* \"#utility.yul\":9397:9816   */\n  swap2\n  swap1\n  pop\n  jump\t// out\n    /* \"#utility.yul\":9822:9986   */\ntag_95:\n    /* \"#utility.yul\":9962:9978   */\n  0x416c726561647920766573746564000000000000000000000000000000000000\n    /* \"#utility.yul\":9958:9959   */\n  0x00\n    /* \"#utility.yul\":9950:9956   */\n  dup3\n    /* \"#utility.yul\":9946:9960   */\n  add\n    /* \"#utility.yul\":9939:9979   */\n  mstore\n    /* \"#utility.yul\":9822:9986   */\n  pop\n  jump\t// out\n    /* \"#utility.yul\":9992:10358   */\ntag_96:\n    /* \"#utility.yul\":10134:10137   */\n  0x00\n    /* \"#utility.yul\":10155:10222   */\n  tag_207\n    /* \"#utility.yul\":10219:10221   */\n  0x0e\n    /* \"#utility.yul\":10214:10217   */\n  dup4\n    /* \"#utility.yul\":10155:10222   */\n  tag_90\n  jump\t// in\ntag_207:\n    /* \"#utility.yul\":10148:10222   */\n  swap2\n  pop\n    /* \"#utility.yul\":10231:10324   */\n  tag_208\n    /* \"#utility.yul\":10320:10323   */\n  dup3\n    /* \"#utility.yul\":10231:10324   */\n  tag_95\n  jump\t// in\ntag_208:\n    /* \"#utility.yul\":10349:10351   */\n  0x20\n    /* \"#utility.yul\":10344:10347   */\n  dup3\n    /* \"#utility.yul\":10340:10352   */\n  add\n    /* \"#utility.yul\":10333:10352   */\n  swap1\n  pop\n    /* \"#utility.yul\":9992:10358   */\n  swap2\n  swap1\n  pop\n  jump\t// out\n    /* \"#utility.yul\":10364:10783   */\ntag_45:\n    /* \"#utility.yul\":10530:10534   */\n  0x00\n    /* \"#utility.yul\":10568:10570   */\n  0x20\n    /* \"#utility.yul\":10557:10566   */\n  dup3\n    /* \"#utility.yul\":10553:10571   */\n  add\n    /* \"#utility.yul\":10545:10571   */\n  swap1\n  pop\n    /* \"#utility.yul\":10617:10626   */\n  dup2\n    /* \"#utility.yul\":10611:10615   */\n  dup2\n    /* \"#utility.yul\":10607:10627   */\n  sub\n    /* \"#utility.yul\":10603:10604   */\n  0x00\n    /* \"#utility.yul\":10592:10601   */\n  dup4\n    /* \"#utility.yul\":10588:10605   */\n  add\n    /* \"#utility.yul\":10581:10628   */\n  mstore\n    /* \"#utility.yul\":10645:10776   */\n  tag_210\n    /* \"#utility.yul\":10771:10775   */\n  dup2\n    /* \"#utility.yul\":10645:10776   */\n  tag_96\n  jump\t// in\ntag_210:\n    /* \"#utility.yul\":10637:10776   */\n  swap1\n  pop\n    /* \"#utility.yul\":10364:10783   */\n  swap2\n  swap1\n  pop\n  jump\t// out\n    /* \"#utility.yul\":10789:10907   */\ntag_97:\n    /* \"#utility.yul\":10876:10900   */\n  tag_212\n    /* \"#utility.yul\":10894:10899   */\n  dup2\n    /* \"#utility.yul\":10876:10900   */\n  tag_75\n  jump\t// in\ntag_212:\n    /* \"#utility.yul\":10871:10874   */\n  dup3\n    /* \"#utility.yul\":10864:10901   */\n  mstore\n    /* \"#utility.yul\":10789:10907   */\n  pop\n  pop\n  jump\t// out\n    /* \"#utility.yul\":10913:11355   */\ntag_47:\n    /* \"#utility.yul\":11062:11066   */\n  0x00\n    /* \"#utility.yul\":11100:11102   */\n  0x60\n    /* \"#utility.yul\":11089:11098   */\n  dup3\n    /* \"#utility.yul\":11085:11103   */\n  add\n    /* \"#utility.yul\":11077:11103   */\n  swap1\n  pop\n    /* \"#utility.yul\":11113:11184   */\n  tag_214\n    /* \"#utility.yul\":11181:11182   */\n  0x00\n    /* \"#utility.yul\":11170:11179   */\n  dup4\n    /* \"#utility.yul\":11166:11183   */\n  add\n    /* \"#utility.yul\":11157:11163   */\n  dup7\n    /* \"#utility.yul\":11113:11184   */\n  tag_97\n  jump\t// in\ntag_214:\n    /* \"#utility.yul\":11194:11266   */\n  tag_215\n    /* \"#utility.yul\":11262:11264   */\n  0x20\n    /* \"#utility.yul\":11251:11260   */\n  dup4\n    /* \"#utility.yul\":11247:11265   */\n  add\n    /* \"#utility.yul\":11238:11244   */\n  dup6\n    /* \"#utility.yul\":11194:11266   */\n  tag_97\n  jump\t// in\ntag_215:\n    /* \"#utility.yul\":11276:11348   */\n  tag_216\n    /* \"#utility.yul\":11344:11346   */\n  0x40\n    /* \"#utility.yul\":11333:11342   */\n  dup4\n    /* \"#utility.yul\":11329:11347   */\n  add\n    /* \"#utility.yul\":11320:11326   */\n  dup5\n    /* \"#utility.yul\":11276:11348   */\n  tag_97\n  jump\t// in\ntag_216:\n    /* \"#utility.yul\":10913:11355   */\n  swap5\n  swap4\n  pop\n  pop\n  pop\n  pop\n  jump\t// out\n    /* \"#utility.yul\":11361:11552   */\ntag_51:\n    /* \"#utility.yul\":11401:11404   */\n  0x00\n    /* \"#utility.yul\":11420:11440   */\n  tag_218\n    /* \"#utility.yul\":11438:11439   */\n  dup3\n    /* \"#utility.yul\":11420:11440   */\n  tag_75\n  jump\t// in\ntag_218:\n    /* \"#utility.yul\":11415:11440   */\n  swap2\n  pop\n    /* \"#utility.yul\":11454:11474   */\n  tag_219\n    /* \"#utility.yul\":11472:11473   */\n  dup4\n    /* \"#utility.yul\":11454:11474   */\n  tag_75\n  jump\t// in\ntag_219:\n    /* \"#utility.yul\":11449:11474   */\n  swap3\n  pop\n    /* \"#utility.yul\":11497:11498   */\n  dup3\n    /* \"#utility.yul\":11494:11495   */\n  dup3\n    /* \"#utility.yul\":11490:11499   */\n  add\n    /* \"#utility.yul\":11483:11499   */\n  swap1\n  pop\n    /* \"#utility.yul\":11518:11521   */\n  dup1\n    /* \"#utility.yul\":11515:11516   */\n  dup3\n    /* \"#utility.yul\":11512:11522   */\n  gt\n    /* \"#utility.yul\":11509:11545   */\n  iszero\n  tag_220\n  jumpi\n    /* \"#utility.yul\":11525:11543   */\n  tag_221\n  tag_89\n  jump\t// in\ntag_221:\n    /* \"#utility.yul\":11509:11545   */\ntag_220:\n    /* \"#utility.yul\":11361:11552   */\n  swap3\n  swap2\n  pop\n  pop\n  jump\t// out\n    /* \"#utility.yul\":11558:12000   */\ntag_55:\n    /* \"#utility.yul\":11707:11711   */\n  0x00\n    /* \"#utility.yul\":11745:11747   */\n  0x60\n    /* \"#utility.yul\":11734:11743   */\n  dup3\n    /* \"#utility.yul\":11730:11748   */\n  add\n    /* \"#utility.yul\":11722:11748   */\n  swap1\n  pop\n    /* \"#utility.yul\":11758:11829   */\n  tag_223\n    /* \"#utility.yul\":11826:11827   */\n  0x00\n    /* \"#utility.yul\":11815:11824   */\n  dup4\n    /* \"#utility.yul\":11811:11828   */\n  add\n    /* \"#utility.yul\":11802:11808   */\n  dup7\n    /* \"#utility.yul\":11758:11829   */\n  tag_87\n  jump\t// in\ntag_223:\n    /* \"#utility.yul\":11839:11911   */\n  tag_224\n    /* \"#utility.yul\":11907:11909   */\n  0x20\n    /* \"#utility.yul\":11896:11905   */\n  dup4\n    /* \"#utility.yul\":11892:11910   */\n  add\n    /* \"#utility.yul\":11883:11889   */\n  dup6\n    /* \"#utility.yul\":11839:11911   */\n  tag_97\n  jump\t// in\ntag_224:\n    /* \"#utility.yul\":11921:11993   */\n  tag_225\n    /* \"#utility.yul\":11989:11991   */\n  0x40\n    /* \"#utility.yul\":11978:11987   */\n  dup4\n    /* \"#utility.yul\":11974:11992   */\n  add\n    /* \"#utility.yul\":11965:11971   */\n  dup5\n    /* \"#utility.yul\":11921:11993   */\n  tag_97\n  jump\t// in\ntag_225:\n    /* \"#utility.yul\":11558:12000   */\n  swap5\n  swap4\n  pop\n  pop\n  pop\n  pop\n  jump\t// out\n    /* \"#utility.yul\":12006:12228   */\ntag_59:\n    /* \"#utility.yul\":12099:12103   */\n  0x00\n    /* \"#utility.yul\":12137:12139   */\n  0x20\n    /* \"#utility.yul\":12126:12135   */\n  dup3\n    /* \"#utility.yul\":12122:12140   */\n  add\n    /* \"#utility.yul\":12114:12140   */\n  swap1\n  pop\n    /* \"#utility.yul\":12150:12221   */\n  tag_227\n    /* \"#utility.yul\":12218:12219   */\n  0x00\n    /* \"#utility.yul\":12207:12216   */\n  dup4\n    /* \"#utility.yul\":12203:12220   */\n  add\n    /* \"#utility.yul\":12194:12200   */\n  dup5\n    /* \"#utility.yul\":12150:12221   */\n  tag_97\n  jump\t// in\ntag_227:\n    /* \"#utility.yul\":12006:12228   */\n  swap3\n  swap2\n  pop\n  pop\n  jump\t// out\n    /* \"octo_flattened.sol\":38890:49054  contract OCTO is ERC20, ReentrancyGuard, Ownable {... */\ntag_29:\n  dataSize(sub_0)\n  dup1\n  dataOffset(sub_0)\n  0x00\n  codecopy\n  0x00\n  return\nstop\n\nsub_0: assembly {\n        /* \"octo_flattened.sol\":38890:49054  contract OCTO is ERC20, ReentrancyGuard, Ownable {... */\n      mstore(0x40, 0x80)\n      jumpi(tag_1, lt(calldatasize, 0x04))\n      shr(0xe0, calldataload(0x00))\n      dup1\n      0x7eb53785\n      gt\n      tag_44\n      jumpi\n      dup1\n      0xc04a5414\n      gt\n      tag_45\n      jumpi\n      dup1\n      0xdd296480\n      gt\n      tag_46\n      jumpi\n      dup1\n      0xdd296480\n      eq\n      tag_38\n      jumpi\n      dup1\n      0xdd62ed3e\n      eq\n      tag_39\n      jumpi\n      dup1\n      0xdf136d65\n      eq\n      tag_40\n      jumpi\n      dup1\n      0xf2fde38b\n      eq\n      tag_41\n      jumpi\n      dup1\n      0xf51ace70\n      eq\n      tag_42\n      jumpi\n      dup1\n      0xf8297099\n      eq\n      tag_43\n      jumpi\n      jump(tag_2)\n    tag_46:\n      dup1\n      0xc04a5414\n      eq\n      tag_33\n      jumpi\n      dup1\n      0xc816841b\n      eq\n      tag_34\n      jumpi\n      dup1\n      0xc8f33c91\n      eq\n      tag_35\n      jumpi\n      dup1\n      0xcd3daf9d\n      eq\n      tag_36\n      jumpi\n      dup1\n      0xd5aed6bf\n      eq\n      tag_37\n      jumpi\n      jump(tag_2)\n    tag_45:\n      dup1\n      0x96212916\n      gt\n      tag_47\n      jumpi\n      dup1\n      0x96212916\n      eq\n      tag_28\n      jumpi\n      dup1\n      0x99f7854a\n      eq\n      tag_29\n      jumpi\n      dup1\n      0x9d4310ec\n      eq\n      tag_30\n      jumpi\n      dup1\n      0xa694fc3a\n      eq\n      tag_31\n      jumpi\n      dup1\n      0xa9059cbb\n      eq\n      tag_32\n      jumpi\n      jump(tag_2)\n    tag_47:\n      dup1\n      0x7eb53785\n      eq\n      tag_23\n      jumpi\n      dup1\n      0x82820511\n      eq\n      tag_24\n      jumpi\n      dup1\n      0x85dcf86a\n      eq\n      tag_25\n      jumpi\n      dup1\n      0x8da5cb5b\n      eq\n      tag_26\n      jumpi\n      dup1\n      0x95d89b41\n      eq\n      tag_27\n      jumpi\n      jump(tag_2)\n    tag_44:\n      dup1\n      0x384711cc\n      gt\n      tag_48\n      jumpi\n      dup1\n      0x70a08231\n      gt\n      tag_49\n      jumpi\n      dup1\n      0x70a08231\n      eq\n      tag_18\n      jumpi\n      dup1\n      0x715018a6\n      eq\n      tag_19\n      jumpi\n      dup1\n      0x718298a1\n      eq\n      tag_20\n      jumpi\n      dup1\n      0x735de9f7\n      eq\n      tag_21\n      jumpi\n      dup1\n      0x771a3a1d\n      eq\n      tag_22\n      jumpi\n      jump(tag_2)\n    tag_49:\n      dup1\n      0x384711cc\n      eq\n      tag_13\n      jumpi\n      dup1\n      0x3d18b912\n      eq\n      tag_14\n      jumpi\n      dup1\n      0x54dd1da4\n      eq\n      tag_15\n      jumpi\n      dup1\n      0x5971aa21\n      eq\n      tag_16\n      jumpi\n      dup1\n      0x6985e6d8\n      eq\n      tag_17\n      jumpi\n      jump(tag_2)\n    tag_48:\n      dup1\n      0x18160ddd\n      gt\n      tag_50\n      jumpi\n      dup1\n      0x18160ddd\n      eq\n      tag_8\n      jumpi\n      dup1\n      0x23b872dd\n      eq\n      tag_9\n      jumpi\n      dup1\n      0x2e1a7d4d\n      eq\n      tag_10\n      jumpi\n      dup1\n      0x313ce567\n      eq\n      tag_11\n      jumpi\n      dup1\n      0x35f53e8e\n      eq\n      tag_12\n      jumpi\n      jump(tag_2)\n    tag_50:\n      dup1\n      0x8cc262\n      eq\n      tag_3\n      jumpi\n      dup1\n      0x032bbf4f\n      eq\n      tag_4\n      jumpi\n      dup1\n      0x06fdde03\n      eq\n      tag_5\n      jumpi\n      dup1\n      0x095ea7b3\n      eq\n      tag_6\n      jumpi\n      dup1\n      0x1726cbc8\n      eq\n      tag_7\n      jumpi\n      jump(tag_2)\n    tag_1:\n      jumpi(tag_2, calldatasize)\n      stop\n    tag_2:\n      0x00\n      dup1\n      revert\n        /* \"octo_flattened.sol\":42981:43170  function earned(address account) public view returns (uint256) {... */\n    tag_3:\n      callvalue\n      dup1\n      iszero\n      tag_53\n      jumpi\n      0x00\n      dup1\n      revert\n    tag_53:\n      pop\n      tag_54\n      0x04\n      dup1\n      calldatasize\n      sub\n      dup2\n      add\n      swap1\n      tag_55\n      swap2\n      swap1\n      tag_56\n      jump\t// in\n    tag_55:\n      tag_57\n      jump\t// in\n    tag_54:\n      mload(0x40)\n      tag_58\n      swap2\n      swap1\n      tag_59\n      jump\t// in\n    tag_58:\n      mload(0x40)\n      dup1\n      swap2\n      sub\n      swap1\n      return\n        /* \"octo_flattened.sol\":39384:39431  mapping(address => uint256) public vestingStart */\n    tag_4:\n      callvalue\n      dup1\n      iszero\n      tag_60\n      jumpi\n      0x00\n      dup1\n      revert\n    tag_60:\n      pop\n      tag_61\n      0x04\n      dup1\n      calldatasize\n      sub\n      dup2\n      add\n      swap1\n      tag_62\n      swap2\n      swap1\n      tag_56\n      jump\t// in\n    tag_62:\n      tag_63\n      jump\t// in\n    tag_61:\n      mload(0x40)\n      tag_64\n      swap2\n      swap1\n      tag_59\n      jump\t// in\n    tag_64:\n      mload(0x40)\n      dup1\n      swap2\n      sub\n      swap1\n      return\n        /* \"octo_flattened.sol\":28562:28651  function name() public view virtual returns (string memory) {... */\n    tag_5:\n      callvalue\n      dup1\n      iszero\n      tag_65\n      jumpi\n      0x00\n      dup1\n      revert\n    tag_65:\n      pop\n      tag_66\n      tag_67\n      jump\t// in\n    tag_66:\n      mload(0x40)\n      tag_68\n      swap2\n      swap1\n      tag_69\n      jump\t// in\n    tag_68:\n      mload(0x40)\n      dup1\n      swap2\n      sub\n      swap1\n      return\n        /* \"octo_flattened.sol\":30781:30967  function approve(address spender, uint256 value) public virtual returns (bool) {... */\n    tag_6:\n      callvalue\n      dup1\n      iszero\n      tag_70\n      jumpi\n      0x00\n      dup1\n      revert\n    tag_70:\n      pop\n      tag_71\n      0x04\n      dup1\n      calldatasize\n      sub\n      dup2\n      add\n      swap1\n      tag_72\n      swap2\n      swap1\n      tag_73\n      jump\t// in\n    tag_72:\n      tag_74\n      jump\t// in\n    tag_71:\n      mload(0x40)\n      tag_75\n      swap2\n      swap1\n      tag_76\n      jump\t// in\n    tag_75:\n      mload(0x40)\n      dup1\n      swap2\n      sub\n      swap1\n      return\n        /* \"octo_flattened.sol\":45738:45923  function releasableAmount(address beneficiary) public view returns (uint256) {... */\n    tag_7:\n      callvalue\n      dup1\n      iszero\n      tag_77\n      jumpi\n      0x00\n      dup1\n      revert\n    tag_77:\n      pop\n      tag_78\n      0x04\n      dup1\n      calldatasize\n      sub\n      dup2\n      add\n      swap1\n      tag_79\n      swap2\n      swap1\n      tag_56\n      jump\t// in\n    tag_79:\n      tag_80\n      jump\t// in\n    tag_78:\n      mload(0x40)\n      tag_81\n      swap2\n      swap1\n      tag_59\n      jump\t// in\n    tag_81:\n      mload(0x40)\n      dup1\n      swap2\n      sub\n      swap1\n      return\n        /* \"octo_flattened.sol\":29632:29729  function totalSupply() public view virtual returns (uint256) {... */\n    tag_8:\n      callvalue\n      dup1\n      iszero\n      tag_82\n      jumpi\n      0x00\n      dup1\n      revert\n    tag_82:\n      pop\n      tag_83\n      tag_84\n      jump\t// in\n    tag_83:\n      mload(0x40)\n      tag_85\n      swap2\n      swap1\n      tag_59\n      jump\t// in\n    tag_85:\n      mload(0x40)\n      dup1\n      swap2\n      sub\n      swap1\n      return\n        /* \"octo_flattened.sol\":31527:31771  function transferFrom(address from, address to, uint256 value) public virtual returns (bool) {... */\n    tag_9:\n      callvalue\n      dup1\n      iszero\n      tag_86\n      jumpi\n      0x00\n      dup1\n      revert\n    tag_86:\n      pop\n      tag_87\n      0x04\n      dup1\n      calldatasize\n      sub\n      dup2\n      add\n      swap1\n      tag_88\n      swap2\n      swap1\n      tag_89\n      jump\t// in\n    tag_88:\n      tag_90\n      jump\t// in\n    tag_87:\n      mload(0x40)\n      tag_91\n      swap2\n      swap1\n      tag_76\n      jump\t// in\n    tag_91:\n      mload(0x40)\n      dup1\n      swap2\n      sub\n      swap1\n      return\n        /* \"octo_flattened.sol\":43794:44618  function withdraw(uint256 amount) external nonReentrant {... */\n    tag_10:\n      callvalue\n      dup1\n      iszero\n      tag_92\n      jumpi\n      0x00\n      dup1\n      revert\n    tag_92:\n      pop\n      tag_93\n      0x04\n      dup1\n      calldatasize\n      sub\n      dup2\n      add\n      swap1\n      tag_94\n      swap2\n      swap1\n      tag_95\n      jump\t// in\n    tag_94:\n      tag_96\n      jump\t// in\n    tag_93:\n      stop\n        /* \"octo_flattened.sol\":29490:29572  function decimals() public view virtual returns (uint8) {... */\n    tag_11:\n      callvalue\n      dup1\n      iszero\n      tag_97\n      jumpi\n      0x00\n      dup1\n      revert\n    tag_97:\n      pop\n      tag_98\n      tag_99\n      jump\t// in\n    tag_98:\n      mload(0x40)\n      tag_100\n      swap2\n      swap1\n      tag_101\n      jump\t// in\n    tag_100:\n      mload(0x40)\n      dup1\n      swap2\n      sub\n      swap1\n      return\n        /* \"octo_flattened.sol\":39127:39178  uint256 public constant finalRewardRate = 10 * 1e18 */\n    tag_12:\n      callvalue\n      dup1\n      iszero\n      tag_102\n      jumpi\n      0x00\n      dup1\n      revert\n    tag_102:\n      pop\n      tag_103\n      tag_104\n      jump\t// in\n    tag_103:\n      mload(0x40)\n      tag_105\n      swap2\n      swap1\n      tag_59\n      jump\t// in\n    tag_105:\n      mload(0x40)\n      dup1\n      swap2\n      sub\n      swap1\n      return\n        /* \"octo_flattened.sol\":39437:39484  mapping(address => uint256) public vestedAmount */\n    tag_13:\n      callvalue\n      dup1\n      iszero\n      tag_106\n      jumpi\n      0x00\n      dup1\n      revert\n    tag_106:\n      pop\n      tag_107\n      0x04\n      dup1\n      calldatasize\n      sub\n      dup2\n      add\n      swap1\n      tag_108\n      swap2\n      swap1\n      tag_56\n      jump\t// in\n    tag_108:\n      tag_109\n      jump\t// in\n    tag_107:\n      mload(0x40)\n      tag_110\n      swap2\n      swap1\n      tag_59\n      jump\t// in\n    tag_110:\n      mload(0x40)\n      dup1\n      swap2\n      sub\n      swap1\n      return\n        /* \"octo_flattened.sol\":44624:44946  function getReward() external nonReentrant {... */\n    tag_14:\n      callvalue\n      dup1\n      iszero\n      tag_111\n      jumpi\n      0x00\n      dup1\n      revert\n    tag_111:\n      pop\n      tag_112\n      tag_113\n      jump\t// in\n    tag_112:\n      stop\n        /* \"octo_flattened.sol\":45408:45732  function releaseVestedTokens() external {... */\n    tag_15:\n      callvalue\n      dup1\n      iszero\n      tag_114\n      jumpi\n      0x00\n      dup1\n      revert\n    tag_114:\n      pop\n      tag_115\n      tag_116\n      jump\t// in\n    tag_115:\n      stop\n        /* \"octo_flattened.sol\":39067:39121  uint256 public constant initialRewardRate = 100 * 1e18 */\n    tag_16:\n      callvalue\n      dup1\n      iszero\n      tag_117\n      jumpi\n      0x00\n      dup1\n      revert\n    tag_117:\n      pop\n      tag_118\n      tag_119\n      jump\t// in\n    tag_118:\n      mload(0x40)\n      tag_120\n      swap2\n      swap1\n      tag_59\n      jump\t// in\n    tag_120:\n      mload(0x40)\n      dup1\n      swap2\n      sub\n      swap1\n      return\n        /* \"octo_flattened.sol\":39329:39378  mapping(address => uint256) public stakeStartTime */\n    tag_17:\n      callvalue\n      dup1\n      iszero\n      tag_121\n      jumpi\n      0x00\n      dup1\n      revert\n    tag_121:\n      pop\n      tag_122\n      0x04\n      dup1\n      calldatasize\n      sub\n      dup2\n      add\n      swap1\n      tag_123\n      swap2\n      swap1\n      tag_56\n      jump\t// in\n    tag_123:\n      tag_124\n      jump\t// in\n    tag_122:\n      mload(0x40)\n      tag_125\n      swap2\n      swap1\n      tag_59\n      jump\t// in\n    tag_125:\n      mload(0x40)\n      dup1\n      swap2\n      sub\n      swap1\n      return\n        /* \"octo_flattened.sol\":29787:29903  function balanceOf(address account) public view virtual returns (uint256) {... */\n    tag_18:\n      callvalue\n      dup1\n      iszero\n      tag_126\n      jumpi\n      0x00\n      dup1\n      revert\n    tag_126:\n      pop\n      tag_127\n      0x04\n      dup1\n      calldatasize\n      sub\n      dup2\n      add\n      swap1\n      tag_128\n      swap2\n      swap1\n      tag_56\n      jump\t// in\n    tag_128:\n      tag_129\n      jump\t// in\n    tag_127:\n      mload(0x40)\n      tag_130\n      swap2\n      swap1\n      tag_59\n      jump\t// in\n    tag_130:\n      mload(0x40)\n      dup1\n      swap2\n      sub\n      swap1\n      return\n        /* \"octo_flattened.sol\":22369:22470  function renounceOwnership() public virtual onlyOwner {... */\n    tag_19:\n      callvalue\n      dup1\n      iszero\n      tag_131\n      jumpi\n      0x00\n      dup1\n      revert\n    tag_131:\n      pop\n      tag_132\n      tag_133\n      jump\t// in\n    tag_132:\n      stop\n        /* \"octo_flattened.sol\":40987:41426  function provideInitialLiquidity(uint256 tokenAmount) external onlyOwner {... */\n    tag_20:\n      callvalue\n      dup1\n      iszero\n      tag_134\n      jumpi\n      0x00\n      dup1\n      revert\n    tag_134:\n      pop\n      tag_135\n      0x04\n      dup1\n      calldatasize\n      sub\n      dup2\n      add\n      swap1\n      tag_136\n      swap2\n      swap1\n      tag_95\n      jump\t// in\n    tag_136:\n      tag_137\n      jump\t// in\n    tag_135:\n      stop\n        /* \"octo_flattened.sol\":38945:38984  IUniswapV2Router02 public uniswapRouter */\n    tag_21:\n      callvalue\n      dup1\n      iszero\n      tag_138\n      jumpi\n      0x00\n      dup1\n      revert\n    tag_138:\n      pop\n      tag_139\n      tag_140\n      jump\t// in\n    tag_139:\n      mload(0x40)\n      tag_141\n      swap2\n      swap1\n      tag_142\n      jump\t// in\n    tag_141:\n      mload(0x40)\n      dup1\n      swap2\n      sub\n      swap1\n      return\n        /* \"octo_flattened.sol\":39184:39210  uint256 public taxRate = 4 */\n    tag_22:\n      callvalue\n      dup1\n      iszero\n      tag_143\n      jumpi\n      0x00\n      dup1\n      revert\n    tag_143:\n      pop\n      tag_144\n      tag_145\n      jump\t// in\n    tag_144:\n      mload(0x40)\n      tag_146\n      swap2\n      swap1\n      tag_59\n      jump\t// in\n    tag_146:\n      mload(0x40)\n      dup1\n      swap2\n      sub\n      swap1\n      return\n        /* \"octo_flattened.sol\":45929:46543  function distributeLiquidityMiningRewards() external onlyOwner {... */\n    tag_23:\n      callvalue\n      dup1\n      iszero\n      tag_147\n      jumpi\n      0x00\n      dup1\n      revert\n    tag_147:\n      pop\n      tag_148\n      tag_149\n      jump\t// in\n    tag_148:\n      stop\n        /* \"octo_flattened.sol\":39629:39675  uint256 public liquidityMiningRate = 10 * 1e18 */\n    tag_24:\n      callvalue\n      dup1\n      iszero\n      tag_150\n      jumpi\n      0x00\n      dup1\n      revert\n    tag_150:\n      pop\n      tag_151\n      tag_152\n      jump\t// in\n    tag_151:\n      mload(0x40)\n      tag_153\n      swap2\n      swap1\n      tag_59\n      jump\t// in\n    tag_153:\n      mload(0x40)\n      dup1\n      swap2\n      sub\n      swap1\n      return\n        /* \"octo_flattened.sol\":39274:39323  mapping(address => uint256) public lpTokenBalance */\n    tag_25:\n      callvalue\n      dup1\n      iszero\n      tag_154\n      jumpi\n      0x00\n      dup1\n      revert\n    tag_154:\n      pop\n      tag_155\n      0x04\n      dup1\n      calldatasize\n      sub\n      dup2\n      add\n      swap1\n      tag_156\n      swap2\n      swap1\n      tag_56\n      jump\t// in\n    tag_156:\n      tag_157\n      jump\t// in\n    tag_155:\n      mload(0x40)\n      tag_158\n      swap2\n      swap1\n      tag_59\n      jump\t// in\n    tag_158:\n      mload(0x40)\n      dup1\n      swap2\n      sub\n      swap1\n      return\n        /* \"octo_flattened.sol\":21714:21799  function owner() public view virtual returns (address) {... */\n    tag_26:\n      callvalue\n      dup1\n      iszero\n      tag_159\n      jumpi\n      0x00\n      dup1\n      revert\n    tag_159:\n      pop\n      tag_160\n      tag_161\n      jump\t// in\n    tag_160:\n      mload(0x40)\n      tag_162\n      swap2\n      swap1\n      tag_163\n      jump\t// in\n    tag_162:\n      mload(0x40)\n      dup1\n      swap2\n      sub\n      swap1\n      return\n        /* \"octo_flattened.sol\":28764:28857  function symbol() public view virtual returns (string memory) {... */\n    tag_27:\n      callvalue\n      dup1\n      iszero\n      tag_164\n      jumpi\n      0x00\n      dup1\n      revert\n    tag_164:\n      pop\n      tag_165\n      tag_166\n      jump\t// in\n    tag_165:\n      mload(0x40)\n      tag_167\n      swap2\n      swap1\n      tag_69\n      jump\t// in\n    tag_167:\n      mload(0x40)\n      dup1\n      swap2\n      sub\n      swap1\n      return\n        /* \"octo_flattened.sol\":39726:39761  address[] public liquidityProviders */\n    tag_28:\n      callvalue\n      dup1\n      iszero\n      tag_168\n      jumpi\n      0x00\n      dup1\n      revert\n    tag_168:\n      pop\n      tag_169\n      0x04\n      dup1\n      calldatasize\n      sub\n      dup2\n      add\n      swap1\n      tag_170\n      swap2\n      swap1\n      tag_95\n      jump\t// in\n    tag_170:\n      tag_171\n      jump\t// in\n    tag_169:\n      mload(0x40)\n      tag_172\n      swap2\n      swap1\n      tag_163\n      jump\t// in\n    tag_172:\n      mload(0x40)\n      dup1\n      swap2\n      sub\n      swap1\n      return\n        /* \"octo_flattened.sol\":39767:39818  mapping(address => bool) public isLiquidityProvider */\n    tag_29:\n      callvalue\n      dup1\n      iszero\n      tag_173\n      jumpi\n      0x00\n      dup1\n      revert\n    tag_173:\n      pop\n      tag_174\n      0x04\n      dup1\n      calldatasize\n      sub\n      dup2\n      add\n      swap1\n      tag_175\n      swap2\n      swap1\n      tag_56\n      jump\t// in\n    tag_175:\n      tag_176\n      jump\t// in\n    tag_174:\n      mload(0x40)\n      tag_177\n      swap2\n      swap1\n      tag_76\n      jump\t// in\n    tag_177:\n      mload(0x40)\n      dup1\n      swap2\n      sub\n      swap1\n      return\n        /* \"octo_flattened.sol\":46549:46845  function calculateLiquidityMiningRewards(address provider) public view returns (uint256) {... */\n    tag_30:\n      callvalue\n      dup1\n      iszero\n      tag_178\n      jumpi\n      0x00\n      dup1\n      revert\n    tag_178:\n      pop\n      tag_179\n      0x04\n      dup1\n      calldatasize\n      sub\n      dup2\n      add\n      swap1\n      tag_180\n      swap2\n      swap1\n      tag_56\n      jump\t// in\n    tag_180:\n      tag_181\n      jump\t// in\n    tag_179:\n      mload(0x40)\n      tag_182\n      swap2\n      swap1\n      tag_59\n      jump\t// in\n    tag_182:\n      mload(0x40)\n      dup1\n      swap2\n      sub\n      swap1\n      return\n        /* \"octo_flattened.sol\":43176:43788  function stake(uint256 amount) external nonReentrant {... */\n    tag_31:\n      callvalue\n      dup1\n      iszero\n      tag_183\n      jumpi\n      0x00\n      dup1\n      revert\n    tag_183:\n      pop\n      tag_184\n      0x04\n      dup1\n      calldatasize\n      sub\n      dup2\n      add\n      swap1\n      tag_185\n      swap2\n      swap1\n      tag_95\n      jump\t// in\n    tag_185:\n      tag_186\n      jump\t// in\n    tag_184:\n      stop\n        /* \"octo_flattened.sol\":30098:30276  function transfer(address to, uint256 value) public virtual returns (bool) {... */\n    tag_32:\n      callvalue\n      dup1\n      iszero\n      tag_187\n      jumpi\n      0x00\n      dup1\n      revert\n    tag_187:\n      pop\n      tag_188\n      0x04\n      dup1\n      calldatasize\n      sub\n      dup2\n      add\n      swap1\n      tag_189\n      swap2\n      swap1\n      tag_73\n      jump\t// in\n    tag_189:\n      tag_190\n      jump\t// in\n    tag_188:\n      mload(0x40)\n      tag_191\n      swap2\n      swap1\n      tag_76\n      jump\t// in\n    tag_191:\n      mload(0x40)\n      dup1\n      swap2\n      sub\n      swap1\n      return\n        /* \"octo_flattened.sol\":39029:39061  address public developmentWallet */\n    tag_33:\n      callvalue\n      dup1\n      iszero\n      tag_192\n      jumpi\n      0x00\n      dup1\n      revert\n    tag_192:\n      pop\n      tag_193\n      tag_194\n      jump\t// in\n    tag_193:\n      mload(0x40)\n      tag_195\n      swap2\n      swap1\n      tag_163\n      jump\t// in\n    tag_195:\n      mload(0x40)\n      dup1\n      swap2\n      sub\n      swap1\n      return\n        /* \"octo_flattened.sol\":38990:39023  IUniswapV2Pair public uniswapPair */\n    tag_34:\n      callvalue\n      dup1\n      iszero\n      tag_196\n      jumpi\n      0x00\n      dup1\n      revert\n    tag_196:\n      pop\n      tag_197\n      tag_198\n      jump\t// in\n    tag_197:\n      mload(0x40)\n      tag_199\n      swap2\n      swap1\n      tag_200\n      jump\t// in\n    tag_199:\n      mload(0x40)\n      dup1\n      swap2\n      sub\n      swap1\n      return\n        /* \"octo_flattened.sol\":39553:39582  uint256 public lastUpdateTime */\n    tag_35:\n      callvalue\n      dup1\n      iszero\n      tag_201\n      jumpi\n      0x00\n      dup1\n      revert\n    tag_201:\n      pop\n      tag_202\n      tag_203\n      jump\t// in\n    tag_202:\n      mload(0x40)\n      tag_204\n      swap2\n      swap1\n      tag_59\n      jump\t// in\n    tag_204:\n      mload(0x40)\n      dup1\n      swap2\n      sub\n      swap1\n      return\n        /* \"octo_flattened.sol\":41686:41936  function rewardPerToken() public view returns (uint256) {... */\n    tag_36:\n      callvalue\n      dup1\n      iszero\n      tag_205\n      jumpi\n      0x00\n      dup1\n      revert\n    tag_205:\n      pop\n      tag_206\n      tag_207\n      jump\t// in\n    tag_206:\n      mload(0x40)\n      tag_208\n      swap2\n      swap1\n      tag_59\n      jump\t// in\n    tag_208:\n      mload(0x40)\n      dup1\n      swap2\n      sub\n      swap1\n      return\n        /* \"octo_flattened.sol\":40873:40981  function setUniswapPair(address pair) external onlyOwner {... */\n    tag_37:\n      callvalue\n      dup1\n      iszero\n      tag_209\n      jumpi\n      0x00\n      dup1\n      revert\n    tag_209:\n      pop\n      tag_210\n      0x04\n      dup1\n      calldatasize\n      sub\n      dup2\n      add\n      swap1\n      tag_211\n      swap2\n      swap1\n      tag_56\n      jump\t// in\n    tag_211:\n      tag_212\n      jump\t// in\n    tag_210:\n      stop\n        /* \"octo_flattened.sol\":39217:39268  mapping(address => uint256) public liquidityBalance */\n    tag_38:\n      callvalue\n      dup1\n      iszero\n      tag_213\n      jumpi\n      0x00\n      dup1\n      revert\n    tag_213:\n      pop\n      tag_214\n      0x04\n      dup1\n      calldatasize\n      sub\n      dup2\n      add\n      swap1\n      tag_215\n      swap2\n      swap1\n      tag_56\n      jump\t// in\n    tag_215:\n      tag_216\n      jump\t// in\n    tag_214:\n      mload(0x40)\n      tag_217\n      swap2\n      swap1\n      tag_59\n      jump\t// in\n    tag_217:\n      mload(0x40)\n      dup1\n      swap2\n      sub\n      swap1\n      return\n        /* \"octo_flattened.sol\":30334:30474  function allowance(address owner, address spender) public view virtual returns (uint256) {... */\n    tag_39:\n      callvalue\n      dup1\n      iszero\n      tag_218\n      jumpi\n      0x00\n      dup1\n      revert\n    tag_218:\n      pop\n      tag_219\n      0x04\n      dup1\n      calldatasize\n      sub\n      dup2\n      add\n      swap1\n      tag_220\n      swap2\n      swap1\n      tag_221\n      jump\t// in\n    tag_220:\n      tag_222\n      jump\t// in\n    tag_219:\n      mload(0x40)\n      tag_223\n      swap2\n      swap1\n      tag_59\n      jump\t// in\n    tag_223:\n      mload(0x40)\n      dup1\n      swap2\n      sub\n      swap1\n      return\n        /* \"octo_flattened.sol\":39588:39623  uint256 public rewardPerTokenStored */\n    tag_40:\n      callvalue\n      dup1\n      iszero\n      tag_224\n      jumpi\n      0x00\n      dup1\n      revert\n    tag_224:\n      pop\n      tag_225\n      tag_226\n      jump\t// in\n    tag_225:\n      mload(0x40)\n      tag_227\n      swap2\n      swap1\n      tag_59\n      jump\t// in\n    tag_227:\n      mload(0x40)\n      dup1\n      swap2\n      sub\n      swap1\n      return\n        /* \"octo_flattened.sol\":22619:22834  function transferOwnership(address newOwner) public virtual onlyOwner {... */\n    tag_41:\n      callvalue\n      dup1\n      iszero\n      tag_228\n      jumpi\n      0x00\n      dup1\n      revert\n    tag_228:\n      pop\n      tag_229\n      0x04\n      dup1\n      calldatasize\n      sub\n      dup2\n      add\n      swap1\n      tag_230\n      swap2\n      swap1\n      tag_56\n      jump\t// in\n    tag_230:\n      tag_231\n      jump\t// in\n    tag_229:\n      stop\n        /* \"octo_flattened.sol\":41942:42975  function currentRewardRate() public view returns (uint256) {... */\n    tag_42:\n      callvalue\n      dup1\n      iszero\n      tag_232\n      jumpi\n      0x00\n      dup1\n      revert\n    tag_232:\n      pop\n      tag_233\n      tag_234\n      jump\t// in\n    tag_233:\n      mload(0x40)\n      tag_235\n      swap2\n      swap1\n      tag_59\n      jump\t// in\n    tag_235:\n      mload(0x40)\n      dup1\n      swap2\n      sub\n      swap1\n      return\n        /* \"octo_flattened.sol\":39490:39547  mapping(address => uint256) public liquidityMiningRewards */\n    tag_43:\n      callvalue\n      dup1\n      iszero\n      tag_236\n      jumpi\n      0x00\n      dup1\n      revert\n    tag_236:\n      pop\n      tag_237\n      0x04\n      dup1\n      calldatasize\n      sub\n      dup2\n      add\n      swap1\n      tag_238\n      swap2\n      swap1\n      tag_56\n      jump\t// in\n    tag_238:\n      tag_239\n      jump\t// in\n    tag_237:\n      mload(0x40)\n      tag_240\n      swap2\n      swap1\n      tag_59\n      jump\t// in\n    tag_240:\n      mload(0x40)\n      dup1\n      swap2\n      sub\n      swap1\n      return\n        /* \"octo_flattened.sol\":42981:43170  function earned(address account) public view returns (uint256) {... */\n    tag_57:\n        /* \"octo_flattened.sol\":43035:43042  uint256 */\n      0x00\n        /* \"octo_flattened.sol\":43140:43154  lpTokenBalance */\n      0x0c\n        /* \"octo_flattened.sol\":43140:43163  lpTokenBalance[account] */\n      0x00\n        /* \"octo_flattened.sol\":43155:43162  account */\n      dup4\n        /* \"octo_flattened.sol\":43140:43163  lpTokenBalance[account] */\n      0xffffffffffffffffffffffffffffffffffffffff\n      and\n      0xffffffffffffffffffffffffffffffffffffffff\n      and\n      dup2\n      mstore\n      0x20\n      add\n      swap1\n      dup2\n      mstore\n      0x20\n      add\n      0x00\n      keccak256\n      sload\n        /* \"octo_flattened.sol\":43132:43136  1e18 */\n      0x0de0b6b3a7640000\n        /* \"octo_flattened.sol\":43108:43128  rewardPerTokenStored */\n      sload(0x12)\n        /* \"octo_flattened.sol\":43089:43105  rewardPerToken() */\n      tag_242\n        /* \"octo_flattened.sol\":43089:43103  rewardPerToken */\n      tag_207\n        /* \"octo_flattened.sol\":43089:43105  rewardPerToken() */\n      jump\t// in\n    tag_242:\n        /* \"octo_flattened.sol\":43089:43128  rewardPerToken() - rewardPerTokenStored */\n      tag_243\n      swap2\n      swap1\n      tag_244\n      jump\t// in\n    tag_243:\n        /* \"octo_flattened.sol\":43062:43076  lpTokenBalance */\n      0x0c\n        /* \"octo_flattened.sol\":43062:43085  lpTokenBalance[account] */\n      0x00\n        /* \"octo_flattened.sol\":43077:43084  account */\n      dup7\n        /* \"octo_flattened.sol\":43062:43085  lpTokenBalance[account] */\n      0xffffffffffffffffffffffffffffffffffffffff\n      and\n      0xffffffffffffffffffffffffffffffffffffffff\n      and\n      dup2\n      mstore\n      0x20\n      add\n      swap1\n      dup2\n      mstore\n      0x20\n      add\n      0x00\n      keccak256\n      sload\n        /* \"octo_flattened.sol\":43062:43129  lpTokenBalance[account] * (rewardPerToken() - rewardPerTokenStored) */\n      tag_245\n      swap2\n      swap1\n      tag_246\n      jump\t// in\n    tag_245:\n        /* \"octo_flattened.sol\":43062:43136  lpTokenBalance[account] * (rewardPerToken() - rewardPerTokenStored) / 1e18 */\n      tag_247\n      swap2\n      swap1\n      tag_248\n      jump\t// in\n    tag_247:\n        /* \"octo_flattened.sol\":43061:43163  (lpTokenBalance[account] * (rewardPerToken() - rewardPerTokenStored) / 1e18) + lpTokenBalance[account] */\n      tag_249\n      swap2\n      swap1\n      tag_250\n      jump\t// in\n    tag_249:\n        /* \"octo_flattened.sol\":43054:43163  return (lpTokenBalance[account] * (rewardPerToken() - rewardPerTokenStored) / 1e18) + lpTokenBalance[account] */\n      swap1\n      pop\n        /* \"octo_flattened.sol\":42981:43170  function earned(address account) public view returns (uint256) {... */\n      swap2\n      swap1\n      pop\n      jump\t// out\n        /* \"octo_flattened.sol\":39384:39431  mapping(address => uint256) public vestingStart */\n    tag_63:\n      mstore(0x20, 0x0e)\n      dup1\n      0x00\n      mstore\n      keccak256(0x00, 0x40)\n      0x00\n      swap2\n      pop\n      swap1\n      pop\n      sload\n      dup2\n      jump\t// out\n        /* \"octo_flattened.sol\":28562:28651  function name() public view virtual returns (string memory) {... */\n    tag_67:\n        /* \"octo_flattened.sol\":28607:28620  string memory */\n      0x60\n        /* \"octo_flattened.sol\":28639:28644  _name */\n      0x03\n        /* \"octo_flattened.sol\":28632:28644  return _name */\n      dup1\n      sload\n      tag_252\n      swap1\n      tag_253\n      jump\t// in\n    tag_252:\n      dup1\n      0x1f\n      add\n      0x20\n      dup1\n      swap2\n      div\n      mul\n      0x20\n      add\n      mload(0x40)\n      swap1\n      dup2\n      add\n      0x40\n      mstore\n      dup1\n      swap3\n      swap2\n      swap1\n      dup2\n      dup2\n      mstore\n      0x20\n      add\n      dup3\n      dup1\n      sload\n      tag_254\n      swap1\n      tag_253\n      jump\t// in\n    tag_254:\n      dup1\n      iszero\n      tag_255\n      jumpi\n      dup1\n      0x1f\n      lt\n      tag_256\n      jumpi\n      0x0100\n      dup1\n      dup4\n      sload\n      div\n      mul\n      dup4\n      mstore\n      swap2\n      0x20\n      add\n      swap2\n      jump(tag_255)\n    tag_256:\n      dup3\n      add\n      swap2\n      swap1\n      0x00\n      mstore\n      keccak256(0x00, 0x20)\n      swap1\n    tag_257:\n      dup2\n      sload\n      dup2\n      mstore\n      swap1\n      0x01\n      add\n      swap1\n      0x20\n      add\n      dup1\n      dup4\n      gt\n      tag_257\n      jumpi\n      dup3\n      swap1\n      sub\n      0x1f\n      and\n      dup3\n      add\n      swap2\n    tag_255:\n      pop\n      pop\n      pop\n      pop\n      pop\n      swap1\n      pop\n        /* \"octo_flattened.sol\":28562:28651  function name() public view virtual returns (string memory) {... */\n      swap1\n      jump\t// out\n        /* \"octo_flattened.sol\":30781:30967  function approve(address spender, uint256 value) public virtual returns (bool) {... */\n    tag_74:\n        /* \"octo_flattened.sol\":30854:30858  bool */\n      0x00\n        /* \"octo_flattened.sol\":30870:30883  address owner */\n      dup1\n        /* \"octo_flattened.sol\":30886:30898  _msgSender() */\n      tag_259\n        /* \"octo_flattened.sol\":30886:30896  _msgSender */\n      tag_260\n        /* \"octo_flattened.sol\":30886:30898  _msgSender() */\n      jump\t// in\n    tag_259:\n        /* \"octo_flattened.sol\":30870:30898  address owner = _msgSender() */\n      swap1\n      pop\n        /* \"octo_flattened.sol\":30908:30939  _approve(owner, spender, value) */\n      tag_261\n        /* \"octo_flattened.sol\":30917:30922  owner */\n      dup2\n        /* \"octo_flattened.sol\":30924:30931  spender */\n      dup6\n        /* \"octo_flattened.sol\":30933:30938  value */\n      dup6\n        /* \"octo_flattened.sol\":30908:30916  _approve */\n      tag_262\n        /* \"octo_flattened.sol\":30908:30939  _approve(owner, spender, value) */\n      jump\t// in\n    tag_261:\n        /* \"octo_flattened.sol\":30956:30960  true */\n      0x01\n        /* \"octo_flattened.sol\":30949:30960  return true */\n      swap2\n      pop\n      pop\n        /* \"octo_flattened.sol\":30781:30967  function approve(address spender, uint256 value) public virtual returns (bool) {... */\n      swap3\n      swap2\n      pop\n      pop\n      jump\t// out\n        /* \"octo_flattened.sol\":45738:45923  function releasableAmount(address beneficiary) public view returns (uint256) {... */\n    tag_80:\n        /* \"octo_flattened.sol\":45806:45813  uint256 */\n      0x00\n        /* \"octo_flattened.sol\":45908:45916  365 days */\n      0x01e13380\n        /* \"octo_flattened.sol\":45879:45891  vestingStart */\n      0x0e\n        /* \"octo_flattened.sol\":45879:45904  vestingStart[beneficiary] */\n      0x00\n        /* \"octo_flattened.sol\":45892:45903  beneficiary */\n      dup5\n        /* \"octo_flattened.sol\":45879:45904  vestingStart[beneficiary] */\n      0xffffffffffffffffffffffffffffffffffffffff\n      and\n      0xffffffffffffffffffffffffffffffffffffffff\n      and\n      dup2\n      mstore\n      0x20\n      add\n      swap1\n      dup2\n      mstore\n      0x20\n      add\n      0x00\n      keccak256\n      sload\n        /* \"octo_flattened.sol\":45861:45876  block.timestamp */\n      timestamp\n        /* \"octo_flattened.sol\":45861:45904  block.timestamp - vestingStart[beneficiary] */\n      tag_264\n      swap2\n      swap1\n      tag_244\n      jump\t// in\n    tag_264:\n        /* \"octo_flattened.sol\":45832:45844  vestedAmount */\n      0x0f\n        /* \"octo_flattened.sol\":45832:45857  vestedAmount[beneficiary] */\n      0x00\n        /* \"octo_flattened.sol\":45845:45856  beneficiary */\n      dup6\n        /* \"octo_flattened.sol\":45832:45857  vestedAmount[beneficiary] */\n      0xffffffffffffffffffffffffffffffffffffffff\n      and\n      0xffffffffffffffffffffffffffffffffffffffff\n      and\n      dup2\n      mstore\n      0x20\n      add\n      swap1\n      dup2\n      mstore\n      0x20\n      add\n      0x00\n      keccak256\n      sload\n        /* \"octo_flattened.sol\":45832:45905  vestedAmount[beneficiary] * (block.timestamp - vestingStart[beneficiary]) */\n      tag_265\n      swap2\n      swap1\n      tag_246\n      jump\t// in\n    tag_265:\n        /* \"octo_flattened.sol\":45832:45916  vestedAmount[beneficiary] * (block.timestamp - vestingStart[beneficiary]) / 365 days */\n      tag_266\n      swap2\n      swap1\n      tag_248\n      jump\t// in\n    tag_266:\n        /* \"octo_flattened.sol\":45825:45916  return vestedAmount[beneficiary] * (block.timestamp - vestingStart[beneficiary]) / 365 days */\n      swap1\n      pop\n        /* \"octo_flattened.sol\":45738:45923  function releasableAmount(address beneficiary) public view returns (uint256) {... */\n      swap2\n      swap1\n      pop\n      jump\t// out\n        /* \"octo_flattened.sol\":29632:29729  function totalSupply() public view virtual returns (uint256) {... */\n    tag_84:\n        /* \"octo_flattened.sol\":29684:29691  uint256 */\n      0x00\n        /* \"octo_flattened.sol\":29710:29722  _totalSupply */\n      sload(0x02)\n        /* \"octo_flattened.sol\":29703:29722  return _totalSupply */\n      swap1\n      pop\n        /* \"octo_flattened.sol\":29632:29729  function totalSupply() public view virtual returns (uint256) {... */\n      swap1\n      jump\t// out\n        /* \"octo_flattened.sol\":31527:31771  function transferFrom(address from, address to, uint256 value) public virtual returns (bool) {... */\n    tag_90:\n        /* \"octo_flattened.sol\":31614:31618  bool */\n      0x00\n        /* \"octo_flattened.sol\":31630:31645  address spender */\n      dup1\n        /* \"octo_flattened.sol\":31648:31660  _msgSender() */\n      tag_269\n        /* \"octo_flattened.sol\":31648:31658  _msgSender */\n      tag_260\n        /* \"octo_flattened.sol\":31648:31660  _msgSender() */\n      jump\t// in\n    tag_269:\n        /* \"octo_flattened.sol\":31630:31660  address spender = _msgSender() */\n      swap1\n      pop\n        /* \"octo_flattened.sol\":31670:31707  _spendAllowance(from, spender, value) */\n      tag_270\n        /* \"octo_flattened.sol\":31686:31690  from */\n      dup6\n        /* \"octo_flattened.sol\":31692:31699  spender */\n      dup3\n        /* \"octo_flattened.sol\":31701:31706  value */\n      dup6\n        /* \"octo_flattened.sol\":31670:31685  _spendAllowance */\n      tag_271\n        /* \"octo_flattened.sol\":31670:31707  _spendAllowance(from, spender, value) */\n      jump\t// in\n    tag_270:\n        /* \"octo_flattened.sol\":31717:31743  _transfer(from, to, value) */\n      tag_272\n        /* \"octo_flattened.sol\":31727:31731  from */\n      dup6\n        /* \"octo_flattened.sol\":31733:31735  to */\n      dup6\n        /* \"octo_flattened.sol\":31737:31742  value */\n      dup6\n        /* \"octo_flattened.sol\":31717:31726  _transfer */\n      tag_273\n        /* \"octo_flattened.sol\":31717:31743  _transfer(from, to, value) */\n      jump\t// in\n    tag_272:\n        /* \"octo_flattened.sol\":31760:31764  true */\n      0x01\n        /* \"octo_flattened.sol\":31753:31764  return true */\n      swap2\n      pop\n      pop\n        /* \"octo_flattened.sol\":31527:31771  function transferFrom(address from, address to, uint256 value) public virtual returns (bool) {... */\n      swap4\n      swap3\n      pop\n      pop\n      pop\n      jump\t// out\n        /* \"octo_flattened.sol\":43794:44618  function withdraw(uint256 amount) external nonReentrant {... */\n    tag_96:\n        /* \"octo_flattened.sol\":11683:11704  _nonReentrantBefore() */\n      tag_275\n        /* \"octo_flattened.sol\":11683:11702  _nonReentrantBefore */\n      tag_276\n        /* \"octo_flattened.sol\":11683:11704  _nonReentrantBefore() */\n      jump\t// in\n    tag_275:\n        /* \"octo_flattened.sol\":43898:43904  amount */\n      dup1\n        /* \"octo_flattened.sol\":43868:43882  lpTokenBalance */\n      0x0c\n        /* \"octo_flattened.sol\":43868:43894  lpTokenBalance[msg.sender] */\n      0x00\n        /* \"octo_flattened.sol\":43883:43893  msg.sender */\n      caller\n        /* \"octo_flattened.sol\":43868:43894  lpTokenBalance[msg.sender] */\n      0xffffffffffffffffffffffffffffffffffffffff\n      and\n      0xffffffffffffffffffffffffffffffffffffffff\n      and\n      dup2\n      mstore\n      0x20\n      add\n      swap1\n      dup2\n      mstore\n      0x20\n      add\n      0x00\n      keccak256\n      sload\n        /* \"octo_flattened.sol\":43868:43904  lpTokenBalance[msg.sender] >= amount */\n      lt\n      iszero\n        /* \"octo_flattened.sol\":43860:43940  require(lpTokenBalance[msg.sender] >= amount, \"Withdraw amount exceeds balance\") */\n      tag_278\n      jumpi\n      mload(0x40)\n      0x08c379a000000000000000000000000000000000000000000000000000000000\n      dup2\n      mstore\n      0x04\n      add\n      tag_279\n      swap1\n      tag_280\n      jump\t// in\n    tag_279:\n      mload(0x40)\n      dup1\n      swap2\n      sub\n      swap1\n      revert\n    tag_278:\n        /* \"octo_flattened.sol\":43950:43974  updateReward(msg.sender) */\n      tag_281\n        /* \"octo_flattened.sol\":43963:43973  msg.sender */\n      caller\n        /* \"octo_flattened.sol\":43950:43962  updateReward */\n      tag_282\n        /* \"octo_flattened.sol\":43950:43974  updateReward(msg.sender) */\n      jump\t// in\n    tag_281:\n        /* \"octo_flattened.sol\":44014:44020  amount */\n      dup1\n        /* \"octo_flattened.sol\":43984:43998  lpTokenBalance */\n      0x0c\n        /* \"octo_flattened.sol\":43984:44010  lpTokenBalance[msg.sender] */\n      0x00\n        /* \"octo_flattened.sol\":43999:44009  msg.sender */\n      caller\n        /* \"octo_flattened.sol\":43984:44010  lpTokenBalance[msg.sender] */\n      0xffffffffffffffffffffffffffffffffffffffff\n      and\n      0xffffffffffffffffffffffffffffffffffffffff\n      and\n      dup2\n      mstore\n      0x20\n      add\n      swap1\n      dup2\n      mstore\n      0x20\n      add\n      0x00\n      keccak256\n      0x00\n        /* \"octo_flattened.sol\":43984:44020  lpTokenBalance[msg.sender] -= amount */\n      dup3\n      dup3\n      sload\n      tag_283\n      swap2\n      swap1\n      tag_244\n      jump\t// in\n    tag_283:\n      swap3\n      pop\n      pop\n      dup2\n      swap1\n      sstore\n      pop\n        /* \"octo_flattened.sol\":44030:44041  uniswapPair */\n      0x08\n      0x00\n      swap1\n      sload\n      swap1\n      0x0100\n      exp\n      swap1\n      div\n      0xffffffffffffffffffffffffffffffffffffffff\n      and\n        /* \"octo_flattened.sol\":44030:44050  uniswapPair.transfer */\n      0xffffffffffffffffffffffffffffffffffffffff\n      and\n      0xa9059cbb\n        /* \"octo_flattened.sol\":44051:44061  msg.sender */\n      caller\n        /* \"octo_flattened.sol\":44063:44069  amount */\n      dup4\n        /* \"octo_flattened.sol\":44030:44070  uniswapPair.transfer(msg.sender, amount) */\n      mload(0x40)\n      dup4\n      0xffffffff\n      and\n      0xe0\n      shl\n      dup2\n      mstore\n      0x04\n      add\n      tag_284\n      swap3\n      swap2\n      swap1\n      tag_285\n      jump\t// in\n    tag_284:\n      0x20\n      mload(0x40)\n      dup1\n      dup4\n      sub\n      dup2\n      0x00\n      dup8\n      gas\n      call\n      iszero\n      dup1\n      iszero\n      tag_287\n      jumpi\n      returndatasize\n      0x00\n      dup1\n      returndatacopy\n      revert(0x00, returndatasize)\n    tag_287:\n      pop\n      pop\n      pop\n      pop\n      mload(0x40)\n      returndatasize\n      not(0x1f)\n      0x1f\n      dup3\n      add\n      and\n      dup3\n      add\n      dup1\n      0x40\n      mstore\n      pop\n      dup2\n      add\n      swap1\n      tag_288\n      swap2\n      swap1\n      tag_289\n      jump\t// in\n    tag_288:\n      pop\n        /* \"octo_flattened.sol\":44114:44115  0 */\n      0x00\n        /* \"octo_flattened.sol\":44084:44098  lpTokenBalance */\n      0x0c\n        /* \"octo_flattened.sol\":44084:44110  lpTokenBalance[msg.sender] */\n      0x00\n        /* \"octo_flattened.sol\":44099:44109  msg.sender */\n      caller\n        /* \"octo_flattened.sol\":44084:44110  lpTokenBalance[msg.sender] */\n      0xffffffffffffffffffffffffffffffffffffffff\n      and\n      0xffffffffffffffffffffffffffffffffffffffff\n      and\n      dup2\n      mstore\n      0x20\n      add\n      swap1\n      dup2\n      mstore\n      0x20\n      add\n      0x00\n      keccak256\n      sload\n        /* \"octo_flattened.sol\":44084:44115  lpTokenBalance[msg.sender] == 0 */\n      sub\n        /* \"octo_flattened.sol\":44080:44561  if (lpTokenBalance[msg.sender] == 0) {... */\n      tag_290\n      jumpi\n        /* \"octo_flattened.sol\":44165:44170  false */\n      0x00\n        /* \"octo_flattened.sol\":44131:44150  isLiquidityProvider */\n      0x15\n        /* \"octo_flattened.sol\":44131:44162  isLiquidityProvider[msg.sender] */\n      0x00\n        /* \"octo_flattened.sol\":44151:44161  msg.sender */\n      caller\n        /* \"octo_flattened.sol\":44131:44162  isLiquidityProvider[msg.sender] */\n      0xffffffffffffffffffffffffffffffffffffffff\n      and\n      0xffffffffffffffffffffffffffffffffffffffff\n      and\n      dup2\n      mstore\n      0x20\n      add\n      swap1\n      dup2\n      mstore\n      0x20\n      add\n      0x00\n      keccak256\n      0x00\n        /* \"octo_flattened.sol\":44131:44170  isLiquidityProvider[msg.sender] = false */\n      0x0100\n      exp\n      dup2\n      sload\n      dup2\n      0xff\n      mul\n      not\n      and\n      swap1\n      dup4\n      iszero\n      iszero\n      mul\n      or\n      swap1\n      sstore\n      pop\n        /* \"octo_flattened.sol\":44240:44249  uint256 i */\n      0x00\n        /* \"octo_flattened.sol\":44235:44551  for (uint256 i = 0; i < liquidityProviders.length; i++) {... */\n    tag_291:\n        /* \"octo_flattened.sol\":44259:44277  liquidityProviders */\n      0x14\n        /* \"octo_flattened.sol\":44259:44284  liquidityProviders.length */\n      dup1\n      sload\n      swap1\n      pop\n        /* \"octo_flattened.sol\":44255:44256  i */\n      dup2\n        /* \"octo_flattened.sol\":44255:44284  i < liquidityProviders.length */\n      lt\n        /* \"octo_flattened.sol\":44235:44551  for (uint256 i = 0; i < liquidityProviders.length; i++) {... */\n      iszero\n      tag_292\n      jumpi\n        /* \"octo_flattened.sol\":44338:44348  msg.sender */\n      caller\n        /* \"octo_flattened.sol\":44313:44348  liquidityProviders[i] == msg.sender */\n      0xffffffffffffffffffffffffffffffffffffffff\n      and\n        /* \"octo_flattened.sol\":44313:44331  liquidityProviders */\n      0x14\n        /* \"octo_flattened.sol\":44332:44333  i */\n      dup3\n        /* \"octo_flattened.sol\":44313:44334  liquidityProviders[i] */\n      dup2\n      sload\n      dup2\n      lt\n      tag_294\n      jumpi\n      tag_295\n      tag_296\n      jump\t// in\n    tag_295:\n    tag_294:\n      swap1\n      0x00\n      mstore\n      keccak256(0x00, 0x20)\n      add\n      0x00\n      swap1\n      sload\n      swap1\n      0x0100\n      exp\n      swap1\n      div\n      0xffffffffffffffffffffffffffffffffffffffff\n      and\n        /* \"octo_flattened.sol\":44313:44348  liquidityProviders[i] == msg.sender */\n      0xffffffffffffffffffffffffffffffffffffffff\n      and\n      sub\n        /* \"octo_flattened.sol\":44309:44537  if (liquidityProviders[i] == msg.sender) {... */\n      tag_298\n      jumpi\n        /* \"octo_flattened.sol\":44396:44414  liquidityProviders */\n      0x14\n        /* \"octo_flattened.sol\":44443:44444  1 */\n      0x01\n        /* \"octo_flattened.sol\":44415:44433  liquidityProviders */\n      0x14\n        /* \"octo_flattened.sol\":44415:44440  liquidityProviders.length */\n      dup1\n      sload\n      swap1\n      pop\n        /* \"octo_flattened.sol\":44415:44444  liquidityProviders.length - 1 */\n      tag_299\n      swap2\n      swap1\n      tag_244\n      jump\t// in\n    tag_299:\n        /* \"octo_flattened.sol\":44396:44445  liquidityProviders[liquidityProviders.length - 1] */\n      dup2\n      sload\n      dup2\n      lt\n      tag_300\n      jumpi\n      tag_301\n      tag_296\n      jump\t// in\n    tag_301:\n    tag_300:\n      swap1\n      0x00\n      mstore\n      keccak256(0x00, 0x20)\n      add\n      0x00\n      swap1\n      sload\n      swap1\n      0x0100\n      exp\n      swap1\n      div\n      0xffffffffffffffffffffffffffffffffffffffff\n      and\n        /* \"octo_flattened.sol\":44372:44390  liquidityProviders */\n      0x14\n        /* \"octo_flattened.sol\":44391:44392  i */\n      dup3\n        /* \"octo_flattened.sol\":44372:44393  liquidityProviders[i] */\n      dup2\n      sload\n      dup2\n      lt\n      tag_303\n      jumpi\n      tag_304\n      tag_296\n      jump\t// in\n    tag_304:\n    tag_303:\n      swap1\n      0x00\n      mstore\n      keccak256(0x00, 0x20)\n      add\n      0x00\n        /* \"octo_flattened.sol\":44372:44445  liquidityProviders[i] = liquidityProviders[liquidityProviders.length - 1] */\n      0x0100\n      exp\n      dup2\n      sload\n      dup2\n      0xffffffffffffffffffffffffffffffffffffffff\n      mul\n      not\n      and\n      swap1\n      dup4\n      0xffffffffffffffffffffffffffffffffffffffff\n      and\n      mul\n      or\n      swap1\n      sstore\n      pop\n        /* \"octo_flattened.sol\":44467:44485  liquidityProviders */\n      0x14\n        /* \"octo_flattened.sol\":44467:44491  liquidityProviders.pop() */\n      dup1\n      sload\n      dup1\n      tag_306\n      jumpi\n      tag_307\n      tag_308\n      jump\t// in\n    tag_307:\n    tag_306:\n      0x01\n      swap1\n      sub\n      dup2\n      dup2\n      swap1\n      0x00\n      mstore\n      keccak256(0x00, 0x20)\n      add\n      exp(0x0100, 0x00)\n      dup2\n      sload\n      swap1\n      0xffffffffffffffffffffffffffffffffffffffff\n      mul\n      not\n      and\n      swap1\n      sstore\n      swap1\n      sstore\n        /* \"octo_flattened.sol\":44513:44518  break */\n      jump(tag_292)\n        /* \"octo_flattened.sol\":44309:44537  if (liquidityProviders[i] == msg.sender) {... */\n    tag_298:\n        /* \"octo_flattened.sol\":44286:44289  i++ */\n      dup1\n      dup1\n      tag_310\n      swap1\n      tag_311\n      jump\t// in\n    tag_310:\n      swap2\n      pop\n      pop\n        /* \"octo_flattened.sol\":44235:44551  for (uint256 i = 0; i < liquidityProviders.length; i++) {... */\n      jump(tag_291)\n    tag_292:\n      pop\n        /* \"octo_flattened.sol\":44080:44561  if (lpTokenBalance[msg.sender] == 0) {... */\n    tag_290:\n        /* \"octo_flattened.sol\":44592:44602  msg.sender */\n      caller\n        /* \"octo_flattened.sol\":44575:44611  LiquidityRemoved(msg.sender, amount) */\n      0xffffffffffffffffffffffffffffffffffffffff\n      and\n      0xc2c3f06e49b9f15e7b4af9055e183b0d73362e033ad82a07dec9bf9840171719\n        /* \"octo_flattened.sol\":44604:44610  amount */\n      dup3\n        /* \"octo_flattened.sol\":44575:44611  LiquidityRemoved(msg.sender, amount) */\n      mload(0x40)\n      tag_312\n      swap2\n      swap1\n      tag_59\n      jump\t// in\n    tag_312:\n      mload(0x40)\n      dup1\n      swap2\n      sub\n      swap1\n      log2\n        /* \"octo_flattened.sol\":11725:11745  _nonReentrantAfter() */\n      tag_313\n        /* \"octo_flattened.sol\":11725:11743  _nonReentrantAfter */\n      tag_314\n        /* \"octo_flattened.sol\":11725:11745  _nonReentrantAfter() */\n      jump\t// in\n    tag_313:\n        /* \"octo_flattened.sol\":43794:44618  function withdraw(uint256 amount) external nonReentrant {... */\n      pop\n      jump\t// out\n        /* \"octo_flattened.sol\":29490:29572  function decimals() public view virtual returns (uint8) {... */\n    tag_99:\n        /* \"octo_flattened.sol\":29539:29544  uint8 */\n      0x00\n        /* \"octo_flattened.sol\":29563:29565  18 */\n      0x12\n        /* \"octo_flattened.sol\":29556:29565  return 18 */\n      swap1\n      pop\n        /* \"octo_flattened.sol\":29490:29572  function decimals() public view virtual returns (uint8) {... */\n      swap1\n      jump\t// out\n        /* \"octo_flattened.sol\":39127:39178  uint256 public constant finalRewardRate = 10 * 1e18 */\n    tag_104:\n        /* \"octo_flattened.sol\":39169:39178  10 * 1e18 */\n      0x8ac7230489e80000\n        /* \"octo_flattened.sol\":39127:39178  uint256 public constant finalRewardRate = 10 * 1e18 */\n      dup2\n      jump\t// out\n        /* \"octo_flattened.sol\":39437:39484  mapping(address => uint256) public vestedAmount */\n    tag_109:\n      mstore(0x20, 0x0f)\n      dup1\n      0x00\n      mstore\n      keccak256(0x00, 0x40)\n      0x00\n      swap2\n      pop\n      swap1\n      pop\n      sload\n      dup2\n      jump\t// out\n        /* \"octo_flattened.sol\":44624:44946  function getReward() external nonReentrant {... */\n    tag_113:\n        /* \"octo_flattened.sol\":11683:11704  _nonReentrantBefore() */\n      tag_317\n        /* \"octo_flattened.sol\":11683:11702  _nonReentrantBefore */\n      tag_276\n        /* \"octo_flattened.sol\":11683:11704  _nonReentrantBefore() */\n      jump\t// in\n    tag_317:\n        /* \"octo_flattened.sol\":44677:44701  updateReward(msg.sender) */\n      tag_319\n        /* \"octo_flattened.sol\":44690:44700  msg.sender */\n      caller\n        /* \"octo_flattened.sol\":44677:44689  updateReward */\n      tag_282\n        /* \"octo_flattened.sol\":44677:44701  updateReward(msg.sender) */\n      jump\t// in\n    tag_319:\n        /* \"octo_flattened.sol\":44711:44725  uint256 reward */\n      0x00\n        /* \"octo_flattened.sol\":44728:44746  earned(msg.sender) */\n      tag_320\n        /* \"octo_flattened.sol\":44735:44745  msg.sender */\n      caller\n        /* \"octo_flattened.sol\":44728:44734  earned */\n      tag_57\n        /* \"octo_flattened.sol\":44728:44746  earned(msg.sender) */\n      jump\t// in\n    tag_320:\n        /* \"octo_flattened.sol\":44711:44746  uint256 reward = earned(msg.sender) */\n      swap1\n      pop\n        /* \"octo_flattened.sol\":44769:44770  0 */\n      0x00\n        /* \"octo_flattened.sol\":44760:44766  reward */\n      dup2\n        /* \"octo_flattened.sol\":44760:44770  reward > 0 */\n      gt\n        /* \"octo_flattened.sol\":44756:44940  if (reward > 0) {... */\n      iszero\n      tag_321\n      jumpi\n        /* \"octo_flattened.sol\":44815:44816  0 */\n      0x00\n        /* \"octo_flattened.sol\":44786:44800  lpTokenBalance */\n      0x0c\n        /* \"octo_flattened.sol\":44786:44812  lpTokenBalance[msg.sender] */\n      0x00\n        /* \"octo_flattened.sol\":44801:44811  msg.sender */\n      caller\n        /* \"octo_flattened.sol\":44786:44812  lpTokenBalance[msg.sender] */\n      0xffffffffffffffffffffffffffffffffffffffff\n      and\n      0xffffffffffffffffffffffffffffffffffffffff\n      and\n      dup2\n      mstore\n      0x20\n      add\n      swap1\n      dup2\n      mstore\n      0x20\n      add\n      0x00\n      keccak256\n        /* \"octo_flattened.sol\":44786:44816  lpTokenBalance[msg.sender] = 0 */\n      dup2\n      swap1\n      sstore\n      pop\n        /* \"octo_flattened.sol\":44830:44880  super._transfer(address(this), msg.sender, reward) */\n      tag_322\n        /* \"octo_flattened.sol\":44854:44858  this */\n      address\n        /* \"octo_flattened.sol\":44861:44871  msg.sender */\n      caller\n        /* \"octo_flattened.sol\":44873:44879  reward */\n      dup4\n        /* \"octo_flattened.sol\":44830:44845  super._transfer */\n      tag_323\n        /* \"octo_flattened.sol\":44830:44880  super._transfer(address(this), msg.sender, reward) */\n      jump\t// in\n    tag_322:\n        /* \"octo_flattened.sol\":44910:44920  msg.sender */\n      caller\n        /* \"octo_flattened.sol\":44899:44929  RewardPaid(msg.sender, reward) */\n      0xffffffffffffffffffffffffffffffffffffffff\n      and\n      0xe2403640ba68fed3a2f88b7557551d1993f84b99bb10ff833f0cf8db0c5e0486\n        /* \"octo_flattened.sol\":44922:44928  reward */\n      dup3\n        /* \"octo_flattened.sol\":44899:44929  RewardPaid(msg.sender, reward) */\n      mload(0x40)\n      tag_324\n      swap2\n      swap1\n      tag_59\n      jump\t// in\n    tag_324:\n      mload(0x40)\n      dup1\n      swap2\n      sub\n      swap1\n      log2\n        /* \"octo_flattened.sol\":44756:44940  if (reward > 0) {... */\n    tag_321:\n        /* \"octo_flattened.sol\":44667:44946  {... */\n      pop\n        /* \"octo_flattened.sol\":11725:11745  _nonReentrantAfter() */\n      tag_325\n        /* \"octo_flattened.sol\":11725:11743  _nonReentrantAfter */\n      tag_314\n        /* \"octo_flattened.sol\":11725:11745  _nonReentrantAfter() */\n      jump\t// in\n    tag_325:\n        /* \"octo_flattened.sol\":44624:44946  function getReward() external nonReentrant {... */\n      jump\t// out\n        /* \"octo_flattened.sol\":45408:45732  function releaseVestedTokens() external {... */\n    tag_116:\n        /* \"octo_flattened.sol\":45458:45476  uint256 unreleased */\n      0x00\n        /* \"octo_flattened.sol\":45479:45507  releasableAmount(msg.sender) */\n      tag_327\n        /* \"octo_flattened.sol\":45496:45506  msg.sender */\n      caller\n        /* \"octo_flattened.sol\":45479:45495  releasableAmount */\n      tag_80\n        /* \"octo_flattened.sol\":45479:45507  releasableAmount(msg.sender) */\n      jump\t// in\n    tag_327:\n        /* \"octo_flattened.sol\":45458:45507  uint256 unreleased = releasableAmount(msg.sender) */\n      swap1\n      pop\n        /* \"octo_flattened.sol\":45538:45539  0 */\n      0x00\n        /* \"octo_flattened.sol\":45525:45535  unreleased */\n      dup2\n        /* \"octo_flattened.sol\":45525:45539  unreleased > 0 */\n      gt\n        /* \"octo_flattened.sol\":45517:45564  require(unreleased > 0, \"No tokens to release\") */\n      tag_328\n      jumpi\n      mload(0x40)\n      0x08c379a000000000000000000000000000000000000000000000000000000000\n      dup2\n      mstore\n      0x04\n      add\n      tag_329\n      swap1\n      tag_330\n      jump\t// in\n    tag_329:\n      mload(0x40)\n      dup1\n      swap2\n      sub\n      swap1\n      revert\n    tag_328:\n        /* \"octo_flattened.sol\":45603:45613  unreleased */\n      dup1\n        /* \"octo_flattened.sol\":45575:45587  vestedAmount */\n      0x0f\n        /* \"octo_flattened.sol\":45575:45599  vestedAmount[msg.sender] */\n      0x00\n        /* \"octo_flattened.sol\":45588:45598  msg.sender */\n      caller\n        /* \"octo_flattened.sol\":45575:45599  vestedAmount[msg.sender] */\n      0xffffffffffffffffffffffffffffffffffffffff\n      and\n      0xffffffffffffffffffffffffffffffffffffffff\n      and\n      dup2\n      mstore\n      0x20\n      add\n      swap1\n      dup2\n      mstore\n      0x20\n      add\n      0x00\n      keccak256\n      0x00\n        /* \"octo_flattened.sol\":45575:45613  vestedAmount[msg.sender] -= unreleased */\n      dup3\n      dup3\n      sload\n      tag_331\n      swap2\n      swap1\n      tag_244\n      jump\t// in\n    tag_331:\n      swap3\n      pop\n      pop\n      dup2\n      swap1\n      sstore\n      pop\n        /* \"octo_flattened.sol\":45623:45671  _transfer(address(this), msg.sender, unreleased) */\n      tag_332\n        /* \"octo_flattened.sol\":45641:45645  this */\n      address\n        /* \"octo_flattened.sol\":45648:45658  msg.sender */\n      caller\n        /* \"octo_flattened.sol\":45660:45670  unreleased */\n      dup4\n        /* \"octo_flattened.sol\":45623:45632  _transfer */\n      tag_273\n        /* \"octo_flattened.sol\":45623:45671  _transfer(address(this), msg.sender, unreleased) */\n      jump\t// in\n    tag_332:\n        /* \"octo_flattened.sol\":45702:45712  msg.sender */\n      caller\n        /* \"octo_flattened.sol\":45687:45725  TokensReleased(msg.sender, unreleased) */\n      0xffffffffffffffffffffffffffffffffffffffff\n      and\n      0xc7798891864187665ac6dd119286e44ec13f014527aeeb2b8eb3fd413df93179\n        /* \"octo_flattened.sol\":45714:45724  unreleased */\n      dup3\n        /* \"octo_flattened.sol\":45687:45725  TokensReleased(msg.sender, unreleased) */\n      mload(0x40)\n      tag_333\n      swap2\n      swap1\n      tag_59\n      jump\t// in\n    tag_333:\n      mload(0x40)\n      dup1\n      swap2\n      sub\n      swap1\n      log2\n        /* \"octo_flattened.sol\":45448:45732  {... */\n      pop\n        /* \"octo_flattened.sol\":45408:45732  function releaseVestedTokens() external {... */\n      jump\t// out\n        /* \"octo_flattened.sol\":39067:39121  uint256 public constant initialRewardRate = 100 * 1e18 */\n    tag_119:\n        /* \"octo_flattened.sol\":39111:39121  100 * 1e18 */\n      0x056bc75e2d63100000\n        /* \"octo_flattened.sol\":39067:39121  uint256 public constant initialRewardRate = 100 * 1e18 */\n      dup2\n      jump\t// out\n        /* \"octo_flattened.sol\":39329:39378  mapping(address => uint256) public stakeStartTime */\n    tag_124:\n      mstore(0x20, 0x0d)\n      dup1\n      0x00\n      mstore\n      keccak256(0x00, 0x40)\n      0x00\n      swap2\n      pop\n      swap1\n      pop\n      sload\n      dup2\n      jump\t// out\n        /* \"octo_flattened.sol\":29787:29903  function balanceOf(address account) public view virtual returns (uint256) {... */\n    tag_129:\n        /* \"octo_flattened.sol\":29852:29859  uint256 */\n      0x00\n        /* \"octo_flattened.sol\":29878:29887  _balances */\n      dup1\n        /* \"octo_flattened.sol\":29878:29896  _balances[account] */\n      0x00\n        /* \"octo_flattened.sol\":29888:29895  account */\n      dup4\n        /* \"octo_flattened.sol\":29878:29896  _balances[account] */\n      0xffffffffffffffffffffffffffffffffffffffff\n      and\n      0xffffffffffffffffffffffffffffffffffffffff\n      and\n      dup2\n      mstore\n      0x20\n      add\n      swap1\n      dup2\n      mstore\n      0x20\n      add\n      0x00\n      keccak256\n      sload\n        /* \"octo_flattened.sol\":29871:29896  return _balances[account] */\n      swap1\n      pop\n        /* \"octo_flattened.sol\":29787:29903  function balanceOf(address account) public view virtual returns (uint256) {... */\n      swap2\n      swap1\n      pop\n      jump\t// out\n        /* \"octo_flattened.sol\":22369:22470  function renounceOwnership() public virtual onlyOwner {... */\n    tag_133:\n        /* \"octo_flattened.sol\":21607:21620  _checkOwner() */\n      tag_336\n        /* \"octo_flattened.sol\":21607:21618  _checkOwner */\n      tag_337\n        /* \"octo_flattened.sol\":21607:21620  _checkOwner() */\n      jump\t// in\n    tag_336:\n        /* \"octo_flattened.sol\":22433:22463  _transferOwnership(address(0)) */\n      tag_339\n        /* \"octo_flattened.sol\":22460:22461  0 */\n      0x00\n        /* \"octo_flattened.sol\":22433:22451  _transferOwnership */\n      tag_340\n        /* \"octo_flattened.sol\":22433:22463  _transferOwnership(address(0)) */\n      jump\t// in\n    tag_339:\n        /* \"octo_flattened.sol\":22369:22470  function renounceOwnership() public virtual onlyOwner {... */\n      jump\t// out\n        /* \"octo_flattened.sol\":40987:41426  function provideInitialLiquidity(uint256 tokenAmount) external onlyOwner {... */\n    tag_137:\n        /* \"octo_flattened.sol\":21607:21620  _checkOwner() */\n      tag_342\n        /* \"octo_flattened.sol\":21607:21618  _checkOwner */\n      tag_337\n        /* \"octo_flattened.sol\":21607:21620  _checkOwner() */\n      jump\t// in\n    tag_342:\n        /* \"octo_flattened.sol\":41070:41087  uint256 ethAmount */\n      0x00\n        /* \"octo_flattened.sol\":41090:41097  1 ether */\n      0x0de0b6b3a7640000\n        /* \"octo_flattened.sol\":41070:41097  uint256 ethAmount = 1 ether */\n      swap1\n      pop\n        /* \"octo_flattened.sol\":41107:41167  _approve(address(this), address(uniswapRouter), tokenAmount) */\n      tag_344\n        /* \"octo_flattened.sol\":41124:41128  this */\n      address\n        /* \"octo_flattened.sol\":41139:41152  uniswapRouter */\n      0x07\n      0x00\n      swap1\n      sload\n      swap1\n      0x0100\n      exp\n      swap1\n      div\n      0xffffffffffffffffffffffffffffffffffffffff\n      and\n        /* \"octo_flattened.sol\":41155:41166  tokenAmount */\n      dup5\n        /* \"octo_flattened.sol\":41107:41115  _approve */\n      tag_262\n        /* \"octo_flattened.sol\":41107:41167  _approve(address(this), address(uniswapRouter), tokenAmount) */\n      jump\t// in\n    tag_344:\n        /* \"octo_flattened.sol\":41177:41190  uniswapRouter */\n      0x07\n      0x00\n      swap1\n      sload\n      swap1\n      0x0100\n      exp\n      swap1\n      div\n      0xffffffffffffffffffffffffffffffffffffffff\n      and\n        /* \"octo_flattened.sol\":41177:41206  uniswapRouter.addLiquidityETH */\n      0xffffffffffffffffffffffffffffffffffffffff\n      and\n      0xf305d719\n        /* \"octo_flattened.sol\":41214:41223  ethAmount */\n      dup3\n        /* \"octo_flattened.sol\":41246:41250  this */\n      address\n        /* \"octo_flattened.sol\":41265:41276  tokenAmount */\n      dup6\n        /* \"octo_flattened.sol\":41290:41291  0 */\n      0x00\n        /* \"octo_flattened.sol\":41293:41294  0 */\n      dup1\n        /* \"octo_flattened.sol\":41308:41315  owner() */\n      tag_345\n        /* \"octo_flattened.sol\":41308:41313  owner */\n      tag_161\n        /* \"octo_flattened.sol\":41308:41315  owner() */\n      jump\t// in\n    tag_345:\n        /* \"octo_flattened.sol\":41329:41344  block.timestamp */\n      timestamp\n        /* \"octo_flattened.sol\":41177:41354  uniswapRouter.addLiquidityETH{value: ethAmount}(... */\n      mload(0x40)\n      dup9\n      0xffffffff\n      and\n      0xe0\n      shl\n      dup2\n      mstore\n      0x04\n      add\n      tag_346\n      swap7\n      swap6\n      swap5\n      swap4\n      swap3\n      swap2\n      swap1\n      tag_347\n      jump\t// in\n    tag_346:\n      0x60\n      mload(0x40)\n      dup1\n      dup4\n      sub\n      dup2\n      dup6\n      dup9\n      gas\n      call\n      iszero\n      dup1\n      iszero\n      tag_349\n      jumpi\n      returndatasize\n      0x00\n      dup1\n      returndatacopy\n      revert(0x00, returndatasize)\n    tag_349:\n      pop\n      pop\n      pop\n      pop\n      pop\n      mload(0x40)\n      returndatasize\n      not(0x1f)\n      0x1f\n      dup3\n      add\n      and\n      dup3\n      add\n      dup1\n      0x40\n      mstore\n      pop\n      dup2\n      add\n      swap1\n      tag_350\n      swap2\n      swap1\n      tag_351\n      jump\t// in\n    tag_350:\n      pop\n      pop\n      pop\n        /* \"octo_flattened.sol\":41384:41394  msg.sender */\n      caller\n        /* \"octo_flattened.sol\":41369:41419  LiquidityAdded(msg.sender, tokenAmount, ethAmount) */\n      0xffffffffffffffffffffffffffffffffffffffff\n      and\n      0xac1d76749e5447b7b16f5ab61447e1bd502f3bb4807af3b28e620d1700a6ee45\n        /* \"octo_flattened.sol\":41396:41407  tokenAmount */\n      dup4\n        /* \"octo_flattened.sol\":41409:41418  ethAmount */\n      dup4\n        /* \"octo_flattened.sol\":41369:41419  LiquidityAdded(msg.sender, tokenAmount, ethAmount) */\n      mload(0x40)\n      tag_352\n      swap3\n      swap2\n      swap1\n      tag_353\n      jump\t// in\n    tag_352:\n      mload(0x40)\n      dup1\n      swap2\n      sub\n      swap1\n      log2\n        /* \"octo_flattened.sol\":41060:41426  {... */\n      pop\n        /* \"octo_flattened.sol\":40987:41426  function provideInitialLiquidity(uint256 tokenAmount) external onlyOwner {... */\n      pop\n      jump\t// out\n        /* \"octo_flattened.sol\":38945:38984  IUniswapV2Router02 public uniswapRouter */\n    tag_140:\n      0x07\n      0x00\n      swap1\n      sload\n      swap1\n      0x0100\n      exp\n      swap1\n      div\n      0xffffffffffffffffffffffffffffffffffffffff\n      and\n      dup2\n      jump\t// out\n        /* \"octo_flattened.sol\":39184:39210  uint256 public taxRate = 4 */\n    tag_145:\n      sload(0x0a)\n      dup2\n      jump\t// out\n        /* \"octo_flattened.sol\":45929:46543  function distributeLiquidityMiningRewards() external onlyOwner {... */\n    tag_149:\n        /* \"octo_flattened.sol\":21607:21620  _checkOwner() */\n      tag_355\n        /* \"octo_flattened.sol\":21607:21618  _checkOwner */\n      tag_337\n        /* \"octo_flattened.sol\":21607:21620  _checkOwner() */\n      jump\t// in\n    tag_355:\n        /* \"octo_flattened.sol\":46028:46042  lastUpdateTime */\n      sload(0x11)\n        /* \"octo_flattened.sol\":46010:46025  block.timestamp */\n      timestamp\n        /* \"octo_flattened.sol\":46010:46042  block.timestamp > lastUpdateTime */\n      gt\n        /* \"octo_flattened.sol\":46002:46076  require(block.timestamp > lastUpdateTime, \"Cannot distribute rewards yet\") */\n      tag_357\n      jumpi\n      mload(0x40)\n      0x08c379a000000000000000000000000000000000000000000000000000000000\n      dup2\n      mstore\n      0x04\n      add\n      tag_358\n      swap1\n      tag_359\n      jump\t// in\n    tag_358:\n      mload(0x40)\n      dup1\n      swap2\n      sub\n      swap1\n      revert\n    tag_357:\n        /* \"octo_flattened.sol\":46092:46101  uint256 i */\n      0x00\n        /* \"octo_flattened.sol\":46087:46495  for (uint256 i = 0; i < liquidityProviders.length; i++) {... */\n    tag_360:\n        /* \"octo_flattened.sol\":46111:46129  liquidityProviders */\n      0x14\n        /* \"octo_flattened.sol\":46111:46136  liquidityProviders.length */\n      dup1\n      sload\n      swap1\n      pop\n        /* \"octo_flattened.sol\":46107:46108  i */\n      dup2\n        /* \"octo_flattened.sol\":46107:46136  i < liquidityProviders.length */\n      lt\n        /* \"octo_flattened.sol\":46087:46495  for (uint256 i = 0; i < liquidityProviders.length; i++) {... */\n      iszero\n      tag_361\n      jumpi\n        /* \"octo_flattened.sol\":46157:46173  address provider */\n      0x00\n        /* \"octo_flattened.sol\":46176:46194  liquidityProviders */\n      0x14\n        /* \"octo_flattened.sol\":46195:46196  i */\n      dup3\n        /* \"octo_flattened.sol\":46176:46197  liquidityProviders[i] */\n      dup2\n      sload\n      dup2\n      lt\n      tag_363\n      jumpi\n      tag_364\n      tag_296\n      jump\t// in\n    tag_364:\n    tag_363:\n      swap1\n      0x00\n      mstore\n      keccak256(0x00, 0x20)\n      add\n      0x00\n      swap1\n      sload\n      swap1\n      0x0100\n      exp\n      swap1\n      div\n      0xffffffffffffffffffffffffffffffffffffffff\n      and\n        /* \"octo_flattened.sol\":46157:46197  address provider = liquidityProviders[i] */\n      swap1\n      pop\n        /* \"octo_flattened.sol\":46211:46225  uint256 reward */\n      0x00\n        /* \"octo_flattened.sol\":46228:46250  liquidityMiningRewards */\n      0x10\n        /* \"octo_flattened.sol\":46228:46260  liquidityMiningRewards[provider] */\n      0x00\n        /* \"octo_flattened.sol\":46251:46259  provider */\n      dup4\n        /* \"octo_flattened.sol\":46228:46260  liquidityMiningRewards[provider] */\n      0xffffffffffffffffffffffffffffffffffffffff\n      and\n      0xffffffffffffffffffffffffffffffffffffffff\n      and\n      dup2\n      mstore\n      0x20\n      add\n      swap1\n      dup2\n      mstore\n      0x20\n      add\n      0x00\n      keccak256\n      sload\n        /* \"octo_flattened.sol\":46211:46260  uint256 reward = liquidityMiningRewards[provider] */\n      swap1\n      pop\n        /* \"octo_flattened.sol\":46287:46288  0 */\n      0x00\n        /* \"octo_flattened.sol\":46278:46284  reward */\n      dup2\n        /* \"octo_flattened.sol\":46278:46288  reward > 0 */\n      gt\n        /* \"octo_flattened.sol\":46274:46485  if (reward > 0) {... */\n      iszero\n      tag_366\n      jumpi\n        /* \"octo_flattened.sol\":46343:46344  0 */\n      0x00\n        /* \"octo_flattened.sol\":46308:46330  liquidityMiningRewards */\n      0x10\n        /* \"octo_flattened.sol\":46308:46340  liquidityMiningRewards[provider] */\n      0x00\n        /* \"octo_flattened.sol\":46331:46339  provider */\n      dup5\n        /* \"octo_flattened.sol\":46308:46340  liquidityMiningRewards[provider] */\n      0xffffffffffffffffffffffffffffffffffffffff\n      and\n      0xffffffffffffffffffffffffffffffffffffffff\n      and\n      dup2\n      mstore\n      0x20\n      add\n      swap1\n      dup2\n      mstore\n      0x20\n      add\n      0x00\n      keccak256\n        /* \"octo_flattened.sol\":46308:46344  liquidityMiningRewards[provider] = 0 */\n      dup2\n      swap1\n      sstore\n      pop\n        /* \"octo_flattened.sol\":46362:46404  _transfer(address(this), provider, reward) */\n      tag_367\n        /* \"octo_flattened.sol\":46380:46384  this */\n      address\n        /* \"octo_flattened.sol\":46387:46395  provider */\n      dup4\n        /* \"octo_flattened.sol\":46397:46403  reward */\n      dup4\n        /* \"octo_flattened.sol\":46362:46371  _transfer */\n      tag_273\n        /* \"octo_flattened.sol\":46362:46404  _transfer(address(this), provider, reward) */\n      jump\t// in\n    tag_367:\n        /* \"octo_flattened.sol\":46453:46461  provider */\n      dup2\n        /* \"octo_flattened.sol\":46427:46470  LiquidityMiningRewardPaid(provider, reward) */\n      0xffffffffffffffffffffffffffffffffffffffff\n      and\n      0xfe72567e4f43723d5f9a3a8b91484edb24388f30c47851012e52a0c2fcd73fde\n        /* \"octo_flattened.sol\":46463:46469  reward */\n      dup3\n        /* \"octo_flattened.sol\":46427:46470  LiquidityMiningRewardPaid(provider, reward) */\n      mload(0x40)\n      tag_368\n      swap2\n      swap1\n      tag_59\n      jump\t// in\n    tag_368:\n      mload(0x40)\n      dup1\n      swap2\n      sub\n      swap1\n      log2\n        /* \"octo_flattened.sol\":46274:46485  if (reward > 0) {... */\n    tag_366:\n        /* \"octo_flattened.sol\":46143:46495  {... */\n      pop\n      pop\n        /* \"octo_flattened.sol\":46138:46141  i++ */\n      dup1\n      dup1\n      tag_369\n      swap1\n      tag_311\n      jump\t// in\n    tag_369:\n      swap2\n      pop\n      pop\n        /* \"octo_flattened.sol\":46087:46495  for (uint256 i = 0; i < liquidityProviders.length; i++) {... */\n      jump(tag_360)\n    tag_361:\n      pop\n        /* \"octo_flattened.sol\":46521:46536  block.timestamp */\n      timestamp\n        /* \"octo_flattened.sol\":46504:46518  lastUpdateTime */\n      0x11\n        /* \"octo_flattened.sol\":46504:46536  lastUpdateTime = block.timestamp */\n      dup2\n      swap1\n      sstore\n      pop\n        /* \"octo_flattened.sol\":45929:46543  function distributeLiquidityMiningRewards() external onlyOwner {... */\n      jump\t// out\n        /* \"octo_flattened.sol\":39629:39675  uint256 public liquidityMiningRate = 10 * 1e18 */\n    tag_152:\n      sload(0x13)\n      dup2\n      jump\t// out\n        /* \"octo_flattened.sol\":39274:39323  mapping(address => uint256) public lpTokenBalance */\n    tag_157:\n      mstore(0x20, 0x0c)\n      dup1\n      0x00\n      mstore\n      keccak256(0x00, 0x40)\n      0x00\n      swap2\n      pop\n      swap1\n      pop\n      sload\n      dup2\n      jump\t// out\n        /* \"octo_flattened.sol\":21714:21799  function owner() public view virtual returns (address) {... */\n    tag_161:\n        /* \"octo_flattened.sol\":21760:21767  address */\n      0x00\n        /* \"octo_flattened.sol\":21786:21792  _owner */\n      0x06\n      0x00\n      swap1\n      sload\n      swap1\n      0x0100\n      exp\n      swap1\n      div\n      0xffffffffffffffffffffffffffffffffffffffff\n      and\n        /* \"octo_flattened.sol\":21779:21792  return _owner */\n      swap1\n      pop\n        /* \"octo_flattened.sol\":21714:21799  function owner() public view virtual returns (address) {... */\n      swap1\n      jump\t// out\n        /* \"octo_flattened.sol\":28764:28857  function symbol() public view virtual returns (string memory) {... */\n    tag_166:\n        /* \"octo_flattened.sol\":28811:28824  string memory */\n      0x60\n        /* \"octo_flattened.sol\":28843:28850  _symbol */\n      0x04\n        /* \"octo_flattened.sol\":28836:28850  return _symbol */\n      dup1\n      sload\n      tag_372\n      swap1\n      tag_253\n      jump\t// in\n    tag_372:\n      dup1\n      0x1f\n      add\n      0x20\n      dup1\n      swap2\n      div\n      mul\n      0x20\n      add\n      mload(0x40)\n      swap1\n      dup2\n      add\n      0x40\n      mstore\n      dup1\n      swap3\n      swap2\n      swap1\n      dup2\n      dup2\n      mstore\n      0x20\n      add\n      dup3\n      dup1\n      sload\n      tag_373\n      swap1\n      tag_253\n      jump\t// in\n    tag_373:\n      dup1\n      iszero\n      tag_374\n      jumpi\n      dup1\n      0x1f\n      lt\n      tag_375\n      jumpi\n      0x0100\n      dup1\n      dup4\n      sload\n      div\n      mul\n      dup4\n      mstore\n      swap2\n      0x20\n      add\n      swap2\n      jump(tag_374)\n    tag_375:\n      dup3\n      add\n      swap2\n      swap1\n      0x00\n      mstore\n      keccak256(0x00, 0x20)\n      swap1\n    tag_376:\n      dup2\n      sload\n      dup2\n      mstore\n      swap1\n      0x01\n      add\n      swap1\n      0x20\n      add\n      dup1\n      dup4\n      gt\n      tag_376\n      jumpi\n      dup3\n      swap1\n      sub\n      0x1f\n      and\n      dup3\n      add\n      swap2\n    tag_374:\n      pop\n      pop\n      pop\n      pop\n      pop\n      swap1\n      pop\n        /* \"octo_flattened.sol\":28764:28857  function symbol() public view virtual returns (string memory) {... */\n      swap1\n      jump\t// out\n        /* \"octo_flattened.sol\":39726:39761  address[] public liquidityProviders */\n    tag_171:\n      0x14\n      dup2\n      dup2\n      sload\n      dup2\n      lt\n      tag_377\n      jumpi\n      0x00\n      dup1\n      revert\n    tag_377:\n      swap1\n      0x00\n      mstore\n      keccak256(0x00, 0x20)\n      add\n      0x00\n      swap2\n      pop\n      sload\n      swap1\n      0x0100\n      exp\n      swap1\n      div\n      0xffffffffffffffffffffffffffffffffffffffff\n      and\n      dup2\n      jump\t// out\n        /* \"octo_flattened.sol\":39767:39818  mapping(address => bool) public isLiquidityProvider */\n    tag_176:\n      mstore(0x20, 0x15)\n      dup1\n      0x00\n      mstore\n      keccak256(0x00, 0x40)\n      0x00\n      swap2\n      pop\n      sload\n      swap1\n      0x0100\n      exp\n      swap1\n      div\n      0xff\n      and\n      dup2\n      jump\t// out\n        /* \"octo_flattened.sol\":46549:46845  function calculateLiquidityMiningRewards(address provider) public view returns (uint256) {... */\n    tag_181:\n        /* \"octo_flattened.sol\":46629:46636  uint256 */\n      0x00\n        /* \"octo_flattened.sol\":46648:46663  uint256 balance */\n      dup1\n        /* \"octo_flattened.sol\":46666:46677  uniswapPair */\n      0x08\n      0x00\n      swap1\n      sload\n      swap1\n      0x0100\n      exp\n      swap1\n      div\n      0xffffffffffffffffffffffffffffffffffffffff\n      and\n        /* \"octo_flattened.sol\":46666:46687  uniswapPair.balanceOf */\n      0xffffffffffffffffffffffffffffffffffffffff\n      and\n      0x70a08231\n        /* \"octo_flattened.sol\":46688:46696  provider */\n      dup5\n        /* \"octo_flattened.sol\":46666:46697  uniswapPair.balanceOf(provider) */\n      mload(0x40)\n      dup3\n      0xffffffff\n      and\n      0xe0\n      shl\n      dup2\n      mstore\n      0x04\n      add\n      tag_380\n      swap2\n      swap1\n      tag_163\n      jump\t// in\n    tag_380:\n      0x20\n      mload(0x40)\n      dup1\n      dup4\n      sub\n      dup2\n      dup7\n      gas\n      staticcall\n      iszero\n      dup1\n      iszero\n      tag_382\n      jumpi\n      returndatasize\n      0x00\n      dup1\n      returndatacopy\n      revert(0x00, returndatasize)\n    tag_382:\n      pop\n      pop\n      pop\n      pop\n      mload(0x40)\n      returndatasize\n      not(0x1f)\n      0x1f\n      dup3\n      add\n      and\n      dup3\n      add\n      dup1\n      0x40\n      mstore\n      pop\n      dup2\n      add\n      swap1\n      tag_383\n      swap2\n      swap1\n      tag_384\n      jump\t// in\n    tag_383:\n        /* \"octo_flattened.sol\":46648:46697  uint256 balance = uniswapPair.balanceOf(provider) */\n      swap1\n      pop\n        /* \"octo_flattened.sol\":46707:46725  uint256 timeStaked */\n      0x00\n        /* \"octo_flattened.sol\":46746:46760  stakeStartTime */\n      0x0d\n        /* \"octo_flattened.sol\":46746:46770  stakeStartTime[provider] */\n      0x00\n        /* \"octo_flattened.sol\":46761:46769  provider */\n      dup6\n        /* \"octo_flattened.sol\":46746:46770  stakeStartTime[provider] */\n      0xffffffffffffffffffffffffffffffffffffffff\n      and\n      0xffffffffffffffffffffffffffffffffffffffff\n      and\n      dup2\n      mstore\n      0x20\n      add\n      swap1\n      dup2\n      mstore\n      0x20\n      add\n      0x00\n      keccak256\n      sload\n        /* \"octo_flattened.sol\":46728:46743  block.timestamp */\n      timestamp\n        /* \"octo_flattened.sol\":46728:46770  block.timestamp - stakeStartTime[provider] */\n      tag_385\n      swap2\n      swap1\n      tag_244\n      jump\t// in\n    tag_385:\n        /* \"octo_flattened.sol\":46707:46770  uint256 timeStaked = block.timestamp - stakeStartTime[provider] */\n      swap1\n      pop\n        /* \"octo_flattened.sol\":46834:46838  1e18 */\n      0x0de0b6b3a7640000\n        /* \"octo_flattened.sol\":46811:46830  liquidityMiningRate */\n      sload(0x13)\n        /* \"octo_flattened.sol\":46798:46808  timeStaked */\n      dup3\n        /* \"octo_flattened.sol\":46788:46795  balance */\n      dup5\n        /* \"octo_flattened.sol\":46788:46808  balance * timeStaked */\n      tag_386\n      swap2\n      swap1\n      tag_246\n      jump\t// in\n    tag_386:\n        /* \"octo_flattened.sol\":46788:46830  balance * timeStaked * liquidityMiningRate */\n      tag_387\n      swap2\n      swap1\n      tag_246\n      jump\t// in\n    tag_387:\n        /* \"octo_flattened.sol\":46787:46838  (balance * timeStaked * liquidityMiningRate) / 1e18 */\n      tag_388\n      swap2\n      swap1\n      tag_248\n      jump\t// in\n    tag_388:\n        /* \"octo_flattened.sol\":46780:46838  return (balance * timeStaked * liquidityMiningRate) / 1e18 */\n      swap3\n      pop\n      pop\n      pop\n        /* \"octo_flattened.sol\":46549:46845  function calculateLiquidityMiningRewards(address provider) public view returns (uint256) {... */\n      swap2\n      swap1\n      pop\n      jump\t// out\n        /* \"octo_flattened.sol\":43176:43788  function stake(uint256 amount) external nonReentrant {... */\n    tag_186:\n        /* \"octo_flattened.sol\":11683:11704  _nonReentrantBefore() */\n      tag_390\n        /* \"octo_flattened.sol\":11683:11702  _nonReentrantBefore */\n      tag_276\n        /* \"octo_flattened.sol\":11683:11704  _nonReentrantBefore() */\n      jump\t// in\n    tag_390:\n        /* \"octo_flattened.sol\":43279:43280  0 */\n      0x00\n        /* \"octo_flattened.sol\":43247:43281  address(uniswapPair) != address(0) */\n      0xffffffffffffffffffffffffffffffffffffffff\n      and\n        /* \"octo_flattened.sol\":43255:43266  uniswapPair */\n      0x08\n      0x00\n      swap1\n      sload\n      swap1\n      0x0100\n      exp\n      swap1\n      div\n      0xffffffffffffffffffffffffffffffffffffffff\n      and\n        /* \"octo_flattened.sol\":43247:43281  address(uniswapPair) != address(0) */\n      0xffffffffffffffffffffffffffffffffffffffff\n      and\n      sub\n        /* \"octo_flattened.sol\":43239:43306  require(address(uniswapPair) != address(0), \"Uniswap pair not set\") */\n      tag_392\n      jumpi\n      mload(0x40)\n      0x08c379a000000000000000000000000000000000000000000000000000000000\n      dup2\n      mstore\n      0x04\n      add\n      tag_393\n      swap1\n      tag_394\n      jump\t// in\n    tag_393:\n      mload(0x40)\n      dup1\n      swap2\n      sub\n      swap1\n      revert\n    tag_392:\n        /* \"octo_flattened.sol\":43350:43351  0 */\n      0x00\n        /* \"octo_flattened.sol\":43320:43334  stakeStartTime */\n      0x0d\n        /* \"octo_flattened.sol\":43320:43346  stakeStartTime[msg.sender] */\n      0x00\n        /* \"octo_flattened.sol\":43335:43345  msg.sender */\n      caller\n        /* \"octo_flattened.sol\":43320:43346  stakeStartTime[msg.sender] */\n      0xffffffffffffffffffffffffffffffffffffffff\n      and\n      0xffffffffffffffffffffffffffffffffffffffff\n      and\n      dup2\n      mstore\n      0x20\n      add\n      swap1\n      dup2\n      mstore\n      0x20\n      add\n      0x00\n      keccak256\n      sload\n        /* \"octo_flattened.sol\":43320:43351  stakeStartTime[msg.sender] == 0 */\n      sub\n        /* \"octo_flattened.sol\":43316:43422  if (stakeStartTime[msg.sender] == 0) {... */\n      tag_395\n      jumpi\n        /* \"octo_flattened.sol\":43396:43411  block.timestamp */\n      timestamp\n        /* \"octo_flattened.sol\":43367:43381  stakeStartTime */\n      0x0d\n        /* \"octo_flattened.sol\":43367:43393  stakeStartTime[msg.sender] */\n      0x00\n        /* \"octo_flattened.sol\":43382:43392  msg.sender */\n      caller\n        /* \"octo_flattened.sol\":43367:43393  stakeStartTime[msg.sender] */\n      0xffffffffffffffffffffffffffffffffffffffff\n      and\n      0xffffffffffffffffffffffffffffffffffffffff\n      and\n      dup2\n      mstore\n      0x20\n      add\n      swap1\n      dup2\n      mstore\n      0x20\n      add\n      0x00\n      keccak256\n        /* \"octo_flattened.sol\":43367:43411  stakeStartTime[msg.sender] = block.timestamp */\n      dup2\n      swap1\n      sstore\n      pop\n        /* \"octo_flattened.sol\":43316:43422  if (stakeStartTime[msg.sender] == 0) {... */\n    tag_395:\n        /* \"octo_flattened.sol\":43431:43455  updateReward(msg.sender) */\n      tag_396\n        /* \"octo_flattened.sol\":43444:43454  msg.sender */\n      caller\n        /* \"octo_flattened.sol\":43431:43443  updateReward */\n      tag_282\n        /* \"octo_flattened.sol\":43431:43455  updateReward(msg.sender) */\n      jump\t// in\n    tag_396:\n        /* \"octo_flattened.sol\":43465:43476  uniswapPair */\n      0x08\n      0x00\n      swap1\n      sload\n      swap1\n      0x0100\n      exp\n      swap1\n      div\n      0xffffffffffffffffffffffffffffffffffffffff\n      and\n        /* \"octo_flattened.sol\":43465:43489  uniswapPair.transferFrom */\n      0xffffffffffffffffffffffffffffffffffffffff\n      and\n      0x23b872dd\n        /* \"octo_flattened.sol\":43490:43500  msg.sender */\n      caller\n        /* \"octo_flattened.sol\":43510:43514  this */\n      address\n        /* \"octo_flattened.sol\":43517:43523  amount */\n      dup5\n        /* \"octo_flattened.sol\":43465:43524  uniswapPair.transferFrom(msg.sender, address(this), amount) */\n      mload(0x40)\n      dup5\n      0xffffffff\n      and\n      0xe0\n      shl\n      dup2\n      mstore\n      0x04\n      add\n      tag_397\n      swap4\n      swap3\n      swap2\n      swap1\n      tag_398\n      jump\t// in\n    tag_397:\n      0x20\n      mload(0x40)\n      dup1\n      dup4\n      sub\n      dup2\n      0x00\n      dup8\n      gas\n      call\n      iszero\n      dup1\n      iszero\n      tag_400\n      jumpi\n      returndatasize\n      0x00\n      dup1\n      returndatacopy\n      revert(0x00, returndatasize)\n    tag_400:\n      pop\n      pop\n      pop\n      pop\n      mload(0x40)\n      returndatasize\n      not(0x1f)\n      0x1f\n      dup3\n      add\n      and\n      dup3\n      add\n      dup1\n      0x40\n      mstore\n      pop\n      dup2\n      add\n      swap1\n      tag_401\n      swap2\n      swap1\n      tag_289\n      jump\t// in\n    tag_401:\n      pop\n        /* \"octo_flattened.sol\":43564:43570  amount */\n      dup1\n        /* \"octo_flattened.sol\":43534:43548  lpTokenBalance */\n      0x0c\n        /* \"octo_flattened.sol\":43534:43560  lpTokenBalance[msg.sender] */\n      0x00\n        /* \"octo_flattened.sol\":43549:43559  msg.sender */\n      caller\n        /* \"octo_flattened.sol\":43534:43560  lpTokenBalance[msg.sender] */\n      0xffffffffffffffffffffffffffffffffffffffff\n      and\n      0xffffffffffffffffffffffffffffffffffffffff\n      and\n      dup2\n      mstore\n      0x20\n      add\n      swap1\n      dup2\n      mstore\n      0x20\n      add\n      0x00\n      keccak256\n      0x00\n        /* \"octo_flattened.sol\":43534:43570  lpTokenBalance[msg.sender] += amount */\n      dup3\n      dup3\n      sload\n      tag_402\n      swap2\n      swap1\n      tag_250\n      jump\t// in\n    tag_402:\n      swap3\n      pop\n      pop\n      dup2\n      swap1\n      sstore\n      pop\n        /* \"octo_flattened.sol\":43585:43604  isLiquidityProvider */\n      0x15\n        /* \"octo_flattened.sol\":43585:43616  isLiquidityProvider[msg.sender] */\n      0x00\n        /* \"octo_flattened.sol\":43605:43615  msg.sender */\n      caller\n        /* \"octo_flattened.sol\":43585:43616  isLiquidityProvider[msg.sender] */\n      0xffffffffffffffffffffffffffffffffffffffff\n      and\n      0xffffffffffffffffffffffffffffffffffffffff\n      and\n      dup2\n      mstore\n      0x20\n      add\n      swap1\n      dup2\n      mstore\n      0x20\n      add\n      0x00\n      keccak256\n      0x00\n      swap1\n      sload\n      swap1\n      0x0100\n      exp\n      swap1\n      div\n      0xff\n      and\n        /* \"octo_flattened.sol\":43580:43730  if (!isLiquidityProvider[msg.sender]) {... */\n      tag_403\n      jumpi\n        /* \"octo_flattened.sol\":43632:43650  liquidityProviders */\n      0x14\n        /* \"octo_flattened.sol\":43656:43666  msg.sender */\n      caller\n        /* \"octo_flattened.sol\":43632:43667  liquidityProviders.push(msg.sender) */\n      swap1\n      dup1\n      0x01\n      dup2\n      sload\n      add\n      dup1\n      dup3\n      sstore\n      dup1\n      swap2\n      pop\n      pop\n      0x01\n      swap1\n      sub\n      swap1\n      0x00\n      mstore\n      keccak256(0x00, 0x20)\n      add\n      0x00\n      swap1\n      swap2\n      swap1\n      swap2\n      swap1\n      swap2\n      0x0100\n      exp\n      dup2\n      sload\n      dup2\n      0xffffffffffffffffffffffffffffffffffffffff\n      mul\n      not\n      and\n      swap1\n      dup4\n      0xffffffffffffffffffffffffffffffffffffffff\n      and\n      mul\n      or\n      swap1\n      sstore\n      pop\n        /* \"octo_flattened.sol\":43715:43719  true */\n      0x01\n        /* \"octo_flattened.sol\":43681:43700  isLiquidityProvider */\n      0x15\n        /* \"octo_flattened.sol\":43681:43712  isLiquidityProvider[msg.sender] */\n      0x00\n        /* \"octo_flattened.sol\":43701:43711  msg.sender */\n      caller\n        /* \"octo_flattened.sol\":43681:43712  isLiquidityProvider[msg.sender] */\n      0xffffffffffffffffffffffffffffffffffffffff\n      and\n      0xffffffffffffffffffffffffffffffffffffffff\n      and\n      dup2\n      mstore\n      0x20\n      add\n      swap1\n      dup2\n      mstore\n      0x20\n      add\n      0x00\n      keccak256\n      0x00\n        /* \"octo_flattened.sol\":43681:43719  isLiquidityProvider[msg.sender] = true */\n      0x0100\n      exp\n      dup2\n      sload\n      dup2\n      0xff\n      mul\n      not\n      and\n      swap1\n      dup4\n      iszero\n      iszero\n      mul\n      or\n      swap1\n      sstore\n      pop\n        /* \"octo_flattened.sol\":43580:43730  if (!isLiquidityProvider[msg.sender]) {... */\n    tag_403:\n        /* \"octo_flattened.sol\":43759:43769  msg.sender */\n      caller\n        /* \"octo_flattened.sol\":43744:43781  LiquidityAdded(msg.sender, amount, 0) */\n      0xffffffffffffffffffffffffffffffffffffffff\n      and\n      0xac1d76749e5447b7b16f5ab61447e1bd502f3bb4807af3b28e620d1700a6ee45\n        /* \"octo_flattened.sol\":43771:43777  amount */\n      dup3\n        /* \"octo_flattened.sol\":43779:43780  0 */\n      0x00\n        /* \"octo_flattened.sol\":43744:43781  LiquidityAdded(msg.sender, amount, 0) */\n      mload(0x40)\n      tag_405\n      swap3\n      swap2\n      swap1\n      tag_406\n      jump\t// in\n    tag_405:\n      mload(0x40)\n      dup1\n      swap2\n      sub\n      swap1\n      log2\n        /* \"octo_flattened.sol\":11725:11745  _nonReentrantAfter() */\n      tag_407\n        /* \"octo_flattened.sol\":11725:11743  _nonReentrantAfter */\n      tag_314\n        /* \"octo_flattened.sol\":11725:11745  _nonReentrantAfter() */\n      jump\t// in\n    tag_407:\n        /* \"octo_flattened.sol\":43176:43788  function stake(uint256 amount) external nonReentrant {... */\n      pop\n      jump\t// out\n        /* \"octo_flattened.sol\":30098:30276  function transfer(address to, uint256 value) public virtual returns (bool) {... */\n    tag_190:\n        /* \"octo_flattened.sol\":30167:30171  bool */\n      0x00\n        /* \"octo_flattened.sol\":30183:30196  address owner */\n      dup1\n        /* \"octo_flattened.sol\":30199:30211  _msgSender() */\n      tag_409\n        /* \"octo_flattened.sol\":30199:30209  _msgSender */\n      tag_260\n        /* \"octo_flattened.sol\":30199:30211  _msgSender() */\n      jump\t// in\n    tag_409:\n        /* \"octo_flattened.sol\":30183:30211  address owner = _msgSender() */\n      swap1\n      pop\n        /* \"octo_flattened.sol\":30221:30248  _transfer(owner, to, value) */\n      tag_410\n        /* \"octo_flattened.sol\":30231:30236  owner */\n      dup2\n        /* \"octo_flattened.sol\":30238:30240  to */\n      dup6\n        /* \"octo_flattened.sol\":30242:30247  value */\n      dup6\n        /* \"octo_flattened.sol\":30221:30230  _transfer */\n      tag_273\n        /* \"octo_flattened.sol\":30221:30248  _transfer(owner, to, value) */\n      jump\t// in\n    tag_410:\n        /* \"octo_flattened.sol\":30265:30269  true */\n      0x01\n        /* \"octo_flattened.sol\":30258:30269  return true */\n      swap2\n      pop\n      pop\n        /* \"octo_flattened.sol\":30098:30276  function transfer(address to, uint256 value) public virtual returns (bool) {... */\n      swap3\n      swap2\n      pop\n      pop\n      jump\t// out\n        /* \"octo_flattened.sol\":39029:39061  address public developmentWallet */\n    tag_194:\n      0x09\n      0x00\n      swap1\n      sload\n      swap1\n      0x0100\n      exp\n      swap1\n      div\n      0xffffffffffffffffffffffffffffffffffffffff\n      and\n      dup2\n      jump\t// out\n        /* \"octo_flattened.sol\":38990:39023  IUniswapV2Pair public uniswapPair */\n    tag_198:\n      0x08\n      0x00\n      swap1\n      sload\n      swap1\n      0x0100\n      exp\n      swap1\n      div\n      0xffffffffffffffffffffffffffffffffffffffff\n      and\n      dup2\n      jump\t// out\n        /* \"octo_flattened.sol\":39553:39582  uint256 public lastUpdateTime */\n    tag_203:\n      sload(0x11)\n      dup2\n      jump\t// out\n        /* \"octo_flattened.sol\":41686:41936  function rewardPerToken() public view returns (uint256) {... */\n    tag_207:\n        /* \"octo_flattened.sol\":41733:41740  uint256 */\n      0x00\n        /* \"octo_flattened.sol\":41773:41774  0 */\n      dup1\n        /* \"octo_flattened.sol\":41756:41769  totalSupply() */\n      tag_412\n        /* \"octo_flattened.sol\":41756:41767  totalSupply */\n      tag_84\n        /* \"octo_flattened.sol\":41756:41769  totalSupply() */\n      jump\t// in\n    tag_412:\n        /* \"octo_flattened.sol\":41756:41774  totalSupply() == 0 */\n      sub\n        /* \"octo_flattened.sol\":41752:41809  if (totalSupply() == 0) {... */\n      tag_413\n      jumpi\n        /* \"octo_flattened.sol\":41797:41798  0 */\n      0x00\n        /* \"octo_flattened.sol\":41790:41798  return 0 */\n      swap1\n      pop\n      jump(tag_411)\n        /* \"octo_flattened.sol\":41752:41809  if (totalSupply() == 0) {... */\n    tag_413:\n        /* \"octo_flattened.sol\":41915:41928  totalSupply() */\n      tag_414\n        /* \"octo_flattened.sol\":41915:41926  totalSupply */\n      tag_84\n        /* \"octo_flattened.sol\":41915:41928  totalSupply() */\n      jump\t// in\n    tag_414:\n        /* \"octo_flattened.sol\":41908:41912  1e18 */\n      0x0de0b6b3a7640000\n        /* \"octo_flattened.sol\":41886:41905  currentRewardRate() */\n      tag_415\n        /* \"octo_flattened.sol\":41886:41903  currentRewardRate */\n      tag_234\n        /* \"octo_flattened.sol\":41886:41905  currentRewardRate() */\n      jump\t// in\n    tag_415:\n        /* \"octo_flattened.sol\":41868:41882  lastUpdateTime */\n      sload(0x11)\n        /* \"octo_flattened.sol\":41850:41865  block.timestamp */\n      timestamp\n        /* \"octo_flattened.sol\":41850:41882  block.timestamp - lastUpdateTime */\n      tag_416\n      swap2\n      swap1\n      tag_244\n      jump\t// in\n    tag_416:\n        /* \"octo_flattened.sol\":41849:41905  (block.timestamp - lastUpdateTime) * currentRewardRate() */\n      tag_417\n      swap2\n      swap1\n      tag_246\n      jump\t// in\n    tag_417:\n        /* \"octo_flattened.sol\":41849:41912  (block.timestamp - lastUpdateTime) * currentRewardRate() * 1e18 */\n      tag_418\n      swap2\n      swap1\n      tag_246\n      jump\t// in\n    tag_418:\n        /* \"octo_flattened.sol\":41849:41928  (block.timestamp - lastUpdateTime) * currentRewardRate() * 1e18 / totalSupply() */\n      tag_419\n      swap2\n      swap1\n      tag_248\n      jump\t// in\n    tag_419:\n        /* \"octo_flattened.sol\":41825:41845  rewardPerTokenStored */\n      sload(0x12)\n        /* \"octo_flattened.sol\":41825:41929  rewardPerTokenStored + ((block.timestamp - lastUpdateTime) * currentRewardRate() * 1e18 / totalSupply()) */\n      tag_420\n      swap2\n      swap1\n      tag_250\n      jump\t// in\n    tag_420:\n        /* \"octo_flattened.sol\":41818:41929  return rewardPerTokenStored + ((block.timestamp - lastUpdateTime) * currentRewardRate() * 1e18 / totalSupply()) */\n      swap1\n      pop\n        /* \"octo_flattened.sol\":41686:41936  function rewardPerToken() public view returns (uint256) {... */\n    tag_411:\n      swap1\n      jump\t// out\n        /* \"octo_flattened.sol\":40873:40981  function setUniswapPair(address pair) external onlyOwner {... */\n    tag_212:\n        /* \"octo_flattened.sol\":21607:21620  _checkOwner() */\n      tag_422\n        /* \"octo_flattened.sol\":21607:21618  _checkOwner */\n      tag_337\n        /* \"octo_flattened.sol\":21607:21620  _checkOwner() */\n      jump\t// in\n    tag_422:\n        /* \"octo_flattened.sol\":40969:40973  pair */\n      dup1\n        /* \"octo_flattened.sol\":40940:40951  uniswapPair */\n      0x08\n      0x00\n        /* \"octo_flattened.sol\":40940:40974  uniswapPair = IUniswapV2Pair(pair) */\n      0x0100\n      exp\n      dup2\n      sload\n      dup2\n      0xffffffffffffffffffffffffffffffffffffffff\n      mul\n      not\n      and\n      swap1\n      dup4\n      0xffffffffffffffffffffffffffffffffffffffff\n      and\n      mul\n      or\n      swap1\n      sstore\n      pop\n        /* \"octo_flattened.sol\":40873:40981  function setUniswapPair(address pair) external onlyOwner {... */\n      pop\n      jump\t// out\n        /* \"octo_flattened.sol\":39217:39268  mapping(address => uint256) public liquidityBalance */\n    tag_216:\n      mstore(0x20, 0x0b)\n      dup1\n      0x00\n      mstore\n      keccak256(0x00, 0x40)\n      0x00\n      swap2\n      pop\n      swap1\n      pop\n      sload\n      dup2\n      jump\t// out\n        /* \"octo_flattened.sol\":30334:30474  function allowance(address owner, address spender) public view virtual returns (uint256) {... */\n    tag_222:\n        /* \"octo_flattened.sol\":30414:30421  uint256 */\n      0x00\n        /* \"octo_flattened.sol\":30440:30451  _allowances */\n      0x01\n        /* \"octo_flattened.sol\":30440:30458  _allowances[owner] */\n      0x00\n        /* \"octo_flattened.sol\":30452:30457  owner */\n      dup5\n        /* \"octo_flattened.sol\":30440:30458  _allowances[owner] */\n      0xffffffffffffffffffffffffffffffffffffffff\n      and\n      0xffffffffffffffffffffffffffffffffffffffff\n      and\n      dup2\n      mstore\n      0x20\n      add\n      swap1\n      dup2\n      mstore\n      0x20\n      add\n      0x00\n      keccak256\n        /* \"octo_flattened.sol\":30440:30467  _allowances[owner][spender] */\n      0x00\n        /* \"octo_flattened.sol\":30459:30466  spender */\n      dup4\n        /* \"octo_flattened.sol\":30440:30467  _allowances[owner][spender] */\n      0xffffffffffffffffffffffffffffffffffffffff\n      and\n      0xffffffffffffffffffffffffffffffffffffffff\n      and\n      dup2\n      mstore\n      0x20\n      add\n      swap1\n      dup2\n      mstore\n      0x20\n      add\n      0x00\n      keccak256\n      sload\n        /* \"octo_flattened.sol\":30433:30467  return _allowances[owner][spender] */\n      swap1\n      pop\n        /* \"octo_flattened.sol\":30334:30474  function allowance(address owner, address spender) public view virtual returns (uint256) {... */\n      swap3\n      swap2\n      pop\n      pop\n      jump\t// out\n        /* \"octo_flattened.sol\":39588:39623  uint256 public rewardPerTokenStored */\n    tag_226:\n      sload(0x12)\n      dup2\n      jump\t// out\n        /* \"octo_flattened.sol\":22619:22834  function transferOwnership(address newOwner) public virtual onlyOwner {... */\n    tag_231:\n        /* \"octo_flattened.sol\":21607:21620  _checkOwner() */\n      tag_426\n        /* \"octo_flattened.sol\":21607:21618  _checkOwner */\n      tag_337\n        /* \"octo_flattened.sol\":21607:21620  _checkOwner() */\n      jump\t// in\n    tag_426:\n        /* \"octo_flattened.sol\":22723:22724  0 */\n      0x00\n        /* \"octo_flattened.sol\":22703:22725  newOwner == address(0) */\n      0xffffffffffffffffffffffffffffffffffffffff\n      and\n        /* \"octo_flattened.sol\":22703:22711  newOwner */\n      dup2\n        /* \"octo_flattened.sol\":22703:22725  newOwner == address(0) */\n      0xffffffffffffffffffffffffffffffffffffffff\n      and\n      sub\n        /* \"octo_flattened.sol\":22699:22790  if (newOwner == address(0)) {... */\n      tag_428\n      jumpi\n        /* \"octo_flattened.sol\":22776:22777  0 */\n      0x00\n        /* \"octo_flattened.sol\":22748:22779  OwnableInvalidOwner(address(0)) */\n      mload(0x40)\n      0x1e4fbdf700000000000000000000000000000000000000000000000000000000\n      dup2\n      mstore\n      0x04\n      add\n      tag_429\n      swap2\n      swap1\n      tag_163\n      jump\t// in\n    tag_429:\n      mload(0x40)\n      dup1\n      swap2\n      sub\n      swap1\n      revert\n        /* \"octo_flattened.sol\":22699:22790  if (newOwner == address(0)) {... */\n    tag_428:\n        /* \"octo_flattened.sol\":22799:22827  _transferOwnership(newOwner) */\n      tag_430\n        /* \"octo_flattened.sol\":22818:22826  newOwner */\n      dup2\n        /* \"octo_flattened.sol\":22799:22817  _transferOwnership */\n      tag_340\n        /* \"octo_flattened.sol\":22799:22827  _transferOwnership(newOwner) */\n      jump\t// in\n    tag_430:\n        /* \"octo_flattened.sol\":22619:22834  function transferOwnership(address newOwner) public virtual onlyOwner {... */\n      pop\n      jump\t// out\n        /* \"octo_flattened.sol\":41942:42975  function currentRewardRate() public view returns (uint256) {... */\n    tag_234:\n        /* \"octo_flattened.sol\":41992:41999  uint256 */\n      0x00\n        /* \"octo_flattened.sol\":42011:42030  uint256 timeElapsed */\n      dup1\n        /* \"octo_flattened.sol\":42051:42065  stakeStartTime */\n      0x0d\n        /* \"octo_flattened.sol\":42051:42077  stakeStartTime[msg.sender] */\n      0x00\n        /* \"octo_flattened.sol\":42066:42076  msg.sender */\n      caller\n        /* \"octo_flattened.sol\":42051:42077  stakeStartTime[msg.sender] */\n      0xffffffffffffffffffffffffffffffffffffffff\n      and\n      0xffffffffffffffffffffffffffffffffffffffff\n      and\n      dup2\n      mstore\n      0x20\n      add\n      swap1\n      dup2\n      mstore\n      0x20\n      add\n      0x00\n      keccak256\n      sload\n        /* \"octo_flattened.sol\":42033:42048  block.timestamp */\n      timestamp\n        /* \"octo_flattened.sol\":42033:42077  block.timestamp - stakeStartTime[msg.sender] */\n      tag_432\n      swap2\n      swap1\n      tag_244\n      jump\t// in\n    tag_432:\n        /* \"octo_flattened.sol\":42011:42077  uint256 timeElapsed = block.timestamp - stakeStartTime[msg.sender] */\n      swap1\n      pop\n        /* \"octo_flattened.sol\":42105:42112  15 days */\n      0x13c680\n        /* \"octo_flattened.sol\":42091:42102  timeElapsed */\n      dup2\n        /* \"octo_flattened.sol\":42091:42112  timeElapsed < 15 days */\n      lt\n        /* \"octo_flattened.sol\":42087:42969  if (timeElapsed < 15 days) {... */\n      iszero\n      tag_433\n      jumpi\n        /* \"octo_flattened.sol\":42155:42161  1 days */\n      0x015180\n        /* \"octo_flattened.sol\":39111:39121  100 * 1e18 */\n      0x056bc75e2d63100000\n        /* \"octo_flattened.sol\":42135:42161  initialRewardRate / 1 days */\n      tag_434\n      swap2\n      swap1\n      tag_248\n      jump\t// in\n    tag_434:\n        /* \"octo_flattened.sol\":42128:42161  return initialRewardRate / 1 days */\n      swap2\n      pop\n      pop\n      jump(tag_431)\n        /* \"octo_flattened.sol\":42087:42969  if (timeElapsed < 15 days) {... */\n    tag_433:\n        /* \"octo_flattened.sol\":42196:42203  22 days */\n      0x1d0100\n        /* \"octo_flattened.sol\":42182:42193  timeElapsed */\n      dup2\n        /* \"octo_flattened.sol\":42182:42203  timeElapsed < 22 days */\n      lt\n        /* \"octo_flattened.sol\":42178:42969  if (timeElapsed < 22 days) {... */\n      iszero\n      tag_436\n      jumpi\n        /* \"octo_flattened.sol\":42260:42266  1 days */\n      0x015180\n        /* \"octo_flattened.sol\":42247:42256  10 * 1e18 */\n      0x8ac7230489e80000\n        /* \"octo_flattened.sol\":39111:39121  100 * 1e18 */\n      0x056bc75e2d63100000\n        /* \"octo_flattened.sol\":42227:42256  initialRewardRate - 10 * 1e18 */\n      tag_437\n      swap2\n      swap1\n      tag_244\n      jump\t// in\n    tag_437:\n        /* \"octo_flattened.sol\":42226:42266  (initialRewardRate - 10 * 1e18) / 1 days */\n      tag_438\n      swap2\n      swap1\n      tag_248\n      jump\t// in\n    tag_438:\n        /* \"octo_flattened.sol\":42219:42266  return (initialRewardRate - 10 * 1e18) / 1 days */\n      swap2\n      pop\n      pop\n      jump(tag_431)\n        /* \"octo_flattened.sol\":42178:42969  if (timeElapsed < 22 days) {... */\n    tag_436:\n        /* \"octo_flattened.sol\":42301:42308  29 days */\n      0x263b80\n        /* \"octo_flattened.sol\":42287:42298  timeElapsed */\n      dup2\n        /* \"octo_flattened.sol\":42287:42308  timeElapsed < 29 days */\n      lt\n        /* \"octo_flattened.sol\":42283:42969  if (timeElapsed < 29 days) {... */\n      iszero\n      tag_440\n      jumpi\n        /* \"octo_flattened.sol\":42365:42371  1 days */\n      0x015180\n        /* \"octo_flattened.sol\":42352:42361  20 * 1e18 */\n      0x01158e460913d00000\n        /* \"octo_flattened.sol\":39111:39121  100 * 1e18 */\n      0x056bc75e2d63100000\n        /* \"octo_flattened.sol\":42332:42361  initialRewardRate - 20 * 1e18 */\n      tag_441\n      swap2\n      swap1\n      tag_244\n      jump\t// in\n    tag_441:\n        /* \"octo_flattened.sol\":42331:42371  (initialRewardRate - 20 * 1e18) / 1 days */\n      tag_442\n      swap2\n      swap1\n      tag_248\n      jump\t// in\n    tag_442:\n        /* \"octo_flattened.sol\":42324:42371  return (initialRewardRate - 20 * 1e18) / 1 days */\n      swap2\n      pop\n      pop\n      jump(tag_431)\n        /* \"octo_flattened.sol\":42283:42969  if (timeElapsed < 29 days) {... */\n    tag_440:\n        /* \"octo_flattened.sol\":42406:42413  36 days */\n      0x2f7600\n        /* \"octo_flattened.sol\":42392:42403  timeElapsed */\n      dup2\n        /* \"octo_flattened.sol\":42392:42413  timeElapsed < 36 days */\n      lt\n        /* \"octo_flattened.sol\":42388:42969  if (timeElapsed < 36 days) {... */\n      iszero\n      tag_444\n      jumpi\n        /* \"octo_flattened.sol\":42470:42476  1 days */\n      0x015180\n        /* \"octo_flattened.sol\":42457:42466  30 * 1e18 */\n      0x01a055690d9db80000\n        /* \"octo_flattened.sol\":39111:39121  100 * 1e18 */\n      0x056bc75e2d63100000\n        /* \"octo_flattened.sol\":42437:42466  initialRewardRate - 30 * 1e18 */\n      tag_445\n      swap2\n      swap1\n      tag_244\n      jump\t// in\n    tag_445:\n        /* \"octo_flattened.sol\":42436:42476  (initialRewardRate - 30 * 1e18) / 1 days */\n      tag_446\n      swap2\n      swap1\n      tag_248\n      jump\t// in\n    tag_446:\n        /* \"octo_flattened.sol\":42429:42476  return (initialRewardRate - 30 * 1e18) / 1 days */\n      swap2\n      pop\n      pop\n      jump(tag_431)\n        /* \"octo_flattened.sol\":42388:42969  if (timeElapsed < 36 days) {... */\n    tag_444:\n        /* \"octo_flattened.sol\":42511:42518  43 days */\n      0x38b080\n        /* \"octo_flattened.sol\":42497:42508  timeElapsed */\n      dup2\n        /* \"octo_flattened.sol\":42497:42518  timeElapsed < 43 days */\n      lt\n        /* \"octo_flattened.sol\":42493:42969  if (timeElapsed < 43 days) {... */\n      iszero\n      tag_448\n      jumpi\n        /* \"octo_flattened.sol\":42575:42581  1 days */\n      0x015180\n        /* \"octo_flattened.sol\":42562:42571  40 * 1e18 */\n      0x022b1c8c1227a00000\n        /* \"octo_flattened.sol\":39111:39121  100 * 1e18 */\n      0x056bc75e2d63100000\n        /* \"octo_flattened.sol\":42542:42571  initialRewardRate - 40 * 1e18 */\n      tag_449\n      swap2\n      swap1\n      tag_244\n      jump\t// in\n    tag_449:\n        /* \"octo_flattened.sol\":42541:42581  (initialRewardRate - 40 * 1e18) / 1 days */\n      tag_450\n      swap2\n      swap1\n      tag_248\n      jump\t// in\n    tag_450:\n        /* \"octo_flattened.sol\":42534:42581  return (initialRewardRate - 40 * 1e18) / 1 days */\n      swap2\n      pop\n      pop\n      jump(tag_431)\n        /* \"octo_flattened.sol\":42493:42969  if (timeElapsed < 43 days) {... */\n    tag_448:\n        /* \"octo_flattened.sol\":42616:42623  50 days */\n      0x41eb00\n        /* \"octo_flattened.sol\":42602:42613  timeElapsed */\n      dup2\n        /* \"octo_flattened.sol\":42602:42623  timeElapsed < 50 days */\n      lt\n        /* \"octo_flattened.sol\":42598:42969  if (timeElapsed < 50 days) {... */\n      iszero\n      tag_452\n      jumpi\n        /* \"octo_flattened.sol\":42680:42686  1 days */\n      0x015180\n        /* \"octo_flattened.sol\":42667:42676  50 * 1e18 */\n      0x02b5e3af16b1880000\n        /* \"octo_flattened.sol\":39111:39121  100 * 1e18 */\n      0x056bc75e2d63100000\n        /* \"octo_flattened.sol\":42647:42676  initialRewardRate - 50 * 1e18 */\n      tag_453\n      swap2\n      swap1\n      tag_244\n      jump\t// in\n    tag_453:\n        /* \"octo_flattened.sol\":42646:42686  (initialRewardRate - 50 * 1e18) / 1 days */\n      tag_454\n      swap2\n      swap1\n      tag_248\n      jump\t// in\n    tag_454:\n        /* \"octo_flattened.sol\":42639:42686  return (initialRewardRate - 50 * 1e18) / 1 days */\n      swap2\n      pop\n      pop\n      jump(tag_431)\n        /* \"octo_flattened.sol\":42598:42969  if (timeElapsed < 50 days) {... */\n    tag_452:\n        /* \"octo_flattened.sol\":42721:42728  57 days */\n      0x4b2580\n        /* \"octo_flattened.sol\":42707:42718  timeElapsed */\n      dup2\n        /* \"octo_flattened.sol\":42707:42728  timeElapsed < 57 days */\n      lt\n        /* \"octo_flattened.sol\":42703:42969  if (timeElapsed < 57 days) {... */\n      iszero\n      tag_456\n      jumpi\n        /* \"octo_flattened.sol\":42785:42791  1 days */\n      0x015180\n        /* \"octo_flattened.sol\":42772:42781  60 * 1e18 */\n      0x0340aad21b3b700000\n        /* \"octo_flattened.sol\":39111:39121  100 * 1e18 */\n      0x056bc75e2d63100000\n        /* \"octo_flattened.sol\":42752:42781  initialRewardRate - 60 * 1e18 */\n      tag_457\n      swap2\n      swap1\n      tag_244\n      jump\t// in\n    tag_457:\n        /* \"octo_flattened.sol\":42751:42791  (initialRewardRate - 60 * 1e18) / 1 days */\n      tag_458\n      swap2\n      swap1\n      tag_248\n      jump\t// in\n    tag_458:\n        /* \"octo_flattened.sol\":42744:42791  return (initialRewardRate - 60 * 1e18) / 1 days */\n      swap2\n      pop\n      pop\n      jump(tag_431)\n        /* \"octo_flattened.sol\":42703:42969  if (timeElapsed < 57 days) {... */\n    tag_456:\n        /* \"octo_flattened.sol\":42826:42833  64 days */\n      0x546000\n        /* \"octo_flattened.sol\":42812:42823  timeElapsed */\n      dup2\n        /* \"octo_flattened.sol\":42812:42833  timeElapsed < 64 days */\n      lt\n        /* \"octo_flattened.sol\":42808:42969  if (timeElapsed < 64 days) {... */\n      iszero\n      tag_460\n      jumpi\n        /* \"octo_flattened.sol\":42890:42896  1 days */\n      0x015180\n        /* \"octo_flattened.sol\":42877:42886  70 * 1e18 */\n      0x03cb71f51fc5580000\n        /* \"octo_flattened.sol\":39111:39121  100 * 1e18 */\n      0x056bc75e2d63100000\n        /* \"octo_flattened.sol\":42857:42886  initialRewardRate - 70 * 1e18 */\n      tag_461\n      swap2\n      swap1\n      tag_244\n      jump\t// in\n    tag_461:\n        /* \"octo_flattened.sol\":42856:42896  (initialRewardRate - 70 * 1e18) / 1 days */\n      tag_462\n      swap2\n      swap1\n      tag_248\n      jump\t// in\n    tag_462:\n        /* \"octo_flattened.sol\":42849:42896  return (initialRewardRate - 70 * 1e18) / 1 days */\n      swap2\n      pop\n      pop\n      jump(tag_431)\n        /* \"octo_flattened.sol\":42808:42969  if (timeElapsed < 64 days) {... */\n    tag_460:\n        /* \"octo_flattened.sol\":42952:42958  1 days */\n      0x015180\n        /* \"octo_flattened.sol\":39169:39178  10 * 1e18 */\n      0x8ac7230489e80000\n        /* \"octo_flattened.sol\":42934:42958  finalRewardRate / 1 days */\n      tag_464\n      swap2\n      swap1\n      tag_248\n      jump\t// in\n    tag_464:\n        /* \"octo_flattened.sol\":42927:42958  return finalRewardRate / 1 days */\n      swap2\n      pop\n      pop\n        /* \"octo_flattened.sol\":41942:42975  function currentRewardRate() public view returns (uint256) {... */\n    tag_431:\n      swap1\n      jump\t// out\n        /* \"octo_flattened.sol\":39490:39547  mapping(address => uint256) public liquidityMiningRewards */\n    tag_239:\n      mstore(0x20, 0x10)\n      dup1\n      0x00\n      mstore\n      keccak256(0x00, 0x40)\n      0x00\n      swap2\n      pop\n      swap1\n      pop\n      sload\n      dup2\n      jump\t// out\n        /* \"octo_flattened.sol\":19793:19889  function _msgSender() internal view virtual returns (address) {... */\n    tag_260:\n        /* \"octo_flattened.sol\":19846:19853  address */\n      0x00\n        /* \"octo_flattened.sol\":19872:19882  msg.sender */\n      caller\n        /* \"octo_flattened.sol\":19865:19882  return msg.sender */\n      swap1\n      pop\n        /* \"octo_flattened.sol\":19793:19889  function _msgSender() internal view virtual returns (address) {... */\n      swap1\n      jump\t// out\n        /* \"octo_flattened.sol\":35484:35612  function _approve(address owner, address spender, uint256 value) internal {... */\n    tag_262:\n        /* \"octo_flattened.sol\":35568:35605  _approve(owner, spender, value, true) */\n      tag_467\n        /* \"octo_flattened.sol\":35577:35582  owner */\n      dup4\n        /* \"octo_flattened.sol\":35584:35591  spender */\n      dup4\n        /* \"octo_flattened.sol\":35593:35598  value */\n      dup4\n        /* \"octo_flattened.sol\":35600:35604  true */\n      0x01\n        /* \"octo_flattened.sol\":35568:35576  _approve */\n      tag_468\n        /* \"octo_flattened.sol\":35568:35605  _approve(owner, spender, value, true) */\n      jump\t// in\n    tag_467:\n        /* \"octo_flattened.sol\":35484:35612  function _approve(address owner, address spender, uint256 value) internal {... */\n      pop\n      pop\n      pop\n      jump\t// out\n        /* \"octo_flattened.sol\":37158:37635  function _spendAllowance(address owner, address spender, uint256 value) internal virtual {... */\n    tag_271:\n        /* \"octo_flattened.sol\":37257:37281  uint256 currentAllowance */\n      0x00\n        /* \"octo_flattened.sol\":37284:37309  allowance(owner, spender) */\n      tag_470\n        /* \"octo_flattened.sol\":37294:37299  owner */\n      dup5\n        /* \"octo_flattened.sol\":37301:37308  spender */\n      dup5\n        /* \"octo_flattened.sol\":37284:37293  allowance */\n      tag_222\n        /* \"octo_flattened.sol\":37284:37309  allowance(owner, spender) */\n      jump\t// in\n    tag_470:\n        /* \"octo_flattened.sol\":37257:37309  uint256 currentAllowance = allowance(owner, spender) */\n      swap1\n      pop\n        /* \"octo_flattened.sol\":37343:37360  type(uint256).max */\n      0xffffffffffffffffffffffffffffffffffffffffffffffffffffffffffffffff\n        /* \"octo_flattened.sol\":37323:37339  currentAllowance */\n      dup2\n        /* \"octo_flattened.sol\":37323:37360  currentAllowance != type(uint256).max */\n      eq\n        /* \"octo_flattened.sol\":37319:37629  if (currentAllowance != type(uint256).max) {... */\n      tag_471\n      jumpi\n        /* \"octo_flattened.sol\":37399:37404  value */\n      dup2\n        /* \"octo_flattened.sol\":37380:37396  currentAllowance */\n      dup2\n        /* \"octo_flattened.sol\":37380:37404  currentAllowance < value */\n      lt\n        /* \"octo_flattened.sol\":37376:37506  if (currentAllowance < value) {... */\n      iszero\n      tag_472\n      jumpi\n        /* \"octo_flattened.sol\":37458:37465  spender */\n      dup3\n        /* \"octo_flattened.sol\":37467:37483  currentAllowance */\n      dup2\n        /* \"octo_flattened.sol\":37485:37490  value */\n      dup4\n        /* \"octo_flattened.sol\":37431:37491  ERC20InsufficientAllowance(spender, currentAllowance, value) */\n      mload(0x40)\n      0xfb8f41b200000000000000000000000000000000000000000000000000000000\n      dup2\n      mstore\n      0x04\n      add\n      tag_473\n      swap4\n      swap3\n      swap2\n      swap1\n      tag_474\n      jump\t// in\n    tag_473:\n      mload(0x40)\n      dup1\n      swap2\n      sub\n      swap1\n      revert\n        /* \"octo_flattened.sol\":37376:37506  if (currentAllowance < value) {... */\n    tag_472:\n        /* \"octo_flattened.sol\":37547:37604  _approve(owner, spender, currentAllowance - value, false) */\n      tag_475\n        /* \"octo_flattened.sol\":37556:37561  owner */\n      dup5\n        /* \"octo_flattened.sol\":37563:37570  spender */\n      dup5\n        /* \"octo_flattened.sol\":37591:37596  value */\n      dup5\n        /* \"octo_flattened.sol\":37572:37588  currentAllowance */\n      dup5\n        /* \"octo_flattened.sol\":37572:37596  currentAllowance - value */\n      sub\n        /* \"octo_flattened.sol\":37598:37603  false */\n      0x00\n        /* \"octo_flattened.sol\":37547:37555  _approve */\n      tag_468\n        /* \"octo_flattened.sol\":37547:37604  _approve(owner, spender, currentAllowance - value, false) */\n      jump\t// in\n    tag_475:\n        /* \"octo_flattened.sol\":37319:37629  if (currentAllowance != type(uint256).max) {... */\n    tag_471:\n        /* \"octo_flattened.sol\":37247:37635  {... */\n      pop\n        /* \"octo_flattened.sol\":37158:37635  function _spendAllowance(address owner, address spender, uint256 value) internal virtual {... */\n      pop\n      pop\n      pop\n      jump\t// out\n        /* \"octo_flattened.sol\":47122:47933  function _transfer(address sender, address recipient, uint256 amount) internal override {... */\n    tag_273:\n        /* \"octo_flattened.sol\":47220:47237  uint256 taxAmount */\n      0x00\n        /* \"octo_flattened.sol\":47261:47264  100 */\n      0x64\n        /* \"octo_flattened.sol\":47250:47257  taxRate */\n      sload(0x0a)\n        /* \"octo_flattened.sol\":47241:47247  amount */\n      dup4\n        /* \"octo_flattened.sol\":47241:47257  amount * taxRate */\n      tag_477\n      swap2\n      swap1\n      tag_246\n      jump\t// in\n    tag_477:\n        /* \"octo_flattened.sol\":47240:47264  (amount * taxRate) / 100 */\n      tag_478\n      swap2\n      swap1\n      tag_248\n      jump\t// in\n    tag_478:\n        /* \"octo_flattened.sol\":47220:47264  uint256 taxAmount = (amount * taxRate) / 100 */\n      swap1\n      pop\n        /* \"octo_flattened.sol\":47274:47296  uint256 amountAfterTax */\n      0x00\n        /* \"octo_flattened.sol\":47308:47317  taxAmount */\n      dup2\n        /* \"octo_flattened.sol\":47299:47305  amount */\n      dup4\n        /* \"octo_flattened.sol\":47299:47317  amount - taxAmount */\n      tag_479\n      swap2\n      swap1\n      tag_244\n      jump\t// in\n    tag_479:\n        /* \"octo_flattened.sol\":47274:47317  uint256 amountAfterTax = amount - taxAmount */\n      swap1\n      pop\n        /* \"octo_flattened.sol\":47328:47350  uint256 liquidityShare */\n      0x00\n        /* \"octo_flattened.sol\":47372:47375  100 */\n      0x64\n        /* \"octo_flattened.sol\":47366:47368  75 */\n      0x4b\n        /* \"octo_flattened.sol\":47354:47363  taxAmount */\n      dup5\n        /* \"octo_flattened.sol\":47354:47368  taxAmount * 75 */\n      tag_480\n      swap2\n      swap1\n      tag_246\n      jump\t// in\n    tag_480:\n        /* \"octo_flattened.sol\":47353:47375  (taxAmount * 75) / 100 */\n      tag_481\n      swap2\n      swap1\n      tag_248\n      jump\t// in\n    tag_481:\n        /* \"octo_flattened.sol\":47328:47375  uint256 liquidityShare = (taxAmount * 75) / 100 */\n      swap1\n      pop\n        /* \"octo_flattened.sol\":47385:47409  uint256 developmentShare */\n      0x00\n        /* \"octo_flattened.sol\":47424:47438  liquidityShare */\n      dup2\n        /* \"octo_flattened.sol\":47412:47421  taxAmount */\n      dup5\n        /* \"octo_flattened.sol\":47412:47438  taxAmount - liquidityShare */\n      tag_482\n      swap2\n      swap1\n      tag_244\n      jump\t// in\n    tag_482:\n        /* \"octo_flattened.sol\":47385:47438  uint256 developmentShare = taxAmount - liquidityShare */\n      swap1\n      pop\n        /* \"octo_flattened.sol\":47449:47503  super._transfer(sender, address(this), liquidityShare) */\n      tag_483\n        /* \"octo_flattened.sol\":47465:47471  sender */\n      dup8\n        /* \"octo_flattened.sol\":47481:47485  this */\n      address\n        /* \"octo_flattened.sol\":47488:47502  liquidityShare */\n      dup5\n        /* \"octo_flattened.sol\":47449:47464  super._transfer */\n      tag_323\n        /* \"octo_flattened.sol\":47449:47503  super._transfer(sender, address(this), liquidityShare) */\n      jump\t// in\n    tag_483:\n        /* \"octo_flattened.sol\":47513:47573  super._transfer(sender, developmentWallet, developmentShare) */\n      tag_484\n        /* \"octo_flattened.sol\":47529:47535  sender */\n      dup8\n        /* \"octo_flattened.sol\":47537:47554  developmentWallet */\n      0x09\n      0x00\n      swap1\n      sload\n      swap1\n      0x0100\n      exp\n      swap1\n      div\n      0xffffffffffffffffffffffffffffffffffffffff\n      and\n        /* \"octo_flattened.sol\":47556:47572  developmentShare */\n      dup4\n        /* \"octo_flattened.sol\":47513:47528  super._transfer */\n      tag_323\n        /* \"octo_flattened.sol\":47513:47573  super._transfer(sender, developmentWallet, developmentShare) */\n      jump\t// in\n    tag_484:\n        /* \"octo_flattened.sol\":47583:47633  super._transfer(sender, recipient, amountAfterTax) */\n      tag_485\n        /* \"octo_flattened.sol\":47599:47605  sender */\n      dup8\n        /* \"octo_flattened.sol\":47607:47616  recipient */\n      dup8\n        /* \"octo_flattened.sol\":47618:47632  amountAfterTax */\n      dup6\n        /* \"octo_flattened.sol\":47583:47598  super._transfer */\n      tag_323\n        /* \"octo_flattened.sol\":47583:47633  super._transfer(sender, recipient, amountAfterTax) */\n      jump\t// in\n    tag_485:\n        /* \"octo_flattened.sol\":47644:47678  _addLiquidityMiningRewards(sender) */\n      tag_486\n        /* \"octo_flattened.sol\":47671:47677  sender */\n      dup8\n        /* \"octo_flattened.sol\":47644:47670  _addLiquidityMiningRewards */\n      tag_487\n        /* \"octo_flattened.sol\":47644:47678  _addLiquidityMiningRewards(sender) */\n      jump\t// in\n    tag_486:\n        /* \"octo_flattened.sol\":47739:47776  _addLiquidityMiningRewards(recipient) */\n      tag_488\n        /* \"octo_flattened.sol\":47766:47775  recipient */\n      dup7\n        /* \"octo_flattened.sol\":47739:47765  _addLiquidityMiningRewards */\n      tag_487\n        /* \"octo_flattened.sol\":47739:47776  _addLiquidityMiningRewards(recipient) */\n      jump\t// in\n    tag_488:\n        /* \"octo_flattened.sol\":47897:47926  _addLiquidity(liquidityShare) */\n      tag_489\n        /* \"octo_flattened.sol\":47911:47925  liquidityShare */\n      dup3\n        /* \"octo_flattened.sol\":47897:47910  _addLiquidity */\n      tag_490\n        /* \"octo_flattened.sol\":47897:47926  _addLiquidity(liquidityShare) */\n      jump\t// in\n    tag_489:\n        /* \"octo_flattened.sol\":47210:47933  {... */\n      pop\n      pop\n      pop\n      pop\n        /* \"octo_flattened.sol\":47122:47933  function _transfer(address sender, address recipient, uint256 amount) internal override {... */\n      pop\n      pop\n      pop\n      jump\t// out\n        /* \"octo_flattened.sol\":11758:12045  function _nonReentrantBefore() private {... */\n    tag_276:\n        /* \"octo_flattened.sol\":11181:11182  2 */\n      0x02\n        /* \"octo_flattened.sol\":11890:11897  _status */\n      sload(0x05)\n        /* \"octo_flattened.sol\":11890:11909  _status != _ENTERED */\n      sub\n        /* \"octo_flattened.sol\":11882:11945  require(_status != _ENTERED, \"ReentrancyGuard: reentrant call\") */\n      tag_492\n      jumpi\n      mload(0x40)\n      0x08c379a000000000000000000000000000000000000000000000000000000000\n      dup2\n      mstore\n      0x04\n      add\n      tag_493\n      swap1\n      tag_494\n      jump\t// in\n    tag_493:\n      mload(0x40)\n      dup1\n      swap2\n      sub\n      swap1\n      revert\n    tag_492:\n        /* \"octo_flattened.sol\":11181:11182  2 */\n      0x02\n        /* \"octo_flattened.sol\":12020:12027  _status */\n      0x05\n        /* \"octo_flattened.sol\":12020:12038  _status = _ENTERED */\n      dup2\n      swap1\n      sstore\n      pop\n        /* \"octo_flattened.sol\":11758:12045  function _nonReentrantBefore() private {... */\n      jump\t// out\n        /* \"octo_flattened.sol\":41432:41680  function updateReward(address account) internal {... */\n    tag_282:\n        /* \"octo_flattened.sol\":41513:41529  rewardPerToken() */\n      tag_496\n        /* \"octo_flattened.sol\":41513:41527  rewardPerToken */\n      tag_207\n        /* \"octo_flattened.sol\":41513:41529  rewardPerToken() */\n      jump\t// in\n    tag_496:\n        /* \"octo_flattened.sol\":41490:41510  rewardPerTokenStored */\n      0x12\n        /* \"octo_flattened.sol\":41490:41529  rewardPerTokenStored = rewardPerToken() */\n      dup2\n      swap1\n      sstore\n      pop\n        /* \"octo_flattened.sol\":41556:41571  block.timestamp */\n      timestamp\n        /* \"octo_flattened.sol\":41539:41553  lastUpdateTime */\n      0x11\n        /* \"octo_flattened.sol\":41539:41571  lastUpdateTime = block.timestamp */\n      dup2\n      swap1\n      sstore\n      pop\n        /* \"octo_flattened.sol\":41604:41605  0 */\n      0x00\n        /* \"octo_flattened.sol\":41585:41606  account != address(0) */\n      0xffffffffffffffffffffffffffffffffffffffff\n      and\n        /* \"octo_flattened.sol\":41585:41592  account */\n      dup2\n        /* \"octo_flattened.sol\":41585:41606  account != address(0) */\n      0xffffffffffffffffffffffffffffffffffffffff\n      and\n      eq\n        /* \"octo_flattened.sol\":41581:41674  if (account != address(0)) {... */\n      tag_497\n      jumpi\n        /* \"octo_flattened.sol\":41648:41663  earned(account) */\n      tag_498\n        /* \"octo_flattened.sol\":41655:41662  account */\n      dup2\n        /* \"octo_flattened.sol\":41648:41654  earned */\n      tag_57\n        /* \"octo_flattened.sol\":41648:41663  earned(account) */\n      jump\t// in\n    tag_498:\n        /* \"octo_flattened.sol\":41622:41636  lpTokenBalance */\n      0x0c\n        /* \"octo_flattened.sol\":41622:41645  lpTokenBalance[account] */\n      0x00\n        /* \"octo_flattened.sol\":41637:41644  account */\n      dup4\n        /* \"octo_flattened.sol\":41622:41645  lpTokenBalance[account] */\n      0xffffffffffffffffffffffffffffffffffffffff\n      and\n      0xffffffffffffffffffffffffffffffffffffffff\n      and\n      dup2\n      mstore\n      0x20\n      add\n      swap1\n      dup2\n      mstore\n      0x20\n      add\n      0x00\n      keccak256\n        /* \"octo_flattened.sol\":41622:41663  lpTokenBalance[account] = earned(account) */\n      dup2\n      swap1\n      sstore\n      pop\n        /* \"octo_flattened.sol\":41581:41674  if (account != address(0)) {... */\n    tag_497:\n        /* \"octo_flattened.sol\":41432:41680  function updateReward(address account) internal {... */\n      pop\n      jump\t// out\n        /* \"octo_flattened.sol\":12051:12260  function _nonReentrantAfter() private {... */\n    tag_314:\n        /* \"octo_flattened.sol\":11138:11139  1 */\n      0x01\n        /* \"octo_flattened.sol\":12231:12238  _status */\n      0x05\n        /* \"octo_flattened.sol\":12231:12253  _status = _NOT_ENTERED */\n      dup2\n      swap1\n      sstore\n      pop\n        /* \"octo_flattened.sol\":12051:12260  function _nonReentrantAfter() private {... */\n      jump\t// out\n        /* \"octo_flattened.sol\":32144:32451  function _transfer(address from, address to, uint256 value) internal virtual{... */\n    tag_323:\n        /* \"octo_flattened.sol\":32250:32251  0 */\n      0x00\n        /* \"octo_flattened.sol\":32234:32252  from == address(0) */\n      0xffffffffffffffffffffffffffffffffffffffff\n      and\n        /* \"octo_flattened.sol\":32234:32238  from */\n      dup4\n        /* \"octo_flattened.sol\":32234:32252  from == address(0) */\n      0xffffffffffffffffffffffffffffffffffffffff\n      and\n      sub\n        /* \"octo_flattened.sol\":32230:32316  if (from == address(0)) {... */\n      tag_501\n      jumpi\n        /* \"octo_flattened.sol\":32302:32303  0 */\n      0x00\n        /* \"octo_flattened.sol\":32275:32305  ERC20InvalidSender(address(0)) */\n      mload(0x40)\n      0x96c6fd1e00000000000000000000000000000000000000000000000000000000\n      dup2\n      mstore\n      0x04\n      add\n      tag_502\n      swap2\n      swap1\n      tag_163\n      jump\t// in\n    tag_502:\n      mload(0x40)\n      dup1\n      swap2\n      sub\n      swap1\n      revert\n        /* \"octo_flattened.sol\":32230:32316  if (from == address(0)) {... */\n    tag_501:\n        /* \"octo_flattened.sol\":32343:32344  0 */\n      0x00\n        /* \"octo_flattened.sol\":32329:32345  to == address(0) */\n      0xffffffffffffffffffffffffffffffffffffffff\n      and\n        /* \"octo_flattened.sol\":32329:32331  to */\n      dup3\n        /* \"octo_flattened.sol\":32329:32345  to == address(0) */\n      0xffffffffffffffffffffffffffffffffffffffff\n      and\n      sub\n        /* \"octo_flattened.sol\":32325:32411  if (to == address(0)) {... */\n      tag_503\n      jumpi\n        /* \"octo_flattened.sol\":32397:32398  0 */\n      0x00\n        /* \"octo_flattened.sol\":32368:32400  ERC20InvalidReceiver(address(0)) */\n      mload(0x40)\n      0xec442f0500000000000000000000000000000000000000000000000000000000\n      dup2\n      mstore\n      0x04\n      add\n      tag_504\n      swap2\n      swap1\n      tag_163\n      jump\t// in\n    tag_504:\n      mload(0x40)\n      dup1\n      swap2\n      sub\n      swap1\n      revert\n        /* \"octo_flattened.sol\":32325:32411  if (to == address(0)) {... */\n    tag_503:\n        /* \"octo_flattened.sol\":32420:32444  _update(from, to, value) */\n      tag_505\n        /* \"octo_flattened.sol\":32428:32432  from */\n      dup4\n        /* \"octo_flattened.sol\":32434:32436  to */\n      dup4\n        /* \"octo_flattened.sol\":32438:32443  value */\n      dup4\n        /* \"octo_flattened.sol\":32420:32427  _update */\n      tag_506\n        /* \"octo_flattened.sol\":32420:32444  _update(from, to, value) */\n      jump\t// in\n    tag_505:\n        /* \"octo_flattened.sol\":32144:32451  function _transfer(address from, address to, uint256 value) internal virtual{... */\n      pop\n      pop\n      pop\n      jump\t// out\n        /* \"octo_flattened.sol\":21872:22034  function _checkOwner() internal view virtual {... */\n    tag_337:\n        /* \"octo_flattened.sol\":21942:21954  _msgSender() */\n      tag_508\n        /* \"octo_flattened.sol\":21942:21952  _msgSender */\n      tag_260\n        /* \"octo_flattened.sol\":21942:21954  _msgSender() */\n      jump\t// in\n    tag_508:\n        /* \"octo_flattened.sol\":21931:21954  owner() != _msgSender() */\n      0xffffffffffffffffffffffffffffffffffffffff\n      and\n        /* \"octo_flattened.sol\":21931:21938  owner() */\n      tag_509\n        /* \"octo_flattened.sol\":21931:21936  owner */\n      tag_161\n        /* \"octo_flattened.sol\":21931:21938  owner() */\n      jump\t// in\n    tag_509:\n        /* \"octo_flattened.sol\":21931:21954  owner() != _msgSender() */\n      0xffffffffffffffffffffffffffffffffffffffff\n      and\n      eq\n        /* \"octo_flattened.sol\":21927:22028  if (owner() != _msgSender()) {... */\n      tag_510\n      jumpi\n        /* \"octo_flattened.sol\":22004:22016  _msgSender() */\n      tag_511\n        /* \"octo_flattened.sol\":22004:22014  _msgSender */\n      tag_260\n        /* \"octo_flattened.sol\":22004:22016  _msgSender() */\n      jump\t// in\n    tag_511:\n        /* \"octo_flattened.sol\":21977:22017  OwnableUnauthorizedAccount(_msgSender()) */\n      mload(0x40)\n      0x118cdaa700000000000000000000000000000000000000000000000000000000\n      dup2\n      mstore\n      0x04\n      add\n      tag_512\n      swap2\n      swap1\n      tag_163\n      jump\t// in\n    tag_512:\n      mload(0x40)\n      dup1\n      swap2\n      sub\n      swap1\n      revert\n        /* \"octo_flattened.sol\":21927:22028  if (owner() != _msgSender()) {... */\n    tag_510:\n        /* \"octo_flattened.sol\":21872:22034  function _checkOwner() internal view virtual {... */\n      jump\t// out\n        /* \"octo_flattened.sol\":22988:23175  function _transferOwnership(address newOwner) internal virtual {... */\n    tag_340:\n        /* \"octo_flattened.sol\":23061:23077  address oldOwner */\n      0x00\n        /* \"octo_flattened.sol\":23080:23086  _owner */\n      0x06\n      0x00\n      swap1\n      sload\n      swap1\n      0x0100\n      exp\n      swap1\n      div\n      0xffffffffffffffffffffffffffffffffffffffff\n      and\n        /* \"octo_flattened.sol\":23061:23086  address oldOwner = _owner */\n      swap1\n      pop\n        /* \"octo_flattened.sol\":23105:23113  newOwner */\n      dup2\n        /* \"octo_flattened.sol\":23096:23102  _owner */\n      0x06\n      0x00\n        /* \"octo_flattened.sol\":23096:23113  _owner = newOwner */\n      0x0100\n      exp\n      dup2\n      sload\n      dup2\n      0xffffffffffffffffffffffffffffffffffffffff\n      mul\n      not\n      and\n      swap1\n      dup4\n      0xffffffffffffffffffffffffffffffffffffffff\n      and\n      mul\n      or\n      swap1\n      sstore\n      pop\n        /* \"octo_flattened.sol\":23159:23167  newOwner */\n      dup2\n        /* \"octo_flattened.sol\":23128:23168  OwnershipTransferred(oldOwner, newOwner) */\n      0xffffffffffffffffffffffffffffffffffffffff\n      and\n        /* \"octo_flattened.sol\":23149:23157  oldOwner */\n      dup2\n        /* \"octo_flattened.sol\":23128:23168  OwnershipTransferred(oldOwner, newOwner) */\n      0xffffffffffffffffffffffffffffffffffffffff\n      and\n      0x8be0079c531659141344cd1fd0a4f28419497f9722a3daafe3b4186f6b6457e0\n      mload(0x40)\n      mload(0x40)\n      dup1\n      swap2\n      sub\n      swap1\n      log3\n        /* \"octo_flattened.sol\":23051:23175  {... */\n      pop\n        /* \"octo_flattened.sol\":22988:23175  function _transferOwnership(address newOwner) internal virtual {... */\n      pop\n      jump\t// out\n        /* \"octo_flattened.sol\":36444:36876  function _approve(address owner, address spender, uint256 value, bool emitEvent) internal virtual {... */\n    tag_468:\n        /* \"octo_flattened.sol\":36573:36574  0 */\n      0x00\n        /* \"octo_flattened.sol\":36556:36575  owner == address(0) */\n      0xffffffffffffffffffffffffffffffffffffffff\n      and\n        /* \"octo_flattened.sol\":36556:36561  owner */\n      dup5\n        /* \"octo_flattened.sol\":36556:36575  owner == address(0) */\n      0xffffffffffffffffffffffffffffffffffffffff\n      and\n      sub\n        /* \"octo_flattened.sol\":36552:36641  if (owner == address(0)) {... */\n      tag_515\n      jumpi\n        /* \"octo_flattened.sol\":36627:36628  0 */\n      0x00\n        /* \"octo_flattened.sol\":36598:36630  ERC20InvalidApprover(address(0)) */\n      mload(0x40)\n      0xe602df0500000000000000000000000000000000000000000000000000000000\n      dup2\n      mstore\n      0x04\n      add\n      tag_516\n      swap2\n      swap1\n      tag_163\n      jump\t// in\n    tag_516:\n      mload(0x40)\n      dup1\n      swap2\n      sub\n      swap1\n      revert\n        /* \"octo_flattened.sol\":36552:36641  if (owner == address(0)) {... */\n    tag_515:\n        /* \"octo_flattened.sol\":36673:36674  0 */\n      0x00\n        /* \"octo_flattened.sol\":36654:36675  spender == address(0) */\n      0xffffffffffffffffffffffffffffffffffffffff\n      and\n        /* \"octo_flattened.sol\":36654:36661  spender */\n      dup4\n        /* \"octo_flattened.sol\":36654:36675  spender == address(0) */\n      0xffffffffffffffffffffffffffffffffffffffff\n      and\n      sub\n        /* \"octo_flattened.sol\":36650:36740  if (spender == address(0)) {... */\n      tag_517\n      jumpi\n        /* \"octo_flattened.sol\":36726:36727  0 */\n      0x00\n        /* \"octo_flattened.sol\":36698:36729  ERC20InvalidSpender(address(0)) */\n      mload(0x40)\n      0x94280d6200000000000000000000000000000000000000000000000000000000\n      dup2\n      mstore\n      0x04\n      add\n      tag_518\n      swap2\n      swap1\n      tag_163\n      jump\t// in\n    tag_518:\n      mload(0x40)\n      dup1\n      swap2\n      sub\n      swap1\n      revert\n        /* \"octo_flattened.sol\":36650:36740  if (spender == address(0)) {... */\n    tag_517:\n        /* \"octo_flattened.sol\":36779:36784  value */\n      dup2\n        /* \"octo_flattened.sol\":36749:36760  _allowances */\n      0x01\n        /* \"octo_flattened.sol\":36749:36767  _allowances[owner] */\n      0x00\n        /* \"octo_flattened.sol\":36761:36766  owner */\n      dup7\n        /* \"octo_flattened.sol\":36749:36767  _allowances[owner] */\n      0xffffffffffffffffffffffffffffffffffffffff\n      and\n      0xffffffffffffffffffffffffffffffffffffffff\n      and\n      dup2\n      mstore\n      0x20\n      add\n      swap1\n      dup2\n      mstore\n      0x20\n      add\n      0x00\n      keccak256\n        /* \"octo_flattened.sol\":36749:36776  _allowances[owner][spender] */\n      0x00\n        /* \"octo_flattened.sol\":36768:36775  spender */\n      dup6\n        /* \"octo_flattened.sol\":36749:36776  _allowances[owner][spender] */\n      0xffffffffffffffffffffffffffffffffffffffff\n      and\n      0xffffffffffffffffffffffffffffffffffffffff\n      and\n      dup2\n      mstore\n      0x20\n      add\n      swap1\n      dup2\n      mstore\n      0x20\n      add\n      0x00\n      keccak256\n        /* \"octo_flattened.sol\":36749:36784  _allowances[owner][spender] = value */\n      dup2\n      swap1\n      sstore\n      pop\n        /* \"octo_flattened.sol\":36798:36807  emitEvent */\n      dup1\n        /* \"octo_flattened.sol\":36794:36870  if (emitEvent) {... */\n      iszero\n      tag_519\n      jumpi\n        /* \"octo_flattened.sol\":36844:36851  spender */\n      dup3\n        /* \"octo_flattened.sol\":36828:36859  Approval(owner, spender, value) */\n      0xffffffffffffffffffffffffffffffffffffffff\n      and\n        /* \"octo_flattened.sol\":36837:36842  owner */\n      dup5\n        /* \"octo_flattened.sol\":36828:36859  Approval(owner, spender, value) */\n      0xffffffffffffffffffffffffffffffffffffffff\n      and\n      0x8c5be1e5ebec7d5bd14f71427d1e84f3dd0314c0f7b2291e5b200ac8c7c3b925\n        /* \"octo_flattened.sol\":36853:36858  value */\n      dup5\n        /* \"octo_flattened.sol\":36828:36859  Approval(owner, spender, value) */\n      mload(0x40)\n      tag_520\n      swap2\n      swap1\n      tag_59\n      jump\t// in\n    tag_520:\n      mload(0x40)\n      dup1\n      swap2\n      sub\n      swap1\n      log3\n        /* \"octo_flattened.sol\":36794:36870  if (emitEvent) {... */\n    tag_519:\n        /* \"octo_flattened.sol\":36444:36876  function _approve(address owner, address spender, uint256 value, bool emitEvent) internal virtual {... */\n      pop\n      pop\n      pop\n      pop\n      jump\t// out\n        /* \"octo_flattened.sol\":46851:47081  function _addLiquidityMiningRewards(address provider) internal {... */\n    tag_487:\n        /* \"octo_flattened.sol\":46924:46938  uint256 reward */\n      0x00\n        /* \"octo_flattened.sol\":46941:46982  calculateLiquidityMiningRewards(provider) */\n      tag_522\n        /* \"octo_flattened.sol\":46973:46981  provider */\n      dup3\n        /* \"octo_flattened.sol\":46941:46972  calculateLiquidityMiningRewards */\n      tag_181\n        /* \"octo_flattened.sol\":46941:46982  calculateLiquidityMiningRewards(provider) */\n      jump\t// in\n    tag_522:\n        /* \"octo_flattened.sol\":46924:46982  uint256 reward = calculateLiquidityMiningRewards(provider) */\n      swap1\n      pop\n        /* \"octo_flattened.sol\":47005:47006  0 */\n      0x00\n        /* \"octo_flattened.sol\":46996:47002  reward */\n      dup2\n        /* \"octo_flattened.sol\":46996:47006  reward > 0 */\n      gt\n        /* \"octo_flattened.sol\":46992:47075  if (reward > 0) {... */\n      iszero\n      tag_523\n      jumpi\n        /* \"octo_flattened.sol\":47058:47064  reward */\n      dup1\n        /* \"octo_flattened.sol\":47022:47044  liquidityMiningRewards */\n      0x10\n        /* \"octo_flattened.sol\":47022:47054  liquidityMiningRewards[provider] */\n      0x00\n        /* \"octo_flattened.sol\":47045:47053  provider */\n      dup5\n        /* \"octo_flattened.sol\":47022:47054  liquidityMiningRewards[provider] */\n      0xffffffffffffffffffffffffffffffffffffffff\n      and\n      0xffffffffffffffffffffffffffffffffffffffff\n      and\n      dup2\n      mstore\n      0x20\n      add\n      swap1\n      dup2\n      mstore\n      0x20\n      add\n      0x00\n      keccak256\n      0x00\n        /* \"octo_flattened.sol\":47022:47064  liquidityMiningRewards[provider] += reward */\n      dup3\n      dup3\n      sload\n      tag_524\n      swap2\n      swap1\n      tag_250\n      jump\t// in\n    tag_524:\n      swap3\n      pop\n      pop\n      dup2\n      swap1\n      sstore\n      pop\n        /* \"octo_flattened.sol\":46992:47075  if (reward > 0) {... */\n    tag_523:\n        /* \"octo_flattened.sol\":46914:47081  {... */\n      pop\n        /* \"octo_flattened.sol\":46851:47081  function _addLiquidityMiningRewards(address provider) internal {... */\n      pop\n      jump\t// out\n        /* \"octo_flattened.sol\":47939:48823  function _addLiquidity(uint256 tokenAmount) private {... */\n    tag_490:\n        /* \"octo_flattened.sol\":48001:48013  uint256 half */\n      0x00\n        /* \"octo_flattened.sol\":48030:48031  2 */\n      0x02\n        /* \"octo_flattened.sol\":48016:48027  tokenAmount */\n      dup3\n        /* \"octo_flattened.sol\":48016:48031  tokenAmount / 2 */\n      tag_526\n      swap2\n      swap1\n      tag_248\n      jump\t// in\n    tag_526:\n        /* \"octo_flattened.sol\":48001:48031  uint256 half = tokenAmount / 2 */\n      swap1\n      pop\n        /* \"octo_flattened.sol\":48041:48058  uint256 otherHalf */\n      0x00\n        /* \"octo_flattened.sol\":48075:48079  half */\n      dup2\n        /* \"octo_flattened.sol\":48061:48072  tokenAmount */\n      dup4\n        /* \"octo_flattened.sol\":48061:48079  tokenAmount - half */\n      tag_527\n      swap2\n      swap1\n      tag_244\n      jump\t// in\n    tag_527:\n        /* \"octo_flattened.sol\":48041:48079  uint256 otherHalf = tokenAmount - half */\n      swap1\n      pop\n        /* \"octo_flattened.sol\":48090:48112  uint256 initialBalance */\n      0x00\n        /* \"octo_flattened.sol\":48115:48136  address(this).balance */\n      selfbalance\n        /* \"octo_flattened.sol\":48090:48136  uint256 initialBalance = address(this).balance */\n      swap1\n      pop\n        /* \"octo_flattened.sol\":48147:48200  _approve(address(this), address(uniswapRouter), half) */\n      tag_528\n        /* \"octo_flattened.sol\":48164:48168  this */\n      address\n        /* \"octo_flattened.sol\":48179:48192  uniswapRouter */\n      0x07\n      0x00\n      swap1\n      sload\n      swap1\n      0x0100\n      exp\n      swap1\n      div\n      0xffffffffffffffffffffffffffffffffffffffff\n      and\n        /* \"octo_flattened.sol\":48195:48199  half */\n      dup6\n        /* \"octo_flattened.sol\":48147:48155  _approve */\n      tag_262\n        /* \"octo_flattened.sol\":48147:48200  _approve(address(this), address(uniswapRouter), half) */\n      jump\t// in\n    tag_528:\n        /* \"octo_flattened.sol\":48211:48224  uniswapRouter */\n      0x07\n      0x00\n      swap1\n      sload\n      swap1\n      0x0100\n      exp\n      swap1\n      div\n      0xffffffffffffffffffffffffffffffffffffffff\n      and\n        /* \"octo_flattened.sol\":48211:48275  uniswapRouter.swapExactTokensForETHSupportingFeeOnTransferTokens */\n      0xffffffffffffffffffffffffffffffffffffffff\n      and\n      0x791ac947\n        /* \"octo_flattened.sol\":48289:48293  half */\n      dup5\n        /* \"octo_flattened.sol\":48307:48308  0 */\n      0x00\n        /* \"octo_flattened.sol\":48322:48344  getPathForTokenToETH() */\n      tag_529\n        /* \"octo_flattened.sol\":48322:48342  getPathForTokenToETH */\n      tag_530\n        /* \"octo_flattened.sol\":48322:48344  getPathForTokenToETH() */\n      jump\t// in\n    tag_529:\n        /* \"octo_flattened.sol\":48366:48370  this */\n      address\n        /* \"octo_flattened.sol\":48385:48400  block.timestamp */\n      timestamp\n        /* \"octo_flattened.sol\":48211:48410  uniswapRouter.swapExactTokensForETHSupportingFeeOnTransferTokens(... */\n      mload(0x40)\n      dup7\n      0xffffffff\n      and\n      0xe0\n      shl\n      dup2\n      mstore\n      0x04\n      add\n      tag_531\n      swap6\n      swap5\n      swap4\n      swap3\n      swap2\n      swap1\n      tag_532\n      jump\t// in\n    tag_531:\n      0x00\n      mload(0x40)\n      dup1\n      dup4\n      sub\n      dup2\n      0x00\n      dup8\n      dup1\n      extcodesize\n      iszero\n      dup1\n      iszero\n      tag_533\n      jumpi\n      0x00\n      dup1\n      revert\n    tag_533:\n      pop\n      gas\n      call\n      iszero\n      dup1\n      iszero\n      tag_535\n      jumpi\n      returndatasize\n      0x00\n      dup1\n      returndatacopy\n      revert(0x00, returndatasize)\n    tag_535:\n      pop\n      pop\n      pop\n      pop\n        /* \"octo_flattened.sol\":48421:48439  uint256 newBalance */\n      0x00\n        /* \"octo_flattened.sol\":48466:48480  initialBalance */\n      dup2\n        /* \"octo_flattened.sol\":48442:48463  address(this).balance */\n      selfbalance\n        /* \"octo_flattened.sol\":48442:48480  address(this).balance - initialBalance */\n      tag_536\n      swap2\n      swap1\n      tag_244\n      jump\t// in\n    tag_536:\n        /* \"octo_flattened.sol\":48421:48480  uint256 newBalance = address(this).balance - initialBalance */\n      swap1\n      pop\n        /* \"octo_flattened.sol\":48491:48549  _approve(address(this), address(uniswapRouter), otherHalf) */\n      tag_537\n        /* \"octo_flattened.sol\":48508:48512  this */\n      address\n        /* \"octo_flattened.sol\":48523:48536  uniswapRouter */\n      0x07\n      0x00\n      swap1\n      sload\n      swap1\n      0x0100\n      exp\n      swap1\n      div\n      0xffffffffffffffffffffffffffffffffffffffff\n      and\n        /* \"octo_flattened.sol\":48539:48548  otherHalf */\n      dup6\n        /* \"octo_flattened.sol\":48491:48499  _approve */\n      tag_262\n        /* \"octo_flattened.sol\":48491:48549  _approve(address(this), address(uniswapRouter), otherHalf) */\n      jump\t// in\n    tag_537:\n        /* \"octo_flattened.sol\":48560:48573  uniswapRouter */\n      0x07\n      0x00\n      swap1\n      sload\n      swap1\n      0x0100\n      exp\n      swap1\n      div\n      0xffffffffffffffffffffffffffffffffffffffff\n      and\n        /* \"octo_flattened.sol\":48560:48589  uniswapRouter.addLiquidityETH */\n      0xffffffffffffffffffffffffffffffffffffffff\n      and\n      0xf305d719\n        /* \"octo_flattened.sol\":48597:48607  newBalance */\n      dup3\n        /* \"octo_flattened.sol\":48630:48634  this */\n      address\n        /* \"octo_flattened.sol\":48649:48658  otherHalf */\n      dup7\n        /* \"octo_flattened.sol\":48672:48673  0 */\n      0x00\n        /* \"octo_flattened.sol\":48687:48688  0 */\n      dup1\n        /* \"octo_flattened.sol\":48702:48709  owner() */\n      tag_538\n        /* \"octo_flattened.sol\":48702:48707  owner */\n      tag_161\n        /* \"octo_flattened.sol\":48702:48709  owner() */\n      jump\t// in\n    tag_538:\n        /* \"octo_flattened.sol\":48723:48738  block.timestamp */\n      timestamp\n        /* \"octo_flattened.sol\":48560:48748  uniswapRouter.addLiquidityETH{value: newBalance}(... */\n      mload(0x40)\n      dup9\n      0xffffffff\n      and\n      0xe0\n      shl\n      dup2\n      mstore\n      0x04\n      add\n      tag_539\n      swap7\n      swap6\n      swap5\n      swap4\n      swap3\n      swap2\n      swap1\n      tag_347\n      jump\t// in\n    tag_539:\n      0x60\n      mload(0x40)\n      dup1\n      dup4\n      sub\n      dup2\n      dup6\n      dup9\n      gas\n      call\n      iszero\n      dup1\n      iszero\n      tag_541\n      jumpi\n      returndatasize\n      0x00\n      dup1\n      returndatacopy\n      revert(0x00, returndatasize)\n    tag_541:\n      pop\n      pop\n      pop\n      pop\n      pop\n      mload(0x40)\n      returndatasize\n      not(0x1f)\n      0x1f\n      dup3\n      add\n      and\n      dup3\n      add\n      dup1\n      0x40\n      mstore\n      pop\n      dup2\n      add\n      swap1\n      tag_542\n      swap2\n      swap1\n      tag_351\n      jump\t// in\n    tag_542:\n      pop\n      pop\n      pop\n        /* \"octo_flattened.sol\":48787:48791  this */\n      address\n        /* \"octo_flattened.sol\":48764:48816  LiquidityAdded(address(this), otherHalf, newBalance) */\n      0xffffffffffffffffffffffffffffffffffffffff\n      and\n      0xac1d76749e5447b7b16f5ab61447e1bd502f3bb4807af3b28e620d1700a6ee45\n        /* \"octo_flattened.sol\":48794:48803  otherHalf */\n      dup5\n        /* \"octo_flattened.sol\":48805:48815  newBalance */\n      dup4\n        /* \"octo_flattened.sol\":48764:48816  LiquidityAdded(address(this), otherHalf, newBalance) */\n      mload(0x40)\n      tag_543\n      swap3\n      swap2\n      swap1\n      tag_353\n      jump\t// in\n    tag_543:\n      mload(0x40)\n      dup1\n      swap2\n      sub\n      swap1\n      log2\n        /* \"octo_flattened.sol\":47991:48823  {... */\n      pop\n      pop\n      pop\n      pop\n        /* \"octo_flattened.sol\":47939:48823  function _addLiquidity(uint256 tokenAmount) private {... */\n      pop\n      jump\t// out\n        /* \"octo_flattened.sol\":32766:33873  function _update(address from, address to, uint256 value) internal virtual {... */\n    tag_506:\n        /* \"octo_flattened.sol\":32871:32872  0 */\n      0x00\n        /* \"octo_flattened.sol\":32855:32873  from == address(0) */\n      0xffffffffffffffffffffffffffffffffffffffff\n      and\n        /* \"octo_flattened.sol\":32855:32859  from */\n      dup4\n        /* \"octo_flattened.sol\":32855:32873  from == address(0) */\n      0xffffffffffffffffffffffffffffffffffffffff\n      and\n      sub\n        /* \"octo_flattened.sol\":32851:33391  if (from == address(0)) {... */\n      tag_545\n      jumpi\n        /* \"octo_flattened.sol\":33007:33012  value */\n      dup1\n        /* \"octo_flattened.sol\":32991:33003  _totalSupply */\n      0x02\n      0x00\n        /* \"octo_flattened.sol\":32991:33012  _totalSupply += value */\n      dup3\n      dup3\n      sload\n      tag_546\n      swap2\n      swap1\n      tag_250\n      jump\t// in\n    tag_546:\n      swap3\n      pop\n      pop\n      dup2\n      swap1\n      sstore\n      pop\n        /* \"octo_flattened.sol\":32851:33391  if (from == address(0)) {... */\n      jump(tag_547)\n    tag_545:\n        /* \"octo_flattened.sol\":33043:33062  uint256 fromBalance */\n      0x00\n        /* \"octo_flattened.sol\":33065:33074  _balances */\n      dup1\n        /* \"octo_flattened.sol\":33065:33080  _balances[from] */\n      0x00\n        /* \"octo_flattened.sol\":33075:33079  from */\n      dup6\n        /* \"octo_flattened.sol\":33065:33080  _balances[from] */\n      0xffffffffffffffffffffffffffffffffffffffff\n      and\n      0xffffffffffffffffffffffffffffffffffffffff\n      and\n      dup2\n      mstore\n      0x20\n      add\n      swap1\n      dup2\n      mstore\n      0x20\n      add\n      0x00\n      keccak256\n      sload\n        /* \"octo_flattened.sol\":33043:33080  uint256 fromBalance = _balances[from] */\n      swap1\n      pop\n        /* \"octo_flattened.sol\":33112:33117  value */\n      dup2\n        /* \"octo_flattened.sol\":33098:33109  fromBalance */\n      dup2\n        /* \"octo_flattened.sol\":33098:33117  fromBalance < value */\n      lt\n        /* \"octo_flattened.sol\":33094:33209  if (fromBalance < value) {... */\n      iszero\n      tag_548\n      jumpi\n        /* \"octo_flattened.sol\":33169:33173  from */\n      dup4\n        /* \"octo_flattened.sol\":33175:33186  fromBalance */\n      dup2\n        /* \"octo_flattened.sol\":33188:33193  value */\n      dup4\n        /* \"octo_flattened.sol\":33144:33194  ERC20InsufficientBalance(from, fromBalance, value) */\n      mload(0x40)\n      0xe450d38c00000000000000000000000000000000000000000000000000000000\n      dup2\n      mstore\n      0x04\n      add\n      tag_549\n      swap4\n      swap3\n      swap2\n      swap1\n      tag_474\n      jump\t// in\n    tag_549:\n      mload(0x40)\n      dup1\n      swap2\n      sub\n      swap1\n      revert\n        /* \"octo_flattened.sol\":33094:33209  if (fromBalance < value) {... */\n    tag_548:\n        /* \"octo_flattened.sol\":33361:33366  value */\n      dup2\n        /* \"octo_flattened.sol\":33347:33358  fromBalance */\n      dup2\n        /* \"octo_flattened.sol\":33347:33366  fromBalance - value */\n      sub\n        /* \"octo_flattened.sol\":33329:33338  _balances */\n      0x00\n        /* \"octo_flattened.sol\":33329:33344  _balances[from] */\n      dup1\n        /* \"octo_flattened.sol\":33339:33343  from */\n      dup7\n        /* \"octo_flattened.sol\":33329:33344  _balances[from] */\n      0xffffffffffffffffffffffffffffffffffffffff\n      and\n      0xffffffffffffffffffffffffffffffffffffffff\n      and\n      dup2\n      mstore\n      0x20\n      add\n      swap1\n      dup2\n      mstore\n      0x20\n      add\n      0x00\n      keccak256\n        /* \"octo_flattened.sol\":33329:33366  _balances[from] = fromBalance - value */\n      dup2\n      swap1\n      sstore\n      pop\n        /* \"octo_flattened.sol\":33029:33391  {... */\n      pop\n        /* \"octo_flattened.sol\":32851:33391  if (from == address(0)) {... */\n    tag_547:\n        /* \"octo_flattened.sol\":33419:33420  0 */\n      0x00\n        /* \"octo_flattened.sol\":33405:33421  to == address(0) */\n      0xffffffffffffffffffffffffffffffffffffffff\n      and\n        /* \"octo_flattened.sol\":33405:33407  to */\n      dup3\n        /* \"octo_flattened.sol\":33405:33421  to == address(0) */\n      0xffffffffffffffffffffffffffffffffffffffff\n      and\n      sub\n        /* \"octo_flattened.sol\":33401:33826  if (to == address(0)) {... */\n      tag_550\n      jumpi\n        /* \"octo_flattened.sol\":33584:33589  value */\n      dup1\n        /* \"octo_flattened.sol\":33568:33580  _totalSupply */\n      0x02\n      0x00\n        /* \"octo_flattened.sol\":33568:33589  _totalSupply -= value */\n      dup3\n      dup3\n      sload\n      sub\n      swap3\n      pop\n      pop\n      dup2\n      swap1\n      sstore\n      pop\n        /* \"octo_flattened.sol\":33401:33826  if (to == address(0)) {... */\n      jump(tag_551)\n    tag_550:\n        /* \"octo_flattened.sol\":33796:33801  value */\n      dup1\n        /* \"octo_flattened.sol\":33779:33788  _balances */\n      0x00\n        /* \"octo_flattened.sol\":33779:33792  _balances[to] */\n      dup1\n        /* \"octo_flattened.sol\":33789:33791  to */\n      dup5\n        /* \"octo_flattened.sol\":33779:33792  _balances[to] */\n      0xffffffffffffffffffffffffffffffffffffffff\n      and\n      0xffffffffffffffffffffffffffffffffffffffff\n      and\n      dup2\n      mstore\n      0x20\n      add\n      swap1\n      dup2\n      mstore\n      0x20\n      add\n      0x00\n      keccak256\n      0x00\n        /* \"octo_flattened.sol\":33779:33801  _balances[to] += value */\n      dup3\n      dup3\n      sload\n      add\n      swap3\n      pop\n      pop\n      dup2\n      swap1\n      sstore\n      pop\n        /* \"octo_flattened.sol\":33401:33826  if (to == address(0)) {... */\n    tag_551:\n        /* \"octo_flattened.sol\":33856:33858  to */\n      dup2\n        /* \"octo_flattened.sol\":33841:33866  Transfer(from, to, value) */\n      0xffffffffffffffffffffffffffffffffffffffff\n      and\n        /* \"octo_flattened.sol\":33850:33854  from */\n      dup4\n        /* \"octo_flattened.sol\":33841:33866  Transfer(from, to, value) */\n      0xffffffffffffffffffffffffffffffffffffffff\n      and\n      0xddf252ad1be2c89b69c2b068fc378daa952ba7f163c4a11628f55a4df523b3ef\n        /* \"octo_flattened.sol\":33860:33865  value */\n      dup4\n        /* \"octo_flattened.sol\":33841:33866  Transfer(from, to, value) */\n      mload(0x40)\n      tag_552\n      swap2\n      swap1\n      tag_59\n      jump\t// in\n    tag_552:\n      mload(0x40)\n      dup1\n      swap2\n      sub\n      swap1\n      log3\n        /* \"octo_flattened.sol\":32766:33873  function _update(address from, address to, uint256 value) internal virtual {... */\n      pop\n      pop\n      pop\n      jump\t// out\n        /* \"octo_flattened.sol\":48829:49052  function getPathForTokenToETH() private view returns (address[] memory) {... */\n    tag_530:\n        /* \"octo_flattened.sol\":48883:48899  address[] memory */\n      0x60\n        /* \"octo_flattened.sol\":48911:48932  address[] memory path */\n      0x00\n        /* \"octo_flattened.sol\":48949:48950  2 */\n      0x02\n        /* \"octo_flattened.sol\":48935:48951  new address[](2) */\n      0xffffffffffffffff\n      dup2\n      gt\n      iszero\n      tag_554\n      jumpi\n      tag_555\n      tag_556\n      jump\t// in\n    tag_555:\n    tag_554:\n      mload(0x40)\n      swap1\n      dup1\n      dup3\n      mstore\n      dup1\n      0x20\n      mul\n      0x20\n      add\n      dup3\n      add\n      0x40\n      mstore\n      dup1\n      iszero\n      tag_557\n      jumpi\n      dup2\n      0x20\n      add\n      0x20\n      dup3\n      mul\n      dup1\n      calldatasize\n      dup4\n      calldatacopy\n      dup1\n      dup3\n      add\n      swap2\n      pop\n      pop\n      swap1\n      pop\n    tag_557:\n      pop\n        /* \"octo_flattened.sol\":48911:48951  address[] memory path = new address[](2) */\n      swap1\n      pop\n        /* \"octo_flattened.sol\":48979:48983  this */\n      address\n        /* \"octo_flattened.sol\":48961:48965  path */\n      dup2\n        /* \"octo_flattened.sol\":48966:48967  0 */\n      0x00\n        /* \"octo_flattened.sol\":48961:48968  path[0] */\n      dup2\n      mload\n      dup2\n      lt\n      tag_558\n      jumpi\n      tag_559\n      tag_296\n      jump\t// in\n    tag_559:\n    tag_558:\n      0x20\n      mul\n      0x20\n      add\n      add\n        /* \"octo_flattened.sol\":48961:48984  path[0] = address(this) */\n      swap1\n      0xffffffffffffffffffffffffffffffffffffffff\n      and\n      swap1\n      dup2\n      0xffffffffffffffffffffffffffffffffffffffff\n      and\n      dup2\n      mstore\n      pop\n      pop\n        /* \"octo_flattened.sol\":49004:49017  uniswapRouter */\n      0x07\n      0x00\n      swap1\n      sload\n      swap1\n      0x0100\n      exp\n      swap1\n      div\n      0xffffffffffffffffffffffffffffffffffffffff\n      and\n        /* \"octo_flattened.sol\":49004:49022  uniswapRouter.WETH */\n      0xffffffffffffffffffffffffffffffffffffffff\n      and\n      0xad5c4648\n        /* \"octo_flattened.sol\":49004:49024  uniswapRouter.WETH() */\n      mload(0x40)\n      dup2\n      0xffffffff\n      and\n      0xe0\n      shl\n      dup2\n      mstore\n      0x04\n      add\n      0x20\n      mload(0x40)\n      dup1\n      dup4\n      sub\n      dup2\n      dup7\n      gas\n      staticcall\n      iszero\n      dup1\n      iszero\n      tag_561\n      jumpi\n      returndatasize\n      0x00\n      dup1\n      returndatacopy\n      revert(0x00, returndatasize)\n    tag_561:\n      pop\n      pop\n      pop\n      pop\n      mload(0x40)\n      returndatasize\n      not(0x1f)\n      0x1f\n      dup3\n      add\n      and\n      dup3\n      add\n      dup1\n      0x40\n      mstore\n      pop\n      dup2\n      add\n      swap1\n      tag_562\n      swap2\n      swap1\n      tag_563\n      jump\t// in\n    tag_562:\n        /* \"octo_flattened.sol\":48994:48998  path */\n      dup2\n        /* \"octo_flattened.sol\":48999:49000  1 */\n      0x01\n        /* \"octo_flattened.sol\":48994:49001  path[1] */\n      dup2\n      mload\n      dup2\n      lt\n      tag_564\n      jumpi\n      tag_565\n      tag_296\n      jump\t// in\n    tag_565:\n    tag_564:\n      0x20\n      mul\n      0x20\n      add\n      add\n        /* \"octo_flattened.sol\":48994:49024  path[1] = uniswapRouter.WETH() */\n      swap1\n      0xffffffffffffffffffffffffffffffffffffffff\n      and\n      swap1\n      dup2\n      0xffffffffffffffffffffffffffffffffffffffff\n      and\n      dup2\n      mstore\n      pop\n      pop\n        /* \"octo_flattened.sol\":49041:49045  path */\n      dup1\n        /* \"octo_flattened.sol\":49034:49045  return path */\n      swap2\n      pop\n      pop\n        /* \"octo_flattened.sol\":48829:49052  function getPathForTokenToETH() private view returns (address[] memory) {... */\n      swap1\n      jump\t// out\n        /* \"#utility.yul\":88:205   */\n    tag_567:\n        /* \"#utility.yul\":197:198   */\n      0x00\n        /* \"#utility.yul\":194:195   */\n      dup1\n        /* \"#utility.yul\":187:199   */\n      revert\n        /* \"#utility.yul\":334:460   */\n    tag_569:\n        /* \"#utility.yul\":371:378   */\n      0x00\n        /* \"#utility.yul\":411:453   */\n      0xffffffffffffffffffffffffffffffffffffffff\n        /* \"#utility.yul\":404:409   */\n      dup3\n        /* \"#utility.yul\":400:454   */\n      and\n        /* \"#utility.yul\":389:454   */\n      swap1\n      pop\n        /* \"#utility.yul\":334:460   */\n      swap2\n      swap1\n      pop\n      jump\t// out\n        /* \"#utility.yul\":466:562   */\n    tag_570:\n        /* \"#utility.yul\":503:510   */\n      0x00\n        /* \"#utility.yul\":532:556   */\n      tag_627\n        /* \"#utility.yul\":550:555   */\n      dup3\n        /* \"#utility.yul\":532:556   */\n      tag_569\n      jump\t// in\n    tag_627:\n        /* \"#utility.yul\":521:556   */\n      swap1\n      pop\n        /* \"#utility.yul\":466:562   */\n      swap2\n      swap1\n      pop\n      jump\t// out\n        /* \"#utility.yul\":568:690   */\n    tag_571:\n        /* \"#utility.yul\":641:665   */\n      tag_629\n        /* \"#utility.yul\":659:664   */\n      dup2\n        /* \"#utility.yul\":641:665   */\n      tag_570\n      jump\t// in\n    tag_629:\n        /* \"#utility.yul\":634:639   */\n      dup2\n        /* \"#utility.yul\":631:666   */\n      eq\n        /* \"#utility.yul\":621:684   */\n      tag_630\n      jumpi\n        /* \"#utility.yul\":680:681   */\n      0x00\n        /* \"#utility.yul\":677:678   */\n      dup1\n        /* \"#utility.yul\":670:682   */\n      revert\n        /* \"#utility.yul\":621:684   */\n    tag_630:\n        /* \"#utility.yul\":568:690   */\n      pop\n      jump\t// out\n        /* \"#utility.yul\":696:835   */\n    tag_572:\n        /* \"#utility.yul\":742:747   */\n      0x00\n        /* \"#utility.yul\":780:786   */\n      dup2\n        /* \"#utility.yul\":767:787   */\n      calldataload\n        /* \"#utility.yul\":758:787   */\n      swap1\n      pop\n        /* \"#utility.yul\":796:829   */\n      tag_632\n        /* \"#utility.yul\":823:828   */\n      dup2\n        /* \"#utility.yul\":796:829   */\n      tag_571\n      jump\t// in\n    tag_632:\n        /* \"#utility.yul\":696:835   */\n      swap3\n      swap2\n      pop\n      pop\n      jump\t// out\n        /* \"#utility.yul\":841:1170   */\n    tag_56:\n        /* \"#utility.yul\":900:906   */\n      0x00\n        /* \"#utility.yul\":949:951   */\n      0x20\n        /* \"#utility.yul\":937:946   */\n      dup3\n        /* \"#utility.yul\":928:935   */\n      dup5\n        /* \"#utility.yul\":924:947   */\n      sub\n        /* \"#utility.yul\":920:952   */\n      slt\n        /* \"#utility.yul\":917:1036   */\n      iszero\n      tag_634\n      jumpi\n        /* \"#utility.yul\":955:1034   */\n      tag_635\n      tag_567\n      jump\t// in\n    tag_635:\n        /* \"#utility.yul\":917:1036   */\n    tag_634:\n        /* \"#utility.yul\":1075:1076   */\n      0x00\n        /* \"#utility.yul\":1100:1153   */\n      tag_636\n        /* \"#utility.yul\":1145:1152   */\n      dup5\n        /* \"#utility.yul\":1136:1142   */\n      dup3\n        /* \"#utility.yul\":1125:1134   */\n      dup6\n        /* \"#utility.yul\":1121:1143   */\n      add\n        /* \"#utility.yul\":1100:1153   */\n      tag_572\n      jump\t// in\n    tag_636:\n        /* \"#utility.yul\":1090:1153   */\n      swap2\n      pop\n        /* \"#utility.yul\":1046:1163   */\n      pop\n        /* \"#utility.yul\":841:1170   */\n      swap3\n      swap2\n      pop\n      pop\n      jump\t// out\n        /* \"#utility.yul\":1176:1253   */\n    tag_573:\n        /* \"#utility.yul\":1213:1220   */\n      0x00\n        /* \"#utility.yul\":1242:1247   */\n      dup2\n        /* \"#utility.yul\":1231:1247   */\n      swap1\n      pop\n        /* \"#utility.yul\":1176:1253   */\n      swap2\n      swap1\n      pop\n      jump\t// out\n        /* \"#utility.yul\":1259:1377   */\n    tag_574:\n        /* \"#utility.yul\":1346:1370   */\n      tag_639\n        /* \"#utility.yul\":1364:1369   */\n      dup2\n        /* \"#utility.yul\":1346:1370   */\n      tag_573\n      jump\t// in\n    tag_639:\n        /* \"#utility.yul\":1341:1344   */\n      dup3\n        /* \"#utility.yul\":1334:1371   */\n      mstore\n        /* \"#utility.yul\":1259:1377   */\n      pop\n      pop\n      jump\t// out\n        /* \"#utility.yul\":1383:1605   */\n    tag_59:\n        /* \"#utility.yul\":1476:1480   */\n      0x00\n        /* \"#utility.yul\":1514:1516   */\n      0x20\n        /* \"#utility.yul\":1503:1512   */\n      dup3\n        /* \"#utility.yul\":1499:1517   */\n      add\n        /* \"#utility.yul\":1491:1517   */\n      swap1\n      pop\n        /* \"#utility.yul\":1527:1598   */\n      tag_641\n        /* \"#utility.yul\":1595:1596   */\n      0x00\n        /* \"#utility.yul\":1584:1593   */\n      dup4\n        /* \"#utility.yul\":1580:1597   */\n      add\n        /* \"#utility.yul\":1571:1577   */\n      dup5\n        /* \"#utility.yul\":1527:1598   */\n      tag_574\n      jump\t// in\n    tag_641:\n        /* \"#utility.yul\":1383:1605   */\n      swap3\n      swap2\n      pop\n      pop\n      jump\t// out\n        /* \"#utility.yul\":1611:1710   */\n    tag_575:\n        /* \"#utility.yul\":1663:1669   */\n      0x00\n        /* \"#utility.yul\":1697:1702   */\n      dup2\n        /* \"#utility.yul\":1691:1703   */\n      mload\n        /* \"#utility.yul\":1681:1703   */\n      swap1\n      pop\n        /* \"#utility.yul\":1611:1710   */\n      swap2\n      swap1\n      pop\n      jump\t// out\n        /* \"#utility.yul\":1716:1885   */\n    tag_576:\n        /* \"#utility.yul\":1800:1811   */\n      0x00\n        /* \"#utility.yul\":1834:1840   */\n      dup3\n        /* \"#utility.yul\":1829:1832   */\n      dup3\n        /* \"#utility.yul\":1822:1841   */\n      mstore\n        /* \"#utility.yul\":1874:1878   */\n      0x20\n        /* \"#utility.yul\":1869:1872   */\n      dup3\n        /* \"#utility.yul\":1865:1879   */\n      add\n        /* \"#utility.yul\":1850:1879   */\n      swap1\n      pop\n        /* \"#utility.yul\":1716:1885   */\n      swap3\n      swap2\n      pop\n      pop\n      jump\t// out\n        /* \"#utility.yul\":1891:2137   */\n    tag_577:\n        /* \"#utility.yul\":1972:1973   */\n      0x00\n        /* \"#utility.yul\":1982:2095   */\n    tag_645:\n        /* \"#utility.yul\":1996:2002   */\n      dup4\n        /* \"#utility.yul\":1993:1994   */\n      dup2\n        /* \"#utility.yul\":1990:2003   */\n      lt\n        /* \"#utility.yul\":1982:2095   */\n      iszero\n      tag_647\n      jumpi\n        /* \"#utility.yul\":2081:2082   */\n      dup1\n        /* \"#utility.yul\":2076:2079   */\n      dup3\n        /* \"#utility.yul\":2072:2083   */\n      add\n        /* \"#utility.yul\":2066:2084   */\n      mload\n        /* \"#utility.yul\":2062:2063   */\n      dup2\n        /* \"#utility.yul\":2057:2060   */\n      dup5\n        /* \"#utility.yul\":2053:2064   */\n      add\n        /* \"#utility.yul\":2046:2085   */\n      mstore\n        /* \"#utility.yul\":2018:2020   */\n      0x20\n        /* \"#utility.yul\":2015:2016   */\n      dup2\n        /* \"#utility.yul\":2011:2021   */\n      add\n        /* \"#utility.yul\":2006:2021   */\n      swap1\n      pop\n        /* \"#utility.yul\":1982:2095   */\n      jump(tag_645)\n    tag_647:\n        /* \"#utility.yul\":2129:2130   */\n      0x00\n        /* \"#utility.yul\":2120:2126   */\n      dup5\n        /* \"#utility.yul\":2115:2118   */\n      dup5\n        /* \"#utility.yul\":2111:2127   */\n      add\n        /* \"#utility.yul\":2104:2131   */\n      mstore\n        /* \"#utility.yul\":1953:2137   */\n      pop\n        /* \"#utility.yul\":1891:2137   */\n      pop\n      pop\n      pop\n      jump\t// out\n        /* \"#utility.yul\":2143:2245   */\n    tag_578:\n        /* \"#utility.yul\":2184:2190   */\n      0x00\n        /* \"#utility.yul\":2235:2237   */\n      0x1f\n        /* \"#utility.yul\":2231:2238   */\n      not\n        /* \"#utility.yul\":2226:2228   */\n      0x1f\n        /* \"#utility.yul\":2219:2224   */\n      dup4\n        /* \"#utility.yul\":2215:2229   */\n      add\n        /* \"#utility.yul\":2211:2239   */\n      and\n        /* \"#utility.yul\":2201:2239   */\n      swap1\n      pop\n        /* \"#utility.yul\":2143:2245   */\n      swap2\n      swap1\n      pop\n      jump\t// out\n        /* \"#utility.yul\":2251:2628   */\n    tag_579:\n        /* \"#utility.yul\":2339:2342   */\n      0x00\n        /* \"#utility.yul\":2367:2406   */\n      tag_650\n        /* \"#utility.yul\":2400:2405   */\n      dup3\n        /* \"#utility.yul\":2367:2406   */\n      tag_575\n      jump\t// in\n    tag_650:\n        /* \"#utility.yul\":2422:2493   */\n      tag_651\n        /* \"#utility.yul\":2486:2492   */\n      dup2\n        /* \"#utility.yul\":2481:2484   */\n      dup6\n        /* \"#utility.yul\":2422:2493   */\n      tag_576\n      jump\t// in\n    tag_651:\n        /* \"#utility.yul\":2415:2493   */\n      swap4\n      pop\n        /* \"#utility.yul\":2502:2567   */\n      tag_652\n        /* \"#utility.yul\":2560:2566   */\n      dup2\n        /* \"#utility.yul\":2555:2558   */\n      dup6\n        /* \"#utility.yul\":2548:2552   */\n      0x20\n        /* \"#utility.yul\":2541:2546   */\n      dup7\n        /* \"#utility.yul\":2537:2553   */\n      add\n        /* \"#utility.yul\":2502:2567   */\n      tag_577\n      jump\t// in\n    tag_652:\n        /* \"#utility.yul\":2592:2621   */\n      tag_653\n        /* \"#utility.yul\":2614:2620   */\n      dup2\n        /* \"#utility.yul\":2592:2621   */\n      tag_578\n      jump\t// in\n    tag_653:\n        /* \"#utility.yul\":2587:2590   */\n      dup5\n        /* \"#utility.yul\":2583:2622   */\n      add\n        /* \"#utility.yul\":2576:2622   */\n      swap2\n      pop\n        /* \"#utility.yul\":2343:2628   */\n      pop\n        /* \"#utility.yul\":2251:2628   */\n      swap3\n      swap2\n      pop\n      pop\n      jump\t// out\n        /* \"#utility.yul\":2634:2947   */\n    tag_69:\n        /* \"#utility.yul\":2747:2751   */\n      0x00\n        /* \"#utility.yul\":2785:2787   */\n      0x20\n        /* \"#utility.yul\":2774:2783   */\n      dup3\n        /* \"#utility.yul\":2770:2788   */\n      add\n        /* \"#utility.yul\":2762:2788   */\n      swap1\n      pop\n        /* \"#utility.yul\":2834:2843   */\n      dup2\n        /* \"#utility.yul\":2828:2832   */\n      dup2\n        /* \"#utility.yul\":2824:2844   */\n      sub\n        /* \"#utility.yul\":2820:2821   */\n      0x00\n        /* \"#utility.yul\":2809:2818   */\n      dup4\n        /* \"#utility.yul\":2805:2822   */\n      add\n        /* \"#utility.yul\":2798:2845   */\n      mstore\n        /* \"#utility.yul\":2862:2940   */\n      tag_655\n        /* \"#utility.yul\":2935:2939   */\n      dup2\n        /* \"#utility.yul\":2926:2932   */\n      dup5\n        /* \"#utility.yul\":2862:2940   */\n      tag_579\n      jump\t// in\n    tag_655:\n        /* \"#utility.yul\":2854:2940   */\n      swap1\n      pop\n        /* \"#utility.yul\":2634:2947   */\n      swap3\n      swap2\n      pop\n      pop\n      jump\t// out\n        /* \"#utility.yul\":2953:3075   */\n    tag_580:\n        /* \"#utility.yul\":3026:3050   */\n      tag_657\n        /* \"#utility.yul\":3044:3049   */\n      dup2\n        /* \"#utility.yul\":3026:3050   */\n      tag_573\n      jump\t// in\n    tag_657:\n        /* \"#utility.yul\":3019:3024   */\n      dup2\n        /* \"#utility.yul\":3016:3051   */\n      eq\n        /* \"#utility.yul\":3006:3069   */\n      tag_658\n      jumpi\n        /* \"#utility.yul\":3065:3066   */\n      0x00\n        /* \"#utility.yul\":3062:3063   */\n      dup1\n        /* \"#utility.yul\":3055:3067   */\n      revert\n        /* \"#utility.yul\":3006:3069   */\n    tag_658:\n        /* \"#utility.yul\":2953:3075   */\n      pop\n      jump\t// out\n        /* \"#utility.yul\":3081:3220   */\n    tag_581:\n        /* \"#utility.yul\":3127:3132   */\n      0x00\n        /* \"#utility.yul\":3165:3171   */\n      dup2\n        /* \"#utility.yul\":3152:3172   */\n      calldataload\n        /* \"#utility.yul\":3143:3172   */\n      swap1\n      pop\n        /* \"#utility.yul\":3181:3214   */\n      tag_660\n        /* \"#utility.yul\":3208:3213   */\n      dup2\n        /* \"#utility.yul\":3181:3214   */\n      tag_580\n      jump\t// in\n    tag_660:\n        /* \"#utility.yul\":3081:3220   */\n      swap3\n      swap2\n      pop\n      pop\n      jump\t// out\n        /* \"#utility.yul\":3226:3700   */\n    tag_73:\n        /* \"#utility.yul\":3294:3300   */\n      0x00\n        /* \"#utility.yul\":3302:3308   */\n      dup1\n        /* \"#utility.yul\":3351:3353   */\n      0x40\n        /* \"#utility.yul\":3339:3348   */\n      dup4\n        /* \"#utility.yul\":3330:3337   */\n      dup6\n        /* \"#utility.yul\":3326:3349   */\n      sub\n        /* \"#utility.yul\":3322:3354   */\n      slt\n        /* \"#utility.yul\":3319:3438   */\n      iszero\n      tag_662\n      jumpi\n        /* \"#utility.yul\":3357:3436   */\n      tag_663\n      tag_567\n      jump\t// in\n    tag_663:\n        /* \"#utility.yul\":3319:3438   */\n    tag_662:\n        /* \"#utility.yul\":3477:3478   */\n      0x00\n        /* \"#utility.yul\":3502:3555   */\n      tag_664\n        /* \"#utility.yul\":3547:3554   */\n      dup6\n        /* \"#utility.yul\":3538:3544   */\n      dup3\n        /* \"#utility.yul\":3527:3536   */\n      dup7\n        /* \"#utility.yul\":3523:3545   */\n      add\n        /* \"#utility.yul\":3502:3555   */\n      tag_572\n      jump\t// in\n    tag_664:\n        /* \"#utility.yul\":3492:3555   */\n      swap3\n      pop\n        /* \"#utility.yul\":3448:3565   */\n      pop\n        /* \"#utility.yul\":3604:3606   */\n      0x20\n        /* \"#utility.yul\":3630:3683   */\n      tag_665\n        /* \"#utility.yul\":3675:3682   */\n      dup6\n        /* \"#utility.yul\":3666:3672   */\n      dup3\n        /* \"#utility.yul\":3655:3664   */\n      dup7\n        /* \"#utility.yul\":3651:3673   */\n      add\n        /* \"#utility.yul\":3630:3683   */\n      tag_581\n      jump\t// in\n    tag_665:\n        /* \"#utility.yul\":3620:3683   */\n      swap2\n      pop\n        /* \"#utility.yul\":3575:3693   */\n      pop\n        /* \"#utility.yul\":3226:3700   */\n      swap3\n      pop\n      swap3\n      swap1\n      pop\n      jump\t// out\n        /* \"#utility.yul\":3706:3796   */\n    tag_582:\n        /* \"#utility.yul\":3740:3747   */\n      0x00\n        /* \"#utility.yul\":3783:3788   */\n      dup2\n        /* \"#utility.yul\":3776:3789   */\n      iszero\n        /* \"#utility.yul\":3769:3790   */\n      iszero\n        /* \"#utility.yul\":3758:3790   */\n      swap1\n      pop\n        /* \"#utility.yul\":3706:3796   */\n      swap2\n      swap1\n      pop\n      jump\t// out\n        /* \"#utility.yul\":3802:3911   */\n    tag_583:\n        /* \"#utility.yul\":3883:3904   */\n      tag_668\n        /* \"#utility.yul\":3898:3903   */\n      dup2\n        /* \"#utility.yul\":3883:3904   */\n      tag_582\n      jump\t// in\n    tag_668:\n        /* \"#utility.yul\":3878:3881   */\n      dup3\n        /* \"#utility.yul\":3871:3905   */\n      mstore\n        /* \"#utility.yul\":3802:3911   */\n      pop\n      pop\n      jump\t// out\n        /* \"#utility.yul\":3917:4127   */\n    tag_76:\n        /* \"#utility.yul\":4004:4008   */\n      0x00\n        /* \"#utility.yul\":4042:4044   */\n      0x20\n        /* \"#utility.yul\":4031:4040   */\n      dup3\n        /* \"#utility.yul\":4027:4045   */\n      add\n        /* \"#utility.yul\":4019:4045   */\n      swap1\n      pop\n        /* \"#utility.yul\":4055:4120   */\n      tag_670\n        /* \"#utility.yul\":4117:4118   */\n      0x00\n        /* \"#utility.yul\":4106:4115   */\n      dup4\n        /* \"#utility.yul\":4102:4119   */\n      add\n        /* \"#utility.yul\":4093:4099   */\n      dup5\n        /* \"#utility.yul\":4055:4120   */\n      tag_583\n      jump\t// in\n    tag_670:\n        /* \"#utility.yul\":3917:4127   */\n      swap3\n      swap2\n      pop\n      pop\n      jump\t// out\n        /* \"#utility.yul\":4133:4752   */\n    tag_89:\n        /* \"#utility.yul\":4210:4216   */\n      0x00\n        /* \"#utility.yul\":4218:4224   */\n      dup1\n        /* \"#utility.yul\":4226:4232   */\n      0x00\n        /* \"#utility.yul\":4275:4277   */\n      0x60\n        /* \"#utility.yul\":4263:4272   */\n      dup5\n        /* \"#utility.yul\":4254:4261   */\n      dup7\n        /* \"#utility.yul\":4250:4273   */\n      sub\n        /* \"#utility.yul\":4246:4278   */\n      slt\n        /* \"#utility.yul\":4243:4362   */\n      iszero\n      tag_672\n      jumpi\n        /* \"#utility.yul\":4281:4360   */\n      tag_673\n      tag_567\n      jump\t// in\n    tag_673:\n        /* \"#utility.yul\":4243:4362   */\n    tag_672:\n        /* \"#utility.yul\":4401:4402   */\n      0x00\n        /* \"#utility.yul\":4426:4479   */\n      tag_674\n        /* \"#utility.yul\":4471:4478   */\n      dup7\n        /* \"#utility.yul\":4462:4468   */\n      dup3\n        /* \"#utility.yul\":4451:4460   */\n      dup8\n        /* \"#utility.yul\":4447:4469   */\n      add\n        /* \"#utility.yul\":4426:4479   */\n      tag_572\n      jump\t// in\n    tag_674:\n        /* \"#utility.yul\":4416:4479   */\n      swap4\n      pop\n        /* \"#utility.yul\":4372:4489   */\n      pop\n        /* \"#utility.yul\":4528:4530   */\n      0x20\n        /* \"#utility.yul\":4554:4607   */\n      tag_675\n        /* \"#utility.yul\":4599:4606   */\n      dup7\n        /* \"#utility.yul\":4590:4596   */\n      dup3\n        /* \"#utility.yul\":4579:4588   */\n      dup8\n        /* \"#utility.yul\":4575:4597   */\n      add\n        /* \"#utility.yul\":4554:4607   */\n      tag_572\n      jump\t// in\n    tag_675:\n        /* \"#utility.yul\":4544:4607   */\n      swap3\n      pop\n        /* \"#utility.yul\":4499:4617   */\n      pop\n        /* \"#utility.yul\":4656:4658   */\n      0x40\n        /* \"#utility.yul\":4682:4735   */\n      tag_676\n        /* \"#utility.yul\":4727:4734   */\n      dup7\n        /* \"#utility.yul\":4718:4724   */\n      dup3\n        /* \"#utility.yul\":4707:4716   */\n      dup8\n        /* \"#utility.yul\":4703:4725   */\n      add\n        /* \"#utility.yul\":4682:4735   */\n      tag_581\n      jump\t// in\n    tag_676:\n        /* \"#utility.yul\":4672:4735   */\n      swap2\n      pop\n        /* \"#utility.yul\":4627:4745   */\n      pop\n        /* \"#utility.yul\":4133:4752   */\n      swap3\n      pop\n      swap3\n      pop\n      swap3\n      jump\t// out\n        /* \"#utility.yul\":4758:5087   */\n    tag_95:\n        /* \"#utility.yul\":4817:4823   */\n      0x00\n        /* \"#utility.yul\":4866:4868   */\n      0x20\n        /* \"#utility.yul\":4854:4863   */\n      dup3\n        /* \"#utility.yul\":4845:4852   */\n      dup5\n        /* \"#utility.yul\":4841:4864   */\n      sub\n        /* \"#utility.yul\":4837:4869   */\n      slt\n        /* \"#utility.yul\":4834:4953   */\n      iszero\n      tag_678\n      jumpi\n        /* \"#utility.yul\":4872:4951   */\n      tag_679\n      tag_567\n      jump\t// in\n    tag_679:\n        /* \"#utility.yul\":4834:4953   */\n    tag_678:\n        /* \"#utility.yul\":4992:4993   */\n      0x00\n        /* \"#utility.yul\":5017:5070   */\n      tag_680\n        /* \"#utility.yul\":5062:5069   */\n      dup5\n        /* \"#utility.yul\":5053:5059   */\n      dup3\n        /* \"#utility.yul\":5042:5051   */\n      dup6\n        /* \"#utility.yul\":5038:5060   */\n      add\n        /* \"#utility.yul\":5017:5070   */\n      tag_581\n      jump\t// in\n    tag_680:\n        /* \"#utility.yul\":5007:5070   */\n      swap2\n      pop\n        /* \"#utility.yul\":4963:5080   */\n      pop\n        /* \"#utility.yul\":4758:5087   */\n      swap3\n      swap2\n      pop\n      pop\n      jump\t// out\n        /* \"#utility.yul\":5093:5179   */\n    tag_584:\n        /* \"#utility.yul\":5128:5135   */\n      0x00\n        /* \"#utility.yul\":5168:5172   */\n      0xff\n        /* \"#utility.yul\":5161:5166   */\n      dup3\n        /* \"#utility.yul\":5157:5173   */\n      and\n        /* \"#utility.yul\":5146:5173   */\n      swap1\n      pop\n        /* \"#utility.yul\":5093:5179   */\n      swap2\n      swap1\n      pop\n      jump\t// out\n        /* \"#utility.yul\":5185:5297   */\n    tag_585:\n        /* \"#utility.yul\":5268:5290   */\n      tag_683\n        /* \"#utility.yul\":5284:5289   */\n      dup2\n        /* \"#utility.yul\":5268:5290   */\n      tag_584\n      jump\t// in\n    tag_683:\n        /* \"#utility.yul\":5263:5266   */\n      dup3\n        /* \"#utility.yul\":5256:5291   */\n      mstore\n        /* \"#utility.yul\":5185:5297   */\n      pop\n      pop\n      jump\t// out\n        /* \"#utility.yul\":5303:5517   */\n    tag_101:\n        /* \"#utility.yul\":5392:5396   */\n      0x00\n        /* \"#utility.yul\":5430:5432   */\n      0x20\n        /* \"#utility.yul\":5419:5428   */\n      dup3\n        /* \"#utility.yul\":5415:5433   */\n      add\n        /* \"#utility.yul\":5407:5433   */\n      swap1\n      pop\n        /* \"#utility.yul\":5443:5510   */\n      tag_685\n        /* \"#utility.yul\":5507:5508   */\n      0x00\n        /* \"#utility.yul\":5496:5505   */\n      dup4\n        /* \"#utility.yul\":5492:5509   */\n      add\n        /* \"#utility.yul\":5483:5489   */\n      dup5\n        /* \"#utility.yul\":5443:5510   */\n      tag_585\n      jump\t// in\n    tag_685:\n        /* \"#utility.yul\":5303:5517   */\n      swap3\n      swap2\n      pop\n      pop\n      jump\t// out\n        /* \"#utility.yul\":5523:5583   */\n    tag_586:\n        /* \"#utility.yul\":5551:5554   */\n      0x00\n        /* \"#utility.yul\":5572:5577   */\n      dup2\n        /* \"#utility.yul\":5565:5577   */\n      swap1\n      pop\n        /* \"#utility.yul\":5523:5583   */\n      swap2\n      swap1\n      pop\n      jump\t// out\n        /* \"#utility.yul\":5589:5731   */\n    tag_587:\n        /* \"#utility.yul\":5639:5648   */\n      0x00\n        /* \"#utility.yul\":5672:5725   */\n      tag_688\n        /* \"#utility.yul\":5690:5724   */\n      tag_689\n        /* \"#utility.yul\":5699:5723   */\n      tag_690\n        /* \"#utility.yul\":5717:5722   */\n      dup5\n        /* \"#utility.yul\":5699:5723   */\n      tag_569\n      jump\t// in\n    tag_690:\n        /* \"#utility.yul\":5690:5724   */\n      tag_586\n      jump\t// in\n    tag_689:\n        /* \"#utility.yul\":5672:5725   */\n      tag_569\n      jump\t// in\n    tag_688:\n        /* \"#utility.yul\":5659:5725   */\n      swap1\n      pop\n        /* \"#utility.yul\":5589:5731   */\n      swap2\n      swap1\n      pop\n      jump\t// out\n        /* \"#utility.yul\":5737:5863   */\n    tag_588:\n        /* \"#utility.yul\":5787:5796   */\n      0x00\n        /* \"#utility.yul\":5820:5857   */\n      tag_692\n        /* \"#utility.yul\":5851:5856   */\n      dup3\n        /* \"#utility.yul\":5820:5857   */\n      tag_587\n      jump\t// in\n    tag_692:\n        /* \"#utility.yul\":5807:5857   */\n      swap1\n      pop\n        /* \"#utility.yul\":5737:5863   */\n      swap2\n      swap1\n      pop\n      jump\t// out\n        /* \"#utility.yul\":5869:6021   */\n    tag_589:\n        /* \"#utility.yul\":5945:5954   */\n      0x00\n        /* \"#utility.yul\":5978:6015   */\n      tag_694\n        /* \"#utility.yul\":6009:6014   */\n      dup3\n        /* \"#utility.yul\":5978:6015   */\n      tag_588\n      jump\t// in\n    tag_694:\n        /* \"#utility.yul\":5965:6015   */\n      swap1\n      pop\n        /* \"#utility.yul\":5869:6021   */\n      swap2\n      swap1\n      pop\n      jump\t// out\n        /* \"#utility.yul\":6027:6210   */\n    tag_590:\n        /* \"#utility.yul\":6140:6203   */\n      tag_696\n        /* \"#utility.yul\":6197:6202   */\n      dup2\n        /* \"#utility.yul\":6140:6203   */\n      tag_589\n      jump\t// in\n    tag_696:\n        /* \"#utility.yul\":6135:6138   */\n      dup3\n        /* \"#utility.yul\":6128:6204   */\n      mstore\n        /* \"#utility.yul\":6027:6210   */\n      pop\n      pop\n      jump\t// out\n        /* \"#utility.yul\":6216:6490   */\n    tag_142:\n        /* \"#utility.yul\":6335:6339   */\n      0x00\n        /* \"#utility.yul\":6373:6375   */\n      0x20\n        /* \"#utility.yul\":6362:6371   */\n      dup3\n        /* \"#utility.yul\":6358:6376   */\n      add\n        /* \"#utility.yul\":6350:6376   */\n      swap1\n      pop\n        /* \"#utility.yul\":6386:6483   */\n      tag_698\n        /* \"#utility.yul\":6480:6481   */\n      0x00\n        /* \"#utility.yul\":6469:6478   */\n      dup4\n        /* \"#utility.yul\":6465:6482   */\n      add\n        /* \"#utility.yul\":6456:6462   */\n      dup5\n        /* \"#utility.yul\":6386:6483   */\n      tag_590\n      jump\t// in\n    tag_698:\n        /* \"#utility.yul\":6216:6490   */\n      swap3\n      swap2\n      pop\n      pop\n      jump\t// out\n        /* \"#utility.yul\":6496:6614   */\n    tag_591:\n        /* \"#utility.yul\":6583:6607   */\n      tag_700\n        /* \"#utility.yul\":6601:6606   */\n      dup2\n        /* \"#utility.yul\":6583:6607   */\n      tag_570\n      jump\t// in\n    tag_700:\n        /* \"#utility.yul\":6578:6581   */\n      dup3\n        /* \"#utility.yul\":6571:6608   */\n      mstore\n        /* \"#utility.yul\":6496:6614   */\n      pop\n      pop\n      jump\t// out\n        /* \"#utility.yul\":6620:6842   */\n    tag_163:\n        /* \"#utility.yul\":6713:6717   */\n      0x00\n        /* \"#utility.yul\":6751:6753   */\n      0x20\n        /* \"#utility.yul\":6740:6749   */\n      dup3\n        /* \"#utility.yul\":6736:6754   */\n      add\n        /* \"#utility.yul\":6728:6754   */\n      swap1\n      pop\n        /* \"#utility.yul\":6764:6835   */\n      tag_702\n        /* \"#utility.yul\":6832:6833   */\n      0x00\n        /* \"#utility.yul\":6821:6830   */\n      dup4\n        /* \"#utility.yul\":6817:6834   */\n      add\n        /* \"#utility.yul\":6808:6814   */\n      dup5\n        /* \"#utility.yul\":6764:6835   */\n      tag_591\n      jump\t// in\n    tag_702:\n        /* \"#utility.yul\":6620:6842   */\n      swap3\n      swap2\n      pop\n      pop\n      jump\t// out\n        /* \"#utility.yul\":6848:6996   */\n    tag_592:\n        /* \"#utility.yul\":6920:6929   */\n      0x00\n        /* \"#utility.yul\":6953:6990   */\n      tag_704\n        /* \"#utility.yul\":6984:6989   */\n      dup3\n        /* \"#utility.yul\":6953:6990   */\n      tag_588\n      jump\t// in\n    tag_704:\n        /* \"#utility.yul\":6940:6990   */\n      swap1\n      pop\n        /* \"#utility.yul\":6848:6996   */\n      swap2\n      swap1\n      pop\n      jump\t// out\n        /* \"#utility.yul\":7002:7177   */\n    tag_593:\n        /* \"#utility.yul\":7111:7170   */\n      tag_706\n        /* \"#utility.yul\":7164:7169   */\n      dup2\n        /* \"#utility.yul\":7111:7170   */\n      tag_592\n      jump\t// in\n    tag_706:\n        /* \"#utility.yul\":7106:7109   */\n      dup3\n        /* \"#utility.yul\":7099:7171   */\n      mstore\n        /* \"#utility.yul\":7002:7177   */\n      pop\n      pop\n      jump\t// out\n        /* \"#utility.yul\":7183:7449   */\n    tag_200:\n        /* \"#utility.yul\":7298:7302   */\n      0x00\n        /* \"#utility.yul\":7336:7338   */\n      0x20\n        /* \"#utility.yul\":7325:7334   */\n      dup3\n        /* \"#utility.yul\":7321:7339   */\n      add\n        /* \"#utility.yul\":7313:7339   */\n      swap1\n      pop\n        /* \"#utility.yul\":7349:7442   */\n      tag_708\n        /* \"#utility.yul\":7439:7440   */\n      0x00\n        /* \"#utility.yul\":7428:7437   */\n      dup4\n        /* \"#utility.yul\":7424:7441   */\n      add\n        /* \"#utility.yul\":7415:7421   */\n      dup5\n        /* \"#utility.yul\":7349:7442   */\n      tag_593\n      jump\t// in\n    tag_708:\n        /* \"#utility.yul\":7183:7449   */\n      swap3\n      swap2\n      pop\n      pop\n      jump\t// out\n        /* \"#utility.yul\":7455:7929   */\n    tag_221:\n        /* \"#utility.yul\":7523:7529   */\n      0x00\n        /* \"#utility.yul\":7531:7537   */\n      dup1\n        /* \"#utility.yul\":7580:7582   */\n      0x40\n        /* \"#utility.yul\":7568:7577   */\n      dup4\n        /* \"#utility.yul\":7559:7566   */\n      dup6\n        /* \"#utility.yul\":7555:7578   */\n      sub\n        /* \"#utility.yul\":7551:7583   */\n      slt\n        /* \"#utility.yul\":7548:7667   */\n      iszero\n      tag_710\n      jumpi\n        /* \"#utility.yul\":7586:7665   */\n      tag_711\n      tag_567\n      jump\t// in\n    tag_711:\n        /* \"#utility.yul\":7548:7667   */\n    tag_710:\n        /* \"#utility.yul\":7706:7707   */\n      0x00\n        /* \"#utility.yul\":7731:7784   */\n      tag_712\n        /* \"#utility.yul\":7776:7783   */\n      dup6\n        /* \"#utility.yul\":7767:7773   */\n      dup3\n        /* \"#utility.yul\":7756:7765   */\n      dup7\n        /* \"#utility.yul\":7752:7774   */\n      add\n        /* \"#utility.yul\":7731:7784   */\n      tag_572\n      jump\t// in\n    tag_712:\n        /* \"#utility.yul\":7721:7784   */\n      swap3\n      pop\n        /* \"#utility.yul\":7677:7794   */\n      pop\n        /* \"#utility.yul\":7833:7835   */\n      0x20\n        /* \"#utility.yul\":7859:7912   */\n      tag_713\n        /* \"#utility.yul\":7904:7911   */\n      dup6\n        /* \"#utility.yul\":7895:7901   */\n      dup3\n        /* \"#utility.yul\":7884:7893   */\n      dup7\n        /* \"#utility.yul\":7880:7902   */\n      add\n        /* \"#utility.yul\":7859:7912   */\n      tag_572\n      jump\t// in\n    tag_713:\n        /* \"#utility.yul\":7849:7912   */\n      swap2\n      pop\n        /* \"#utility.yul\":7804:7922   */\n      pop\n        /* \"#utility.yul\":7455:7929   */\n      swap3\n      pop\n      swap3\n      swap1\n      pop\n      jump\t// out\n        /* \"#utility.yul\":7935:8115   */\n    tag_594:\n        /* \"#utility.yul\":7983:8060   */\n      0x4e487b7100000000000000000000000000000000000000000000000000000000\n        /* \"#utility.yul\":7980:7981   */\n      0x00\n        /* \"#utility.yul\":7973:8061   */\n      mstore\n        /* \"#utility.yul\":8080:8084   */\n      0x11\n        /* \"#utility.yul\":8077:8078   */\n      0x04\n        /* \"#utility.yul\":8070:8085   */\n      mstore\n        /* \"#utility.yul\":8104:8108   */\n      0x24\n        /* \"#utility.yul\":8101:8102   */\n      0x00\n        /* \"#utility.yul\":8094:8109   */\n      revert\n        /* \"#utility.yul\":8121:8315   */\n    tag_244:\n        /* \"#utility.yul\":8161:8165   */\n      0x00\n        /* \"#utility.yul\":8181:8201   */\n      tag_716\n        /* \"#utility.yul\":8199:8200   */\n      dup3\n        /* \"#utility.yul\":8181:8201   */\n      tag_573\n      jump\t// in\n    tag_716:\n        /* \"#utility.yul\":8176:8201   */\n      swap2\n      pop\n        /* \"#utility.yul\":8215:8235   */\n      tag_717\n        /* \"#utility.yul\":8233:8234   */\n      dup4\n        /* \"#utility.yul\":8215:8235   */\n      tag_573\n      jump\t// in\n    tag_717:\n        /* \"#utility.yul\":8210:8235   */\n      swap3\n      pop\n        /* \"#utility.yul\":8259:8260   */\n      dup3\n        /* \"#utility.yul\":8256:8257   */\n      dup3\n        /* \"#utility.yul\":8252:8261   */\n      sub\n        /* \"#utility.yul\":8244:8261   */\n      swap1\n      pop\n        /* \"#utility.yul\":8283:8284   */\n      dup2\n        /* \"#utility.yul\":8277:8281   */\n      dup2\n        /* \"#utility.yul\":8274:8285   */\n      gt\n        /* \"#utility.yul\":8271:8308   */\n      iszero\n      tag_718\n      jumpi\n        /* \"#utility.yul\":8288:8306   */\n      tag_719\n      tag_594\n      jump\t// in\n    tag_719:\n        /* \"#utility.yul\":8271:8308   */\n    tag_718:\n        /* \"#utility.yul\":8121:8315   */\n      swap3\n      swap2\n      pop\n      pop\n      jump\t// out\n        /* \"#utility.yul\":8321:8731   */\n    tag_246:\n        /* \"#utility.yul\":8361:8368   */\n      0x00\n        /* \"#utility.yul\":8384:8404   */\n      tag_721\n        /* \"#utility.yul\":8402:8403   */\n      dup3\n        /* \"#utility.yul\":8384:8404   */\n      tag_573\n      jump\t// in\n    tag_721:\n        /* \"#utility.yul\":8379:8404   */\n      swap2\n      pop\n        /* \"#utility.yul\":8418:8438   */\n      tag_722\n        /* \"#utility.yul\":8436:8437   */\n      dup4\n        /* \"#utility.yul\":8418:8438   */\n      tag_573\n      jump\t// in\n    tag_722:\n        /* \"#utility.yul\":8413:8438   */\n      swap3\n      pop\n        /* \"#utility.yul\":8473:8474   */\n      dup3\n        /* \"#utility.yul\":8470:8471   */\n      dup3\n        /* \"#utility.yul\":8466:8475   */\n      mul\n        /* \"#utility.yul\":8495:8525   */\n      tag_723\n        /* \"#utility.yul\":8513:8524   */\n      dup2\n        /* \"#utility.yul\":8495:8525   */\n      tag_573\n      jump\t// in\n    tag_723:\n        /* \"#utility.yul\":8484:8525   */\n      swap2\n      pop\n        /* \"#utility.yul\":8674:8675   */\n      dup3\n        /* \"#utility.yul\":8665:8672   */\n      dup3\n        /* \"#utility.yul\":8661:8676   */\n      div\n        /* \"#utility.yul\":8658:8659   */\n      dup5\n        /* \"#utility.yul\":8655:8677   */\n      eq\n        /* \"#utility.yul\":8635:8636   */\n      dup4\n        /* \"#utility.yul\":8628:8637   */\n      iszero\n        /* \"#utility.yul\":8608:8691   */\n      or\n        /* \"#utility.yul\":8585:8724   */\n      tag_724\n      jumpi\n        /* \"#utility.yul\":8704:8722   */\n      tag_725\n      tag_594\n      jump\t// in\n    tag_725:\n        /* \"#utility.yul\":8585:8724   */\n    tag_724:\n        /* \"#utility.yul\":8369:8731   */\n      pop\n        /* \"#utility.yul\":8321:8731   */\n      swap3\n      swap2\n      pop\n      pop\n      jump\t// out\n        /* \"#utility.yul\":8737:8917   */\n    tag_595:\n        /* \"#utility.yul\":8785:8862   */\n      0x4e487b7100000000000000000000000000000000000000000000000000000000\n        /* \"#utility.yul\":8782:8783   */\n      0x00\n        /* \"#utility.yul\":8775:8863   */\n      mstore\n        /* \"#utility.yul\":8882:8886   */\n      0x12\n        /* \"#utility.yul\":8879:8880   */\n      0x04\n        /* \"#utility.yul\":8872:8887   */\n      mstore\n        /* \"#utility.yul\":8906:8910   */\n      0x24\n        /* \"#utility.yul\":8903:8904   */\n      0x00\n        /* \"#utility.yul\":8896:8911   */\n      revert\n        /* \"#utility.yul\":8923:9108   */\n    tag_248:\n        /* \"#utility.yul\":8963:8964   */\n      0x00\n        /* \"#utility.yul\":8980:9000   */\n      tag_728\n        /* \"#utility.yul\":8998:8999   */\n      dup3\n        /* \"#utility.yul\":8980:9000   */\n      tag_573\n      jump\t// in\n    tag_728:\n        /* \"#utility.yul\":8975:9000   */\n      swap2\n      pop\n        /* \"#utility.yul\":9014:9034   */\n      tag_729\n        /* \"#utility.yul\":9032:9033   */\n      dup4\n        /* \"#utility.yul\":9014:9034   */\n      tag_573\n      jump\t// in\n    tag_729:\n        /* \"#utility.yul\":9009:9034   */\n      swap3\n      pop\n        /* \"#utility.yul\":9053:9054   */\n      dup3\n        /* \"#utility.yul\":9043:9078   */\n      tag_730\n      jumpi\n        /* \"#utility.yul\":9058:9076   */\n      tag_731\n      tag_595\n      jump\t// in\n    tag_731:\n        /* \"#utility.yul\":9043:9078   */\n    tag_730:\n        /* \"#utility.yul\":9100:9101   */\n      dup3\n        /* \"#utility.yul\":9097:9098   */\n      dup3\n        /* \"#utility.yul\":9093:9102   */\n      div\n        /* \"#utility.yul\":9088:9102   */\n      swap1\n      pop\n        /* \"#utility.yul\":8923:9108   */\n      swap3\n      swap2\n      pop\n      pop\n      jump\t// out\n        /* \"#utility.yul\":9114:9305   */\n    tag_250:\n        /* \"#utility.yul\":9154:9157   */\n      0x00\n        /* \"#utility.yul\":9173:9193   */\n      tag_733\n        /* \"#utility.yul\":9191:9192   */\n      dup3\n        /* \"#utility.yul\":9173:9193   */\n      tag_573\n      jump\t// in\n    tag_733:\n        /* \"#utility.yul\":9168:9193   */\n      swap2\n      pop\n        /* \"#utility.yul\":9207:9227   */\n      tag_734\n        /* \"#utility.yul\":9225:9226   */\n      dup4\n        /* \"#utility.yul\":9207:9227   */\n      tag_573\n      jump\t// in\n    tag_734:\n        /* \"#utility.yul\":9202:9227   */\n      swap3\n      pop\n        /* \"#utility.yul\":9250:9251   */\n      dup3\n        /* \"#utility.yul\":9247:9248   */\n      dup3\n        /* \"#utility.yul\":9243:9252   */\n      add\n        /* \"#utility.yul\":9236:9252   */\n      swap1\n      pop\n        /* \"#utility.yul\":9271:9274   */\n      dup1\n        /* \"#utility.yul\":9268:9269   */\n      dup3\n        /* \"#utility.yul\":9265:9275   */\n      gt\n        /* \"#utility.yul\":9262:9298   */\n      iszero\n      tag_735\n      jumpi\n        /* \"#utility.yul\":9278:9296   */\n      tag_736\n      tag_594\n      jump\t// in\n    tag_736:\n        /* \"#utility.yul\":9262:9298   */\n    tag_735:\n        /* \"#utility.yul\":9114:9305   */\n      swap3\n      swap2\n      pop\n      pop\n      jump\t// out\n        /* \"#utility.yul\":9311:9491   */\n    tag_596:\n        /* \"#utility.yul\":9359:9436   */\n      0x4e487b7100000000000000000000000000000000000000000000000000000000\n        /* \"#utility.yul\":9356:9357   */\n      0x00\n        /* \"#utility.yul\":9349:9437   */\n      mstore\n        /* \"#utility.yul\":9456:9460   */\n      0x22\n        /* \"#utility.yul\":9453:9454   */\n      0x04\n        /* \"#utility.yul\":9446:9461   */\n      mstore\n        /* \"#utility.yul\":9480:9484   */\n      0x24\n        /* \"#utility.yul\":9477:9478   */\n      0x00\n        /* \"#utility.yul\":9470:9485   */\n      revert\n        /* \"#utility.yul\":9497:9817   */\n    tag_253:\n        /* \"#utility.yul\":9541:9547   */\n      0x00\n        /* \"#utility.yul\":9578:9579   */\n      0x02\n        /* \"#utility.yul\":9572:9576   */\n      dup3\n        /* \"#utility.yul\":9568:9580   */\n      div\n        /* \"#utility.yul\":9558:9580   */\n      swap1\n      pop\n        /* \"#utility.yul\":9625:9626   */\n      0x01\n        /* \"#utility.yul\":9619:9623   */\n      dup3\n        /* \"#utility.yul\":9615:9627   */\n      and\n        /* \"#utility.yul\":9646:9664   */\n      dup1\n        /* \"#utility.yul\":9636:9717   */\n      tag_739\n      jumpi\n        /* \"#utility.yul\":9702:9706   */\n      0x7f\n        /* \"#utility.yul\":9694:9700   */\n      dup3\n        /* \"#utility.yul\":9690:9707   */\n      and\n        /* \"#utility.yul\":9680:9707   */\n      swap2\n      pop\n        /* \"#utility.yul\":9636:9717   */\n    tag_739:\n        /* \"#utility.yul\":9764:9766   */\n      0x20\n        /* \"#utility.yul\":9756:9762   */\n      dup3\n        /* \"#utility.yul\":9753:9767   */\n      lt\n        /* \"#utility.yul\":9733:9751   */\n      dup2\n        /* \"#utility.yul\":9730:9768   */\n      sub\n        /* \"#utility.yul\":9727:9811   */\n      tag_740\n      jumpi\n        /* \"#utility.yul\":9783:9801   */\n      tag_741\n      tag_596\n      jump\t// in\n    tag_741:\n        /* \"#utility.yul\":9727:9811   */\n    tag_740:\n        /* \"#utility.yul\":9548:9817   */\n      pop\n        /* \"#utility.yul\":9497:9817   */\n      swap2\n      swap1\n      pop\n      jump\t// out\n        /* \"#utility.yul\":9823:10004   */\n    tag_597:\n        /* \"#utility.yul\":9963:9996   */\n      0x576974686472617720616d6f756e7420657863656564732062616c616e636500\n        /* \"#utility.yul\":9959:9960   */\n      0x00\n        /* \"#utility.yul\":9951:9957   */\n      dup3\n        /* \"#utility.yul\":9947:9961   */\n      add\n        /* \"#utility.yul\":9940:9997   */\n      mstore\n        /* \"#utility.yul\":9823:10004   */\n      pop\n      jump\t// out\n        /* \"#utility.yul\":10010:10376   */\n    tag_598:\n        /* \"#utility.yul\":10152:10155   */\n      0x00\n        /* \"#utility.yul\":10173:10240   */\n      tag_744\n        /* \"#utility.yul\":10237:10239   */\n      0x1f\n        /* \"#utility.yul\":10232:10235   */\n      dup4\n        /* \"#utility.yul\":10173:10240   */\n      tag_576\n      jump\t// in\n    tag_744:\n        /* \"#utility.yul\":10166:10240   */\n      swap2\n      pop\n        /* \"#utility.yul\":10249:10342   */\n      tag_745\n        /* \"#utility.yul\":10338:10341   */\n      dup3\n        /* \"#utility.yul\":10249:10342   */\n      tag_597\n      jump\t// in\n    tag_745:\n        /* \"#utility.yul\":10367:10369   */\n      0x20\n        /* \"#utility.yul\":10362:10365   */\n      dup3\n        /* \"#utility.yul\":10358:10370   */\n      add\n        /* \"#utility.yul\":10351:10370   */\n      swap1\n      pop\n        /* \"#utility.yul\":10010:10376   */\n      swap2\n      swap1\n      pop\n      jump\t// out\n        /* \"#utility.yul\":10382:10801   */\n    tag_280:\n        /* \"#utility.yul\":10548:10552   */\n      0x00\n        /* \"#utility.yul\":10586:10588   */\n      0x20\n        /* \"#utility.yul\":10575:10584   */\n      dup3\n        /* \"#utility.yul\":10571:10589   */\n      add\n        /* \"#utility.yul\":10563:10589   */\n      swap1\n      pop\n        /* \"#utility.yul\":10635:10644   */\n      dup2\n        /* \"#utility.yul\":10629:10633   */\n      dup2\n        /* \"#utility.yul\":10625:10645   */\n      sub\n        /* \"#utility.yul\":10621:10622   */\n      0x00\n        /* \"#utility.yul\":10610:10619   */\n      dup4\n        /* \"#utility.yul\":10606:10623   */\n      add\n        /* \"#utility.yul\":10599:10646   */\n      mstore\n        /* \"#utility.yul\":10663:10794   */\n      tag_747\n        /* \"#utility.yul\":10789:10793   */\n      dup2\n        /* \"#utility.yul\":10663:10794   */\n      tag_598\n      jump\t// in\n    tag_747:\n        /* \"#utility.yul\":10655:10794   */\n      swap1\n      pop\n        /* \"#utility.yul\":10382:10801   */\n      swap2\n      swap1\n      pop\n      jump\t// out\n        /* \"#utility.yul\":10807:11139   */\n    tag_285:\n        /* \"#utility.yul\":10928:10932   */\n      0x00\n        /* \"#utility.yul\":10966:10968   */\n      0x40\n        /* \"#utility.yul\":10955:10964   */\n      dup3\n        /* \"#utility.yul\":10951:10969   */\n      add\n        /* \"#utility.yul\":10943:10969   */\n      swap1\n      pop\n        /* \"#utility.yul\":10979:11050   */\n      tag_749\n        /* \"#utility.yul\":11047:11048   */\n      0x00\n        /* \"#utility.yul\":11036:11045   */\n      dup4\n        /* \"#utility.yul\":11032:11049   */\n      add\n        /* \"#utility.yul\":11023:11029   */\n      dup6\n        /* \"#utility.yul\":10979:11050   */\n      tag_591\n      jump\t// in\n    tag_749:\n        /* \"#utility.yul\":11060:11132   */\n      tag_750\n        /* \"#utility.yul\":11128:11130   */\n      0x20\n        /* \"#utility.yul\":11117:11126   */\n      dup4\n        /* \"#utility.yul\":11113:11131   */\n      add\n        /* \"#utility.yul\":11104:11110   */\n      dup5\n        /* \"#utility.yul\":11060:11132   */\n      tag_574\n      jump\t// in\n    tag_750:\n        /* \"#utility.yul\":10807:11139   */\n      swap4\n      swap3\n      pop\n      pop\n      pop\n      jump\t// out\n        /* \"#utility.yul\":11145:11261   */\n    tag_599:\n        /* \"#utility.yul\":11215:11236   */\n      tag_752\n        /* \"#utility.yul\":11230:11235   */\n      dup2\n        /* \"#utility.yul\":11215:11236   */\n      tag_582\n      jump\t// in\n    tag_752:\n        /* \"#utility.yul\":11208:11213   */\n      dup2\n        /* \"#utility.yul\":11205:11237   */\n      eq\n        /* \"#utility.yul\":11195:11255   */\n      tag_753\n      jumpi\n        /* \"#utility.yul\":11251:11252   */\n      0x00\n        /* \"#utility.yul\":11248:11249   */\n      dup1\n        /* \"#utility.yul\":11241:11253   */\n      revert\n        /* \"#utility.yul\":11195:11255   */\n    tag_753:\n        /* \"#utility.yul\":11145:11261   */\n      pop\n      jump\t// out\n        /* \"#utility.yul\":11267:11404   */\n    tag_600:\n        /* \"#utility.yul\":11321:11326   */\n      0x00\n        /* \"#utility.yul\":11352:11358   */\n      dup2\n        /* \"#utility.yul\":11346:11359   */\n      mload\n        /* \"#utility.yul\":11337:11359   */\n      swap1\n      pop\n        /* \"#utility.yul\":11368:11398   */\n      tag_755\n        /* \"#utility.yul\":11392:11397   */\n      dup2\n        /* \"#utility.yul\":11368:11398   */\n      tag_599\n      jump\t// in\n    tag_755:\n        /* \"#utility.yul\":11267:11404   */\n      swap3\n      swap2\n      pop\n      pop\n      jump\t// out\n        /* \"#utility.yul\":11410:11755   */\n    tag_289:\n        /* \"#utility.yul\":11477:11483   */\n      0x00\n        /* \"#utility.yul\":11526:11528   */\n      0x20\n        /* \"#utility.yul\":11514:11523   */\n      dup3\n        /* \"#utility.yul\":11505:11512   */\n      dup5\n        /* \"#utility.yul\":11501:11524   */\n      sub\n        /* \"#utility.yul\":11497:11529   */\n      slt\n        /* \"#utility.yul\":11494:11613   */\n      iszero\n      tag_757\n      jumpi\n        /* \"#utility.yul\":11532:11611   */\n      tag_758\n      tag_567\n      jump\t// in\n    tag_758:\n        /* \"#utility.yul\":11494:11613   */\n    tag_757:\n        /* \"#utility.yul\":11652:11653   */\n      0x00\n        /* \"#utility.yul\":11677:11738   */\n      tag_759\n        /* \"#utility.yul\":11730:11737   */\n      dup5\n        /* \"#utility.yul\":11721:11727   */\n      dup3\n        /* \"#utility.yul\":11710:11719   */\n      dup6\n        /* \"#utility.yul\":11706:11728   */\n      add\n        /* \"#utility.yul\":11677:11738   */\n      tag_600\n      jump\t// in\n    tag_759:\n        /* \"#utility.yul\":11667:11738   */\n      swap2\n      pop\n        /* \"#utility.yul\":11623:11748   */\n      pop\n        /* \"#utility.yul\":11410:11755   */\n      swap3\n      swap2\n      pop\n      pop\n      jump\t// out\n        /* \"#utility.yul\":11761:11941   */\n    tag_296:\n        /* \"#utility.yul\":11809:11886   */\n      0x4e487b7100000000000000000000000000000000000000000000000000000000\n        /* \"#utility.yul\":11806:11807   */\n      0x00\n        /* \"#utility.yul\":11799:11887   */\n      mstore\n        /* \"#utility.yul\":11906:11910   */\n      0x32\n        /* \"#utility.yul\":11903:11904   */\n      0x04\n        /* \"#utility.yul\":11896:11911   */\n      mstore\n        /* \"#utility.yul\":11930:11934   */\n      0x24\n        /* \"#utility.yul\":11927:11928   */\n      0x00\n        /* \"#utility.yul\":11920:11935   */\n      revert\n        /* \"#utility.yul\":11947:12127   */\n    tag_308:\n        /* \"#utility.yul\":11995:12072   */\n      0x4e487b7100000000000000000000000000000000000000000000000000000000\n        /* \"#utility.yul\":11992:11993   */\n      0x00\n        /* \"#utility.yul\":11985:12073   */\n      mstore\n        /* \"#utility.yul\":12092:12096   */\n      0x31\n        /* \"#utility.yul\":12089:12090   */\n      0x04\n        /* \"#utility.yul\":12082:12097   */\n      mstore\n        /* \"#utility.yul\":12116:12120   */\n      0x24\n        /* \"#utility.yul\":12113:12114   */\n      0x00\n        /* \"#utility.yul\":12106:12121   */\n      revert\n        /* \"#utility.yul\":12133:12366   */\n    tag_311:\n        /* \"#utility.yul\":12172:12175   */\n      0x00\n        /* \"#utility.yul\":12195:12219   */\n      tag_763\n        /* \"#utility.yul\":12213:12218   */\n      dup3\n        /* \"#utility.yul\":12195:12219   */\n      tag_573\n      jump\t// in\n    tag_763:\n        /* \"#utility.yul\":12186:12219   */\n      swap2\n      pop\n        /* \"#utility.yul\":12241:12307   */\n      0xffffffffffffffffffffffffffffffffffffffffffffffffffffffffffffffff\n        /* \"#utility.yul\":12234:12239   */\n      dup3\n        /* \"#utility.yul\":12231:12308   */\n      sub\n        /* \"#utility.yul\":12228:12331   */\n      tag_764\n      jumpi\n        /* \"#utility.yul\":12311:12329   */\n      tag_765\n      tag_594\n      jump\t// in\n    tag_765:\n        /* \"#utility.yul\":12228:12331   */\n    tag_764:\n        /* \"#utility.yul\":12358:12359   */\n      0x01\n        /* \"#utility.yul\":12351:12356   */\n      dup3\n        /* \"#utility.yul\":12347:12360   */\n      add\n        /* \"#utility.yul\":12340:12360   */\n      swap1\n      pop\n        /* \"#utility.yul\":12133:12366   */\n      swap2\n      swap1\n      pop\n      jump\t// out\n        /* \"#utility.yul\":12372:12542   */\n    tag_601:\n        /* \"#utility.yul\":12512:12534   */\n      0x4e6f20746f6b656e7320746f2072656c65617365000000000000000000000000\n        /* \"#utility.yul\":12508:12509   */\n      0x00\n        /* \"#utility.yul\":12500:12506   */\n      dup3\n        /* \"#utility.yul\":12496:12510   */\n      add\n        /* \"#utility.yul\":12489:12535   */\n      mstore\n        /* \"#utility.yul\":12372:12542   */\n      pop\n      jump\t// out\n        /* \"#utility.yul\":12548:12914   */\n    tag_602:\n        /* \"#utility.yul\":12690:12693   */\n      0x00\n        /* \"#utility.yul\":12711:12778   */\n      tag_768\n        /* \"#utility.yul\":12775:12777   */\n      0x14\n        /* \"#utility.yul\":12770:12773   */\n      dup4\n        /* \"#utility.yul\":12711:12778   */\n      tag_576\n      jump\t// in\n    tag_768:\n        /* \"#utility.yul\":12704:12778   */\n      swap2\n      pop\n        /* \"#utility.yul\":12787:12880   */\n      tag_769\n        /* \"#utility.yul\":12876:12879   */\n      dup3\n        /* \"#utility.yul\":12787:12880   */\n      tag_601\n      jump\t// in\n    tag_769:\n        /* \"#utility.yul\":12905:12907   */\n      0x20\n        /* \"#utility.yul\":12900:12903   */\n      dup3\n        /* \"#utility.yul\":12896:12908   */\n      add\n        /* \"#utility.yul\":12889:12908   */\n      swap1\n      pop\n        /* \"#utility.yul\":12548:12914   */\n      swap2\n      swap1\n      pop\n      jump\t// out\n        /* \"#utility.yul\":12920:13339   */\n    tag_330:\n        /* \"#utility.yul\":13086:13090   */\n      0x00\n        /* \"#utility.yul\":13124:13126   */\n      0x20\n        /* \"#utility.yul\":13113:13122   */\n      dup3\n        /* \"#utility.yul\":13109:13127   */\n      add\n        /* \"#utility.yul\":13101:13127   */\n      swap1\n      pop\n        /* \"#utility.yul\":13173:13182   */\n      dup2\n        /* \"#utility.yul\":13167:13171   */\n      dup2\n        /* \"#utility.yul\":13163:13183   */\n      sub\n        /* \"#utility.yul\":13159:13160   */\n      0x00\n        /* \"#utility.yul\":13148:13157   */\n      dup4\n        /* \"#utility.yul\":13144:13161   */\n      add\n        /* \"#utility.yul\":13137:13184   */\n      mstore\n        /* \"#utility.yul\":13201:13332   */\n      tag_771\n        /* \"#utility.yul\":13327:13331   */\n      dup2\n        /* \"#utility.yul\":13201:13332   */\n      tag_602\n      jump\t// in\n    tag_771:\n        /* \"#utility.yul\":13193:13332   */\n      swap1\n      pop\n        /* \"#utility.yul\":12920:13339   */\n      swap2\n      swap1\n      pop\n      jump\t// out\n        /* \"#utility.yul\":13345:13430   */\n    tag_603:\n        /* \"#utility.yul\":13390:13397   */\n      0x00\n        /* \"#utility.yul\":13419:13424   */\n      dup2\n        /* \"#utility.yul\":13408:13424   */\n      swap1\n      pop\n        /* \"#utility.yul\":13345:13430   */\n      swap2\n      swap1\n      pop\n      jump\t// out\n        /* \"#utility.yul\":13436:13594   */\n    tag_604:\n        /* \"#utility.yul\":13494:13503   */\n      0x00\n        /* \"#utility.yul\":13527:13588   */\n      tag_774\n        /* \"#utility.yul\":13545:13587   */\n      tag_775\n        /* \"#utility.yul\":13554:13586   */\n      tag_776\n        /* \"#utility.yul\":13580:13585   */\n      dup5\n        /* \"#utility.yul\":13554:13586   */\n      tag_603\n      jump\t// in\n    tag_776:\n        /* \"#utility.yul\":13545:13587   */\n      tag_586\n      jump\t// in\n    tag_775:\n        /* \"#utility.yul\":13527:13588   */\n      tag_573\n      jump\t// in\n    tag_774:\n        /* \"#utility.yul\":13514:13588   */\n      swap1\n      pop\n        /* \"#utility.yul\":13436:13594   */\n      swap2\n      swap1\n      pop\n      jump\t// out\n        /* \"#utility.yul\":13600:13747   */\n    tag_605:\n        /* \"#utility.yul\":13695:13740   */\n      tag_778\n        /* \"#utility.yul\":13734:13739   */\n      dup2\n        /* \"#utility.yul\":13695:13740   */\n      tag_604\n      jump\t// in\n    tag_778:\n        /* \"#utility.yul\":13690:13693   */\n      dup3\n        /* \"#utility.yul\":13683:13741   */\n      mstore\n        /* \"#utility.yul\":13600:13747   */\n      pop\n      pop\n      jump\t// out\n        /* \"#utility.yul\":13753:14560   */\n    tag_347:\n        /* \"#utility.yul\":14002:14006   */\n      0x00\n        /* \"#utility.yul\":14040:14043   */\n      0xc0\n        /* \"#utility.yul\":14029:14038   */\n      dup3\n        /* \"#utility.yul\":14025:14044   */\n      add\n        /* \"#utility.yul\":14017:14044   */\n      swap1\n      pop\n        /* \"#utility.yul\":14054:14125   */\n      tag_780\n        /* \"#utility.yul\":14122:14123   */\n      0x00\n        /* \"#utility.yul\":14111:14120   */\n      dup4\n        /* \"#utility.yul\":14107:14124   */\n      add\n        /* \"#utility.yul\":14098:14104   */\n      dup10\n        /* \"#utility.yul\":14054:14125   */\n      tag_591\n      jump\t// in\n    tag_780:\n        /* \"#utility.yul\":14135:14207   */\n      tag_781\n        /* \"#utility.yul\":14203:14205   */\n      0x20\n        /* \"#utility.yul\":14192:14201   */\n      dup4\n        /* \"#utility.yul\":14188:14206   */\n      add\n        /* \"#utility.yul\":14179:14185   */\n      dup9\n        /* \"#utility.yul\":14135:14207   */\n      tag_574\n      jump\t// in\n    tag_781:\n        /* \"#utility.yul\":14217:14297   */\n      tag_782\n        /* \"#utility.yul\":14293:14295   */\n      0x40\n        /* \"#utility.yul\":14282:14291   */\n      dup4\n        /* \"#utility.yul\":14278:14296   */\n      add\n        /* \"#utility.yul\":14269:14275   */\n      dup8\n        /* \"#utility.yul\":14217:14297   */\n      tag_605\n      jump\t// in\n    tag_782:\n        /* \"#utility.yul\":14307:14387   */\n      tag_783\n        /* \"#utility.yul\":14383:14385   */\n      0x60\n        /* \"#utility.yul\":14372:14381   */\n      dup4\n        /* \"#utility.yul\":14368:14386   */\n      add\n        /* \"#utility.yul\":14359:14365   */\n      dup7\n        /* \"#utility.yul\":14307:14387   */\n      tag_605\n      jump\t// in\n    tag_783:\n        /* \"#utility.yul\":14397:14470   */\n      tag_784\n        /* \"#utility.yul\":14465:14468   */\n      0x80\n        /* \"#utility.yul\":14454:14463   */\n      dup4\n        /* \"#utility.yul\":14450:14469   */\n      add\n        /* \"#utility.yul\":14441:14447   */\n      dup6\n        /* \"#utility.yul\":14397:14470   */\n      tag_591\n      jump\t// in\n    tag_784:\n        /* \"#utility.yul\":14480:14553   */\n      tag_785\n        /* \"#utility.yul\":14548:14551   */\n      0xa0\n        /* \"#utility.yul\":14537:14546   */\n      dup4\n        /* \"#utility.yul\":14533:14552   */\n      add\n        /* \"#utility.yul\":14524:14530   */\n      dup5\n        /* \"#utility.yul\":14480:14553   */\n      tag_574\n      jump\t// in\n    tag_785:\n        /* \"#utility.yul\":13753:14560   */\n      swap8\n      swap7\n      pop\n      pop\n      pop\n      pop\n      pop\n      pop\n      pop\n      jump\t// out\n        /* \"#utility.yul\":14566:14709   */\n    tag_606:\n        /* \"#utility.yul\":14623:14628   */\n      0x00\n        /* \"#utility.yul\":14654:14660   */\n      dup2\n        /* \"#utility.yul\":14648:14661   */\n      mload\n        /* \"#utility.yul\":14639:14661   */\n      swap1\n      pop\n        /* \"#utility.yul\":14670:14703   */\n      tag_787\n        /* \"#utility.yul\":14697:14702   */\n      dup2\n        /* \"#utility.yul\":14670:14703   */\n      tag_580\n      jump\t// in\n    tag_787:\n        /* \"#utility.yul\":14566:14709   */\n      swap3\n      swap2\n      pop\n      pop\n      jump\t// out\n        /* \"#utility.yul\":14715:15378   */\n    tag_351:\n        /* \"#utility.yul\":14803:14809   */\n      0x00\n        /* \"#utility.yul\":14811:14817   */\n      dup1\n        /* \"#utility.yul\":14819:14825   */\n      0x00\n        /* \"#utility.yul\":14868:14870   */\n      0x60\n        /* \"#utility.yul\":14856:14865   */\n      dup5\n        /* \"#utility.yul\":14847:14854   */\n      dup7\n        /* \"#utility.yul\":14843:14866   */\n      sub\n        /* \"#utility.yul\":14839:14871   */\n      slt\n        /* \"#utility.yul\":14836:14955   */\n      iszero\n      tag_789\n      jumpi\n        /* \"#utility.yul\":14874:14953   */\n      tag_790\n      tag_567\n      jump\t// in\n    tag_790:\n        /* \"#utility.yul\":14836:14955   */\n    tag_789:\n        /* \"#utility.yul\":14994:14995   */\n      0x00\n        /* \"#utility.yul\":15019:15083   */\n      tag_791\n        /* \"#utility.yul\":15075:15082   */\n      dup7\n        /* \"#utility.yul\":15066:15072   */\n      dup3\n        /* \"#utility.yul\":15055:15064   */\n      dup8\n        /* \"#utility.yul\":15051:15073   */\n      add\n        /* \"#utility.yul\":15019:15083   */\n      tag_606\n      jump\t// in\n    tag_791:\n        /* \"#utility.yul\":15009:15083   */\n      swap4\n      pop\n        /* \"#utility.yul\":14965:15093   */\n      pop\n        /* \"#utility.yul\":15132:15134   */\n      0x20\n        /* \"#utility.yul\":15158:15222   */\n      tag_792\n        /* \"#utility.yul\":15214:15221   */\n      dup7\n        /* \"#utility.yul\":15205:15211   */\n      dup3\n        /* \"#utility.yul\":15194:15203   */\n      dup8\n        /* \"#utility.yul\":15190:15212   */\n      add\n        /* \"#utility.yul\":15158:15222   */\n      tag_606\n      jump\t// in\n    tag_792:\n        /* \"#utility.yul\":15148:15222   */\n      swap3\n      pop\n        /* \"#utility.yul\":15103:15232   */\n      pop\n        /* \"#utility.yul\":15271:15273   */\n      0x40\n        /* \"#utility.yul\":15297:15361   */\n      tag_793\n        /* \"#utility.yul\":15353:15360   */\n      dup7\n        /* \"#utility.yul\":15344:15350   */\n      dup3\n        /* \"#utility.yul\":15333:15342   */\n      dup8\n        /* \"#utility.yul\":15329:15351   */\n      add\n        /* \"#utility.yul\":15297:15361   */\n      tag_606\n      jump\t// in\n    tag_793:\n        /* \"#utility.yul\":15287:15361   */\n      swap2\n      pop\n        /* \"#utility.yul\":15242:15371   */\n      pop\n        /* \"#utility.yul\":14715:15378   */\n      swap3\n      pop\n      swap3\n      pop\n      swap3\n      jump\t// out\n        /* \"#utility.yul\":15384:15716   */\n    tag_353:\n        /* \"#utility.yul\":15505:15509   */\n      0x00\n        /* \"#utility.yul\":15543:15545   */\n      0x40\n        /* \"#utility.yul\":15532:15541   */\n      dup3\n        /* \"#utility.yul\":15528:15546   */\n      add\n        /* \"#utility.yul\":15520:15546   */\n      swap1\n      pop\n        /* \"#utility.yul\":15556:15627   */\n      tag_795\n        /* \"#utility.yul\":15624:15625   */\n      0x00\n        /* \"#utility.yul\":15613:15622   */\n      dup4\n        /* \"#utility.yul\":15609:15626   */\n      add\n        /* \"#utility.yul\":15600:15606   */\n      dup6\n        /* \"#utility.yul\":15556:15627   */\n      tag_574\n      jump\t// in\n    tag_795:\n        /* \"#utility.yul\":15637:15709   */\n      tag_796\n        /* \"#utility.yul\":15705:15707   */\n      0x20\n        /* \"#utility.yul\":15694:15703   */\n      dup4\n        /* \"#utility.yul\":15690:15708   */\n      add\n        /* \"#utility.yul\":15681:15687   */\n      dup5\n        /* \"#utility.yul\":15637:15709   */\n      tag_574\n      jump\t// in\n    tag_796:\n        /* \"#utility.yul\":15384:15716   */\n      swap4\n      swap3\n      pop\n      pop\n      pop\n      jump\t// out\n        /* \"#utility.yul\":15722:15901   */\n    tag_607:\n        /* \"#utility.yul\":15862:15893   */\n      0x43616e6e6f742064697374726962757465207265776172647320796574000000\n        /* \"#utility.yul\":15858:15859   */\n      0x00\n        /* \"#utility.yul\":15850:15856   */\n      dup3\n        /* \"#utility.yul\":15846:15860   */\n      add\n        /* \"#utility.yul\":15839:15894   */\n      mstore\n        /* \"#utility.yul\":15722:15901   */\n      pop\n      jump\t// out\n        /* \"#utility.yul\":15907:16273   */\n    tag_608:\n        /* \"#utility.yul\":16049:16052   */\n      0x00\n        /* \"#utility.yul\":16070:16137   */\n      tag_799\n        /* \"#utility.yul\":16134:16136   */\n      0x1d\n        /* \"#utility.yul\":16129:16132   */\n      dup4\n        /* \"#utility.yul\":16070:16137   */\n      tag_576\n      jump\t// in\n    tag_799:\n        /* \"#utility.yul\":16063:16137   */\n      swap2\n      pop\n        /* \"#utility.yul\":16146:16239   */\n      tag_800\n        /* \"#utility.yul\":16235:16238   */\n      dup3\n        /* \"#utility.yul\":16146:16239   */\n      tag_607\n      jump\t// in\n    tag_800:\n        /* \"#utility.yul\":16264:16266   */\n      0x20\n        /* \"#utility.yul\":16259:16262   */\n      dup3\n        /* \"#utility.yul\":16255:16267   */\n      add\n        /* \"#utility.yul\":16248:16267   */\n      swap1\n      pop\n        /* \"#utility.yul\":15907:16273   */\n      swap2\n      swap1\n      pop\n      jump\t// out\n        /* \"#utility.yul\":16279:16698   */\n    tag_359:\n        /* \"#utility.yul\":16445:16449   */\n      0x00\n        /* \"#utility.yul\":16483:16485   */\n      0x20\n        /* \"#utility.yul\":16472:16481   */\n      dup3\n        /* \"#utility.yul\":16468:16486   */\n      add\n        /* \"#utility.yul\":16460:16486   */\n      swap1\n      pop\n        /* \"#utility.yul\":16532:16541   */\n      dup2\n        /* \"#utility.yul\":16526:16530   */\n      dup2\n        /* \"#utility.yul\":16522:16542   */\n      sub\n        /* \"#utility.yul\":16518:16519   */\n      0x00\n        /* \"#utility.yul\":16507:16516   */\n      dup4\n        /* \"#utility.yul\":16503:16520   */\n      add\n        /* \"#utility.yul\":16496:16543   */\n      mstore\n        /* \"#utility.yul\":16560:16691   */\n      tag_802\n        /* \"#utility.yul\":16686:16690   */\n      dup2\n        /* \"#utility.yul\":16560:16691   */\n      tag_608\n      jump\t// in\n    tag_802:\n        /* \"#utility.yul\":16552:16691   */\n      swap1\n      pop\n        /* \"#utility.yul\":16279:16698   */\n      swap2\n      swap1\n      pop\n      jump\t// out\n        /* \"#utility.yul\":16704:17055   */\n    tag_384:\n        /* \"#utility.yul\":16774:16780   */\n      0x00\n        /* \"#utility.yul\":16823:16825   */\n      0x20\n        /* \"#utility.yul\":16811:16820   */\n      dup3\n        /* \"#utility.yul\":16802:16809   */\n      dup5\n        /* \"#utility.yul\":16798:16821   */\n      sub\n        /* \"#utility.yul\":16794:16826   */\n      slt\n        /* \"#utility.yul\":16791:16910   */\n      iszero\n      tag_804\n      jumpi\n        /* \"#utility.yul\":16829:16908   */\n      tag_805\n      tag_567\n      jump\t// in\n    tag_805:\n        /* \"#utility.yul\":16791:16910   */\n    tag_804:\n        /* \"#utility.yul\":16949:16950   */\n      0x00\n        /* \"#utility.yul\":16974:17038   */\n      tag_806\n        /* \"#utility.yul\":17030:17037   */\n      dup5\n        /* \"#utility.yul\":17021:17027   */\n      dup3\n        /* \"#utility.yul\":17010:17019   */\n      dup6\n        /* \"#utility.yul\":17006:17028   */\n      add\n        /* \"#utility.yul\":16974:17038   */\n      tag_606\n      jump\t// in\n    tag_806:\n        /* \"#utility.yul\":16964:17038   */\n      swap2\n      pop\n        /* \"#utility.yul\":16920:17048   */\n      pop\n        /* \"#utility.yul\":16704:17055   */\n      swap3\n      swap2\n      pop\n      pop\n      jump\t// out\n        /* \"#utility.yul\":17061:17231   */\n    tag_609:\n        /* \"#utility.yul\":17201:17223   */\n      0x556e69737761702070616972206e6f7420736574000000000000000000000000\n        /* \"#utility.yul\":17197:17198   */\n      0x00\n        /* \"#utility.yul\":17189:17195   */\n      dup3\n        /* \"#utility.yul\":17185:17199   */\n      add\n        /* \"#utility.yul\":17178:17224   */\n      mstore\n        /* \"#utility.yul\":17061:17231   */\n      pop\n      jump\t// out\n        /* \"#utility.yul\":17237:17603   */\n    tag_610:\n        /* \"#utility.yul\":17379:17382   */\n      0x00\n        /* \"#utility.yul\":17400:17467   */\n      tag_809\n        /* \"#utility.yul\":17464:17466   */\n      0x14\n        /* \"#utility.yul\":17459:17462   */\n      dup4\n        /* \"#utility.yul\":17400:17467   */\n      tag_576\n      jump\t// in\n    tag_809:\n        /* \"#utility.yul\":17393:17467   */\n      swap2\n      pop\n        /* \"#utility.yul\":17476:17569   */\n      tag_810\n        /* \"#utility.yul\":17565:17568   */\n      dup3\n        /* \"#utility.yul\":17476:17569   */\n      tag_609\n      jump\t// in\n    tag_810:\n        /* \"#utility.yul\":17594:17596   */\n      0x20\n        /* \"#utility.yul\":17589:17592   */\n      dup3\n        /* \"#utility.yul\":17585:17597   */\n      add\n        /* \"#utility.yul\":17578:17597   */\n      swap1\n      pop\n        /* \"#utility.yul\":17237:17603   */\n      swap2\n      swap1\n      pop\n      jump\t// out\n        /* \"#utility.yul\":17609:18028   */\n    tag_394:\n        /* \"#utility.yul\":17775:17779   */\n      0x00\n        /* \"#utility.yul\":17813:17815   */\n      0x20\n        /* \"#utility.yul\":17802:17811   */\n      dup3\n        /* \"#utility.yul\":17798:17816   */\n      add\n        /* \"#utility.yul\":17790:17816   */\n      swap1\n      pop\n        /* \"#utility.yul\":17862:17871   */\n      dup2\n        /* \"#utility.yul\":17856:17860   */\n      dup2\n        /* \"#utility.yul\":17852:17872   */\n      sub\n        /* \"#utility.yul\":17848:17849   */\n      0x00\n        /* \"#utility.yul\":17837:17846   */\n      dup4\n        /* \"#utility.yul\":17833:17850   */\n      add\n        /* \"#utility.yul\":17826:17873   */\n      mstore\n        /* \"#utility.yul\":17890:18021   */\n      tag_812\n        /* \"#utility.yul\":18016:18020   */\n      dup2\n        /* \"#utility.yul\":17890:18021   */\n      tag_610\n      jump\t// in\n    tag_812:\n        /* \"#utility.yul\":17882:18021   */\n      swap1\n      pop\n        /* \"#utility.yul\":17609:18028   */\n      swap2\n      swap1\n      pop\n      jump\t// out\n        /* \"#utility.yul\":18034:18476   */\n    tag_398:\n        /* \"#utility.yul\":18183:18187   */\n      0x00\n        /* \"#utility.yul\":18221:18223   */\n      0x60\n        /* \"#utility.yul\":18210:18219   */\n      dup3\n        /* \"#utility.yul\":18206:18224   */\n      add\n        /* \"#utility.yul\":18198:18224   */\n      swap1\n      pop\n        /* \"#utility.yul\":18234:18305   */\n      tag_814\n        /* \"#utility.yul\":18302:18303   */\n      0x00\n        /* \"#utility.yul\":18291:18300   */\n      dup4\n        /* \"#utility.yul\":18287:18304   */\n      add\n        /* \"#utility.yul\":18278:18284   */\n      dup7\n        /* \"#utility.yul\":18234:18305   */\n      tag_591\n      jump\t// in\n    tag_814:\n        /* \"#utility.yul\":18315:18387   */\n      tag_815\n        /* \"#utility.yul\":18383:18385   */\n      0x20\n        /* \"#utility.yul\":18372:18381   */\n      dup4\n        /* \"#utility.yul\":18368:18386   */\n      add\n        /* \"#utility.yul\":18359:18365   */\n      dup6\n        /* \"#utility.yul\":18315:18387   */\n      tag_591\n      jump\t// in\n    tag_815:\n        /* \"#utility.yul\":18397:18469   */\n      tag_816\n        /* \"#utility.yul\":18465:18467   */\n      0x40\n        /* \"#utility.yul\":18454:18463   */\n      dup4\n        /* \"#utility.yul\":18450:18468   */\n      add\n        /* \"#utility.yul\":18441:18447   */\n      dup5\n        /* \"#utility.yul\":18397:18469   */\n      tag_574\n      jump\t// in\n    tag_816:\n        /* \"#utility.yul\":18034:18476   */\n      swap5\n      swap4\n      pop\n      pop\n      pop\n      pop\n      jump\t// out\n        /* \"#utility.yul\":18482:18830   */\n    tag_406:\n        /* \"#utility.yul\":18611:18615   */\n      0x00\n        /* \"#utility.yul\":18649:18651   */\n      0x40\n        /* \"#utility.yul\":18638:18647   */\n      dup3\n        /* \"#utility.yul\":18634:18652   */\n      add\n        /* \"#utility.yul\":18626:18652   */\n      swap1\n      pop\n        /* \"#utility.yul\":18662:18733   */\n      tag_818\n        /* \"#utility.yul\":18730:18731   */\n      0x00\n        /* \"#utility.yul\":18719:18728   */\n      dup4\n        /* \"#utility.yul\":18715:18732   */\n      add\n        /* \"#utility.yul\":18706:18712   */\n      dup6\n        /* \"#utility.yul\":18662:18733   */\n      tag_574\n      jump\t// in\n    tag_818:\n        /* \"#utility.yul\":18743:18823   */\n      tag_819\n        /* \"#utility.yul\":18819:18821   */\n      0x20\n        /* \"#utility.yul\":18808:18817   */\n      dup4\n        /* \"#utility.yul\":18804:18822   */\n      add\n        /* \"#utility.yul\":18795:18801   */\n      dup5\n        /* \"#utility.yul\":18743:18823   */\n      tag_605\n      jump\t// in\n    tag_819:\n        /* \"#utility.yul\":18482:18830   */\n      swap4\n      swap3\n      pop\n      pop\n      pop\n      jump\t// out\n        /* \"#utility.yul\":18836:19278   */\n    tag_474:\n        /* \"#utility.yul\":18985:18989   */\n      0x00\n        /* \"#utility.yul\":19023:19025   */\n      0x60\n        /* \"#utility.yul\":19012:19021   */\n      dup3\n        /* \"#utility.yul\":19008:19026   */\n      add\n        /* \"#utility.yul\":19000:19026   */\n      swap1\n      pop\n        /* \"#utility.yul\":19036:19107   */\n      tag_821\n        /* \"#utility.yul\":19104:19105   */\n      0x00\n        /* \"#utility.yul\":19093:19102   */\n      dup4\n        /* \"#utility.yul\":19089:19106   */\n      add\n        /* \"#utility.yul\":19080:19086   */\n      dup7\n        /* \"#utility.yul\":19036:19107   */\n      tag_591\n      jump\t// in\n    tag_821:\n        /* \"#utility.yul\":19117:19189   */\n      tag_822\n        /* \"#utility.yul\":19185:19187   */\n      0x20\n        /* \"#utility.yul\":19174:19183   */\n      dup4\n        /* \"#utility.yul\":19170:19188   */\n      add\n        /* \"#utility.yul\":19161:19167   */\n      dup6\n        /* \"#utility.yul\":19117:19189   */\n      tag_574\n      jump\t// in\n    tag_822:\n        /* \"#utility.yul\":19199:19271   */\n      tag_823\n        /* \"#utility.yul\":19267:19269   */\n      0x40\n        /* \"#utility.yul\":19256:19265   */\n      dup4\n        /* \"#utility.yul\":19252:19270   */\n      add\n        /* \"#utility.yul\":19243:19249   */\n      dup5\n        /* \"#utility.yul\":19199:19271   */\n      tag_574\n      jump\t// in\n    tag_823:\n        /* \"#utility.yul\":18836:19278   */\n      swap5\n      swap4\n      pop\n      pop\n      pop\n      pop\n      jump\t// out\n        /* \"#utility.yul\":19284:19465   */\n    tag_611:\n        /* \"#utility.yul\":19424:19457   */\n      0x5265656e7472616e637947756172643a207265656e7472616e742063616c6c00\n        /* \"#utility.yul\":19420:19421   */\n      0x00\n        /* \"#utility.yul\":19412:19418   */\n      dup3\n        /* \"#utility.yul\":19408:19422   */\n      add\n        /* \"#utility.yul\":19401:19458   */\n      mstore\n        /* \"#utility.yul\":19284:19465   */\n      pop\n      jump\t// out\n        /* \"#utility.yul\":19471:19837   */\n    tag_612:\n        /* \"#utility.yul\":19613:19616   */\n      0x00\n        /* \"#utility.yul\":19634:19701   */\n      tag_826\n        /* \"#utility.yul\":19698:19700   */\n      0x1f\n        /* \"#utility.yul\":19693:19696   */\n      dup4\n        /* \"#utility.yul\":19634:19701   */\n      tag_576\n      jump\t// in\n    tag_826:\n        /* \"#utility.yul\":19627:19701   */\n      swap2\n      pop\n        /* \"#utility.yul\":19710:19803   */\n      tag_827\n        /* \"#utility.yul\":19799:19802   */\n      dup3\n        /* \"#utility.yul\":19710:19803   */\n      tag_611\n      jump\t// in\n    tag_827:\n        /* \"#utility.yul\":19828:19830   */\n      0x20\n        /* \"#utility.yul\":19823:19826   */\n      dup3\n        /* \"#utility.yul\":19819:19831   */\n      add\n        /* \"#utility.yul\":19812:19831   */\n      swap1\n      pop\n        /* \"#utility.yul\":19471:19837   */\n      swap2\n      swap1\n      pop\n      jump\t// out\n        /* \"#utility.yul\":19843:20262   */\n    tag_494:\n        /* \"#utility.yul\":20009:20013   */\n      0x00\n        /* \"#utility.yul\":20047:20049   */\n      0x20\n        /* \"#utility.yul\":20036:20045   */\n      dup3\n        /* \"#utility.yul\":20032:20050   */\n      add\n        /* \"#utility.yul\":20024:20050   */\n      swap1\n      pop\n        /* \"#utility.yul\":20096:20105   */\n      dup2\n        /* \"#utility.yul\":20090:20094   */\n      dup2\n        /* \"#utility.yul\":20086:20106   */\n      sub\n        /* \"#utility.yul\":20082:20083   */\n      0x00\n        /* \"#utility.yul\":20071:20080   */\n      dup4\n        /* \"#utility.yul\":20067:20084   */\n      add\n        /* \"#utility.yul\":20060:20107   */\n      mstore\n        /* \"#utility.yul\":20124:20255   */\n      tag_829\n        /* \"#utility.yul\":20250:20254   */\n      dup2\n        /* \"#utility.yul\":20124:20255   */\n      tag_612\n      jump\t// in\n    tag_829:\n        /* \"#utility.yul\":20116:20255   */\n      swap1\n      pop\n        /* \"#utility.yul\":19843:20262   */\n      swap2\n      swap1\n      pop\n      jump\t// out\n        /* \"#utility.yul\":20268:20382   */\n    tag_613:\n        /* \"#utility.yul\":20335:20341   */\n      0x00\n        /* \"#utility.yul\":20369:20374   */\n      dup2\n        /* \"#utility.yul\":20363:20375   */\n      mload\n        /* \"#utility.yul\":20353:20375   */\n      swap1\n      pop\n        /* \"#utility.yul\":20268:20382   */\n      swap2\n      swap1\n      pop\n      jump\t// out\n        /* \"#utility.yul\":20388:20572   */\n    tag_614:\n        /* \"#utility.yul\":20487:20498   */\n      0x00\n        /* \"#utility.yul\":20521:20527   */\n      dup3\n        /* \"#utility.yul\":20516:20519   */\n      dup3\n        /* \"#utility.yul\":20509:20528   */\n      mstore\n        /* \"#utility.yul\":20561:20565   */\n      0x20\n        /* \"#utility.yul\":20556:20559   */\n      dup3\n        /* \"#utility.yul\":20552:20566   */\n      add\n        /* \"#utility.yul\":20537:20566   */\n      swap1\n      pop\n        /* \"#utility.yul\":20388:20572   */\n      swap3\n      swap2\n      pop\n      pop\n      jump\t// out\n        /* \"#utility.yul\":20578:20710   */\n    tag_615:\n        /* \"#utility.yul\":20645:20649   */\n      0x00\n        /* \"#utility.yul\":20668:20671   */\n      dup2\n        /* \"#utility.yul\":20660:20671   */\n      swap1\n      pop\n        /* \"#utility.yul\":20698:20702   */\n      0x20\n        /* \"#utility.yul\":20693:20696   */\n      dup3\n        /* \"#utility.yul\":20689:20703   */\n      add\n        /* \"#utility.yul\":20681:20703   */\n      swap1\n      pop\n        /* \"#utility.yul\":20578:20710   */\n      swap2\n      swap1\n      pop\n      jump\t// out\n        /* \"#utility.yul\":20716:20824   */\n    tag_616:\n        /* \"#utility.yul\":20793:20817   */\n      tag_834\n        /* \"#utility.yul\":20811:20816   */\n      dup2\n        /* \"#utility.yul\":20793:20817   */\n      tag_570\n      jump\t// in\n    tag_834:\n        /* \"#utility.yul\":20788:20791   */\n      dup3\n        /* \"#utility.yul\":20781:20818   */\n      mstore\n        /* \"#utility.yul\":20716:20824   */\n      pop\n      pop\n      jump\t// out\n        /* \"#utility.yul\":20830:21009   */\n    tag_617:\n        /* \"#utility.yul\":20899:20909   */\n      0x00\n        /* \"#utility.yul\":20920:20966   */\n      tag_836\n        /* \"#utility.yul\":20962:20965   */\n      dup4\n        /* \"#utility.yul\":20954:20960   */\n      dup4\n        /* \"#utility.yul\":20920:20966   */\n      tag_616\n      jump\t// in\n    tag_836:\n        /* \"#utility.yul\":20998:21002   */\n      0x20\n        /* \"#utility.yul\":20993:20996   */\n      dup4\n        /* \"#utility.yul\":20989:21003   */\n      add\n        /* \"#utility.yul\":20975:21003   */\n      swap1\n      pop\n        /* \"#utility.yul\":20830:21009   */\n      swap3\n      swap2\n      pop\n      pop\n      jump\t// out\n        /* \"#utility.yul\":21015:21128   */\n    tag_618:\n        /* \"#utility.yul\":21085:21089   */\n      0x00\n        /* \"#utility.yul\":21117:21121   */\n      0x20\n        /* \"#utility.yul\":21112:21115   */\n      dup3\n        /* \"#utility.yul\":21108:21122   */\n      add\n        /* \"#utility.yul\":21100:21122   */\n      swap1\n      pop\n        /* \"#utility.yul\":21015:21128   */\n      swap2\n      swap1\n      pop\n      jump\t// out\n        /* \"#utility.yul\":21164:21896   */\n    tag_619:\n        /* \"#utility.yul\":21283:21286   */\n      0x00\n        /* \"#utility.yul\":21312:21366   */\n      tag_839\n        /* \"#utility.yul\":21360:21365   */\n      dup3\n        /* \"#utility.yul\":21312:21366   */\n      tag_613\n      jump\t// in\n    tag_839:\n        /* \"#utility.yul\":21382:21468   */\n      tag_840\n        /* \"#utility.yul\":21461:21467   */\n      dup2\n        /* \"#utility.yul\":21456:21459   */\n      dup6\n        /* \"#utility.yul\":21382:21468   */\n      tag_614\n      jump\t// in\n    tag_840:\n        /* \"#utility.yul\":21375:21468   */\n      swap4\n      pop\n        /* \"#utility.yul\":21492:21548   */\n      tag_841\n        /* \"#utility.yul\":21542:21547   */\n      dup4\n        /* \"#utility.yul\":21492:21548   */\n      tag_615\n      jump\t// in\n    tag_841:\n        /* \"#utility.yul\":21571:21578   */\n      dup1\n        /* \"#utility.yul\":21602:21603   */\n      0x00\n        /* \"#utility.yul\":21587:21871   */\n    tag_842:\n        /* \"#utility.yul\":21612:21618   */\n      dup4\n        /* \"#utility.yul\":21609:21610   */\n      dup2\n        /* \"#utility.yul\":21606:21619   */\n      lt\n        /* \"#utility.yul\":21587:21871   */\n      iszero\n      tag_844\n      jumpi\n        /* \"#utility.yul\":21688:21694   */\n      dup2\n        /* \"#utility.yul\":21682:21695   */\n      mload\n        /* \"#utility.yul\":21715:21778   */\n      tag_845\n        /* \"#utility.yul\":21774:21777   */\n      dup9\n        /* \"#utility.yul\":21759:21772   */\n      dup3\n        /* \"#utility.yul\":21715:21778   */\n      tag_617\n      jump\t// in\n    tag_845:\n        /* \"#utility.yul\":21708:21778   */\n      swap8\n      pop\n        /* \"#utility.yul\":21801:21861   */\n      tag_846\n        /* \"#utility.yul\":21854:21860   */\n      dup4\n        /* \"#utility.yul\":21801:21861   */\n      tag_618\n      jump\t// in\n    tag_846:\n        /* \"#utility.yul\":21791:21861   */\n      swap3\n      pop\n        /* \"#utility.yul\":21647:21871   */\n      pop\n        /* \"#utility.yul\":21634:21635   */\n      0x01\n        /* \"#utility.yul\":21631:21632   */\n      dup2\n        /* \"#utility.yul\":21627:21636   */\n      add\n        /* \"#utility.yul\":21622:21636   */\n      swap1\n      pop\n        /* \"#utility.yul\":21587:21871   */\n      jump(tag_842)\n    tag_844:\n        /* \"#utility.yul\":21591:21605   */\n      pop\n        /* \"#utility.yul\":21887:21890   */\n      dup6\n        /* \"#utility.yul\":21880:21890   */\n      swap4\n      pop\n        /* \"#utility.yul\":21288:21896   */\n      pop\n      pop\n      pop\n        /* \"#utility.yul\":21164:21896   */\n      swap3\n      swap2\n      pop\n      pop\n      jump\t// out\n        /* \"#utility.yul\":21902:22733   */\n    tag_532:\n        /* \"#utility.yul\":22165:22169   */\n      0x00\n        /* \"#utility.yul\":22203:22206   */\n      0xa0\n        /* \"#utility.yul\":22192:22201   */\n      dup3\n        /* \"#utility.yul\":22188:22207   */\n      add\n        /* \"#utility.yul\":22180:22207   */\n      swap1\n      pop\n        /* \"#utility.yul\":22217:22288   */\n      tag_848\n        /* \"#utility.yul\":22285:22286   */\n      0x00\n        /* \"#utility.yul\":22274:22283   */\n      dup4\n        /* \"#utility.yul\":22270:22287   */\n      add\n        /* \"#utility.yul\":22261:22267   */\n      dup9\n        /* \"#utility.yul\":22217:22288   */\n      tag_574\n      jump\t// in\n    tag_848:\n        /* \"#utility.yul\":22298:22378   */\n      tag_849\n        /* \"#utility.yul\":22374:22376   */\n      0x20\n        /* \"#utility.yul\":22363:22372   */\n      dup4\n        /* \"#utility.yul\":22359:22377   */\n      add\n        /* \"#utility.yul\":22350:22356   */\n      dup8\n        /* \"#utility.yul\":22298:22378   */\n      tag_605\n      jump\t// in\n    tag_849:\n        /* \"#utility.yul\":22425:22434   */\n      dup2\n        /* \"#utility.yul\":22419:22423   */\n      dup2\n        /* \"#utility.yul\":22415:22435   */\n      sub\n        /* \"#utility.yul\":22410:22412   */\n      0x40\n        /* \"#utility.yul\":22399:22408   */\n      dup4\n        /* \"#utility.yul\":22395:22413   */\n      add\n        /* \"#utility.yul\":22388:22436   */\n      mstore\n        /* \"#utility.yul\":22453:22561   */\n      tag_850\n        /* \"#utility.yul\":22556:22560   */\n      dup2\n        /* \"#utility.yul\":22547:22553   */\n      dup7\n        /* \"#utility.yul\":22453:22561   */\n      tag_619\n      jump\t// in\n    tag_850:\n        /* \"#utility.yul\":22445:22561   */\n      swap1\n      pop\n        /* \"#utility.yul\":22571:22643   */\n      tag_851\n        /* \"#utility.yul\":22639:22641   */\n      0x60\n        /* \"#utility.yul\":22628:22637   */\n      dup4\n        /* \"#utility.yul\":22624:22642   */\n      add\n        /* \"#utility.yul\":22615:22621   */\n      dup6\n        /* \"#utility.yul\":22571:22643   */\n      tag_591\n      jump\t// in\n    tag_851:\n        /* \"#utility.yul\":22653:22726   */\n      tag_852\n        /* \"#utility.yul\":22721:22724   */\n      0x80\n        /* \"#utility.yul\":22710:22719   */\n      dup4\n        /* \"#utility.yul\":22706:22725   */\n      add\n        /* \"#utility.yul\":22697:22703   */\n      dup5\n        /* \"#utility.yul\":22653:22726   */\n      tag_574\n      jump\t// in\n    tag_852:\n        /* \"#utility.yul\":21902:22733   */\n      swap7\n      swap6\n      pop\n      pop\n      pop\n      pop\n      pop\n      pop\n      jump\t// out\n        /* \"#utility.yul\":22739:22919   */\n    tag_556:\n        /* \"#utility.yul\":22787:22864   */\n      0x4e487b7100000000000000000000000000000000000000000000000000000000\n        /* \"#utility.yul\":22784:22785   */\n      0x00\n        /* \"#utility.yul\":22777:22865   */\n      mstore\n        /* \"#utility.yul\":22884:22888   */\n      0x41\n        /* \"#utility.yul\":22881:22882   */\n      0x04\n        /* \"#utility.yul\":22874:22889   */\n      mstore\n        /* \"#utility.yul\":22908:22912   */\n      0x24\n        /* \"#utility.yul\":22905:22906   */\n      0x00\n        /* \"#utility.yul\":22898:22913   */\n      revert\n        /* \"#utility.yul\":22925:23068   */\n    tag_620:\n        /* \"#utility.yul\":22982:22987   */\n      0x00\n        /* \"#utility.yul\":23013:23019   */\n      dup2\n        /* \"#utility.yul\":23007:23020   */\n      mload\n        /* \"#utility.yul\":22998:23020   */\n      swap1\n      pop\n        /* \"#utility.yul\":23029:23062   */\n      tag_855\n        /* \"#utility.yul\":23056:23061   */\n      dup2\n        /* \"#utility.yul\":23029:23062   */\n      tag_571\n      jump\t// in\n    tag_855:\n        /* \"#utility.yul\":22925:23068   */\n      swap3\n      swap2\n      pop\n      pop\n      jump\t// out\n        /* \"#utility.yul\":23074:23425   */\n    tag_563:\n        /* \"#utility.yul\":23144:23150   */\n      0x00\n        /* \"#utility.yul\":23193:23195   */\n      0x20\n        /* \"#utility.yul\":23181:23190   */\n      dup3\n        /* \"#utility.yul\":23172:23179   */\n      dup5\n        /* \"#utility.yul\":23168:23191   */\n      sub\n        /* \"#utility.yul\":23164:23196   */\n      slt\n        /* \"#utility.yul\":23161:23280   */\n      iszero\n      tag_857\n      jumpi\n        /* \"#utility.yul\":23199:23278   */\n      tag_858\n      tag_567\n      jump\t// in\n    tag_858:\n        /* \"#utility.yul\":23161:23280   */\n    tag_857:\n        /* \"#utility.yul\":23319:23320   */\n      0x00\n        /* \"#utility.yul\":23344:23408   */\n      tag_859\n        /* \"#utility.yul\":23400:23407   */\n      dup5\n        /* \"#utility.yul\":23391:23397   */\n      dup3\n        /* \"#utility.yul\":23380:23389   */\n      dup6\n        /* \"#utility.yul\":23376:23398   */\n      add\n        /* \"#utility.yul\":23344:23408   */\n      tag_620\n      jump\t// in\n    tag_859:\n        /* \"#utility.yul\":23334:23408   */\n      swap2\n      pop\n        /* \"#utility.yul\":23290:23418   */\n      pop\n        /* \"#utility.yul\":23074:23425   */\n      swap3\n      swap2\n      pop\n      pop\n      jump\t// out\n\n    auxdata: 0xa2646970667358221220e8fc3d9fd1f7890a636d0baa6f0e74455a5ac6c3234e97189fe632a35db3779a64736f6c63430008140033\n}\n",
				"bytecode": {
					"linkReferences": {},
					"object": "60806040526004600a55678ac7230489e8000060135534801562000021575f80fd5b50604051620047da380380620047da83398181016040528101906200004791906200086c565b336040518060400160405280600981526020017f4f43544f204c61627300000000000000000000000000000000000000000000008152506040518060400160405280600481526020017f4f43544f000000000000000000000000000000000000000000000000000000008152508160039081620000c5919062000b15565b508060049081620000d7919062000b15565b50505060016005819055505f73ffffffffffffffffffffffffffffffffffffffff168173ffffffffffffffffffffffffffffffffffffffff160362000155575f6040517f1e4fbdf70000000000000000000000000000000000000000000000000000000081526004016200014c919062000c0a565b60405180910390fd5b62000166816200028060201b60201c565b508060095f6101000a81548173ffffffffffffffffffffffffffffffffffffffff021916908373ffffffffffffffffffffffffffffffffffffffff1602179055508160075f6101000a81548173ffffffffffffffffffffffffffffffffffffffff021916908373ffffffffffffffffffffffffffffffffffffffff1602179055505f69d3c21bcecceda100000090505f60058262000205919062000c7f565b90505f818362000216919062000cb6565b90506200022a30836200034360201b60201c565b6200023c33826200034360201b60201c565b6200027560095f9054906101000a900473ffffffffffffffffffffffffffffffffffffffff1683426301e13380620003cd60201b60201c565b505050505062000f26565b5f60065f9054906101000a900473ffffffffffffffffffffffffffffffffffffffff1690508160065f6101000a81548173ffffffffffffffffffffffffffffffffffffffff021916908373ffffffffffffffffffffffffffffffffffffffff1602179055508173ffffffffffffffffffffffffffffffffffffffff168173ffffffffffffffffffffffffffffffffffffffff167f8be0079c531659141344cd1fd0a4f28419497f9722a3daafe3b4186f6b6457e060405160405180910390a35050565b5f73ffffffffffffffffffffffffffffffffffffffff168273ffffffffffffffffffffffffffffffffffffffff1603620003b6575f6040517fec442f05000000000000000000000000000000000000000000000000000000008152600401620003ad919062000c0a565b60405180910390fd5b620003c95f8383620005e360201b60201c565b5050565b5f73ffffffffffffffffffffffffffffffffffffffff168473ffffffffffffffffffffffffffffffffffffffff16036200043e576040517f08c379a0000000000000000000000000000000000000000000000000000000008152600401620004359062000d4e565b60405180910390fd5b5f831162000483576040517f08c379a00000000000000000000000000000000000000000000000000000000081526004016200047a9062000dbc565b60405180910390fd5b5f600e5f8673ffffffffffffffffffffffffffffffffffffffff1673ffffffffffffffffffffffffffffffffffffffff1681526020019081526020015f20541462000505576040517f08c379a0000000000000000000000000000000000000000000000000000000008152600401620004fc9062000e2a565b60405180910390fd5b82600f5f8673ffffffffffffffffffffffffffffffffffffffff1673ffffffffffffffffffffffffffffffffffffffff1681526020019081526020015f208190555081600e5f8673ffffffffffffffffffffffffffffffffffffffff1673ffffffffffffffffffffffffffffffffffffffff1681526020019081526020015f20819055508373ffffffffffffffffffffffffffffffffffffffff167fcf204ce1b55772bfa423f3f0c5d9a2cfe3197a5110073875f0b9c7dd3538c7d6848484604051620005d59392919062000e5b565b60405180910390a250505050565b5f73ffffffffffffffffffffffffffffffffffffffff168373ffffffffffffffffffffffffffffffffffffffff160362000637578060025f8282546200062a919062000e96565b9250508190555062000708565b5f805f8573ffffffffffffffffffffffffffffffffffffffff1673ffffffffffffffffffffffffffffffffffffffff1681526020019081526020015f2054905081811015620006c3578381836040517fe450d38c000000000000000000000000000000000000000000000000000000008152600401620006ba9392919062000ed0565b60405180910390fd5b8181035f808673ffffffffffffffffffffffffffffffffffffffff1673ffffffffffffffffffffffffffffffffffffffff1681526020019081526020015f2081905550505b5f73ffffffffffffffffffffffffffffffffffffffff168273ffffffffffffffffffffffffffffffffffffffff160362000751578060025f82825403925050819055506200079b565b805f808473ffffffffffffffffffffffffffffffffffffffff1673ffffffffffffffffffffffffffffffffffffffff1681526020019081526020015f205f82825401925050819055505b8173ffffffffffffffffffffffffffffffffffffffff168373ffffffffffffffffffffffffffffffffffffffff167fddf252ad1be2c89b69c2b068fc378daa952ba7f163c4a11628f55a4df523b3ef83604051620007fa919062000f0b565b60405180910390a3505050565b5f80fd5b5f73ffffffffffffffffffffffffffffffffffffffff82169050919050565b5f62000836826200080b565b9050919050565b62000848816200082a565b811462000853575f80fd5b50565b5f8151905062000866816200083d565b92915050565b5f806040838503121562000885576200088462000807565b5b5f620008948582860162000856565b9250506020620008a78582860162000856565b9150509250929050565b5f81519050919050565b7f4e487b71000000000000000000000000000000000000000000000000000000005f52604160045260245ffd5b7f4e487b71000000000000000000000000000000000000000000000000000000005f52602260045260245ffd5b5f60028204905060018216806200092d57607f821691505b602082108103620009435762000942620008e8565b5b50919050565b5f819050815f5260205f209050919050565b5f6020601f8301049050919050565b5f82821b905092915050565b5f60088302620009a77fffffffffffffffffffffffffffffffffffffffffffffffffffffffffffffffff826200096a565b620009b386836200096a565b95508019841693508086168417925050509392505050565b5f819050919050565b5f819050919050565b5f620009fd620009f7620009f184620009cb565b620009d4565b620009cb565b9050919050565b5f819050919050565b62000a1883620009dd565b62000a3062000a278262000a04565b84845462000976565b825550505050565b5f90565b62000a4662000a38565b62000a5381848462000a0d565b505050565b5b8181101562000a7a5762000a6e5f8262000a3c565b60018101905062000a59565b5050565b601f82111562000ac95762000a938162000949565b62000a9e846200095b565b8101602085101562000aae578190505b62000ac662000abd856200095b565b83018262000a58565b50505b505050565b5f82821c905092915050565b5f62000aeb5f198460080262000ace565b1980831691505092915050565b5f62000b05838362000ada565b9150826002028217905092915050565b62000b2082620008b1565b67ffffffffffffffff81111562000b3c5762000b3b620008bb565b5b62000b48825462000915565b62000b5582828562000a7e565b5f60209050601f83116001811462000b8b575f841562000b76578287015190505b62000b82858262000af8565b86555062000bf1565b601f19841662000b9b8662000949565b5f5b8281101562000bc45784890151825560018201915060208501945060208101905062000b9d565b8683101562000be4578489015162000be0601f89168262000ada565b8355505b6001600288020188555050505b505050505050565b62000c04816200082a565b82525050565b5f60208201905062000c1f5f83018462000bf9565b92915050565b7f4e487b71000000000000000000000000000000000000000000000000000000005f52601260045260245ffd5b7f4e487b71000000000000000000000000000000000000000000000000000000005f52601160045260245ffd5b5f62000c8b82620009cb565b915062000c9883620009cb565b92508262000cab5762000caa62000c25565b5b828204905092915050565b5f62000cc282620009cb565b915062000ccf83620009cb565b925082820390508181111562000cea5762000ce962000c52565b5b92915050565b5f82825260208201905092915050565b7f42656e6566696369617279206973207a65726f206164647265737300000000005f82015250565b5f62000d36601b8362000cf0565b915062000d438262000d00565b602082019050919050565b5f6020820190508181035f83015262000d678162000d28565b9050919050565b7f416d6f756e74206973207a65726f0000000000000000000000000000000000005f82015250565b5f62000da4600e8362000cf0565b915062000db18262000d6e565b602082019050919050565b5f6020820190508181035f83015262000dd58162000d96565b9050919050565b7f416c7265616479207665737465640000000000000000000000000000000000005f82015250565b5f62000e12600e8362000cf0565b915062000e1f8262000ddc565b602082019050919050565b5f6020820190508181035f83015262000e438162000e04565b9050919050565b62000e5581620009cb565b82525050565b5f60608201905062000e705f83018662000e4a565b62000e7f602083018562000e4a565b62000e8e604083018462000e4a565b949350505050565b5f62000ea282620009cb565b915062000eaf83620009cb565b925082820190508082111562000eca5762000ec962000c52565b5b92915050565b5f60608201905062000ee55f83018662000bf9565b62000ef4602083018562000e4a565b62000f03604083018462000e4a565b949350505050565b5f60208201905062000f205f83018462000e4a565b92915050565b6138a68062000f345f395ff3fe608060405260043610610248575f3560e01c80637eb5378511610138578063c04a5414116100b5578063dd29648011610079578063dd296480146108a3578063dd62ed3e146108df578063df136d651461091b578063f2fde38b14610945578063f51ace701461096d578063f8297099146109975761024f565b8063c04a5414146107d3578063c816841b146107fd578063c8f33c9114610827578063cd3daf9d14610851578063d5aed6bf1461087b5761024f565b806396212916116100fc57806396212916146106bb57806399f7854a146106f75780639d4310ec14610733578063a694fc3a1461076f578063a9059cbb146107975761024f565b80637eb53785146105eb578063828205111461060157806385dcf86a1461062b5780638da5cb5b1461066757806395d89b41146106915761024f565b8063384711cc116101c657806370a082311161018a57806370a082311461051d578063715018a614610559578063718298a11461056f578063735de9f714610597578063771a3a1d146105c15761024f565b8063384711cc1461044f5780633d18b9121461048b57806354dd1da4146104a15780635971aa21146104b75780636985e6d8146104e15761024f565b806318160ddd1161020d57806318160ddd1461036d57806323b872dd146103975780632e1a7d4d146103d3578063313ce567146103fb57806335f53e8e146104255761024f565b80628cc26214610253578063032bbf4f1461028f57806306fdde03146102cb578063095ea7b3146102f55780631726cbc8146103315761024f565b3661024f57005b5f80fd5b34801561025e575f80fd5b5061027960048036038101906102749190612d00565b6109d3565b6040516102869190612d43565b60405180910390f35b34801561029a575f80fd5b506102b560048036038101906102b09190612d00565b610a93565b6040516102c29190612d43565b60405180910390f35b3480156102d6575f80fd5b506102df610aa8565b6040516102ec9190612de6565b60405180910390f35b348015610300575f80fd5b5061031b60048036038101906103169190612e30565b610b38565b6040516103289190612e88565b60405180910390f35b34801561033c575f80fd5b5061035760048036038101906103529190612d00565b610b5a565b6040516103649190612d43565b60405180910390f35b348015610378575f80fd5b50610381610c02565b60405161038e9190612d43565b60405180910390f35b3480156103a2575f80fd5b506103bd60048036038101906103b89190612ea1565b610c0b565b6040516103ca9190612e88565b60405180910390f35b3480156103de575f80fd5b506103f960048036038101906103f49190612ef1565b610c39565b005b348015610406575f80fd5b5061040f61102c565b60405161041c9190612f37565b60405180910390f35b348015610430575f80fd5b50610439611034565b6040516104469190612d43565b60405180910390f35b34801561045a575f80fd5b5061047560048036038101906104709190612d00565b611040565b6040516104829190612d43565b60405180910390f35b348015610496575f80fd5b5061049f611055565b005b3480156104ac575f80fd5b506104b5611121565b005b3480156104c2575f80fd5b506104cb61121e565b6040516104d89190612d43565b60405180910390f35b3480156104ec575f80fd5b5061050760048036038101906105029190612d00565b61122b565b6040516105149190612d43565b60405180910390f35b348015610528575f80fd5b50610543600480360381019061053e9190612d00565b611240565b6040516105509190612d43565b60405180910390f35b348015610564575f80fd5b5061056d611285565b005b34801561057a575f80fd5b5061059560048036038101906105909190612ef1565b611298565b005b3480156105a2575f80fd5b506105ab6113dc565b6040516105b89190612fab565b60405180910390f35b3480156105cc575f80fd5b506105d5611401565b6040516105e29190612d43565b60405180910390f35b3480156105f6575f80fd5b506105ff611407565b005b34801561060c575f80fd5b506106156115a5565b6040516106229190612d43565b60405180910390f35b348015610636575f80fd5b50610651600480360381019061064c9190612d00565b6115ab565b60405161065e9190612d43565b60405180910390f35b348015610672575f80fd5b5061067b6115c0565b6040516106889190612fd3565b60405180910390f35b34801561069c575f80fd5b506106a56115e8565b6040516106b29190612de6565b60405180910390f35b3480156106c6575f80fd5b506106e160048036038101906106dc9190612ef1565b611678565b6040516106ee9190612fd3565b60405180910390f35b348015610702575f80fd5b5061071d60048036038101906107189190612d00565b6116b3565b60405161072a9190612e88565b60405180910390f35b34801561073e575f80fd5b5061075960048036038101906107549190612d00565b6116d0565b6040516107669190612d43565b60405180910390f35b34801561077a575f80fd5b5061079560048036038101906107909190612ef1565b6117ee565b005b3480156107a2575f80fd5b506107bd60048036038101906107b89190612e30565b611b66565b6040516107ca9190612e88565b60405180910390f35b3480156107de575f80fd5b506107e7611b88565b6040516107f49190612fd3565b60405180910390f35b348015610808575f80fd5b50610811611bad565b60405161081e919061300c565b60405180910390f35b348015610832575f80fd5b5061083b611bd2565b6040516108489190612d43565b60405180910390f35b34801561085c575f80fd5b50610865611bd8565b6040516108729190612d43565b60405180910390f35b348015610886575f80fd5b506108a1600480360381019061089c9190612d00565b611c47565b005b3480156108ae575f80fd5b506108c960048036038101906108c49190612d00565b611c92565b6040516108d69190612d43565b60405180910390f35b3480156108ea575f80fd5b5061090560048036038101906109009190613025565b611ca7565b6040516109129190612d43565b60405180910390f35b348015610926575f80fd5b5061092f611d29565b60405161093c9190612d43565b60405180910390f35b348015610950575f80fd5b5061096b60048036038101906109669190612d00565b611d2f565b005b348015610978575f80fd5b50610981611db3565b60405161098e9190612d43565b60405180910390f35b3480156109a2575f80fd5b506109bd60048036038101906109b89190612d00565b612001565b6040516109ca9190612d43565b60405180910390f35b5f600c5f8373ffffffffffffffffffffffffffffffffffffffff1673ffffffffffffffffffffffffffffffffffffffff1681526020019081526020015f2054670de0b6b3a7640000601254610a26611bd8565b610a309190613090565b600c5f8673ffffffffffffffffffffffffffffffffffffffff1673ffffffffffffffffffffffffffffffffffffffff1681526020019081526020015f2054610a7891906130c3565b610a829190613131565b610a8c9190613161565b9050919050565b600e602052805f5260405f205f915090505481565b606060038054610ab7906131c1565b80601f0160208091040260200160405190810160405280929190818152602001828054610ae3906131c1565b8015610b2e5780601f10610b0557610100808354040283529160200191610b2e565b820191905f5260205f20905b815481529060010190602001808311610b1157829003601f168201915b5050505050905090565b5f80610b42612016565b9050610b4f81858561201d565b600191505092915050565b5f6301e13380600e5f8473ffffffffffffffffffffffffffffffffffffffff1673ffffffffffffffffffffffffffffffffffffffff1681526020019081526020015f205442610ba99190613090565b600f5f8573ffffffffffffffffffffffffffffffffffffffff1673ffffffffffffffffffffffffffffffffffffffff1681526020019081526020015f2054610bf191906130c3565b610bfb9190613131565b9050919050565b5f600254905090565b5f80610c15612016565b9050610c2285828561202f565b610c2d8585856120c1565b60019150509392505050565b610c4161217e565b80600c5f3373ffffffffffffffffffffffffffffffffffffffff1673ffffffffffffffffffffffffffffffffffffffff1681526020019081526020015f20541015610cc1576040517f08c379a0000000000000000000000000000000000000000000000000000000008152600401610cb89061323b565b60405180910390fd5b610cca336121cd565b80600c5f3373ffffffffffffffffffffffffffffffffffffffff1673ffffffffffffffffffffffffffffffffffffffff1681526020019081526020015f205f828254610d169190613090565b9250508190555060085f9054906101000a900473ffffffffffffffffffffffffffffffffffffffff1673ffffffffffffffffffffffffffffffffffffffff1663a9059cbb33836040518363ffffffff1660e01b8152600401610d79929190613259565b6020604051808303815f875af1158015610d95573d5f803e3d5ffd5b505050506040513d601f19601f82011682018060405250810190610db991906132aa565b505f600c5f3373ffffffffffffffffffffffffffffffffffffffff1673ffffffffffffffffffffffffffffffffffffffff1681526020019081526020015f205403610fd3575f60155f3373ffffffffffffffffffffffffffffffffffffffff1673ffffffffffffffffffffffffffffffffffffffff1681526020019081526020015f205f6101000a81548160ff0219169083151502179055505f5b601480549050811015610fd1573373ffffffffffffffffffffffffffffffffffffffff1660148281548110610e8c57610e8b6132d5565b5b905f5260205f20015f9054906101000a900473ffffffffffffffffffffffffffffffffffffffff1673ffffffffffffffffffffffffffffffffffffffff1603610fbe5760146001601480549050610ee39190613090565b81548110610ef457610ef36132d5565b5b905f5260205f20015f9054906101000a900473ffffffffffffffffffffffffffffffffffffffff1660148281548110610f3057610f2f6132d5565b5b905f5260205f20015f6101000a81548173ffffffffffffffffffffffffffffffffffffffff021916908373ffffffffffffffffffffffffffffffffffffffff1602179055506014805480610f8757610f86613302565b5b600190038181905f5260205f20015f6101000a81549073ffffffffffffffffffffffffffffffffffffffff02191690559055610fd1565b8080610fc99061332f565b915050610e54565b505b3373ffffffffffffffffffffffffffffffffffffffff167fc2c3f06e49b9f15e7b4af9055e183b0d73362e033ad82a07dec9bf9840171719826040516110199190612d43565b60405180910390a2611029612263565b50565b5f6012905090565b678ac7230489e8000081565b600f602052805f5260405f205f915090505481565b61105d61217e565b611066336121cd565b5f611070336109d3565b90505f811115611116575f600c5f3373ffffffffffffffffffffffffffffffffffffffff1673ffffffffffffffffffffffffffffffffffffffff1681526020019081526020015f20819055506110c730338361226d565b3373ffffffffffffffffffffffffffffffffffffffff167fe2403640ba68fed3a2f88b7557551d1993f84b99bb10ff833f0cf8db0c5e04868260405161110d9190612d43565b60405180910390a25b5061111f612263565b565b5f61112b33610b5a565b90505f811161116f576040517f08c379a0000000000000000000000000000000000000000000000000000000008152600401611166906133c0565b60405180910390fd5b80600f5f3373ffffffffffffffffffffffffffffffffffffffff1673ffffffffffffffffffffffffffffffffffffffff1681526020019081526020015f205f8282546111bb9190613090565b925050819055506111cd3033836120c1565b3373ffffffffffffffffffffffffffffffffffffffff167fc7798891864187665ac6dd119286e44ec13f014527aeeb2b8eb3fd413df93179826040516112139190612d43565b60405180910390a250565b68056bc75e2d6310000081565b600d602052805f5260405f205f915090505481565b5f805f8373ffffffffffffffffffffffffffffffffffffffff1673ffffffffffffffffffffffffffffffffffffffff1681526020019081526020015f20549050919050565b61128d61235d565b6112965f6123e4565b565b6112a061235d565b5f670de0b6b3a764000090506112d83060075f9054906101000a900473ffffffffffffffffffffffffffffffffffffffff168461201d565b60075f9054906101000a900473ffffffffffffffffffffffffffffffffffffffff1673ffffffffffffffffffffffffffffffffffffffff1663f305d7198230855f806113226115c0565b426040518863ffffffff1660e01b815260040161134496959493929190613417565b60606040518083038185885af1158015611360573d5f803e3d5ffd5b50505050506040513d601f19601f82011682018060405250810190611385919061348a565b5050503373ffffffffffffffffffffffffffffffffffffffff167fac1d76749e5447b7b16f5ab61447e1bd502f3bb4807af3b28e620d1700a6ee4583836040516113d09291906134da565b60405180910390a25050565b60075f9054906101000a900473ffffffffffffffffffffffffffffffffffffffff1681565b600a5481565b61140f61235d565b6011544211611453576040517f08c379a000000000000000000000000000000000000000000000000000000000815260040161144a9061354b565b60405180910390fd5b5f5b60148054905081101561159b575f60148281548110611477576114766132d5565b5b905f5260205f20015f9054906101000a900473ffffffffffffffffffffffffffffffffffffffff1690505f60105f8373ffffffffffffffffffffffffffffffffffffffff1673ffffffffffffffffffffffffffffffffffffffff1681526020019081526020015f205490505f811115611586575f60105f8473ffffffffffffffffffffffffffffffffffffffff1673ffffffffffffffffffffffffffffffffffffffff1681526020019081526020015f20819055506115373083836120c1565b8173ffffffffffffffffffffffffffffffffffffffff167ffe72567e4f43723d5f9a3a8b91484edb24388f30c47851012e52a0c2fcd73fde8260405161157d9190612d43565b60405180910390a25b505080806115939061332f565b915050611455565b5042601181905550565b60135481565b600c602052805f5260405f205f915090505481565b5f60065f9054906101000a900473ffffffffffffffffffffffffffffffffffffffff16905090565b6060600480546115f7906131c1565b80601f0160208091040260200160405190810160405280929190818152602001828054611623906131c1565b801561166e5780601f106116455761010080835404028352916020019161166e565b820191905f5260205f20905b81548152906001019060200180831161165157829003601f168201915b5050505050905090565b60148181548110611687575f80fd5b905f5260205f20015f915054906101000a900473ffffffffffffffffffffffffffffffffffffffff1681565b6015602052805f5260405f205f915054906101000a900460ff1681565b5f8060085f9054906101000a900473ffffffffffffffffffffffffffffffffffffffff1673ffffffffffffffffffffffffffffffffffffffff166370a08231846040518263ffffffff1660e01b815260040161172c9190612fd3565b602060405180830381865afa158015611747573d5f803e3d5ffd5b505050506040513d601f19601f8201168201806040525081019061176b9190613569565b90505f600d5f8573ffffffffffffffffffffffffffffffffffffffff1673ffffffffffffffffffffffffffffffffffffffff1681526020019081526020015f2054426117b79190613090565b9050670de0b6b3a764000060135482846117d191906130c3565b6117db91906130c3565b6117e59190613131565b92505050919050565b6117f661217e565b5f73ffffffffffffffffffffffffffffffffffffffff1660085f9054906101000a900473ffffffffffffffffffffffffffffffffffffffff1673ffffffffffffffffffffffffffffffffffffffff1603611885576040517f08c379a000000000000000000000000000000000000000000000000000000000815260040161187c906135de565b60405180910390fd5b5f600d5f3373ffffffffffffffffffffffffffffffffffffffff1673ffffffffffffffffffffffffffffffffffffffff1681526020019081526020015f20540361190c5742600d5f3373ffffffffffffffffffffffffffffffffffffffff1673ffffffffffffffffffffffffffffffffffffffff1681526020019081526020015f20819055505b611915336121cd565b60085f9054906101000a900473ffffffffffffffffffffffffffffffffffffffff1673ffffffffffffffffffffffffffffffffffffffff166323b872dd3330846040518463ffffffff1660e01b8152600401611973939291906135fc565b6020604051808303815f875af115801561198f573d5f803e3d5ffd5b505050506040513d601f19601f820116820180604052508101906119b391906132aa565b5080600c5f3373ffffffffffffffffffffffffffffffffffffffff1673ffffffffffffffffffffffffffffffffffffffff1681526020019081526020015f205f828254611a009190613161565b9250508190555060155f3373ffffffffffffffffffffffffffffffffffffffff1673ffffffffffffffffffffffffffffffffffffffff1681526020019081526020015f205f9054906101000a900460ff16611b0b57601433908060018154018082558091505060019003905f5260205f20015f9091909190916101000a81548173ffffffffffffffffffffffffffffffffffffffff021916908373ffffffffffffffffffffffffffffffffffffffff160217905550600160155f3373ffffffffffffffffffffffffffffffffffffffff1673ffffffffffffffffffffffffffffffffffffffff1681526020019081526020015f205f6101000a81548160ff0219169083151502179055505b3373ffffffffffffffffffffffffffffffffffffffff167fac1d76749e5447b7b16f5ab61447e1bd502f3bb4807af3b28e620d1700a6ee45825f604051611b53929190613631565b60405180910390a2611b63612263565b50565b5f80611b70612016565b9050611b7d8185856120c1565b600191505092915050565b60095f9054906101000a900473ffffffffffffffffffffffffffffffffffffffff1681565b60085f9054906101000a900473ffffffffffffffffffffffffffffffffffffffff1681565b60115481565b5f80611be2610c02565b03611bef575f9050611c44565b611bf7610c02565b670de0b6b3a7640000611c08611db3565b60115442611c169190613090565b611c2091906130c3565b611c2a91906130c3565b611c349190613131565b601254611c419190613161565b90505b90565b611c4f61235d565b8060085f6101000a81548173ffffffffffffffffffffffffffffffffffffffff021916908373ffffffffffffffffffffffffffffffffffffffff16021790555050565b600b602052805f5260405f205f915090505481565b5f60015f8473ffffffffffffffffffffffffffffffffffffffff1673ffffffffffffffffffffffffffffffffffffffff1681526020019081526020015f205f8373ffffffffffffffffffffffffffffffffffffffff1673ffffffffffffffffffffffffffffffffffffffff1681526020019081526020015f2054905092915050565b60125481565b611d3761235d565b5f73ffffffffffffffffffffffffffffffffffffffff168173ffffffffffffffffffffffffffffffffffffffff1603611da7575f6040517f1e4fbdf7000000000000000000000000000000000000000000000000000000008152600401611d9e9190612fd3565b60405180910390fd5b611db0816123e4565b50565b5f80600d5f3373ffffffffffffffffffffffffffffffffffffffff1673ffffffffffffffffffffffffffffffffffffffff1681526020019081526020015f205442611dfe9190613090565b90506213c680811015611e2b576201518068056bc75e2d63100000611e239190613131565b915050611ffe565b621d0100811015611e695762015180678ac7230489e8000068056bc75e2d63100000611e579190613090565b611e619190613131565b915050611ffe565b62263b80811015611ea857620151806801158e460913d0000068056bc75e2d63100000611e969190613090565b611ea09190613131565b915050611ffe565b622f7600811015611ee757620151806801a055690d9db8000068056bc75e2d63100000611ed59190613090565b611edf9190613131565b915050611ffe565b6238b080811015611f26576201518068022b1c8c1227a0000068056bc75e2d63100000611f149190613090565b611f1e9190613131565b915050611ffe565b6241eb00811015611f6557620151806802b5e3af16b188000068056bc75e2d63100000611f539190613090565b611f5d9190613131565b915050611ffe565b624b2580811015611fa45762015180680340aad21b3b70000068056bc75e2d63100000611f929190613090565b611f9c9190613131565b915050611ffe565b62546000811015611fe357620151806803cb71f51fc558000068056bc75e2d63100000611fd19190613090565b611fdb9190613131565b915050611ffe565b62015180678ac7230489e80000611ffa9190613131565b9150505b90565b6010602052805f5260405f205f915090505481565b5f33905090565b61202a83838360016124a7565b505050565b5f61203a8484611ca7565b90507fffffffffffffffffffffffffffffffffffffffffffffffffffffffffffffffff81146120bb57818110156120ac578281836040517ffb8f41b20000000000000000000000000000000000000000000000000000000081526004016120a393929190613658565b60405180910390fd5b6120ba84848484035f6124a7565b5b50505050565b5f6064600a54836120d291906130c3565b6120dc9190613131565b90505f81836120eb9190613090565b90505f6064604b846120fd91906130c3565b6121079190613131565b90505f81846121169190613090565b905061212387308461226d565b61214f8760095f9054906101000a900473ffffffffffffffffffffffffffffffffffffffff168361226d565b61215a87878561226d565b61216387612676565b61216c86612676565b612175826126e2565b50505050505050565b6002600554036121c3576040517f08c379a00000000000000000000000000000000000000000000000000000000081526004016121ba906136d7565b60405180910390fd5b6002600581905550565b6121d5611bd8565b601281905550426011819055505f73ffffffffffffffffffffffffffffffffffffffff168173ffffffffffffffffffffffffffffffffffffffff16146122605761221e816109d3565b600c5f8373ffffffffffffffffffffffffffffffffffffffff1673ffffffffffffffffffffffffffffffffffffffff1681526020019081526020015f20819055505b50565b6001600581905550565b5f73ffffffffffffffffffffffffffffffffffffffff168373ffffffffffffffffffffffffffffffffffffffff16036122dd575f6040517f96c6fd1e0000000000000000000000000000000000000000000000000000000081526004016122d49190612fd3565b60405180910390fd5b5f73ffffffffffffffffffffffffffffffffffffffff168273ffffffffffffffffffffffffffffffffffffffff160361234d575f6040517fec442f050000000000000000000000000000000000000000000000000000000081526004016123449190612fd3565b60405180910390fd5b612358838383612909565b505050565b612365612016565b73ffffffffffffffffffffffffffffffffffffffff166123836115c0565b73ffffffffffffffffffffffffffffffffffffffff16146123e2576123a6612016565b6040517f118cdaa70000000000000000000000000000000000000000000000000000000081526004016123d99190612fd3565b60405180910390fd5b565b5f60065f9054906101000a900473ffffffffffffffffffffffffffffffffffffffff1690508160065f6101000a81548173ffffffffffffffffffffffffffffffffffffffff021916908373ffffffffffffffffffffffffffffffffffffffff1602179055508173ffffffffffffffffffffffffffffffffffffffff168173ffffffffffffffffffffffffffffffffffffffff167f8be0079c531659141344cd1fd0a4f28419497f9722a3daafe3b4186f6b6457e060405160405180910390a35050565b5f73ffffffffffffffffffffffffffffffffffffffff168473ffffffffffffffffffffffffffffffffffffffff1603612517575f6040517fe602df0500000000000000000000000000000000000000000000000000000000815260040161250e9190612fd3565b60405180910390fd5b5f73ffffffffffffffffffffffffffffffffffffffff168373ffffffffffffffffffffffffffffffffffffffff1603612587575f6040517f94280d6200000000000000000000000000000000000000000000000000000000815260040161257e9190612fd3565b60405180910390fd5b8160015f8673ffffffffffffffffffffffffffffffffffffffff1673ffffffffffffffffffffffffffffffffffffffff1681526020019081526020015f205f8573ffffffffffffffffffffffffffffffffffffffff1673ffffffffffffffffffffffffffffffffffffffff1681526020019081526020015f20819055508015612670578273ffffffffffffffffffffffffffffffffffffffff168473ffffffffffffffffffffffffffffffffffffffff167f8c5be1e5ebec7d5bd14f71427d1e84f3dd0314c0f7b2291e5b200ac8c7c3b925846040516126679190612d43565b60405180910390a35b50505050565b5f612680826116d0565b90505f8111156126de578060105f8473ffffffffffffffffffffffffffffffffffffffff1673ffffffffffffffffffffffffffffffffffffffff1681526020019081526020015f205f8282546126d69190613161565b925050819055505b5050565b5f6002826126f09190613131565b90505f81836126ff9190613090565b90505f4790506127313060075f9054906101000a900473ffffffffffffffffffffffffffffffffffffffff168561201d565b60075f9054906101000a900473ffffffffffffffffffffffffffffffffffffffff1673ffffffffffffffffffffffffffffffffffffffff1663791ac947845f612778612b22565b30426040518663ffffffff1660e01b815260040161279a9594939291906137ac565b5f604051808303815f87803b1580156127b1575f80fd5b505af11580156127c3573d5f803e3d5ffd5b505050505f81476127d49190613090565b90506128023060075f9054906101000a900473ffffffffffffffffffffffffffffffffffffffff168561201d565b60075f9054906101000a900473ffffffffffffffffffffffffffffffffffffffff1673ffffffffffffffffffffffffffffffffffffffff1663f305d7198230865f8061284c6115c0565b426040518863ffffffff1660e01b815260040161286e96959493929190613417565b60606040518083038185885af115801561288a573d5f803e3d5ffd5b50505050506040513d601f19601f820116820180604052508101906128af919061348a565b5050503073ffffffffffffffffffffffffffffffffffffffff167fac1d76749e5447b7b16f5ab61447e1bd502f3bb4807af3b28e620d1700a6ee4584836040516128fa9291906134da565b60405180910390a25050505050565b5f73ffffffffffffffffffffffffffffffffffffffff168373ffffffffffffffffffffffffffffffffffffffff1603612959578060025f82825461294d9190613161565b92505081905550612a27565b5f805f8573ffffffffffffffffffffffffffffffffffffffff1673ffffffffffffffffffffffffffffffffffffffff1681526020019081526020015f20549050818110156129e2578381836040517fe450d38c0000000000000000000000000000000000000000000000000000000081526004016129d993929190613658565b60405180910390fd5b8181035f808673ffffffffffffffffffffffffffffffffffffffff1673ffffffffffffffffffffffffffffffffffffffff1681526020019081526020015f2081905550505b5f73ffffffffffffffffffffffffffffffffffffffff168273ffffffffffffffffffffffffffffffffffffffff1603612a6e578060025f8282540392505081905550612ab8565b805f808473ffffffffffffffffffffffffffffffffffffffff1673ffffffffffffffffffffffffffffffffffffffff1681526020019081526020015f205f82825401925050819055505b8173ffffffffffffffffffffffffffffffffffffffff168373ffffffffffffffffffffffffffffffffffffffff167fddf252ad1be2c89b69c2b068fc378daa952ba7f163c4a11628f55a4df523b3ef83604051612b159190612d43565b60405180910390a3505050565b60605f600267ffffffffffffffff811115612b4057612b3f613804565b5b604051908082528060200260200182016040528015612b6e5781602001602082028036833780820191505090505b50905030815f81518110612b8557612b846132d5565b5b602002602001019073ffffffffffffffffffffffffffffffffffffffff16908173ffffffffffffffffffffffffffffffffffffffff168152505060075f9054906101000a900473ffffffffffffffffffffffffffffffffffffffff1673ffffffffffffffffffffffffffffffffffffffff1663ad5c46486040518163ffffffff1660e01b8152600401602060405180830381865afa158015612c29573d5f803e3d5ffd5b505050506040513d601f19601f82011682018060405250810190612c4d9190613845565b81600181518110612c6157612c606132d5565b5b602002602001019073ffffffffffffffffffffffffffffffffffffffff16908173ffffffffffffffffffffffffffffffffffffffff16815250508091505090565b5f80fd5b5f73ffffffffffffffffffffffffffffffffffffffff82169050919050565b5f612ccf82612ca6565b9050919050565b612cdf81612cc5565b8114612ce9575f80fd5b50565b5f81359050612cfa81612cd6565b92915050565b5f60208284031215612d1557612d14612ca2565b5b5f612d2284828501612cec565b91505092915050565b5f819050919050565b612d3d81612d2b565b82525050565b5f602082019050612d565f830184612d34565b92915050565b5f81519050919050565b5f82825260208201905092915050565b5f5b83811015612d93578082015181840152602081019050612d78565b5f8484015250505050565b5f601f19601f8301169050919050565b5f612db882612d5c565b612dc28185612d66565b9350612dd2818560208601612d76565b612ddb81612d9e565b840191505092915050565b5f6020820190508181035f830152612dfe8184612dae565b905092915050565b612e0f81612d2b565b8114612e19575f80fd5b50565b5f81359050612e2a81612e06565b92915050565b5f8060408385031215612e4657612e45612ca2565b5b5f612e5385828601612cec565b9250506020612e6485828601612e1c565b9150509250929050565b5f8115159050919050565b612e8281612e6e565b82525050565b5f602082019050612e9b5f830184612e79565b92915050565b5f805f60608486031215612eb857612eb7612ca2565b5b5f612ec586828701612cec565b9350506020612ed686828701612cec565b9250506040612ee786828701612e1c565b9150509250925092565b5f60208284031215612f0657612f05612ca2565b5b5f612f1384828501612e1c565b91505092915050565b5f60ff82169050919050565b612f3181612f1c565b82525050565b5f602082019050612f4a5f830184612f28565b92915050565b5f819050919050565b5f612f73612f6e612f6984612ca6565b612f50565b612ca6565b9050919050565b5f612f8482612f59565b9050919050565b5f612f9582612f7a565b9050919050565b612fa581612f8b565b82525050565b5f602082019050612fbe5f830184612f9c565b92915050565b612fcd81612cc5565b82525050565b5f602082019050612fe65f830184612fc4565b92915050565b5f612ff682612f7a565b9050919050565b61300681612fec565b82525050565b5f60208201905061301f5f830184612ffd565b92915050565b5f806040838503121561303b5761303a612ca2565b5b5f61304885828601612cec565b925050602061305985828601612cec565b9150509250929050565b7f4e487b71000000000000000000000000000000000000000000000000000000005f52601160045260245ffd5b5f61309a82612d2b565b91506130a583612d2b565b92508282039050818111156130bd576130bc613063565b5b92915050565b5f6130cd82612d2b565b91506130d883612d2b565b92508282026130e681612d2b565b915082820484148315176130fd576130fc613063565b5b5092915050565b7f4e487b71000000000000000000000000000000000000000000000000000000005f52601260045260245ffd5b5f61313b82612d2b565b915061314683612d2b565b92508261315657613155613104565b5b828204905092915050565b5f61316b82612d2b565b915061317683612d2b565b925082820190508082111561318e5761318d613063565b5b92915050565b7f4e487b71000000000000000000000000000000000000000000000000000000005f52602260045260245ffd5b5f60028204905060018216806131d857607f821691505b6020821081036131eb576131ea613194565b5b50919050565b7f576974686472617720616d6f756e7420657863656564732062616c616e6365005f82015250565b5f613225601f83612d66565b9150613230826131f1565b602082019050919050565b5f6020820190508181035f83015261325281613219565b9050919050565b5f60408201905061326c5f830185612fc4565b6132796020830184612d34565b9392505050565b61328981612e6e565b8114613293575f80fd5b50565b5f815190506132a481613280565b92915050565b5f602082840312156132bf576132be612ca2565b5b5f6132cc84828501613296565b91505092915050565b7f4e487b71000000000000000000000000000000000000000000000000000000005f52603260045260245ffd5b7f4e487b71000000000000000000000000000000000000000000000000000000005f52603160045260245ffd5b5f61333982612d2b565b91507fffffffffffffffffffffffffffffffffffffffffffffffffffffffffffffffff820361336b5761336a613063565b5b600182019050919050565b7f4e6f20746f6b656e7320746f2072656c656173650000000000000000000000005f82015250565b5f6133aa601483612d66565b91506133b582613376565b602082019050919050565b5f6020820190508181035f8301526133d78161339e565b9050919050565b5f819050919050565b5f6134016133fc6133f7846133de565b612f50565b612d2b565b9050919050565b613411816133e7565b82525050565b5f60c08201905061342a5f830189612fc4565b6134376020830188612d34565b6134446040830187613408565b6134516060830186613408565b61345e6080830185612fc4565b61346b60a0830184612d34565b979650505050505050565b5f8151905061348481612e06565b92915050565b5f805f606084860312156134a1576134a0612ca2565b5b5f6134ae86828701613476565b93505060206134bf86828701613476565b92505060406134d086828701613476565b9150509250925092565b5f6040820190506134ed5f830185612d34565b6134fa6020830184612d34565b9392505050565b7f43616e6e6f7420646973747269627574652072657761726473207965740000005f82015250565b5f613535601d83612d66565b915061354082613501565b602082019050919050565b5f6020820190508181035f83015261356281613529565b9050919050565b5f6020828403121561357e5761357d612ca2565b5b5f61358b84828501613476565b91505092915050565b7f556e69737761702070616972206e6f74207365740000000000000000000000005f82015250565b5f6135c8601483612d66565b91506135d382613594565b602082019050919050565b5f6020820190508181035f8301526135f5816135bc565b9050919050565b5f60608201905061360f5f830186612fc4565b61361c6020830185612fc4565b6136296040830184612d34565b949350505050565b5f6040820190506136445f830185612d34565b6136516020830184613408565b9392505050565b5f60608201905061366b5f830186612fc4565b6136786020830185612d34565b6136856040830184612d34565b949350505050565b7f5265656e7472616e637947756172643a207265656e7472616e742063616c6c005f82015250565b5f6136c1601f83612d66565b91506136cc8261368d565b602082019050919050565b5f6020820190508181035f8301526136ee816136b5565b9050919050565b5f81519050919050565b5f82825260208201905092915050565b5f819050602082019050919050565b61372781612cc5565b82525050565b5f613738838361371e565b60208301905092915050565b5f602082019050919050565b5f61375a826136f5565b61376481856136ff565b935061376f8361370f565b805f5b8381101561379f578151613786888261372d565b975061379183613744565b925050600181019050613772565b5085935050505092915050565b5f60a0820190506137bf5f830188612d34565b6137cc6020830187613408565b81810360408301526137de8186613750565b90506137ed6060830185612fc4565b6137fa6080830184612d34565b9695505050505050565b7f4e487b71000000000000000000000000000000000000000000000000000000005f52604160045260245ffd5b5f8151905061383f81612cd6565b92915050565b5f6020828403121561385a57613859612ca2565b5b5f61386784828501613831565b9150509291505056fea2646970667358221220e8fc3d9fd1f7890a636d0baa6f0e74455a5ac6c3234e97189fe632a35db3779a64736f6c63430008140033",
					"opcodes": "PUSH1 0x80 PUSH1 0x40 MSTORE PUSH1 0x4 PUSH1 0xA SSTORE PUSH8 0x8AC7230489E80000 PUSH1 0x13 SSTORE CALLVALUE DUP1 ISZERO PUSH3 0x21 JUMPI PUSH0 DUP1 REVERT JUMPDEST POP PUSH1 0x40 MLOAD PUSH3 0x47DA CODESIZE SUB DUP1 PUSH3 0x47DA DUP4 CODECOPY DUP2 DUP2 ADD PUSH1 0x40 MSTORE DUP2 ADD SWAP1 PUSH3 0x47 SWAP2 SWAP1 PUSH3 0x86C JUMP JUMPDEST CALLER PUSH1 0x40 MLOAD DUP1 PUSH1 0x40 ADD PUSH1 0x40 MSTORE DUP1 PUSH1 0x9 DUP2 MSTORE PUSH1 0x20 ADD PUSH32 0x4F43544F204C6162730000000000000000000000000000000000000000000000 DUP2 MSTORE POP PUSH1 0x40 MLOAD DUP1 PUSH1 0x40 ADD PUSH1 0x40 MSTORE DUP1 PUSH1 0x4 DUP2 MSTORE PUSH1 0x20 ADD PUSH32 0x4F43544F00000000000000000000000000000000000000000000000000000000 DUP2 MSTORE POP DUP2 PUSH1 0x3 SWAP1 DUP2 PUSH3 0xC5 SWAP2 SWAP1 PUSH3 0xB15 JUMP JUMPDEST POP DUP1 PUSH1 0x4 SWAP1 DUP2 PUSH3 0xD7 SWAP2 SWAP1 PUSH3 0xB15 JUMP JUMPDEST POP POP POP PUSH1 0x1 PUSH1 0x5 DUP2 SWAP1 SSTORE POP PUSH0 PUSH20 0xFFFFFFFFFFFFFFFFFFFFFFFFFFFFFFFFFFFFFFFF AND DUP2 PUSH20 0xFFFFFFFFFFFFFFFFFFFFFFFFFFFFFFFFFFFFFFFF AND SUB PUSH3 0x155 JUMPI PUSH0 PUSH1 0x40 MLOAD PUSH32 0x1E4FBDF700000000000000000000000000000000000000000000000000000000 DUP2 MSTORE PUSH1 0x4 ADD PUSH3 0x14C SWAP2 SWAP1 PUSH3 0xC0A JUMP JUMPDEST PUSH1 0x40 MLOAD DUP1 SWAP2 SUB SWAP1 REVERT JUMPDEST PUSH3 0x166 DUP2 PUSH3 0x280 PUSH1 0x20 SHL PUSH1 0x20 SHR JUMP JUMPDEST POP DUP1 PUSH1 0x9 PUSH0 PUSH2 0x100 EXP DUP2 SLOAD DUP2 PUSH20 0xFFFFFFFFFFFFFFFFFFFFFFFFFFFFFFFFFFFFFFFF MUL NOT AND SWAP1 DUP4 PUSH20 0xFFFFFFFFFFFFFFFFFFFFFFFFFFFFFFFFFFFFFFFF AND MUL OR SWAP1 SSTORE POP DUP2 PUSH1 0x7 PUSH0 PUSH2 0x100 EXP DUP2 SLOAD DUP2 PUSH20 0xFFFFFFFFFFFFFFFFFFFFFFFFFFFFFFFFFFFFFFFF MUL NOT AND SWAP1 DUP4 PUSH20 0xFFFFFFFFFFFFFFFFFFFFFFFFFFFFFFFFFFFFFFFF AND MUL OR SWAP1 SSTORE POP PUSH0 PUSH10 0xD3C21BCECCEDA1000000 SWAP1 POP PUSH0 PUSH1 0x5 DUP3 PUSH3 0x205 SWAP2 SWAP1 PUSH3 0xC7F JUMP JUMPDEST SWAP1 POP PUSH0 DUP2 DUP4 PUSH3 0x216 SWAP2 SWAP1 PUSH3 0xCB6 JUMP JUMPDEST SWAP1 POP PUSH3 0x22A ADDRESS DUP4 PUSH3 0x343 PUSH1 0x20 SHL PUSH1 0x20 SHR JUMP JUMPDEST PUSH3 0x23C CALLER DUP3 PUSH3 0x343 PUSH1 0x20 SHL PUSH1 0x20 SHR JUMP JUMPDEST PUSH3 0x275 PUSH1 0x9 PUSH0 SWAP1 SLOAD SWAP1 PUSH2 0x100 EXP SWAP1 DIV PUSH20 0xFFFFFFFFFFFFFFFFFFFFFFFFFFFFFFFFFFFFFFFF AND DUP4 TIMESTAMP PUSH4 0x1E13380 PUSH3 0x3CD PUSH1 0x20 SHL PUSH1 0x20 SHR JUMP JUMPDEST POP POP POP POP POP PUSH3 0xF26 JUMP JUMPDEST PUSH0 PUSH1 0x6 PUSH0 SWAP1 SLOAD SWAP1 PUSH2 0x100 EXP SWAP1 DIV PUSH20 0xFFFFFFFFFFFFFFFFFFFFFFFFFFFFFFFFFFFFFFFF AND SWAP1 POP DUP2 PUSH1 0x6 PUSH0 PUSH2 0x100 EXP DUP2 SLOAD DUP2 PUSH20 0xFFFFFFFFFFFFFFFFFFFFFFFFFFFFFFFFFFFFFFFF MUL NOT AND SWAP1 DUP4 PUSH20 0xFFFFFFFFFFFFFFFFFFFFFFFFFFFFFFFFFFFFFFFF AND MUL OR SWAP1 SSTORE POP DUP2 PUSH20 0xFFFFFFFFFFFFFFFFFFFFFFFFFFFFFFFFFFFFFFFF AND DUP2 PUSH20 0xFFFFFFFFFFFFFFFFFFFFFFFFFFFFFFFFFFFFFFFF AND PUSH32 0x8BE0079C531659141344CD1FD0A4F28419497F9722A3DAAFE3B4186F6B6457E0 PUSH1 0x40 MLOAD PUSH1 0x40 MLOAD DUP1 SWAP2 SUB SWAP1 LOG3 POP POP JUMP JUMPDEST PUSH0 PUSH20 0xFFFFFFFFFFFFFFFFFFFFFFFFFFFFFFFFFFFFFFFF AND DUP3 PUSH20 0xFFFFFFFFFFFFFFFFFFFFFFFFFFFFFFFFFFFFFFFF AND SUB PUSH3 0x3B6 JUMPI PUSH0 PUSH1 0x40 MLOAD PUSH32 0xEC442F0500000000000000000000000000000000000000000000000000000000 DUP2 MSTORE PUSH1 0x4 ADD PUSH3 0x3AD SWAP2 SWAP1 PUSH3 0xC0A JUMP JUMPDEST PUSH1 0x40 MLOAD DUP1 SWAP2 SUB SWAP1 REVERT JUMPDEST PUSH3 0x3C9 PUSH0 DUP4 DUP4 PUSH3 0x5E3 PUSH1 0x20 SHL PUSH1 0x20 SHR JUMP JUMPDEST POP POP JUMP JUMPDEST PUSH0 PUSH20 0xFFFFFFFFFFFFFFFFFFFFFFFFFFFFFFFFFFFFFFFF AND DUP5 PUSH20 0xFFFFFFFFFFFFFFFFFFFFFFFFFFFFFFFFFFFFFFFF AND SUB PUSH3 0x43E JUMPI PUSH1 0x40 MLOAD PUSH32 0x8C379A000000000000000000000000000000000000000000000000000000000 DUP2 MSTORE PUSH1 0x4 ADD PUSH3 0x435 SWAP1 PUSH3 0xD4E JUMP JUMPDEST PUSH1 0x40 MLOAD DUP1 SWAP2 SUB SWAP1 REVERT JUMPDEST PUSH0 DUP4 GT PUSH3 0x483 JUMPI PUSH1 0x40 MLOAD PUSH32 0x8C379A000000000000000000000000000000000000000000000000000000000 DUP2 MSTORE PUSH1 0x4 ADD PUSH3 0x47A SWAP1 PUSH3 0xDBC JUMP JUMPDEST PUSH1 0x40 MLOAD DUP1 SWAP2 SUB SWAP1 REVERT JUMPDEST PUSH0 PUSH1 0xE PUSH0 DUP7 PUSH20 0xFFFFFFFFFFFFFFFFFFFFFFFFFFFFFFFFFFFFFFFF AND PUSH20 0xFFFFFFFFFFFFFFFFFFFFFFFFFFFFFFFFFFFFFFFF AND DUP2 MSTORE PUSH1 0x20 ADD SWAP1 DUP2 MSTORE PUSH1 0x20 ADD PUSH0 KECCAK256 SLOAD EQ PUSH3 0x505 JUMPI PUSH1 0x40 MLOAD PUSH32 0x8C379A000000000000000000000000000000000000000000000000000000000 DUP2 MSTORE PUSH1 0x4 ADD PUSH3 0x4FC SWAP1 PUSH3 0xE2A JUMP JUMPDEST PUSH1 0x40 MLOAD DUP1 SWAP2 SUB SWAP1 REVERT JUMPDEST DUP3 PUSH1 0xF PUSH0 DUP7 PUSH20 0xFFFFFFFFFFFFFFFFFFFFFFFFFFFFFFFFFFFFFFFF AND PUSH20 0xFFFFFFFFFFFFFFFFFFFFFFFFFFFFFFFFFFFFFFFF AND DUP2 MSTORE PUSH1 0x20 ADD SWAP1 DUP2 MSTORE PUSH1 0x20 ADD PUSH0 KECCAK256 DUP2 SWAP1 SSTORE POP DUP2 PUSH1 0xE PUSH0 DUP7 PUSH20 0xFFFFFFFFFFFFFFFFFFFFFFFFFFFFFFFFFFFFFFFF AND PUSH20 0xFFFFFFFFFFFFFFFFFFFFFFFFFFFFFFFFFFFFFFFF AND DUP2 MSTORE PUSH1 0x20 ADD SWAP1 DUP2 MSTORE PUSH1 0x20 ADD PUSH0 KECCAK256 DUP2 SWAP1 SSTORE POP DUP4 PUSH20 0xFFFFFFFFFFFFFFFFFFFFFFFFFFFFFFFFFFFFFFFF AND PUSH32 0xCF204CE1B55772BFA423F3F0C5D9A2CFE3197A5110073875F0B9C7DD3538C7D6 DUP5 DUP5 DUP5 PUSH1 0x40 MLOAD PUSH3 0x5D5 SWAP4 SWAP3 SWAP2 SWAP1 PUSH3 0xE5B JUMP JUMPDEST PUSH1 0x40 MLOAD DUP1 SWAP2 SUB SWAP1 LOG2 POP POP POP POP JUMP JUMPDEST PUSH0 PUSH20 0xFFFFFFFFFFFFFFFFFFFFFFFFFFFFFFFFFFFFFFFF AND DUP4 PUSH20 0xFFFFFFFFFFFFFFFFFFFFFFFFFFFFFFFFFFFFFFFF AND SUB PUSH3 0x637 JUMPI DUP1 PUSH1 0x2 PUSH0 DUP3 DUP3 SLOAD PUSH3 0x62A SWAP2 SWAP1 PUSH3 0xE96 JUMP JUMPDEST SWAP3 POP POP DUP2 SWAP1 SSTORE POP PUSH3 0x708 JUMP JUMPDEST PUSH0 DUP1 PUSH0 DUP6 PUSH20 0xFFFFFFFFFFFFFFFFFFFFFFFFFFFFFFFFFFFFFFFF AND PUSH20 0xFFFFFFFFFFFFFFFFFFFFFFFFFFFFFFFFFFFFFFFF AND DUP2 MSTORE PUSH1 0x20 ADD SWAP1 DUP2 MSTORE PUSH1 0x20 ADD PUSH0 KECCAK256 SLOAD SWAP1 POP DUP2 DUP2 LT ISZERO PUSH3 0x6C3 JUMPI DUP4 DUP2 DUP4 PUSH1 0x40 MLOAD PUSH32 0xE450D38C00000000000000000000000000000000000000000000000000000000 DUP2 MSTORE PUSH1 0x4 ADD PUSH3 0x6BA SWAP4 SWAP3 SWAP2 SWAP1 PUSH3 0xED0 JUMP JUMPDEST PUSH1 0x40 MLOAD DUP1 SWAP2 SUB SWAP1 REVERT JUMPDEST DUP2 DUP2 SUB PUSH0 DUP1 DUP7 PUSH20 0xFFFFFFFFFFFFFFFFFFFFFFFFFFFFFFFFFFFFFFFF AND PUSH20 0xFFFFFFFFFFFFFFFFFFFFFFFFFFFFFFFFFFFFFFFF AND DUP2 MSTORE PUSH1 0x20 ADD SWAP1 DUP2 MSTORE PUSH1 0x20 ADD PUSH0 KECCAK256 DUP2 SWAP1 SSTORE POP POP JUMPDEST PUSH0 PUSH20 0xFFFFFFFFFFFFFFFFFFFFFFFFFFFFFFFFFFFFFFFF AND DUP3 PUSH20 0xFFFFFFFFFFFFFFFFFFFFFFFFFFFFFFFFFFFFFFFF AND SUB PUSH3 0x751 JUMPI DUP1 PUSH1 0x2 PUSH0 DUP3 DUP3 SLOAD SUB SWAP3 POP POP DUP2 SWAP1 SSTORE POP PUSH3 0x79B JUMP JUMPDEST DUP1 PUSH0 DUP1 DUP5 PUSH20 0xFFFFFFFFFFFFFFFFFFFFFFFFFFFFFFFFFFFFFFFF AND PUSH20 0xFFFFFFFFFFFFFFFFFFFFFFFFFFFFFFFFFFFFFFFF AND DUP2 MSTORE PUSH1 0x20 ADD SWAP1 DUP2 MSTORE PUSH1 0x20 ADD PUSH0 KECCAK256 PUSH0 DUP3 DUP3 SLOAD ADD SWAP3 POP POP DUP2 SWAP1 SSTORE POP JUMPDEST DUP2 PUSH20 0xFFFFFFFFFFFFFFFFFFFFFFFFFFFFFFFFFFFFFFFF AND DUP4 PUSH20 0xFFFFFFFFFFFFFFFFFFFFFFFFFFFFFFFFFFFFFFFF AND PUSH32 0xDDF252AD1BE2C89B69C2B068FC378DAA952BA7F163C4A11628F55A4DF523B3EF DUP4 PUSH1 0x40 MLOAD PUSH3 0x7FA SWAP2 SWAP1 PUSH3 0xF0B JUMP JUMPDEST PUSH1 0x40 MLOAD DUP1 SWAP2 SUB SWAP1 LOG3 POP POP POP JUMP JUMPDEST PUSH0 DUP1 REVERT JUMPDEST PUSH0 PUSH20 0xFFFFFFFFFFFFFFFFFFFFFFFFFFFFFFFFFFFFFFFF DUP3 AND SWAP1 POP SWAP2 SWAP1 POP JUMP JUMPDEST PUSH0 PUSH3 0x836 DUP3 PUSH3 0x80B JUMP JUMPDEST SWAP1 POP SWAP2 SWAP1 POP JUMP JUMPDEST PUSH3 0x848 DUP2 PUSH3 0x82A JUMP JUMPDEST DUP2 EQ PUSH3 0x853 JUMPI PUSH0 DUP1 REVERT JUMPDEST POP JUMP JUMPDEST PUSH0 DUP2 MLOAD SWAP1 POP PUSH3 0x866 DUP2 PUSH3 0x83D JUMP JUMPDEST SWAP3 SWAP2 POP POP JUMP JUMPDEST PUSH0 DUP1 PUSH1 0x40 DUP4 DUP6 SUB SLT ISZERO PUSH3 0x885 JUMPI PUSH3 0x884 PUSH3 0x807 JUMP JUMPDEST JUMPDEST PUSH0 PUSH3 0x894 DUP6 DUP3 DUP7 ADD PUSH3 0x856 JUMP JUMPDEST SWAP3 POP POP PUSH1 0x20 PUSH3 0x8A7 DUP6 DUP3 DUP7 ADD PUSH3 0x856 JUMP JUMPDEST SWAP2 POP POP SWAP3 POP SWAP3 SWAP1 POP JUMP JUMPDEST PUSH0 DUP2 MLOAD SWAP1 POP SWAP2 SWAP1 POP JUMP JUMPDEST PUSH32 0x4E487B7100000000000000000000000000000000000000000000000000000000 PUSH0 MSTORE PUSH1 0x41 PUSH1 0x4 MSTORE PUSH1 0x24 PUSH0 REVERT JUMPDEST PUSH32 0x4E487B7100000000000000000000000000000000000000000000000000000000 PUSH0 MSTORE PUSH1 0x22 PUSH1 0x4 MSTORE PUSH1 0x24 PUSH0 REVERT JUMPDEST PUSH0 PUSH1 0x2 DUP3 DIV SWAP1 POP PUSH1 0x1 DUP3 AND DUP1 PUSH3 0x92D JUMPI PUSH1 0x7F DUP3 AND SWAP2 POP JUMPDEST PUSH1 0x20 DUP3 LT DUP2 SUB PUSH3 0x943 JUMPI PUSH3 0x942 PUSH3 0x8E8 JUMP JUMPDEST JUMPDEST POP SWAP2 SWAP1 POP JUMP JUMPDEST PUSH0 DUP2 SWAP1 POP DUP2 PUSH0 MSTORE PUSH1 0x20 PUSH0 KECCAK256 SWAP1 POP SWAP2 SWAP1 POP JUMP JUMPDEST PUSH0 PUSH1 0x20 PUSH1 0x1F DUP4 ADD DIV SWAP1 POP SWAP2 SWAP1 POP JUMP JUMPDEST PUSH0 DUP3 DUP3 SHL SWAP1 POP SWAP3 SWAP2 POP POP JUMP JUMPDEST PUSH0 PUSH1 0x8 DUP4 MUL PUSH3 0x9A7 PUSH32 0xFFFFFFFFFFFFFFFFFFFFFFFFFFFFFFFFFFFFFFFFFFFFFFFFFFFFFFFFFFFFFFFF DUP3 PUSH3 0x96A JUMP JUMPDEST PUSH3 0x9B3 DUP7 DUP4 PUSH3 0x96A JUMP JUMPDEST SWAP6 POP DUP1 NOT DUP5 AND SWAP4 POP DUP1 DUP7 AND DUP5 OR SWAP3 POP POP POP SWAP4 SWAP3 POP POP POP JUMP JUMPDEST PUSH0 DUP2 SWAP1 POP SWAP2 SWAP1 POP JUMP JUMPDEST PUSH0 DUP2 SWAP1 POP SWAP2 SWAP1 POP JUMP JUMPDEST PUSH0 PUSH3 0x9FD PUSH3 0x9F7 PUSH3 0x9F1 DUP5 PUSH3 0x9CB JUMP JUMPDEST PUSH3 0x9D4 JUMP JUMPDEST PUSH3 0x9CB JUMP JUMPDEST SWAP1 POP SWAP2 SWAP1 POP JUMP JUMPDEST PUSH0 DUP2 SWAP1 POP SWAP2 SWAP1 POP JUMP JUMPDEST PUSH3 0xA18 DUP4 PUSH3 0x9DD JUMP JUMPDEST PUSH3 0xA30 PUSH3 0xA27 DUP3 PUSH3 0xA04 JUMP JUMPDEST DUP5 DUP5 SLOAD PUSH3 0x976 JUMP JUMPDEST DUP3 SSTORE POP POP POP POP JUMP JUMPDEST PUSH0 SWAP1 JUMP JUMPDEST PUSH3 0xA46 PUSH3 0xA38 JUMP JUMPDEST PUSH3 0xA53 DUP2 DUP5 DUP5 PUSH3 0xA0D JUMP JUMPDEST POP POP POP JUMP JUMPDEST JUMPDEST DUP2 DUP2 LT ISZERO PUSH3 0xA7A JUMPI PUSH3 0xA6E PUSH0 DUP3 PUSH3 0xA3C JUMP JUMPDEST PUSH1 0x1 DUP2 ADD SWAP1 POP PUSH3 0xA59 JUMP JUMPDEST POP POP JUMP JUMPDEST PUSH1 0x1F DUP3 GT ISZERO PUSH3 0xAC9 JUMPI PUSH3 0xA93 DUP2 PUSH3 0x949 JUMP JUMPDEST PUSH3 0xA9E DUP5 PUSH3 0x95B JUMP JUMPDEST DUP2 ADD PUSH1 0x20 DUP6 LT ISZERO PUSH3 0xAAE JUMPI DUP2 SWAP1 POP JUMPDEST PUSH3 0xAC6 PUSH3 0xABD DUP6 PUSH3 0x95B JUMP JUMPDEST DUP4 ADD DUP3 PUSH3 0xA58 JUMP JUMPDEST POP POP JUMPDEST POP POP POP JUMP JUMPDEST PUSH0 DUP3 DUP3 SHR SWAP1 POP SWAP3 SWAP2 POP POP JUMP JUMPDEST PUSH0 PUSH3 0xAEB PUSH0 NOT DUP5 PUSH1 0x8 MUL PUSH3 0xACE JUMP JUMPDEST NOT DUP1 DUP4 AND SWAP2 POP POP SWAP3 SWAP2 POP POP JUMP JUMPDEST PUSH0 PUSH3 0xB05 DUP4 DUP4 PUSH3 0xADA JUMP JUMPDEST SWAP2 POP DUP3 PUSH1 0x2 MUL DUP3 OR SWAP1 POP SWAP3 SWAP2 POP POP JUMP JUMPDEST PUSH3 0xB20 DUP3 PUSH3 0x8B1 JUMP JUMPDEST PUSH8 0xFFFFFFFFFFFFFFFF DUP2 GT ISZERO PUSH3 0xB3C JUMPI PUSH3 0xB3B PUSH3 0x8BB JUMP JUMPDEST JUMPDEST PUSH3 0xB48 DUP3 SLOAD PUSH3 0x915 JUMP JUMPDEST PUSH3 0xB55 DUP3 DUP3 DUP6 PUSH3 0xA7E JUMP JUMPDEST PUSH0 PUSH1 0x20 SWAP1 POP PUSH1 0x1F DUP4 GT PUSH1 0x1 DUP2 EQ PUSH3 0xB8B JUMPI PUSH0 DUP5 ISZERO PUSH3 0xB76 JUMPI DUP3 DUP8 ADD MLOAD SWAP1 POP JUMPDEST PUSH3 0xB82 DUP6 DUP3 PUSH3 0xAF8 JUMP JUMPDEST DUP7 SSTORE POP PUSH3 0xBF1 JUMP JUMPDEST PUSH1 0x1F NOT DUP5 AND PUSH3 0xB9B DUP7 PUSH3 0x949 JUMP JUMPDEST PUSH0 JUMPDEST DUP3 DUP2 LT ISZERO PUSH3 0xBC4 JUMPI DUP5 DUP10 ADD MLOAD DUP3 SSTORE PUSH1 0x1 DUP3 ADD SWAP2 POP PUSH1 0x20 DUP6 ADD SWAP5 POP PUSH1 0x20 DUP2 ADD SWAP1 POP PUSH3 0xB9D JUMP JUMPDEST DUP7 DUP4 LT ISZERO PUSH3 0xBE4 JUMPI DUP5 DUP10 ADD MLOAD PUSH3 0xBE0 PUSH1 0x1F DUP10 AND DUP3 PUSH3 0xADA JUMP JUMPDEST DUP4 SSTORE POP JUMPDEST PUSH1 0x1 PUSH1 0x2 DUP9 MUL ADD DUP9 SSTORE POP POP POP JUMPDEST POP POP POP POP POP POP JUMP JUMPDEST PUSH3 0xC04 DUP2 PUSH3 0x82A JUMP JUMPDEST DUP3 MSTORE POP POP JUMP JUMPDEST PUSH0 PUSH1 0x20 DUP3 ADD SWAP1 POP PUSH3 0xC1F PUSH0 DUP4 ADD DUP5 PUSH3 0xBF9 JUMP JUMPDEST SWAP3 SWAP2 POP POP JUMP JUMPDEST PUSH32 0x4E487B7100000000000000000000000000000000000000000000000000000000 PUSH0 MSTORE PUSH1 0x12 PUSH1 0x4 MSTORE PUSH1 0x24 PUSH0 REVERT JUMPDEST PUSH32 0x4E487B7100000000000000000000000000000000000000000000000000000000 PUSH0 MSTORE PUSH1 0x11 PUSH1 0x4 MSTORE PUSH1 0x24 PUSH0 REVERT JUMPDEST PUSH0 PUSH3 0xC8B DUP3 PUSH3 0x9CB JUMP JUMPDEST SWAP2 POP PUSH3 0xC98 DUP4 PUSH3 0x9CB JUMP JUMPDEST SWAP3 POP DUP3 PUSH3 0xCAB JUMPI PUSH3 0xCAA PUSH3 0xC25 JUMP JUMPDEST JUMPDEST DUP3 DUP3 DIV SWAP1 POP SWAP3 SWAP2 POP POP JUMP JUMPDEST PUSH0 PUSH3 0xCC2 DUP3 PUSH3 0x9CB JUMP JUMPDEST SWAP2 POP PUSH3 0xCCF DUP4 PUSH3 0x9CB JUMP JUMPDEST SWAP3 POP DUP3 DUP3 SUB SWAP1 POP DUP2 DUP2 GT ISZERO PUSH3 0xCEA JUMPI PUSH3 0xCE9 PUSH3 0xC52 JUMP JUMPDEST JUMPDEST SWAP3 SWAP2 POP POP JUMP JUMPDEST PUSH0 DUP3 DUP3 MSTORE PUSH1 0x20 DUP3 ADD SWAP1 POP SWAP3 SWAP2 POP POP JUMP JUMPDEST PUSH32 0x42656E6566696369617279206973207A65726F20616464726573730000000000 PUSH0 DUP3 ADD MSTORE POP JUMP JUMPDEST PUSH0 PUSH3 0xD36 PUSH1 0x1B DUP4 PUSH3 0xCF0 JUMP JUMPDEST SWAP2 POP PUSH3 0xD43 DUP3 PUSH3 0xD00 JUMP JUMPDEST PUSH1 0x20 DUP3 ADD SWAP1 POP SWAP2 SWAP1 POP JUMP JUMPDEST PUSH0 PUSH1 0x20 DUP3 ADD SWAP1 POP DUP2 DUP2 SUB PUSH0 DUP4 ADD MSTORE PUSH3 0xD67 DUP2 PUSH3 0xD28 JUMP JUMPDEST SWAP1 POP SWAP2 SWAP1 POP JUMP JUMPDEST PUSH32 0x416D6F756E74206973207A65726F000000000000000000000000000000000000 PUSH0 DUP3 ADD MSTORE POP JUMP JUMPDEST PUSH0 PUSH3 0xDA4 PUSH1 0xE DUP4 PUSH3 0xCF0 JUMP JUMPDEST SWAP2 POP PUSH3 0xDB1 DUP3 PUSH3 0xD6E JUMP JUMPDEST PUSH1 0x20 DUP3 ADD SWAP1 POP SWAP2 SWAP1 POP JUMP JUMPDEST PUSH0 PUSH1 0x20 DUP3 ADD SWAP1 POP DUP2 DUP2 SUB PUSH0 DUP4 ADD MSTORE PUSH3 0xDD5 DUP2 PUSH3 0xD96 JUMP JUMPDEST SWAP1 POP SWAP2 SWAP1 POP JUMP JUMPDEST PUSH32 0x416C726561647920766573746564000000000000000000000000000000000000 PUSH0 DUP3 ADD MSTORE POP JUMP JUMPDEST PUSH0 PUSH3 0xE12 PUSH1 0xE DUP4 PUSH3 0xCF0 JUMP JUMPDEST SWAP2 POP PUSH3 0xE1F DUP3 PUSH3 0xDDC JUMP JUMPDEST PUSH1 0x20 DUP3 ADD SWAP1 POP SWAP2 SWAP1 POP JUMP JUMPDEST PUSH0 PUSH1 0x20 DUP3 ADD SWAP1 POP DUP2 DUP2 SUB PUSH0 DUP4 ADD MSTORE PUSH3 0xE43 DUP2 PUSH3 0xE04 JUMP JUMPDEST SWAP1 POP SWAP2 SWAP1 POP JUMP JUMPDEST PUSH3 0xE55 DUP2 PUSH3 0x9CB JUMP JUMPDEST DUP3 MSTORE POP POP JUMP JUMPDEST PUSH0 PUSH1 0x60 DUP3 ADD SWAP1 POP PUSH3 0xE70 PUSH0 DUP4 ADD DUP7 PUSH3 0xE4A JUMP JUMPDEST PUSH3 0xE7F PUSH1 0x20 DUP4 ADD DUP6 PUSH3 0xE4A JUMP JUMPDEST PUSH3 0xE8E PUSH1 0x40 DUP4 ADD DUP5 PUSH3 0xE4A JUMP JUMPDEST SWAP5 SWAP4 POP POP POP POP JUMP JUMPDEST PUSH0 PUSH3 0xEA2 DUP3 PUSH3 0x9CB JUMP JUMPDEST SWAP2 POP PUSH3 0xEAF DUP4 PUSH3 0x9CB JUMP JUMPDEST SWAP3 POP DUP3 DUP3 ADD SWAP1 POP DUP1 DUP3 GT ISZERO PUSH3 0xECA JUMPI PUSH3 0xEC9 PUSH3 0xC52 JUMP JUMPDEST JUMPDEST SWAP3 SWAP2 POP POP JUMP JUMPDEST PUSH0 PUSH1 0x60 DUP3 ADD SWAP1 POP PUSH3 0xEE5 PUSH0 DUP4 ADD DUP7 PUSH3 0xBF9 JUMP JUMPDEST PUSH3 0xEF4 PUSH1 0x20 DUP4 ADD DUP6 PUSH3 0xE4A JUMP JUMPDEST PUSH3 0xF03 PUSH1 0x40 DUP4 ADD DUP5 PUSH3 0xE4A JUMP JUMPDEST SWAP5 SWAP4 POP POP POP POP JUMP JUMPDEST PUSH0 PUSH1 0x20 DUP3 ADD SWAP1 POP PUSH3 0xF20 PUSH0 DUP4 ADD DUP5 PUSH3 0xE4A JUMP JUMPDEST SWAP3 SWAP2 POP POP JUMP JUMPDEST PUSH2 0x38A6 DUP1 PUSH3 0xF34 PUSH0 CODECOPY PUSH0 RETURN INVALID PUSH1 0x80 PUSH1 0x40 MSTORE PUSH1 0x4 CALLDATASIZE LT PUSH2 0x248 JUMPI PUSH0 CALLDATALOAD PUSH1 0xE0 SHR DUP1 PUSH4 0x7EB53785 GT PUSH2 0x138 JUMPI DUP1 PUSH4 0xC04A5414 GT PUSH2 0xB5 JUMPI DUP1 PUSH4 0xDD296480 GT PUSH2 0x79 JUMPI DUP1 PUSH4 0xDD296480 EQ PUSH2 0x8A3 JUMPI DUP1 PUSH4 0xDD62ED3E EQ PUSH2 0x8DF JUMPI DUP1 PUSH4 0xDF136D65 EQ PUSH2 0x91B JUMPI DUP1 PUSH4 0xF2FDE38B EQ PUSH2 0x945 JUMPI DUP1 PUSH4 0xF51ACE70 EQ PUSH2 0x96D JUMPI DUP1 PUSH4 0xF8297099 EQ PUSH2 0x997 JUMPI PUSH2 0x24F JUMP JUMPDEST DUP1 PUSH4 0xC04A5414 EQ PUSH2 0x7D3 JUMPI DUP1 PUSH4 0xC816841B EQ PUSH2 0x7FD JUMPI DUP1 PUSH4 0xC8F33C91 EQ PUSH2 0x827 JUMPI DUP1 PUSH4 0xCD3DAF9D EQ PUSH2 0x851 JUMPI DUP1 PUSH4 0xD5AED6BF EQ PUSH2 0x87B JUMPI PUSH2 0x24F JUMP JUMPDEST DUP1 PUSH4 0x96212916 GT PUSH2 0xFC JUMPI DUP1 PUSH4 0x96212916 EQ PUSH2 0x6BB JUMPI DUP1 PUSH4 0x99F7854A EQ PUSH2 0x6F7 JUMPI DUP1 PUSH4 0x9D4310EC EQ PUSH2 0x733 JUMPI DUP1 PUSH4 0xA694FC3A EQ PUSH2 0x76F JUMPI DUP1 PUSH4 0xA9059CBB EQ PUSH2 0x797 JUMPI PUSH2 0x24F JUMP JUMPDEST DUP1 PUSH4 0x7EB53785 EQ PUSH2 0x5EB JUMPI DUP1 PUSH4 0x82820511 EQ PUSH2 0x601 JUMPI DUP1 PUSH4 0x85DCF86A EQ PUSH2 0x62B JUMPI DUP1 PUSH4 0x8DA5CB5B EQ PUSH2 0x667 JUMPI DUP1 PUSH4 0x95D89B41 EQ PUSH2 0x691 JUMPI PUSH2 0x24F JUMP JUMPDEST DUP1 PUSH4 0x384711CC GT PUSH2 0x1C6 JUMPI DUP1 PUSH4 0x70A08231 GT PUSH2 0x18A JUMPI DUP1 PUSH4 0x70A08231 EQ PUSH2 0x51D JUMPI DUP1 PUSH4 0x715018A6 EQ PUSH2 0x559 JUMPI DUP1 PUSH4 0x718298A1 EQ PUSH2 0x56F JUMPI DUP1 PUSH4 0x735DE9F7 EQ PUSH2 0x597 JUMPI DUP1 PUSH4 0x771A3A1D EQ PUSH2 0x5C1 JUMPI PUSH2 0x24F JUMP JUMPDEST DUP1 PUSH4 0x384711CC EQ PUSH2 0x44F JUMPI DUP1 PUSH4 0x3D18B912 EQ PUSH2 0x48B JUMPI DUP1 PUSH4 0x54DD1DA4 EQ PUSH2 0x4A1 JUMPI DUP1 PUSH4 0x5971AA21 EQ PUSH2 0x4B7 JUMPI DUP1 PUSH4 0x6985E6D8 EQ PUSH2 0x4E1 JUMPI PUSH2 0x24F JUMP JUMPDEST DUP1 PUSH4 0x18160DDD GT PUSH2 0x20D JUMPI DUP1 PUSH4 0x18160DDD EQ PUSH2 0x36D JUMPI DUP1 PUSH4 0x23B872DD EQ PUSH2 0x397 JUMPI DUP1 PUSH4 0x2E1A7D4D EQ PUSH2 0x3D3 JUMPI DUP1 PUSH4 0x313CE567 EQ PUSH2 0x3FB JUMPI DUP1 PUSH4 0x35F53E8E EQ PUSH2 0x425 JUMPI PUSH2 0x24F JUMP JUMPDEST DUP1 PUSH3 0x8CC262 EQ PUSH2 0x253 JUMPI DUP1 PUSH4 0x32BBF4F EQ PUSH2 0x28F JUMPI DUP1 PUSH4 0x6FDDE03 EQ PUSH2 0x2CB JUMPI DUP1 PUSH4 0x95EA7B3 EQ PUSH2 0x2F5 JUMPI DUP1 PUSH4 0x1726CBC8 EQ PUSH2 0x331 JUMPI PUSH2 0x24F JUMP JUMPDEST CALLDATASIZE PUSH2 0x24F JUMPI STOP JUMPDEST PUSH0 DUP1 REVERT JUMPDEST CALLVALUE DUP1 ISZERO PUSH2 0x25E JUMPI PUSH0 DUP1 REVERT JUMPDEST POP PUSH2 0x279 PUSH1 0x4 DUP1 CALLDATASIZE SUB DUP2 ADD SWAP1 PUSH2 0x274 SWAP2 SWAP1 PUSH2 0x2D00 JUMP JUMPDEST PUSH2 0x9D3 JUMP JUMPDEST PUSH1 0x40 MLOAD PUSH2 0x286 SWAP2 SWAP1 PUSH2 0x2D43 JUMP JUMPDEST PUSH1 0x40 MLOAD DUP1 SWAP2 SUB SWAP1 RETURN JUMPDEST CALLVALUE DUP1 ISZERO PUSH2 0x29A JUMPI PUSH0 DUP1 REVERT JUMPDEST POP PUSH2 0x2B5 PUSH1 0x4 DUP1 CALLDATASIZE SUB DUP2 ADD SWAP1 PUSH2 0x2B0 SWAP2 SWAP1 PUSH2 0x2D00 JUMP JUMPDEST PUSH2 0xA93 JUMP JUMPDEST PUSH1 0x40 MLOAD PUSH2 0x2C2 SWAP2 SWAP1 PUSH2 0x2D43 JUMP JUMPDEST PUSH1 0x40 MLOAD DUP1 SWAP2 SUB SWAP1 RETURN JUMPDEST CALLVALUE DUP1 ISZERO PUSH2 0x2D6 JUMPI PUSH0 DUP1 REVERT JUMPDEST POP PUSH2 0x2DF PUSH2 0xAA8 JUMP JUMPDEST PUSH1 0x40 MLOAD PUSH2 0x2EC SWAP2 SWAP1 PUSH2 0x2DE6 JUMP JUMPDEST PUSH1 0x40 MLOAD DUP1 SWAP2 SUB SWAP1 RETURN JUMPDEST CALLVALUE DUP1 ISZERO PUSH2 0x300 JUMPI PUSH0 DUP1 REVERT JUMPDEST POP PUSH2 0x31B PUSH1 0x4 DUP1 CALLDATASIZE SUB DUP2 ADD SWAP1 PUSH2 0x316 SWAP2 SWAP1 PUSH2 0x2E30 JUMP JUMPDEST PUSH2 0xB38 JUMP JUMPDEST PUSH1 0x40 MLOAD PUSH2 0x328 SWAP2 SWAP1 PUSH2 0x2E88 JUMP JUMPDEST PUSH1 0x40 MLOAD DUP1 SWAP2 SUB SWAP1 RETURN JUMPDEST CALLVALUE DUP1 ISZERO PUSH2 0x33C JUMPI PUSH0 DUP1 REVERT JUMPDEST POP PUSH2 0x357 PUSH1 0x4 DUP1 CALLDATASIZE SUB DUP2 ADD SWAP1 PUSH2 0x352 SWAP2 SWAP1 PUSH2 0x2D00 JUMP JUMPDEST PUSH2 0xB5A JUMP JUMPDEST PUSH1 0x40 MLOAD PUSH2 0x364 SWAP2 SWAP1 PUSH2 0x2D43 JUMP JUMPDEST PUSH1 0x40 MLOAD DUP1 SWAP2 SUB SWAP1 RETURN JUMPDEST CALLVALUE DUP1 ISZERO PUSH2 0x378 JUMPI PUSH0 DUP1 REVERT JUMPDEST POP PUSH2 0x381 PUSH2 0xC02 JUMP JUMPDEST PUSH1 0x40 MLOAD PUSH2 0x38E SWAP2 SWAP1 PUSH2 0x2D43 JUMP JUMPDEST PUSH1 0x40 MLOAD DUP1 SWAP2 SUB SWAP1 RETURN JUMPDEST CALLVALUE DUP1 ISZERO PUSH2 0x3A2 JUMPI PUSH0 DUP1 REVERT JUMPDEST POP PUSH2 0x3BD PUSH1 0x4 DUP1 CALLDATASIZE SUB DUP2 ADD SWAP1 PUSH2 0x3B8 SWAP2 SWAP1 PUSH2 0x2EA1 JUMP JUMPDEST PUSH2 0xC0B JUMP JUMPDEST PUSH1 0x40 MLOAD PUSH2 0x3CA SWAP2 SWAP1 PUSH2 0x2E88 JUMP JUMPDEST PUSH1 0x40 MLOAD DUP1 SWAP2 SUB SWAP1 RETURN JUMPDEST CALLVALUE DUP1 ISZERO PUSH2 0x3DE JUMPI PUSH0 DUP1 REVERT JUMPDEST POP PUSH2 0x3F9 PUSH1 0x4 DUP1 CALLDATASIZE SUB DUP2 ADD SWAP1 PUSH2 0x3F4 SWAP2 SWAP1 PUSH2 0x2EF1 JUMP JUMPDEST PUSH2 0xC39 JUMP JUMPDEST STOP JUMPDEST CALLVALUE DUP1 ISZERO PUSH2 0x406 JUMPI PUSH0 DUP1 REVERT JUMPDEST POP PUSH2 0x40F PUSH2 0x102C JUMP JUMPDEST PUSH1 0x40 MLOAD PUSH2 0x41C SWAP2 SWAP1 PUSH2 0x2F37 JUMP JUMPDEST PUSH1 0x40 MLOAD DUP1 SWAP2 SUB SWAP1 RETURN JUMPDEST CALLVALUE DUP1 ISZERO PUSH2 0x430 JUMPI PUSH0 DUP1 REVERT JUMPDEST POP PUSH2 0x439 PUSH2 0x1034 JUMP JUMPDEST PUSH1 0x40 MLOAD PUSH2 0x446 SWAP2 SWAP1 PUSH2 0x2D43 JUMP JUMPDEST PUSH1 0x40 MLOAD DUP1 SWAP2 SUB SWAP1 RETURN JUMPDEST CALLVALUE DUP1 ISZERO PUSH2 0x45A JUMPI PUSH0 DUP1 REVERT JUMPDEST POP PUSH2 0x475 PUSH1 0x4 DUP1 CALLDATASIZE SUB DUP2 ADD SWAP1 PUSH2 0x470 SWAP2 SWAP1 PUSH2 0x2D00 JUMP JUMPDEST PUSH2 0x1040 JUMP JUMPDEST PUSH1 0x40 MLOAD PUSH2 0x482 SWAP2 SWAP1 PUSH2 0x2D43 JUMP JUMPDEST PUSH1 0x40 MLOAD DUP1 SWAP2 SUB SWAP1 RETURN JUMPDEST CALLVALUE DUP1 ISZERO PUSH2 0x496 JUMPI PUSH0 DUP1 REVERT JUMPDEST POP PUSH2 0x49F PUSH2 0x1055 JUMP JUMPDEST STOP JUMPDEST CALLVALUE DUP1 ISZERO PUSH2 0x4AC JUMPI PUSH0 DUP1 REVERT JUMPDEST POP PUSH2 0x4B5 PUSH2 0x1121 JUMP JUMPDEST STOP JUMPDEST CALLVALUE DUP1 ISZERO PUSH2 0x4C2 JUMPI PUSH0 DUP1 REVERT JUMPDEST POP PUSH2 0x4CB PUSH2 0x121E JUMP JUMPDEST PUSH1 0x40 MLOAD PUSH2 0x4D8 SWAP2 SWAP1 PUSH2 0x2D43 JUMP JUMPDEST PUSH1 0x40 MLOAD DUP1 SWAP2 SUB SWAP1 RETURN JUMPDEST CALLVALUE DUP1 ISZERO PUSH2 0x4EC JUMPI PUSH0 DUP1 REVERT JUMPDEST POP PUSH2 0x507 PUSH1 0x4 DUP1 CALLDATASIZE SUB DUP2 ADD SWAP1 PUSH2 0x502 SWAP2 SWAP1 PUSH2 0x2D00 JUMP JUMPDEST PUSH2 0x122B JUMP JUMPDEST PUSH1 0x40 MLOAD PUSH2 0x514 SWAP2 SWAP1 PUSH2 0x2D43 JUMP JUMPDEST PUSH1 0x40 MLOAD DUP1 SWAP2 SUB SWAP1 RETURN JUMPDEST CALLVALUE DUP1 ISZERO PUSH2 0x528 JUMPI PUSH0 DUP1 REVERT JUMPDEST POP PUSH2 0x543 PUSH1 0x4 DUP1 CALLDATASIZE SUB DUP2 ADD SWAP1 PUSH2 0x53E SWAP2 SWAP1 PUSH2 0x2D00 JUMP JUMPDEST PUSH2 0x1240 JUMP JUMPDEST PUSH1 0x40 MLOAD PUSH2 0x550 SWAP2 SWAP1 PUSH2 0x2D43 JUMP JUMPDEST PUSH1 0x40 MLOAD DUP1 SWAP2 SUB SWAP1 RETURN JUMPDEST CALLVALUE DUP1 ISZERO PUSH2 0x564 JUMPI PUSH0 DUP1 REVERT JUMPDEST POP PUSH2 0x56D PUSH2 0x1285 JUMP JUMPDEST STOP JUMPDEST CALLVALUE DUP1 ISZERO PUSH2 0x57A JUMPI PUSH0 DUP1 REVERT JUMPDEST POP PUSH2 0x595 PUSH1 0x4 DUP1 CALLDATASIZE SUB DUP2 ADD SWAP1 PUSH2 0x590 SWAP2 SWAP1 PUSH2 0x2EF1 JUMP JUMPDEST PUSH2 0x1298 JUMP JUMPDEST STOP JUMPDEST CALLVALUE DUP1 ISZERO PUSH2 0x5A2 JUMPI PUSH0 DUP1 REVERT JUMPDEST POP PUSH2 0x5AB PUSH2 0x13DC JUMP JUMPDEST PUSH1 0x40 MLOAD PUSH2 0x5B8 SWAP2 SWAP1 PUSH2 0x2FAB JUMP JUMPDEST PUSH1 0x40 MLOAD DUP1 SWAP2 SUB SWAP1 RETURN JUMPDEST CALLVALUE DUP1 ISZERO PUSH2 0x5CC JUMPI PUSH0 DUP1 REVERT JUMPDEST POP PUSH2 0x5D5 PUSH2 0x1401 JUMP JUMPDEST PUSH1 0x40 MLOAD PUSH2 0x5E2 SWAP2 SWAP1 PUSH2 0x2D43 JUMP JUMPDEST PUSH1 0x40 MLOAD DUP1 SWAP2 SUB SWAP1 RETURN JUMPDEST CALLVALUE DUP1 ISZERO PUSH2 0x5F6 JUMPI PUSH0 DUP1 REVERT JUMPDEST POP PUSH2 0x5FF PUSH2 0x1407 JUMP JUMPDEST STOP JUMPDEST CALLVALUE DUP1 ISZERO PUSH2 0x60C JUMPI PUSH0 DUP1 REVERT JUMPDEST POP PUSH2 0x615 PUSH2 0x15A5 JUMP JUMPDEST PUSH1 0x40 MLOAD PUSH2 0x622 SWAP2 SWAP1 PUSH2 0x2D43 JUMP JUMPDEST PUSH1 0x40 MLOAD DUP1 SWAP2 SUB SWAP1 RETURN JUMPDEST CALLVALUE DUP1 ISZERO PUSH2 0x636 JUMPI PUSH0 DUP1 REVERT JUMPDEST POP PUSH2 0x651 PUSH1 0x4 DUP1 CALLDATASIZE SUB DUP2 ADD SWAP1 PUSH2 0x64C SWAP2 SWAP1 PUSH2 0x2D00 JUMP JUMPDEST PUSH2 0x15AB JUMP JUMPDEST PUSH1 0x40 MLOAD PUSH2 0x65E SWAP2 SWAP1 PUSH2 0x2D43 JUMP JUMPDEST PUSH1 0x40 MLOAD DUP1 SWAP2 SUB SWAP1 RETURN JUMPDEST CALLVALUE DUP1 ISZERO PUSH2 0x672 JUMPI PUSH0 DUP1 REVERT JUMPDEST POP PUSH2 0x67B PUSH2 0x15C0 JUMP JUMPDEST PUSH1 0x40 MLOAD PUSH2 0x688 SWAP2 SWAP1 PUSH2 0x2FD3 JUMP JUMPDEST PUSH1 0x40 MLOAD DUP1 SWAP2 SUB SWAP1 RETURN JUMPDEST CALLVALUE DUP1 ISZERO PUSH2 0x69C JUMPI PUSH0 DUP1 REVERT JUMPDEST POP PUSH2 0x6A5 PUSH2 0x15E8 JUMP JUMPDEST PUSH1 0x40 MLOAD PUSH2 0x6B2 SWAP2 SWAP1 PUSH2 0x2DE6 JUMP JUMPDEST PUSH1 0x40 MLOAD DUP1 SWAP2 SUB SWAP1 RETURN JUMPDEST CALLVALUE DUP1 ISZERO PUSH2 0x6C6 JUMPI PUSH0 DUP1 REVERT JUMPDEST POP PUSH2 0x6E1 PUSH1 0x4 DUP1 CALLDATASIZE SUB DUP2 ADD SWAP1 PUSH2 0x6DC SWAP2 SWAP1 PUSH2 0x2EF1 JUMP JUMPDEST PUSH2 0x1678 JUMP JUMPDEST PUSH1 0x40 MLOAD PUSH2 0x6EE SWAP2 SWAP1 PUSH2 0x2FD3 JUMP JUMPDEST PUSH1 0x40 MLOAD DUP1 SWAP2 SUB SWAP1 RETURN JUMPDEST CALLVALUE DUP1 ISZERO PUSH2 0x702 JUMPI PUSH0 DUP1 REVERT JUMPDEST POP PUSH2 0x71D PUSH1 0x4 DUP1 CALLDATASIZE SUB DUP2 ADD SWAP1 PUSH2 0x718 SWAP2 SWAP1 PUSH2 0x2D00 JUMP JUMPDEST PUSH2 0x16B3 JUMP JUMPDEST PUSH1 0x40 MLOAD PUSH2 0x72A SWAP2 SWAP1 PUSH2 0x2E88 JUMP JUMPDEST PUSH1 0x40 MLOAD DUP1 SWAP2 SUB SWAP1 RETURN JUMPDEST CALLVALUE DUP1 ISZERO PUSH2 0x73E JUMPI PUSH0 DUP1 REVERT JUMPDEST POP PUSH2 0x759 PUSH1 0x4 DUP1 CALLDATASIZE SUB DUP2 ADD SWAP1 PUSH2 0x754 SWAP2 SWAP1 PUSH2 0x2D00 JUMP JUMPDEST PUSH2 0x16D0 JUMP JUMPDEST PUSH1 0x40 MLOAD PUSH2 0x766 SWAP2 SWAP1 PUSH2 0x2D43 JUMP JUMPDEST PUSH1 0x40 MLOAD DUP1 SWAP2 SUB SWAP1 RETURN JUMPDEST CALLVALUE DUP1 ISZERO PUSH2 0x77A JUMPI PUSH0 DUP1 REVERT JUMPDEST POP PUSH2 0x795 PUSH1 0x4 DUP1 CALLDATASIZE SUB DUP2 ADD SWAP1 PUSH2 0x790 SWAP2 SWAP1 PUSH2 0x2EF1 JUMP JUMPDEST PUSH2 0x17EE JUMP JUMPDEST STOP JUMPDEST CALLVALUE DUP1 ISZERO PUSH2 0x7A2 JUMPI PUSH0 DUP1 REVERT JUMPDEST POP PUSH2 0x7BD PUSH1 0x4 DUP1 CALLDATASIZE SUB DUP2 ADD SWAP1 PUSH2 0x7B8 SWAP2 SWAP1 PUSH2 0x2E30 JUMP JUMPDEST PUSH2 0x1B66 JUMP JUMPDEST PUSH1 0x40 MLOAD PUSH2 0x7CA SWAP2 SWAP1 PUSH2 0x2E88 JUMP JUMPDEST PUSH1 0x40 MLOAD DUP1 SWAP2 SUB SWAP1 RETURN JUMPDEST CALLVALUE DUP1 ISZERO PUSH2 0x7DE JUMPI PUSH0 DUP1 REVERT JUMPDEST POP PUSH2 0x7E7 PUSH2 0x1B88 JUMP JUMPDEST PUSH1 0x40 MLOAD PUSH2 0x7F4 SWAP2 SWAP1 PUSH2 0x2FD3 JUMP JUMPDEST PUSH1 0x40 MLOAD DUP1 SWAP2 SUB SWAP1 RETURN JUMPDEST CALLVALUE DUP1 ISZERO PUSH2 0x808 JUMPI PUSH0 DUP1 REVERT JUMPDEST POP PUSH2 0x811 PUSH2 0x1BAD JUMP JUMPDEST PUSH1 0x40 MLOAD PUSH2 0x81E SWAP2 SWAP1 PUSH2 0x300C JUMP JUMPDEST PUSH1 0x40 MLOAD DUP1 SWAP2 SUB SWAP1 RETURN JUMPDEST CALLVALUE DUP1 ISZERO PUSH2 0x832 JUMPI PUSH0 DUP1 REVERT JUMPDEST POP PUSH2 0x83B PUSH2 0x1BD2 JUMP JUMPDEST PUSH1 0x40 MLOAD PUSH2 0x848 SWAP2 SWAP1 PUSH2 0x2D43 JUMP JUMPDEST PUSH1 0x40 MLOAD DUP1 SWAP2 SUB SWAP1 RETURN JUMPDEST CALLVALUE DUP1 ISZERO PUSH2 0x85C JUMPI PUSH0 DUP1 REVERT JUMPDEST POP PUSH2 0x865 PUSH2 0x1BD8 JUMP JUMPDEST PUSH1 0x40 MLOAD PUSH2 0x872 SWAP2 SWAP1 PUSH2 0x2D43 JUMP JUMPDEST PUSH1 0x40 MLOAD DUP1 SWAP2 SUB SWAP1 RETURN JUMPDEST CALLVALUE DUP1 ISZERO PUSH2 0x886 JUMPI PUSH0 DUP1 REVERT JUMPDEST POP PUSH2 0x8A1 PUSH1 0x4 DUP1 CALLDATASIZE SUB DUP2 ADD SWAP1 PUSH2 0x89C SWAP2 SWAP1 PUSH2 0x2D00 JUMP JUMPDEST PUSH2 0x1C47 JUMP JUMPDEST STOP JUMPDEST CALLVALUE DUP1 ISZERO PUSH2 0x8AE JUMPI PUSH0 DUP1 REVERT JUMPDEST POP PUSH2 0x8C9 PUSH1 0x4 DUP1 CALLDATASIZE SUB DUP2 ADD SWAP1 PUSH2 0x8C4 SWAP2 SWAP1 PUSH2 0x2D00 JUMP JUMPDEST PUSH2 0x1C92 JUMP JUMPDEST PUSH1 0x40 MLOAD PUSH2 0x8D6 SWAP2 SWAP1 PUSH2 0x2D43 JUMP JUMPDEST PUSH1 0x40 MLOAD DUP1 SWAP2 SUB SWAP1 RETURN JUMPDEST CALLVALUE DUP1 ISZERO PUSH2 0x8EA JUMPI PUSH0 DUP1 REVERT JUMPDEST POP PUSH2 0x905 PUSH1 0x4 DUP1 CALLDATASIZE SUB DUP2 ADD SWAP1 PUSH2 0x900 SWAP2 SWAP1 PUSH2 0x3025 JUMP JUMPDEST PUSH2 0x1CA7 JUMP JUMPDEST PUSH1 0x40 MLOAD PUSH2 0x912 SWAP2 SWAP1 PUSH2 0x2D43 JUMP JUMPDEST PUSH1 0x40 MLOAD DUP1 SWAP2 SUB SWAP1 RETURN JUMPDEST CALLVALUE DUP1 ISZERO PUSH2 0x926 JUMPI PUSH0 DUP1 REVERT JUMPDEST POP PUSH2 0x92F PUSH2 0x1D29 JUMP JUMPDEST PUSH1 0x40 MLOAD PUSH2 0x93C SWAP2 SWAP1 PUSH2 0x2D43 JUMP JUMPDEST PUSH1 0x40 MLOAD DUP1 SWAP2 SUB SWAP1 RETURN JUMPDEST CALLVALUE DUP1 ISZERO PUSH2 0x950 JUMPI PUSH0 DUP1 REVERT JUMPDEST POP PUSH2 0x96B PUSH1 0x4 DUP1 CALLDATASIZE SUB DUP2 ADD SWAP1 PUSH2 0x966 SWAP2 SWAP1 PUSH2 0x2D00 JUMP JUMPDEST PUSH2 0x1D2F JUMP JUMPDEST STOP JUMPDEST CALLVALUE DUP1 ISZERO PUSH2 0x978 JUMPI PUSH0 DUP1 REVERT JUMPDEST POP PUSH2 0x981 PUSH2 0x1DB3 JUMP JUMPDEST PUSH1 0x40 MLOAD PUSH2 0x98E SWAP2 SWAP1 PUSH2 0x2D43 JUMP JUMPDEST PUSH1 0x40 MLOAD DUP1 SWAP2 SUB SWAP1 RETURN JUMPDEST CALLVALUE DUP1 ISZERO PUSH2 0x9A2 JUMPI PUSH0 DUP1 REVERT JUMPDEST POP PUSH2 0x9BD PUSH1 0x4 DUP1 CALLDATASIZE SUB DUP2 ADD SWAP1 PUSH2 0x9B8 SWAP2 SWAP1 PUSH2 0x2D00 JUMP JUMPDEST PUSH2 0x2001 JUMP JUMPDEST PUSH1 0x40 MLOAD PUSH2 0x9CA SWAP2 SWAP1 PUSH2 0x2D43 JUMP JUMPDEST PUSH1 0x40 MLOAD DUP1 SWAP2 SUB SWAP1 RETURN JUMPDEST PUSH0 PUSH1 0xC PUSH0 DUP4 PUSH20 0xFFFFFFFFFFFFFFFFFFFFFFFFFFFFFFFFFFFFFFFF AND PUSH20 0xFFFFFFFFFFFFFFFFFFFFFFFFFFFFFFFFFFFFFFFF AND DUP2 MSTORE PUSH1 0x20 ADD SWAP1 DUP2 MSTORE PUSH1 0x20 ADD PUSH0 KECCAK256 SLOAD PUSH8 0xDE0B6B3A7640000 PUSH1 0x12 SLOAD PUSH2 0xA26 PUSH2 0x1BD8 JUMP JUMPDEST PUSH2 0xA30 SWAP2 SWAP1 PUSH2 0x3090 JUMP JUMPDEST PUSH1 0xC PUSH0 DUP7 PUSH20 0xFFFFFFFFFFFFFFFFFFFFFFFFFFFFFFFFFFFFFFFF AND PUSH20 0xFFFFFFFFFFFFFFFFFFFFFFFFFFFFFFFFFFFFFFFF AND DUP2 MSTORE PUSH1 0x20 ADD SWAP1 DUP2 MSTORE PUSH1 0x20 ADD PUSH0 KECCAK256 SLOAD PUSH2 0xA78 SWAP2 SWAP1 PUSH2 0x30C3 JUMP JUMPDEST PUSH2 0xA82 SWAP2 SWAP1 PUSH2 0x3131 JUMP JUMPDEST PUSH2 0xA8C SWAP2 SWAP1 PUSH2 0x3161 JUMP JUMPDEST SWAP1 POP SWAP2 SWAP1 POP JUMP JUMPDEST PUSH1 0xE PUSH1 0x20 MSTORE DUP1 PUSH0 MSTORE PUSH1 0x40 PUSH0 KECCAK256 PUSH0 SWAP2 POP SWAP1 POP SLOAD DUP2 JUMP JUMPDEST PUSH1 0x60 PUSH1 0x3 DUP1 SLOAD PUSH2 0xAB7 SWAP1 PUSH2 0x31C1 JUMP JUMPDEST DUP1 PUSH1 0x1F ADD PUSH1 0x20 DUP1 SWAP2 DIV MUL PUSH1 0x20 ADD PUSH1 0x40 MLOAD SWAP1 DUP2 ADD PUSH1 0x40 MSTORE DUP1 SWAP3 SWAP2 SWAP1 DUP2 DUP2 MSTORE PUSH1 0x20 ADD DUP3 DUP1 SLOAD PUSH2 0xAE3 SWAP1 PUSH2 0x31C1 JUMP JUMPDEST DUP1 ISZERO PUSH2 0xB2E JUMPI DUP1 PUSH1 0x1F LT PUSH2 0xB05 JUMPI PUSH2 0x100 DUP1 DUP4 SLOAD DIV MUL DUP4 MSTORE SWAP2 PUSH1 0x20 ADD SWAP2 PUSH2 0xB2E JUMP JUMPDEST DUP3 ADD SWAP2 SWAP1 PUSH0 MSTORE PUSH1 0x20 PUSH0 KECCAK256 SWAP1 JUMPDEST DUP2 SLOAD DUP2 MSTORE SWAP1 PUSH1 0x1 ADD SWAP1 PUSH1 0x20 ADD DUP1 DUP4 GT PUSH2 0xB11 JUMPI DUP3 SWAP1 SUB PUSH1 0x1F AND DUP3 ADD SWAP2 JUMPDEST POP POP POP POP POP SWAP1 POP SWAP1 JUMP JUMPDEST PUSH0 DUP1 PUSH2 0xB42 PUSH2 0x2016 JUMP JUMPDEST SWAP1 POP PUSH2 0xB4F DUP2 DUP6 DUP6 PUSH2 0x201D JUMP JUMPDEST PUSH1 0x1 SWAP2 POP POP SWAP3 SWAP2 POP POP JUMP JUMPDEST PUSH0 PUSH4 0x1E13380 PUSH1 0xE PUSH0 DUP5 PUSH20 0xFFFFFFFFFFFFFFFFFFFFFFFFFFFFFFFFFFFFFFFF AND PUSH20 0xFFFFFFFFFFFFFFFFFFFFFFFFFFFFFFFFFFFFFFFF AND DUP2 MSTORE PUSH1 0x20 ADD SWAP1 DUP2 MSTORE PUSH1 0x20 ADD PUSH0 KECCAK256 SLOAD TIMESTAMP PUSH2 0xBA9 SWAP2 SWAP1 PUSH2 0x3090 JUMP JUMPDEST PUSH1 0xF PUSH0 DUP6 PUSH20 0xFFFFFFFFFFFFFFFFFFFFFFFFFFFFFFFFFFFFFFFF AND PUSH20 0xFFFFFFFFFFFFFFFFFFFFFFFFFFFFFFFFFFFFFFFF AND DUP2 MSTORE PUSH1 0x20 ADD SWAP1 DUP2 MSTORE PUSH1 0x20 ADD PUSH0 KECCAK256 SLOAD PUSH2 0xBF1 SWAP2 SWAP1 PUSH2 0x30C3 JUMP JUMPDEST PUSH2 0xBFB SWAP2 SWAP1 PUSH2 0x3131 JUMP JUMPDEST SWAP1 POP SWAP2 SWAP1 POP JUMP JUMPDEST PUSH0 PUSH1 0x2 SLOAD SWAP1 POP SWAP1 JUMP JUMPDEST PUSH0 DUP1 PUSH2 0xC15 PUSH2 0x2016 JUMP JUMPDEST SWAP1 POP PUSH2 0xC22 DUP6 DUP3 DUP6 PUSH2 0x202F JUMP JUMPDEST PUSH2 0xC2D DUP6 DUP6 DUP6 PUSH2 0x20C1 JUMP JUMPDEST PUSH1 0x1 SWAP2 POP POP SWAP4 SWAP3 POP POP POP JUMP JUMPDEST PUSH2 0xC41 PUSH2 0x217E JUMP JUMPDEST DUP1 PUSH1 0xC PUSH0 CALLER PUSH20 0xFFFFFFFFFFFFFFFFFFFFFFFFFFFFFFFFFFFFFFFF AND PUSH20 0xFFFFFFFFFFFFFFFFFFFFFFFFFFFFFFFFFFFFFFFF AND DUP2 MSTORE PUSH1 0x20 ADD SWAP1 DUP2 MSTORE PUSH1 0x20 ADD PUSH0 KECCAK256 SLOAD LT ISZERO PUSH2 0xCC1 JUMPI PUSH1 0x40 MLOAD PUSH32 0x8C379A000000000000000000000000000000000000000000000000000000000 DUP2 MSTORE PUSH1 0x4 ADD PUSH2 0xCB8 SWAP1 PUSH2 0x323B JUMP JUMPDEST PUSH1 0x40 MLOAD DUP1 SWAP2 SUB SWAP1 REVERT JUMPDEST PUSH2 0xCCA CALLER PUSH2 0x21CD JUMP JUMPDEST DUP1 PUSH1 0xC PUSH0 CALLER PUSH20 0xFFFFFFFFFFFFFFFFFFFFFFFFFFFFFFFFFFFFFFFF AND PUSH20 0xFFFFFFFFFFFFFFFFFFFFFFFFFFFFFFFFFFFFFFFF AND DUP2 MSTORE PUSH1 0x20 ADD SWAP1 DUP2 MSTORE PUSH1 0x20 ADD PUSH0 KECCAK256 PUSH0 DUP3 DUP3 SLOAD PUSH2 0xD16 SWAP2 SWAP1 PUSH2 0x3090 JUMP JUMPDEST SWAP3 POP POP DUP2 SWAP1 SSTORE POP PUSH1 0x8 PUSH0 SWAP1 SLOAD SWAP1 PUSH2 0x100 EXP SWAP1 DIV PUSH20 0xFFFFFFFFFFFFFFFFFFFFFFFFFFFFFFFFFFFFFFFF AND PUSH20 0xFFFFFFFFFFFFFFFFFFFFFFFFFFFFFFFFFFFFFFFF AND PUSH4 0xA9059CBB CALLER DUP4 PUSH1 0x40 MLOAD DUP4 PUSH4 0xFFFFFFFF AND PUSH1 0xE0 SHL DUP2 MSTORE PUSH1 0x4 ADD PUSH2 0xD79 SWAP3 SWAP2 SWAP1 PUSH2 0x3259 JUMP JUMPDEST PUSH1 0x20 PUSH1 0x40 MLOAD DUP1 DUP4 SUB DUP2 PUSH0 DUP8 GAS CALL ISZERO DUP1 ISZERO PUSH2 0xD95 JUMPI RETURNDATASIZE PUSH0 DUP1 RETURNDATACOPY RETURNDATASIZE PUSH0 REVERT JUMPDEST POP POP POP POP PUSH1 0x40 MLOAD RETURNDATASIZE PUSH1 0x1F NOT PUSH1 0x1F DUP3 ADD AND DUP3 ADD DUP1 PUSH1 0x40 MSTORE POP DUP2 ADD SWAP1 PUSH2 0xDB9 SWAP2 SWAP1 PUSH2 0x32AA JUMP JUMPDEST POP PUSH0 PUSH1 0xC PUSH0 CALLER PUSH20 0xFFFFFFFFFFFFFFFFFFFFFFFFFFFFFFFFFFFFFFFF AND PUSH20 0xFFFFFFFFFFFFFFFFFFFFFFFFFFFFFFFFFFFFFFFF AND DUP2 MSTORE PUSH1 0x20 ADD SWAP1 DUP2 MSTORE PUSH1 0x20 ADD PUSH0 KECCAK256 SLOAD SUB PUSH2 0xFD3 JUMPI PUSH0 PUSH1 0x15 PUSH0 CALLER PUSH20 0xFFFFFFFFFFFFFFFFFFFFFFFFFFFFFFFFFFFFFFFF AND PUSH20 0xFFFFFFFFFFFFFFFFFFFFFFFFFFFFFFFFFFFFFFFF AND DUP2 MSTORE PUSH1 0x20 ADD SWAP1 DUP2 MSTORE PUSH1 0x20 ADD PUSH0 KECCAK256 PUSH0 PUSH2 0x100 EXP DUP2 SLOAD DUP2 PUSH1 0xFF MUL NOT AND SWAP1 DUP4 ISZERO ISZERO MUL OR SWAP1 SSTORE POP PUSH0 JUMPDEST PUSH1 0x14 DUP1 SLOAD SWAP1 POP DUP2 LT ISZERO PUSH2 0xFD1 JUMPI CALLER PUSH20 0xFFFFFFFFFFFFFFFFFFFFFFFFFFFFFFFFFFFFFFFF AND PUSH1 0x14 DUP3 DUP2 SLOAD DUP2 LT PUSH2 0xE8C JUMPI PUSH2 0xE8B PUSH2 0x32D5 JUMP JUMPDEST JUMPDEST SWAP1 PUSH0 MSTORE PUSH1 0x20 PUSH0 KECCAK256 ADD PUSH0 SWAP1 SLOAD SWAP1 PUSH2 0x100 EXP SWAP1 DIV PUSH20 0xFFFFFFFFFFFFFFFFFFFFFFFFFFFFFFFFFFFFFFFF AND PUSH20 0xFFFFFFFFFFFFFFFFFFFFFFFFFFFFFFFFFFFFFFFF AND SUB PUSH2 0xFBE JUMPI PUSH1 0x14 PUSH1 0x1 PUSH1 0x14 DUP1 SLOAD SWAP1 POP PUSH2 0xEE3 SWAP2 SWAP1 PUSH2 0x3090 JUMP JUMPDEST DUP2 SLOAD DUP2 LT PUSH2 0xEF4 JUMPI PUSH2 0xEF3 PUSH2 0x32D5 JUMP JUMPDEST JUMPDEST SWAP1 PUSH0 MSTORE PUSH1 0x20 PUSH0 KECCAK256 ADD PUSH0 SWAP1 SLOAD SWAP1 PUSH2 0x100 EXP SWAP1 DIV PUSH20 0xFFFFFFFFFFFFFFFFFFFFFFFFFFFFFFFFFFFFFFFF AND PUSH1 0x14 DUP3 DUP2 SLOAD DUP2 LT PUSH2 0xF30 JUMPI PUSH2 0xF2F PUSH2 0x32D5 JUMP JUMPDEST JUMPDEST SWAP1 PUSH0 MSTORE PUSH1 0x20 PUSH0 KECCAK256 ADD PUSH0 PUSH2 0x100 EXP DUP2 SLOAD DUP2 PUSH20 0xFFFFFFFFFFFFFFFFFFFFFFFFFFFFFFFFFFFFFFFF MUL NOT AND SWAP1 DUP4 PUSH20 0xFFFFFFFFFFFFFFFFFFFFFFFFFFFFFFFFFFFFFFFF AND MUL OR SWAP1 SSTORE POP PUSH1 0x14 DUP1 SLOAD DUP1 PUSH2 0xF87 JUMPI PUSH2 0xF86 PUSH2 0x3302 JUMP JUMPDEST JUMPDEST PUSH1 0x1 SWAP1 SUB DUP2 DUP2 SWAP1 PUSH0 MSTORE PUSH1 0x20 PUSH0 KECCAK256 ADD PUSH0 PUSH2 0x100 EXP DUP2 SLOAD SWAP1 PUSH20 0xFFFFFFFFFFFFFFFFFFFFFFFFFFFFFFFFFFFFFFFF MUL NOT AND SWAP1 SSTORE SWAP1 SSTORE PUSH2 0xFD1 JUMP JUMPDEST DUP1 DUP1 PUSH2 0xFC9 SWAP1 PUSH2 0x332F JUMP JUMPDEST SWAP2 POP POP PUSH2 0xE54 JUMP JUMPDEST POP JUMPDEST CALLER PUSH20 0xFFFFFFFFFFFFFFFFFFFFFFFFFFFFFFFFFFFFFFFF AND PUSH32 0xC2C3F06E49B9F15E7B4AF9055E183B0D73362E033AD82A07DEC9BF9840171719 DUP3 PUSH1 0x40 MLOAD PUSH2 0x1019 SWAP2 SWAP1 PUSH2 0x2D43 JUMP JUMPDEST PUSH1 0x40 MLOAD DUP1 SWAP2 SUB SWAP1 LOG2 PUSH2 0x1029 PUSH2 0x2263 JUMP JUMPDEST POP JUMP JUMPDEST PUSH0 PUSH1 0x12 SWAP1 POP SWAP1 JUMP JUMPDEST PUSH8 0x8AC7230489E80000 DUP2 JUMP JUMPDEST PUSH1 0xF PUSH1 0x20 MSTORE DUP1 PUSH0 MSTORE PUSH1 0x40 PUSH0 KECCAK256 PUSH0 SWAP2 POP SWAP1 POP SLOAD DUP2 JUMP JUMPDEST PUSH2 0x105D PUSH2 0x217E JUMP JUMPDEST PUSH2 0x1066 CALLER PUSH2 0x21CD JUMP JUMPDEST PUSH0 PUSH2 0x1070 CALLER PUSH2 0x9D3 JUMP JUMPDEST SWAP1 POP PUSH0 DUP2 GT ISZERO PUSH2 0x1116 JUMPI PUSH0 PUSH1 0xC PUSH0 CALLER PUSH20 0xFFFFFFFFFFFFFFFFFFFFFFFFFFFFFFFFFFFFFFFF AND PUSH20 0xFFFFFFFFFFFFFFFFFFFFFFFFFFFFFFFFFFFFFFFF AND DUP2 MSTORE PUSH1 0x20 ADD SWAP1 DUP2 MSTORE PUSH1 0x20 ADD PUSH0 KECCAK256 DUP2 SWAP1 SSTORE POP PUSH2 0x10C7 ADDRESS CALLER DUP4 PUSH2 0x226D JUMP JUMPDEST CALLER PUSH20 0xFFFFFFFFFFFFFFFFFFFFFFFFFFFFFFFFFFFFFFFF AND PUSH32 0xE2403640BA68FED3A2F88B7557551D1993F84B99BB10FF833F0CF8DB0C5E0486 DUP3 PUSH1 0x40 MLOAD PUSH2 0x110D SWAP2 SWAP1 PUSH2 0x2D43 JUMP JUMPDEST PUSH1 0x40 MLOAD DUP1 SWAP2 SUB SWAP1 LOG2 JUMPDEST POP PUSH2 0x111F PUSH2 0x2263 JUMP JUMPDEST JUMP JUMPDEST PUSH0 PUSH2 0x112B CALLER PUSH2 0xB5A JUMP JUMPDEST SWAP1 POP PUSH0 DUP2 GT PUSH2 0x116F JUMPI PUSH1 0x40 MLOAD PUSH32 0x8C379A000000000000000000000000000000000000000000000000000000000 DUP2 MSTORE PUSH1 0x4 ADD PUSH2 0x1166 SWAP1 PUSH2 0x33C0 JUMP JUMPDEST PUSH1 0x40 MLOAD DUP1 SWAP2 SUB SWAP1 REVERT JUMPDEST DUP1 PUSH1 0xF PUSH0 CALLER PUSH20 0xFFFFFFFFFFFFFFFFFFFFFFFFFFFFFFFFFFFFFFFF AND PUSH20 0xFFFFFFFFFFFFFFFFFFFFFFFFFFFFFFFFFFFFFFFF AND DUP2 MSTORE PUSH1 0x20 ADD SWAP1 DUP2 MSTORE PUSH1 0x20 ADD PUSH0 KECCAK256 PUSH0 DUP3 DUP3 SLOAD PUSH2 0x11BB SWAP2 SWAP1 PUSH2 0x3090 JUMP JUMPDEST SWAP3 POP POP DUP2 SWAP1 SSTORE POP PUSH2 0x11CD ADDRESS CALLER DUP4 PUSH2 0x20C1 JUMP JUMPDEST CALLER PUSH20 0xFFFFFFFFFFFFFFFFFFFFFFFFFFFFFFFFFFFFFFFF AND PUSH32 0xC7798891864187665AC6DD119286E44EC13F014527AEEB2B8EB3FD413DF93179 DUP3 PUSH1 0x40 MLOAD PUSH2 0x1213 SWAP2 SWAP1 PUSH2 0x2D43 JUMP JUMPDEST PUSH1 0x40 MLOAD DUP1 SWAP2 SUB SWAP1 LOG2 POP JUMP JUMPDEST PUSH9 0x56BC75E2D63100000 DUP2 JUMP JUMPDEST PUSH1 0xD PUSH1 0x20 MSTORE DUP1 PUSH0 MSTORE PUSH1 0x40 PUSH0 KECCAK256 PUSH0 SWAP2 POP SWAP1 POP SLOAD DUP2 JUMP JUMPDEST PUSH0 DUP1 PUSH0 DUP4 PUSH20 0xFFFFFFFFFFFFFFFFFFFFFFFFFFFFFFFFFFFFFFFF AND PUSH20 0xFFFFFFFFFFFFFFFFFFFFFFFFFFFFFFFFFFFFFFFF AND DUP2 MSTORE PUSH1 0x20 ADD SWAP1 DUP2 MSTORE PUSH1 0x20 ADD PUSH0 KECCAK256 SLOAD SWAP1 POP SWAP2 SWAP1 POP JUMP JUMPDEST PUSH2 0x128D PUSH2 0x235D JUMP JUMPDEST PUSH2 0x1296 PUSH0 PUSH2 0x23E4 JUMP JUMPDEST JUMP JUMPDEST PUSH2 0x12A0 PUSH2 0x235D JUMP JUMPDEST PUSH0 PUSH8 0xDE0B6B3A7640000 SWAP1 POP PUSH2 0x12D8 ADDRESS PUSH1 0x7 PUSH0 SWAP1 SLOAD SWAP1 PUSH2 0x100 EXP SWAP1 DIV PUSH20 0xFFFFFFFFFFFFFFFFFFFFFFFFFFFFFFFFFFFFFFFF AND DUP5 PUSH2 0x201D JUMP JUMPDEST PUSH1 0x7 PUSH0 SWAP1 SLOAD SWAP1 PUSH2 0x100 EXP SWAP1 DIV PUSH20 0xFFFFFFFFFFFFFFFFFFFFFFFFFFFFFFFFFFFFFFFF AND PUSH20 0xFFFFFFFFFFFFFFFFFFFFFFFFFFFFFFFFFFFFFFFF AND PUSH4 0xF305D719 DUP3 ADDRESS DUP6 PUSH0 DUP1 PUSH2 0x1322 PUSH2 0x15C0 JUMP JUMPDEST TIMESTAMP PUSH1 0x40 MLOAD DUP9 PUSH4 0xFFFFFFFF AND PUSH1 0xE0 SHL DUP2 MSTORE PUSH1 0x4 ADD PUSH2 0x1344 SWAP7 SWAP6 SWAP5 SWAP4 SWAP3 SWAP2 SWAP1 PUSH2 0x3417 JUMP JUMPDEST PUSH1 0x60 PUSH1 0x40 MLOAD DUP1 DUP4 SUB DUP2 DUP6 DUP9 GAS CALL ISZERO DUP1 ISZERO PUSH2 0x1360 JUMPI RETURNDATASIZE PUSH0 DUP1 RETURNDATACOPY RETURNDATASIZE PUSH0 REVERT JUMPDEST POP POP POP POP POP PUSH1 0x40 MLOAD RETURNDATASIZE PUSH1 0x1F NOT PUSH1 0x1F DUP3 ADD AND DUP3 ADD DUP1 PUSH1 0x40 MSTORE POP DUP2 ADD SWAP1 PUSH2 0x1385 SWAP2 SWAP1 PUSH2 0x348A JUMP JUMPDEST POP POP POP CALLER PUSH20 0xFFFFFFFFFFFFFFFFFFFFFFFFFFFFFFFFFFFFFFFF AND PUSH32 0xAC1D76749E5447B7B16F5AB61447E1BD502F3BB4807AF3B28E620D1700A6EE45 DUP4 DUP4 PUSH1 0x40 MLOAD PUSH2 0x13D0 SWAP3 SWAP2 SWAP1 PUSH2 0x34DA JUMP JUMPDEST PUSH1 0x40 MLOAD DUP1 SWAP2 SUB SWAP1 LOG2 POP POP JUMP JUMPDEST PUSH1 0x7 PUSH0 SWAP1 SLOAD SWAP1 PUSH2 0x100 EXP SWAP1 DIV PUSH20 0xFFFFFFFFFFFFFFFFFFFFFFFFFFFFFFFFFFFFFFFF AND DUP2 JUMP JUMPDEST PUSH1 0xA SLOAD DUP2 JUMP JUMPDEST PUSH2 0x140F PUSH2 0x235D JUMP JUMPDEST PUSH1 0x11 SLOAD TIMESTAMP GT PUSH2 0x1453 JUMPI PUSH1 0x40 MLOAD PUSH32 0x8C379A000000000000000000000000000000000000000000000000000000000 DUP2 MSTORE PUSH1 0x4 ADD PUSH2 0x144A SWAP1 PUSH2 0x354B JUMP JUMPDEST PUSH1 0x40 MLOAD DUP1 SWAP2 SUB SWAP1 REVERT JUMPDEST PUSH0 JUMPDEST PUSH1 0x14 DUP1 SLOAD SWAP1 POP DUP2 LT ISZERO PUSH2 0x159B JUMPI PUSH0 PUSH1 0x14 DUP3 DUP2 SLOAD DUP2 LT PUSH2 0x1477 JUMPI PUSH2 0x1476 PUSH2 0x32D5 JUMP JUMPDEST JUMPDEST SWAP1 PUSH0 MSTORE PUSH1 0x20 PUSH0 KECCAK256 ADD PUSH0 SWAP1 SLOAD SWAP1 PUSH2 0x100 EXP SWAP1 DIV PUSH20 0xFFFFFFFFFFFFFFFFFFFFFFFFFFFFFFFFFFFFFFFF AND SWAP1 POP PUSH0 PUSH1 0x10 PUSH0 DUP4 PUSH20 0xFFFFFFFFFFFFFFFFFFFFFFFFFFFFFFFFFFFFFFFF AND PUSH20 0xFFFFFFFFFFFFFFFFFFFFFFFFFFFFFFFFFFFFFFFF AND DUP2 MSTORE PUSH1 0x20 ADD SWAP1 DUP2 MSTORE PUSH1 0x20 ADD PUSH0 KECCAK256 SLOAD SWAP1 POP PUSH0 DUP2 GT ISZERO PUSH2 0x1586 JUMPI PUSH0 PUSH1 0x10 PUSH0 DUP5 PUSH20 0xFFFFFFFFFFFFFFFFFFFFFFFFFFFFFFFFFFFFFFFF AND PUSH20 0xFFFFFFFFFFFFFFFFFFFFFFFFFFFFFFFFFFFFFFFF AND DUP2 MSTORE PUSH1 0x20 ADD SWAP1 DUP2 MSTORE PUSH1 0x20 ADD PUSH0 KECCAK256 DUP2 SWAP1 SSTORE POP PUSH2 0x1537 ADDRESS DUP4 DUP4 PUSH2 0x20C1 JUMP JUMPDEST DUP2 PUSH20 0xFFFFFFFFFFFFFFFFFFFFFFFFFFFFFFFFFFFFFFFF AND PUSH32 0xFE72567E4F43723D5F9A3A8B91484EDB24388F30C47851012E52A0C2FCD73FDE DUP3 PUSH1 0x40 MLOAD PUSH2 0x157D SWAP2 SWAP1 PUSH2 0x2D43 JUMP JUMPDEST PUSH1 0x40 MLOAD DUP1 SWAP2 SUB SWAP1 LOG2 JUMPDEST POP POP DUP1 DUP1 PUSH2 0x1593 SWAP1 PUSH2 0x332F JUMP JUMPDEST SWAP2 POP POP PUSH2 0x1455 JUMP JUMPDEST POP TIMESTAMP PUSH1 0x11 DUP2 SWAP1 SSTORE POP JUMP JUMPDEST PUSH1 0x13 SLOAD DUP2 JUMP JUMPDEST PUSH1 0xC PUSH1 0x20 MSTORE DUP1 PUSH0 MSTORE PUSH1 0x40 PUSH0 KECCAK256 PUSH0 SWAP2 POP SWAP1 POP SLOAD DUP2 JUMP JUMPDEST PUSH0 PUSH1 0x6 PUSH0 SWAP1 SLOAD SWAP1 PUSH2 0x100 EXP SWAP1 DIV PUSH20 0xFFFFFFFFFFFFFFFFFFFFFFFFFFFFFFFFFFFFFFFF AND SWAP1 POP SWAP1 JUMP JUMPDEST PUSH1 0x60 PUSH1 0x4 DUP1 SLOAD PUSH2 0x15F7 SWAP1 PUSH2 0x31C1 JUMP JUMPDEST DUP1 PUSH1 0x1F ADD PUSH1 0x20 DUP1 SWAP2 DIV MUL PUSH1 0x20 ADD PUSH1 0x40 MLOAD SWAP1 DUP2 ADD PUSH1 0x40 MSTORE DUP1 SWAP3 SWAP2 SWAP1 DUP2 DUP2 MSTORE PUSH1 0x20 ADD DUP3 DUP1 SLOAD PUSH2 0x1623 SWAP1 PUSH2 0x31C1 JUMP JUMPDEST DUP1 ISZERO PUSH2 0x166E JUMPI DUP1 PUSH1 0x1F LT PUSH2 0x1645 JUMPI PUSH2 0x100 DUP1 DUP4 SLOAD DIV MUL DUP4 MSTORE SWAP2 PUSH1 0x20 ADD SWAP2 PUSH2 0x166E JUMP JUMPDEST DUP3 ADD SWAP2 SWAP1 PUSH0 MSTORE PUSH1 0x20 PUSH0 KECCAK256 SWAP1 JUMPDEST DUP2 SLOAD DUP2 MSTORE SWAP1 PUSH1 0x1 ADD SWAP1 PUSH1 0x20 ADD DUP1 DUP4 GT PUSH2 0x1651 JUMPI DUP3 SWAP1 SUB PUSH1 0x1F AND DUP3 ADD SWAP2 JUMPDEST POP POP POP POP POP SWAP1 POP SWAP1 JUMP JUMPDEST PUSH1 0x14 DUP2 DUP2 SLOAD DUP2 LT PUSH2 0x1687 JUMPI PUSH0 DUP1 REVERT JUMPDEST SWAP1 PUSH0 MSTORE PUSH1 0x20 PUSH0 KECCAK256 ADD PUSH0 SWAP2 POP SLOAD SWAP1 PUSH2 0x100 EXP SWAP1 DIV PUSH20 0xFFFFFFFFFFFFFFFFFFFFFFFFFFFFFFFFFFFFFFFF AND DUP2 JUMP JUMPDEST PUSH1 0x15 PUSH1 0x20 MSTORE DUP1 PUSH0 MSTORE PUSH1 0x40 PUSH0 KECCAK256 PUSH0 SWAP2 POP SLOAD SWAP1 PUSH2 0x100 EXP SWAP1 DIV PUSH1 0xFF AND DUP2 JUMP JUMPDEST PUSH0 DUP1 PUSH1 0x8 PUSH0 SWAP1 SLOAD SWAP1 PUSH2 0x100 EXP SWAP1 DIV PUSH20 0xFFFFFFFFFFFFFFFFFFFFFFFFFFFFFFFFFFFFFFFF AND PUSH20 0xFFFFFFFFFFFFFFFFFFFFFFFFFFFFFFFFFFFFFFFF AND PUSH4 0x70A08231 DUP5 PUSH1 0x40 MLOAD DUP3 PUSH4 0xFFFFFFFF AND PUSH1 0xE0 SHL DUP2 MSTORE PUSH1 0x4 ADD PUSH2 0x172C SWAP2 SWAP1 PUSH2 0x2FD3 JUMP JUMPDEST PUSH1 0x20 PUSH1 0x40 MLOAD DUP1 DUP4 SUB DUP2 DUP7 GAS STATICCALL ISZERO DUP1 ISZERO PUSH2 0x1747 JUMPI RETURNDATASIZE PUSH0 DUP1 RETURNDATACOPY RETURNDATASIZE PUSH0 REVERT JUMPDEST POP POP POP POP PUSH1 0x40 MLOAD RETURNDATASIZE PUSH1 0x1F NOT PUSH1 0x1F DUP3 ADD AND DUP3 ADD DUP1 PUSH1 0x40 MSTORE POP DUP2 ADD SWAP1 PUSH2 0x176B SWAP2 SWAP1 PUSH2 0x3569 JUMP JUMPDEST SWAP1 POP PUSH0 PUSH1 0xD PUSH0 DUP6 PUSH20 0xFFFFFFFFFFFFFFFFFFFFFFFFFFFFFFFFFFFFFFFF AND PUSH20 0xFFFFFFFFFFFFFFFFFFFFFFFFFFFFFFFFFFFFFFFF AND DUP2 MSTORE PUSH1 0x20 ADD SWAP1 DUP2 MSTORE PUSH1 0x20 ADD PUSH0 KECCAK256 SLOAD TIMESTAMP PUSH2 0x17B7 SWAP2 SWAP1 PUSH2 0x3090 JUMP JUMPDEST SWAP1 POP PUSH8 0xDE0B6B3A7640000 PUSH1 0x13 SLOAD DUP3 DUP5 PUSH2 0x17D1 SWAP2 SWAP1 PUSH2 0x30C3 JUMP JUMPDEST PUSH2 0x17DB SWAP2 SWAP1 PUSH2 0x30C3 JUMP JUMPDEST PUSH2 0x17E5 SWAP2 SWAP1 PUSH2 0x3131 JUMP JUMPDEST SWAP3 POP POP POP SWAP2 SWAP1 POP JUMP JUMPDEST PUSH2 0x17F6 PUSH2 0x217E JUMP JUMPDEST PUSH0 PUSH20 0xFFFFFFFFFFFFFFFFFFFFFFFFFFFFFFFFFFFFFFFF AND PUSH1 0x8 PUSH0 SWAP1 SLOAD SWAP1 PUSH2 0x100 EXP SWAP1 DIV PUSH20 0xFFFFFFFFFFFFFFFFFFFFFFFFFFFFFFFFFFFFFFFF AND PUSH20 0xFFFFFFFFFFFFFFFFFFFFFFFFFFFFFFFFFFFFFFFF AND SUB PUSH2 0x1885 JUMPI PUSH1 0x40 MLOAD PUSH32 0x8C379A000000000000000000000000000000000000000000000000000000000 DUP2 MSTORE PUSH1 0x4 ADD PUSH2 0x187C SWAP1 PUSH2 0x35DE JUMP JUMPDEST PUSH1 0x40 MLOAD DUP1 SWAP2 SUB SWAP1 REVERT JUMPDEST PUSH0 PUSH1 0xD PUSH0 CALLER PUSH20 0xFFFFFFFFFFFFFFFFFFFFFFFFFFFFFFFFFFFFFFFF AND PUSH20 0xFFFFFFFFFFFFFFFFFFFFFFFFFFFFFFFFFFFFFFFF AND DUP2 MSTORE PUSH1 0x20 ADD SWAP1 DUP2 MSTORE PUSH1 0x20 ADD PUSH0 KECCAK256 SLOAD SUB PUSH2 0x190C JUMPI TIMESTAMP PUSH1 0xD PUSH0 CALLER PUSH20 0xFFFFFFFFFFFFFFFFFFFFFFFFFFFFFFFFFFFFFFFF AND PUSH20 0xFFFFFFFFFFFFFFFFFFFFFFFFFFFFFFFFFFFFFFFF AND DUP2 MSTORE PUSH1 0x20 ADD SWAP1 DUP2 MSTORE PUSH1 0x20 ADD PUSH0 KECCAK256 DUP2 SWAP1 SSTORE POP JUMPDEST PUSH2 0x1915 CALLER PUSH2 0x21CD JUMP JUMPDEST PUSH1 0x8 PUSH0 SWAP1 SLOAD SWAP1 PUSH2 0x100 EXP SWAP1 DIV PUSH20 0xFFFFFFFFFFFFFFFFFFFFFFFFFFFFFFFFFFFFFFFF AND PUSH20 0xFFFFFFFFFFFFFFFFFFFFFFFFFFFFFFFFFFFFFFFF AND PUSH4 0x23B872DD CALLER ADDRESS DUP5 PUSH1 0x40 MLOAD DUP5 PUSH4 0xFFFFFFFF AND PUSH1 0xE0 SHL DUP2 MSTORE PUSH1 0x4 ADD PUSH2 0x1973 SWAP4 SWAP3 SWAP2 SWAP1 PUSH2 0x35FC JUMP JUMPDEST PUSH1 0x20 PUSH1 0x40 MLOAD DUP1 DUP4 SUB DUP2 PUSH0 DUP8 GAS CALL ISZERO DUP1 ISZERO PUSH2 0x198F JUMPI RETURNDATASIZE PUSH0 DUP1 RETURNDATACOPY RETURNDATASIZE PUSH0 REVERT JUMPDEST POP POP POP POP PUSH1 0x40 MLOAD RETURNDATASIZE PUSH1 0x1F NOT PUSH1 0x1F DUP3 ADD AND DUP3 ADD DUP1 PUSH1 0x40 MSTORE POP DUP2 ADD SWAP1 PUSH2 0x19B3 SWAP2 SWAP1 PUSH2 0x32AA JUMP JUMPDEST POP DUP1 PUSH1 0xC PUSH0 CALLER PUSH20 0xFFFFFFFFFFFFFFFFFFFFFFFFFFFFFFFFFFFFFFFF AND PUSH20 0xFFFFFFFFFFFFFFFFFFFFFFFFFFFFFFFFFFFFFFFF AND DUP2 MSTORE PUSH1 0x20 ADD SWAP1 DUP2 MSTORE PUSH1 0x20 ADD PUSH0 KECCAK256 PUSH0 DUP3 DUP3 SLOAD PUSH2 0x1A00 SWAP2 SWAP1 PUSH2 0x3161 JUMP JUMPDEST SWAP3 POP POP DUP2 SWAP1 SSTORE POP PUSH1 0x15 PUSH0 CALLER PUSH20 0xFFFFFFFFFFFFFFFFFFFFFFFFFFFFFFFFFFFFFFFF AND PUSH20 0xFFFFFFFFFFFFFFFFFFFFFFFFFFFFFFFFFFFFFFFF AND DUP2 MSTORE PUSH1 0x20 ADD SWAP1 DUP2 MSTORE PUSH1 0x20 ADD PUSH0 KECCAK256 PUSH0 SWAP1 SLOAD SWAP1 PUSH2 0x100 EXP SWAP1 DIV PUSH1 0xFF AND PUSH2 0x1B0B JUMPI PUSH1 0x14 CALLER SWAP1 DUP1 PUSH1 0x1 DUP2 SLOAD ADD DUP1 DUP3 SSTORE DUP1 SWAP2 POP POP PUSH1 0x1 SWAP1 SUB SWAP1 PUSH0 MSTORE PUSH1 0x20 PUSH0 KECCAK256 ADD PUSH0 SWAP1 SWAP2 SWAP1 SWAP2 SWAP1 SWAP2 PUSH2 0x100 EXP DUP2 SLOAD DUP2 PUSH20 0xFFFFFFFFFFFFFFFFFFFFFFFFFFFFFFFFFFFFFFFF MUL NOT AND SWAP1 DUP4 PUSH20 0xFFFFFFFFFFFFFFFFFFFFFFFFFFFFFFFFFFFFFFFF AND MUL OR SWAP1 SSTORE POP PUSH1 0x1 PUSH1 0x15 PUSH0 CALLER PUSH20 0xFFFFFFFFFFFFFFFFFFFFFFFFFFFFFFFFFFFFFFFF AND PUSH20 0xFFFFFFFFFFFFFFFFFFFFFFFFFFFFFFFFFFFFFFFF AND DUP2 MSTORE PUSH1 0x20 ADD SWAP1 DUP2 MSTORE PUSH1 0x20 ADD PUSH0 KECCAK256 PUSH0 PUSH2 0x100 EXP DUP2 SLOAD DUP2 PUSH1 0xFF MUL NOT AND SWAP1 DUP4 ISZERO ISZERO MUL OR SWAP1 SSTORE POP JUMPDEST CALLER PUSH20 0xFFFFFFFFFFFFFFFFFFFFFFFFFFFFFFFFFFFFFFFF AND PUSH32 0xAC1D76749E5447B7B16F5AB61447E1BD502F3BB4807AF3B28E620D1700A6EE45 DUP3 PUSH0 PUSH1 0x40 MLOAD PUSH2 0x1B53 SWAP3 SWAP2 SWAP1 PUSH2 0x3631 JUMP JUMPDEST PUSH1 0x40 MLOAD DUP1 SWAP2 SUB SWAP1 LOG2 PUSH2 0x1B63 PUSH2 0x2263 JUMP JUMPDEST POP JUMP JUMPDEST PUSH0 DUP1 PUSH2 0x1B70 PUSH2 0x2016 JUMP JUMPDEST SWAP1 POP PUSH2 0x1B7D DUP2 DUP6 DUP6 PUSH2 0x20C1 JUMP JUMPDEST PUSH1 0x1 SWAP2 POP POP SWAP3 SWAP2 POP POP JUMP JUMPDEST PUSH1 0x9 PUSH0 SWAP1 SLOAD SWAP1 PUSH2 0x100 EXP SWAP1 DIV PUSH20 0xFFFFFFFFFFFFFFFFFFFFFFFFFFFFFFFFFFFFFFFF AND DUP2 JUMP JUMPDEST PUSH1 0x8 PUSH0 SWAP1 SLOAD SWAP1 PUSH2 0x100 EXP SWAP1 DIV PUSH20 0xFFFFFFFFFFFFFFFFFFFFFFFFFFFFFFFFFFFFFFFF AND DUP2 JUMP JUMPDEST PUSH1 0x11 SLOAD DUP2 JUMP JUMPDEST PUSH0 DUP1 PUSH2 0x1BE2 PUSH2 0xC02 JUMP JUMPDEST SUB PUSH2 0x1BEF JUMPI PUSH0 SWAP1 POP PUSH2 0x1C44 JUMP JUMPDEST PUSH2 0x1BF7 PUSH2 0xC02 JUMP JUMPDEST PUSH8 0xDE0B6B3A7640000 PUSH2 0x1C08 PUSH2 0x1DB3 JUMP JUMPDEST PUSH1 0x11 SLOAD TIMESTAMP PUSH2 0x1C16 SWAP2 SWAP1 PUSH2 0x3090 JUMP JUMPDEST PUSH2 0x1C20 SWAP2 SWAP1 PUSH2 0x30C3 JUMP JUMPDEST PUSH2 0x1C2A SWAP2 SWAP1 PUSH2 0x30C3 JUMP JUMPDEST PUSH2 0x1C34 SWAP2 SWAP1 PUSH2 0x3131 JUMP JUMPDEST PUSH1 0x12 SLOAD PUSH2 0x1C41 SWAP2 SWAP1 PUSH2 0x3161 JUMP JUMPDEST SWAP1 POP JUMPDEST SWAP1 JUMP JUMPDEST PUSH2 0x1C4F PUSH2 0x235D JUMP JUMPDEST DUP1 PUSH1 0x8 PUSH0 PUSH2 0x100 EXP DUP2 SLOAD DUP2 PUSH20 0xFFFFFFFFFFFFFFFFFFFFFFFFFFFFFFFFFFFFFFFF MUL NOT AND SWAP1 DUP4 PUSH20 0xFFFFFFFFFFFFFFFFFFFFFFFFFFFFFFFFFFFFFFFF AND MUL OR SWAP1 SSTORE POP POP JUMP JUMPDEST PUSH1 0xB PUSH1 0x20 MSTORE DUP1 PUSH0 MSTORE PUSH1 0x40 PUSH0 KECCAK256 PUSH0 SWAP2 POP SWAP1 POP SLOAD DUP2 JUMP JUMPDEST PUSH0 PUSH1 0x1 PUSH0 DUP5 PUSH20 0xFFFFFFFFFFFFFFFFFFFFFFFFFFFFFFFFFFFFFFFF AND PUSH20 0xFFFFFFFFFFFFFFFFFFFFFFFFFFFFFFFFFFFFFFFF AND DUP2 MSTORE PUSH1 0x20 ADD SWAP1 DUP2 MSTORE PUSH1 0x20 ADD PUSH0 KECCAK256 PUSH0 DUP4 PUSH20 0xFFFFFFFFFFFFFFFFFFFFFFFFFFFFFFFFFFFFFFFF AND PUSH20 0xFFFFFFFFFFFFFFFFFFFFFFFFFFFFFFFFFFFFFFFF AND DUP2 MSTORE PUSH1 0x20 ADD SWAP1 DUP2 MSTORE PUSH1 0x20 ADD PUSH0 KECCAK256 SLOAD SWAP1 POP SWAP3 SWAP2 POP POP JUMP JUMPDEST PUSH1 0x12 SLOAD DUP2 JUMP JUMPDEST PUSH2 0x1D37 PUSH2 0x235D JUMP JUMPDEST PUSH0 PUSH20 0xFFFFFFFFFFFFFFFFFFFFFFFFFFFFFFFFFFFFFFFF AND DUP2 PUSH20 0xFFFFFFFFFFFFFFFFFFFFFFFFFFFFFFFFFFFFFFFF AND SUB PUSH2 0x1DA7 JUMPI PUSH0 PUSH1 0x40 MLOAD PUSH32 0x1E4FBDF700000000000000000000000000000000000000000000000000000000 DUP2 MSTORE PUSH1 0x4 ADD PUSH2 0x1D9E SWAP2 SWAP1 PUSH2 0x2FD3 JUMP JUMPDEST PUSH1 0x40 MLOAD DUP1 SWAP2 SUB SWAP1 REVERT JUMPDEST PUSH2 0x1DB0 DUP2 PUSH2 0x23E4 JUMP JUMPDEST POP JUMP JUMPDEST PUSH0 DUP1 PUSH1 0xD PUSH0 CALLER PUSH20 0xFFFFFFFFFFFFFFFFFFFFFFFFFFFFFFFFFFFFFFFF AND PUSH20 0xFFFFFFFFFFFFFFFFFFFFFFFFFFFFFFFFFFFFFFFF AND DUP2 MSTORE PUSH1 0x20 ADD SWAP1 DUP2 MSTORE PUSH1 0x20 ADD PUSH0 KECCAK256 SLOAD TIMESTAMP PUSH2 0x1DFE SWAP2 SWAP1 PUSH2 0x3090 JUMP JUMPDEST SWAP1 POP PUSH3 0x13C680 DUP2 LT ISZERO PUSH2 0x1E2B JUMPI PUSH3 0x15180 PUSH9 0x56BC75E2D63100000 PUSH2 0x1E23 SWAP2 SWAP1 PUSH2 0x3131 JUMP JUMPDEST SWAP2 POP POP PUSH2 0x1FFE JUMP JUMPDEST PUSH3 0x1D0100 DUP2 LT ISZERO PUSH2 0x1E69 JUMPI PUSH3 0x15180 PUSH8 0x8AC7230489E80000 PUSH9 0x56BC75E2D63100000 PUSH2 0x1E57 SWAP2 SWAP1 PUSH2 0x3090 JUMP JUMPDEST PUSH2 0x1E61 SWAP2 SWAP1 PUSH2 0x3131 JUMP JUMPDEST SWAP2 POP POP PUSH2 0x1FFE JUMP JUMPDEST PUSH3 0x263B80 DUP2 LT ISZERO PUSH2 0x1EA8 JUMPI PUSH3 0x15180 PUSH9 0x1158E460913D00000 PUSH9 0x56BC75E2D63100000 PUSH2 0x1E96 SWAP2 SWAP1 PUSH2 0x3090 JUMP JUMPDEST PUSH2 0x1EA0 SWAP2 SWAP1 PUSH2 0x3131 JUMP JUMPDEST SWAP2 POP POP PUSH2 0x1FFE JUMP JUMPDEST PUSH3 0x2F7600 DUP2 LT ISZERO PUSH2 0x1EE7 JUMPI PUSH3 0x15180 PUSH9 0x1A055690D9DB80000 PUSH9 0x56BC75E2D63100000 PUSH2 0x1ED5 SWAP2 SWAP1 PUSH2 0x3090 JUMP JUMPDEST PUSH2 0x1EDF SWAP2 SWAP1 PUSH2 0x3131 JUMP JUMPDEST SWAP2 POP POP PUSH2 0x1FFE JUMP JUMPDEST PUSH3 0x38B080 DUP2 LT ISZERO PUSH2 0x1F26 JUMPI PUSH3 0x15180 PUSH9 0x22B1C8C1227A00000 PUSH9 0x56BC75E2D63100000 PUSH2 0x1F14 SWAP2 SWAP1 PUSH2 0x3090 JUMP JUMPDEST PUSH2 0x1F1E SWAP2 SWAP1 PUSH2 0x3131 JUMP JUMPDEST SWAP2 POP POP PUSH2 0x1FFE JUMP JUMPDEST PUSH3 0x41EB00 DUP2 LT ISZERO PUSH2 0x1F65 JUMPI PUSH3 0x15180 PUSH9 0x2B5E3AF16B1880000 PUSH9 0x56BC75E2D63100000 PUSH2 0x1F53 SWAP2 SWAP1 PUSH2 0x3090 JUMP JUMPDEST PUSH2 0x1F5D SWAP2 SWAP1 PUSH2 0x3131 JUMP JUMPDEST SWAP2 POP POP PUSH2 0x1FFE JUMP JUMPDEST PUSH3 0x4B2580 DUP2 LT ISZERO PUSH2 0x1FA4 JUMPI PUSH3 0x15180 PUSH9 0x340AAD21B3B700000 PUSH9 0x56BC75E2D63100000 PUSH2 0x1F92 SWAP2 SWAP1 PUSH2 0x3090 JUMP JUMPDEST PUSH2 0x1F9C SWAP2 SWAP1 PUSH2 0x3131 JUMP JUMPDEST SWAP2 POP POP PUSH2 0x1FFE JUMP JUMPDEST PUSH3 0x546000 DUP2 LT ISZERO PUSH2 0x1FE3 JUMPI PUSH3 0x15180 PUSH9 0x3CB71F51FC5580000 PUSH9 0x56BC75E2D63100000 PUSH2 0x1FD1 SWAP2 SWAP1 PUSH2 0x3090 JUMP JUMPDEST PUSH2 0x1FDB SWAP2 SWAP1 PUSH2 0x3131 JUMP JUMPDEST SWAP2 POP POP PUSH2 0x1FFE JUMP JUMPDEST PUSH3 0x15180 PUSH8 0x8AC7230489E80000 PUSH2 0x1FFA SWAP2 SWAP1 PUSH2 0x3131 JUMP JUMPDEST SWAP2 POP POP JUMPDEST SWAP1 JUMP JUMPDEST PUSH1 0x10 PUSH1 0x20 MSTORE DUP1 PUSH0 MSTORE PUSH1 0x40 PUSH0 KECCAK256 PUSH0 SWAP2 POP SWAP1 POP SLOAD DUP2 JUMP JUMPDEST PUSH0 CALLER SWAP1 POP SWAP1 JUMP JUMPDEST PUSH2 0x202A DUP4 DUP4 DUP4 PUSH1 0x1 PUSH2 0x24A7 JUMP JUMPDEST POP POP POP JUMP JUMPDEST PUSH0 PUSH2 0x203A DUP5 DUP5 PUSH2 0x1CA7 JUMP JUMPDEST SWAP1 POP PUSH32 0xFFFFFFFFFFFFFFFFFFFFFFFFFFFFFFFFFFFFFFFFFFFFFFFFFFFFFFFFFFFFFFFF DUP2 EQ PUSH2 0x20BB JUMPI DUP2 DUP2 LT ISZERO PUSH2 0x20AC JUMPI DUP3 DUP2 DUP4 PUSH1 0x40 MLOAD PUSH32 0xFB8F41B200000000000000000000000000000000000000000000000000000000 DUP2 MSTORE PUSH1 0x4 ADD PUSH2 0x20A3 SWAP4 SWAP3 SWAP2 SWAP1 PUSH2 0x3658 JUMP JUMPDEST PUSH1 0x40 MLOAD DUP1 SWAP2 SUB SWAP1 REVERT JUMPDEST PUSH2 0x20BA DUP5 DUP5 DUP5 DUP5 SUB PUSH0 PUSH2 0x24A7 JUMP JUMPDEST JUMPDEST POP POP POP POP JUMP JUMPDEST PUSH0 PUSH1 0x64 PUSH1 0xA SLOAD DUP4 PUSH2 0x20D2 SWAP2 SWAP1 PUSH2 0x30C3 JUMP JUMPDEST PUSH2 0x20DC SWAP2 SWAP1 PUSH2 0x3131 JUMP JUMPDEST SWAP1 POP PUSH0 DUP2 DUP4 PUSH2 0x20EB SWAP2 SWAP1 PUSH2 0x3090 JUMP JUMPDEST SWAP1 POP PUSH0 PUSH1 0x64 PUSH1 0x4B DUP5 PUSH2 0x20FD SWAP2 SWAP1 PUSH2 0x30C3 JUMP JUMPDEST PUSH2 0x2107 SWAP2 SWAP1 PUSH2 0x3131 JUMP JUMPDEST SWAP1 POP PUSH0 DUP2 DUP5 PUSH2 0x2116 SWAP2 SWAP1 PUSH2 0x3090 JUMP JUMPDEST SWAP1 POP PUSH2 0x2123 DUP8 ADDRESS DUP5 PUSH2 0x226D JUMP JUMPDEST PUSH2 0x214F DUP8 PUSH1 0x9 PUSH0 SWAP1 SLOAD SWAP1 PUSH2 0x100 EXP SWAP1 DIV PUSH20 0xFFFFFFFFFFFFFFFFFFFFFFFFFFFFFFFFFFFFFFFF AND DUP4 PUSH2 0x226D JUMP JUMPDEST PUSH2 0x215A DUP8 DUP8 DUP6 PUSH2 0x226D JUMP JUMPDEST PUSH2 0x2163 DUP8 PUSH2 0x2676 JUMP JUMPDEST PUSH2 0x216C DUP7 PUSH2 0x2676 JUMP JUMPDEST PUSH2 0x2175 DUP3 PUSH2 0x26E2 JUMP JUMPDEST POP POP POP POP POP POP POP JUMP JUMPDEST PUSH1 0x2 PUSH1 0x5 SLOAD SUB PUSH2 0x21C3 JUMPI PUSH1 0x40 MLOAD PUSH32 0x8C379A000000000000000000000000000000000000000000000000000000000 DUP2 MSTORE PUSH1 0x4 ADD PUSH2 0x21BA SWAP1 PUSH2 0x36D7 JUMP JUMPDEST PUSH1 0x40 MLOAD DUP1 SWAP2 SUB SWAP1 REVERT JUMPDEST PUSH1 0x2 PUSH1 0x5 DUP2 SWAP1 SSTORE POP JUMP JUMPDEST PUSH2 0x21D5 PUSH2 0x1BD8 JUMP JUMPDEST PUSH1 0x12 DUP2 SWAP1 SSTORE POP TIMESTAMP PUSH1 0x11 DUP2 SWAP1 SSTORE POP PUSH0 PUSH20 0xFFFFFFFFFFFFFFFFFFFFFFFFFFFFFFFFFFFFFFFF AND DUP2 PUSH20 0xFFFFFFFFFFFFFFFFFFFFFFFFFFFFFFFFFFFFFFFF AND EQ PUSH2 0x2260 JUMPI PUSH2 0x221E DUP2 PUSH2 0x9D3 JUMP JUMPDEST PUSH1 0xC PUSH0 DUP4 PUSH20 0xFFFFFFFFFFFFFFFFFFFFFFFFFFFFFFFFFFFFFFFF AND PUSH20 0xFFFFFFFFFFFFFFFFFFFFFFFFFFFFFFFFFFFFFFFF AND DUP2 MSTORE PUSH1 0x20 ADD SWAP1 DUP2 MSTORE PUSH1 0x20 ADD PUSH0 KECCAK256 DUP2 SWAP1 SSTORE POP JUMPDEST POP JUMP JUMPDEST PUSH1 0x1 PUSH1 0x5 DUP2 SWAP1 SSTORE POP JUMP JUMPDEST PUSH0 PUSH20 0xFFFFFFFFFFFFFFFFFFFFFFFFFFFFFFFFFFFFFFFF AND DUP4 PUSH20 0xFFFFFFFFFFFFFFFFFFFFFFFFFFFFFFFFFFFFFFFF AND SUB PUSH2 0x22DD JUMPI PUSH0 PUSH1 0x40 MLOAD PUSH32 0x96C6FD1E00000000000000000000000000000000000000000000000000000000 DUP2 MSTORE PUSH1 0x4 ADD PUSH2 0x22D4 SWAP2 SWAP1 PUSH2 0x2FD3 JUMP JUMPDEST PUSH1 0x40 MLOAD DUP1 SWAP2 SUB SWAP1 REVERT JUMPDEST PUSH0 PUSH20 0xFFFFFFFFFFFFFFFFFFFFFFFFFFFFFFFFFFFFFFFF AND DUP3 PUSH20 0xFFFFFFFFFFFFFFFFFFFFFFFFFFFFFFFFFFFFFFFF AND SUB PUSH2 0x234D JUMPI PUSH0 PUSH1 0x40 MLOAD PUSH32 0xEC442F0500000000000000000000000000000000000000000000000000000000 DUP2 MSTORE PUSH1 0x4 ADD PUSH2 0x2344 SWAP2 SWAP1 PUSH2 0x2FD3 JUMP JUMPDEST PUSH1 0x40 MLOAD DUP1 SWAP2 SUB SWAP1 REVERT JUMPDEST PUSH2 0x2358 DUP4 DUP4 DUP4 PUSH2 0x2909 JUMP JUMPDEST POP POP POP JUMP JUMPDEST PUSH2 0x2365 PUSH2 0x2016 JUMP JUMPDEST PUSH20 0xFFFFFFFFFFFFFFFFFFFFFFFFFFFFFFFFFFFFFFFF AND PUSH2 0x2383 PUSH2 0x15C0 JUMP JUMPDEST PUSH20 0xFFFFFFFFFFFFFFFFFFFFFFFFFFFFFFFFFFFFFFFF AND EQ PUSH2 0x23E2 JUMPI PUSH2 0x23A6 PUSH2 0x2016 JUMP JUMPDEST PUSH1 0x40 MLOAD PUSH32 0x118CDAA700000000000000000000000000000000000000000000000000000000 DUP2 MSTORE PUSH1 0x4 ADD PUSH2 0x23D9 SWAP2 SWAP1 PUSH2 0x2FD3 JUMP JUMPDEST PUSH1 0x40 MLOAD DUP1 SWAP2 SUB SWAP1 REVERT JUMPDEST JUMP JUMPDEST PUSH0 PUSH1 0x6 PUSH0 SWAP1 SLOAD SWAP1 PUSH2 0x100 EXP SWAP1 DIV PUSH20 0xFFFFFFFFFFFFFFFFFFFFFFFFFFFFFFFFFFFFFFFF AND SWAP1 POP DUP2 PUSH1 0x6 PUSH0 PUSH2 0x100 EXP DUP2 SLOAD DUP2 PUSH20 0xFFFFFFFFFFFFFFFFFFFFFFFFFFFFFFFFFFFFFFFF MUL NOT AND SWAP1 DUP4 PUSH20 0xFFFFFFFFFFFFFFFFFFFFFFFFFFFFFFFFFFFFFFFF AND MUL OR SWAP1 SSTORE POP DUP2 PUSH20 0xFFFFFFFFFFFFFFFFFFFFFFFFFFFFFFFFFFFFFFFF AND DUP2 PUSH20 0xFFFFFFFFFFFFFFFFFFFFFFFFFFFFFFFFFFFFFFFF AND PUSH32 0x8BE0079C531659141344CD1FD0A4F28419497F9722A3DAAFE3B4186F6B6457E0 PUSH1 0x40 MLOAD PUSH1 0x40 MLOAD DUP1 SWAP2 SUB SWAP1 LOG3 POP POP JUMP JUMPDEST PUSH0 PUSH20 0xFFFFFFFFFFFFFFFFFFFFFFFFFFFFFFFFFFFFFFFF AND DUP5 PUSH20 0xFFFFFFFFFFFFFFFFFFFFFFFFFFFFFFFFFFFFFFFF AND SUB PUSH2 0x2517 JUMPI PUSH0 PUSH1 0x40 MLOAD PUSH32 0xE602DF0500000000000000000000000000000000000000000000000000000000 DUP2 MSTORE PUSH1 0x4 ADD PUSH2 0x250E SWAP2 SWAP1 PUSH2 0x2FD3 JUMP JUMPDEST PUSH1 0x40 MLOAD DUP1 SWAP2 SUB SWAP1 REVERT JUMPDEST PUSH0 PUSH20 0xFFFFFFFFFFFFFFFFFFFFFFFFFFFFFFFFFFFFFFFF AND DUP4 PUSH20 0xFFFFFFFFFFFFFFFFFFFFFFFFFFFFFFFFFFFFFFFF AND SUB PUSH2 0x2587 JUMPI PUSH0 PUSH1 0x40 MLOAD PUSH32 0x94280D6200000000000000000000000000000000000000000000000000000000 DUP2 MSTORE PUSH1 0x4 ADD PUSH2 0x257E SWAP2 SWAP1 PUSH2 0x2FD3 JUMP JUMPDEST PUSH1 0x40 MLOAD DUP1 SWAP2 SUB SWAP1 REVERT JUMPDEST DUP2 PUSH1 0x1 PUSH0 DUP7 PUSH20 0xFFFFFFFFFFFFFFFFFFFFFFFFFFFFFFFFFFFFFFFF AND PUSH20 0xFFFFFFFFFFFFFFFFFFFFFFFFFFFFFFFFFFFFFFFF AND DUP2 MSTORE PUSH1 0x20 ADD SWAP1 DUP2 MSTORE PUSH1 0x20 ADD PUSH0 KECCAK256 PUSH0 DUP6 PUSH20 0xFFFFFFFFFFFFFFFFFFFFFFFFFFFFFFFFFFFFFFFF AND PUSH20 0xFFFFFFFFFFFFFFFFFFFFFFFFFFFFFFFFFFFFFFFF AND DUP2 MSTORE PUSH1 0x20 ADD SWAP1 DUP2 MSTORE PUSH1 0x20 ADD PUSH0 KECCAK256 DUP2 SWAP1 SSTORE POP DUP1 ISZERO PUSH2 0x2670 JUMPI DUP3 PUSH20 0xFFFFFFFFFFFFFFFFFFFFFFFFFFFFFFFFFFFFFFFF AND DUP5 PUSH20 0xFFFFFFFFFFFFFFFFFFFFFFFFFFFFFFFFFFFFFFFF AND PUSH32 0x8C5BE1E5EBEC7D5BD14F71427D1E84F3DD0314C0F7B2291E5B200AC8C7C3B925 DUP5 PUSH1 0x40 MLOAD PUSH2 0x2667 SWAP2 SWAP1 PUSH2 0x2D43 JUMP JUMPDEST PUSH1 0x40 MLOAD DUP1 SWAP2 SUB SWAP1 LOG3 JUMPDEST POP POP POP POP JUMP JUMPDEST PUSH0 PUSH2 0x2680 DUP3 PUSH2 0x16D0 JUMP JUMPDEST SWAP1 POP PUSH0 DUP2 GT ISZERO PUSH2 0x26DE JUMPI DUP1 PUSH1 0x10 PUSH0 DUP5 PUSH20 0xFFFFFFFFFFFFFFFFFFFFFFFFFFFFFFFFFFFFFFFF AND PUSH20 0xFFFFFFFFFFFFFFFFFFFFFFFFFFFFFFFFFFFFFFFF AND DUP2 MSTORE PUSH1 0x20 ADD SWAP1 DUP2 MSTORE PUSH1 0x20 ADD PUSH0 KECCAK256 PUSH0 DUP3 DUP3 SLOAD PUSH2 0x26D6 SWAP2 SWAP1 PUSH2 0x3161 JUMP JUMPDEST SWAP3 POP POP DUP2 SWAP1 SSTORE POP JUMPDEST POP POP JUMP JUMPDEST PUSH0 PUSH1 0x2 DUP3 PUSH2 0x26F0 SWAP2 SWAP1 PUSH2 0x3131 JUMP JUMPDEST SWAP1 POP PUSH0 DUP2 DUP4 PUSH2 0x26FF SWAP2 SWAP1 PUSH2 0x3090 JUMP JUMPDEST SWAP1 POP PUSH0 SELFBALANCE SWAP1 POP PUSH2 0x2731 ADDRESS PUSH1 0x7 PUSH0 SWAP1 SLOAD SWAP1 PUSH2 0x100 EXP SWAP1 DIV PUSH20 0xFFFFFFFFFFFFFFFFFFFFFFFFFFFFFFFFFFFFFFFF AND DUP6 PUSH2 0x201D JUMP JUMPDEST PUSH1 0x7 PUSH0 SWAP1 SLOAD SWAP1 PUSH2 0x100 EXP SWAP1 DIV PUSH20 0xFFFFFFFFFFFFFFFFFFFFFFFFFFFFFFFFFFFFFFFF AND PUSH20 0xFFFFFFFFFFFFFFFFFFFFFFFFFFFFFFFFFFFFFFFF AND PUSH4 0x791AC947 DUP5 PUSH0 PUSH2 0x2778 PUSH2 0x2B22 JUMP JUMPDEST ADDRESS TIMESTAMP PUSH1 0x40 MLOAD DUP7 PUSH4 0xFFFFFFFF AND PUSH1 0xE0 SHL DUP2 MSTORE PUSH1 0x4 ADD PUSH2 0x279A SWAP6 SWAP5 SWAP4 SWAP3 SWAP2 SWAP1 PUSH2 0x37AC JUMP JUMPDEST PUSH0 PUSH1 0x40 MLOAD DUP1 DUP4 SUB DUP2 PUSH0 DUP8 DUP1 EXTCODESIZE ISZERO DUP1 ISZERO PUSH2 0x27B1 JUMPI PUSH0 DUP1 REVERT JUMPDEST POP GAS CALL ISZERO DUP1 ISZERO PUSH2 0x27C3 JUMPI RETURNDATASIZE PUSH0 DUP1 RETURNDATACOPY RETURNDATASIZE PUSH0 REVERT JUMPDEST POP POP POP POP PUSH0 DUP2 SELFBALANCE PUSH2 0x27D4 SWAP2 SWAP1 PUSH2 0x3090 JUMP JUMPDEST SWAP1 POP PUSH2 0x2802 ADDRESS PUSH1 0x7 PUSH0 SWAP1 SLOAD SWAP1 PUSH2 0x100 EXP SWAP1 DIV PUSH20 0xFFFFFFFFFFFFFFFFFFFFFFFFFFFFFFFFFFFFFFFF AND DUP6 PUSH2 0x201D JUMP JUMPDEST PUSH1 0x7 PUSH0 SWAP1 SLOAD SWAP1 PUSH2 0x100 EXP SWAP1 DIV PUSH20 0xFFFFFFFFFFFFFFFFFFFFFFFFFFFFFFFFFFFFFFFF AND PUSH20 0xFFFFFFFFFFFFFFFFFFFFFFFFFFFFFFFFFFFFFFFF AND PUSH4 0xF305D719 DUP3 ADDRESS DUP7 PUSH0 DUP1 PUSH2 0x284C PUSH2 0x15C0 JUMP JUMPDEST TIMESTAMP PUSH1 0x40 MLOAD DUP9 PUSH4 0xFFFFFFFF AND PUSH1 0xE0 SHL DUP2 MSTORE PUSH1 0x4 ADD PUSH2 0x286E SWAP7 SWAP6 SWAP5 SWAP4 SWAP3 SWAP2 SWAP1 PUSH2 0x3417 JUMP JUMPDEST PUSH1 0x60 PUSH1 0x40 MLOAD DUP1 DUP4 SUB DUP2 DUP6 DUP9 GAS CALL ISZERO DUP1 ISZERO PUSH2 0x288A JUMPI RETURNDATASIZE PUSH0 DUP1 RETURNDATACOPY RETURNDATASIZE PUSH0 REVERT JUMPDEST POP POP POP POP POP PUSH1 0x40 MLOAD RETURNDATASIZE PUSH1 0x1F NOT PUSH1 0x1F DUP3 ADD AND DUP3 ADD DUP1 PUSH1 0x40 MSTORE POP DUP2 ADD SWAP1 PUSH2 0x28AF SWAP2 SWAP1 PUSH2 0x348A JUMP JUMPDEST POP POP POP ADDRESS PUSH20 0xFFFFFFFFFFFFFFFFFFFFFFFFFFFFFFFFFFFFFFFF AND PUSH32 0xAC1D76749E5447B7B16F5AB61447E1BD502F3BB4807AF3B28E620D1700A6EE45 DUP5 DUP4 PUSH1 0x40 MLOAD PUSH2 0x28FA SWAP3 SWAP2 SWAP1 PUSH2 0x34DA JUMP JUMPDEST PUSH1 0x40 MLOAD DUP1 SWAP2 SUB SWAP1 LOG2 POP POP POP POP POP JUMP JUMPDEST PUSH0 PUSH20 0xFFFFFFFFFFFFFFFFFFFFFFFFFFFFFFFFFFFFFFFF AND DUP4 PUSH20 0xFFFFFFFFFFFFFFFFFFFFFFFFFFFFFFFFFFFFFFFF AND SUB PUSH2 0x2959 JUMPI DUP1 PUSH1 0x2 PUSH0 DUP3 DUP3 SLOAD PUSH2 0x294D SWAP2 SWAP1 PUSH2 0x3161 JUMP JUMPDEST SWAP3 POP POP DUP2 SWAP1 SSTORE POP PUSH2 0x2A27 JUMP JUMPDEST PUSH0 DUP1 PUSH0 DUP6 PUSH20 0xFFFFFFFFFFFFFFFFFFFFFFFFFFFFFFFFFFFFFFFF AND PUSH20 0xFFFFFFFFFFFFFFFFFFFFFFFFFFFFFFFFFFFFFFFF AND DUP2 MSTORE PUSH1 0x20 ADD SWAP1 DUP2 MSTORE PUSH1 0x20 ADD PUSH0 KECCAK256 SLOAD SWAP1 POP DUP2 DUP2 LT ISZERO PUSH2 0x29E2 JUMPI DUP4 DUP2 DUP4 PUSH1 0x40 MLOAD PUSH32 0xE450D38C00000000000000000000000000000000000000000000000000000000 DUP2 MSTORE PUSH1 0x4 ADD PUSH2 0x29D9 SWAP4 SWAP3 SWAP2 SWAP1 PUSH2 0x3658 JUMP JUMPDEST PUSH1 0x40 MLOAD DUP1 SWAP2 SUB SWAP1 REVERT JUMPDEST DUP2 DUP2 SUB PUSH0 DUP1 DUP7 PUSH20 0xFFFFFFFFFFFFFFFFFFFFFFFFFFFFFFFFFFFFFFFF AND PUSH20 0xFFFFFFFFFFFFFFFFFFFFFFFFFFFFFFFFFFFFFFFF AND DUP2 MSTORE PUSH1 0x20 ADD SWAP1 DUP2 MSTORE PUSH1 0x20 ADD PUSH0 KECCAK256 DUP2 SWAP1 SSTORE POP POP JUMPDEST PUSH0 PUSH20 0xFFFFFFFFFFFFFFFFFFFFFFFFFFFFFFFFFFFFFFFF AND DUP3 PUSH20 0xFFFFFFFFFFFFFFFFFFFFFFFFFFFFFFFFFFFFFFFF AND SUB PUSH2 0x2A6E JUMPI DUP1 PUSH1 0x2 PUSH0 DUP3 DUP3 SLOAD SUB SWAP3 POP POP DUP2 SWAP1 SSTORE POP PUSH2 0x2AB8 JUMP JUMPDEST DUP1 PUSH0 DUP1 DUP5 PUSH20 0xFFFFFFFFFFFFFFFFFFFFFFFFFFFFFFFFFFFFFFFF AND PUSH20 0xFFFFFFFFFFFFFFFFFFFFFFFFFFFFFFFFFFFFFFFF AND DUP2 MSTORE PUSH1 0x20 ADD SWAP1 DUP2 MSTORE PUSH1 0x20 ADD PUSH0 KECCAK256 PUSH0 DUP3 DUP3 SLOAD ADD SWAP3 POP POP DUP2 SWAP1 SSTORE POP JUMPDEST DUP2 PUSH20 0xFFFFFFFFFFFFFFFFFFFFFFFFFFFFFFFFFFFFFFFF AND DUP4 PUSH20 0xFFFFFFFFFFFFFFFFFFFFFFFFFFFFFFFFFFFFFFFF AND PUSH32 0xDDF252AD1BE2C89B69C2B068FC378DAA952BA7F163C4A11628F55A4DF523B3EF DUP4 PUSH1 0x40 MLOAD PUSH2 0x2B15 SWAP2 SWAP1 PUSH2 0x2D43 JUMP JUMPDEST PUSH1 0x40 MLOAD DUP1 SWAP2 SUB SWAP1 LOG3 POP POP POP JUMP JUMPDEST PUSH1 0x60 PUSH0 PUSH1 0x2 PUSH8 0xFFFFFFFFFFFFFFFF DUP2 GT ISZERO PUSH2 0x2B40 JUMPI PUSH2 0x2B3F PUSH2 0x3804 JUMP JUMPDEST JUMPDEST PUSH1 0x40 MLOAD SWAP1 DUP1 DUP3 MSTORE DUP1 PUSH1 0x20 MUL PUSH1 0x20 ADD DUP3 ADD PUSH1 0x40 MSTORE DUP1 ISZERO PUSH2 0x2B6E JUMPI DUP2 PUSH1 0x20 ADD PUSH1 0x20 DUP3 MUL DUP1 CALLDATASIZE DUP4 CALLDATACOPY DUP1 DUP3 ADD SWAP2 POP POP SWAP1 POP JUMPDEST POP SWAP1 POP ADDRESS DUP2 PUSH0 DUP2 MLOAD DUP2 LT PUSH2 0x2B85 JUMPI PUSH2 0x2B84 PUSH2 0x32D5 JUMP JUMPDEST JUMPDEST PUSH1 0x20 MUL PUSH1 0x20 ADD ADD SWAP1 PUSH20 0xFFFFFFFFFFFFFFFFFFFFFFFFFFFFFFFFFFFFFFFF AND SWAP1 DUP2 PUSH20 0xFFFFFFFFFFFFFFFFFFFFFFFFFFFFFFFFFFFFFFFF AND DUP2 MSTORE POP POP PUSH1 0x7 PUSH0 SWAP1 SLOAD SWAP1 PUSH2 0x100 EXP SWAP1 DIV PUSH20 0xFFFFFFFFFFFFFFFFFFFFFFFFFFFFFFFFFFFFFFFF AND PUSH20 0xFFFFFFFFFFFFFFFFFFFFFFFFFFFFFFFFFFFFFFFF AND PUSH4 0xAD5C4648 PUSH1 0x40 MLOAD DUP2 PUSH4 0xFFFFFFFF AND PUSH1 0xE0 SHL DUP2 MSTORE PUSH1 0x4 ADD PUSH1 0x20 PUSH1 0x40 MLOAD DUP1 DUP4 SUB DUP2 DUP7 GAS STATICCALL ISZERO DUP1 ISZERO PUSH2 0x2C29 JUMPI RETURNDATASIZE PUSH0 DUP1 RETURNDATACOPY RETURNDATASIZE PUSH0 REVERT JUMPDEST POP POP POP POP PUSH1 0x40 MLOAD RETURNDATASIZE PUSH1 0x1F NOT PUSH1 0x1F DUP3 ADD AND DUP3 ADD DUP1 PUSH1 0x40 MSTORE POP DUP2 ADD SWAP1 PUSH2 0x2C4D SWAP2 SWAP1 PUSH2 0x3845 JUMP JUMPDEST DUP2 PUSH1 0x1 DUP2 MLOAD DUP2 LT PUSH2 0x2C61 JUMPI PUSH2 0x2C60 PUSH2 0x32D5 JUMP JUMPDEST JUMPDEST PUSH1 0x20 MUL PUSH1 0x20 ADD ADD SWAP1 PUSH20 0xFFFFFFFFFFFFFFFFFFFFFFFFFFFFFFFFFFFFFFFF AND SWAP1 DUP2 PUSH20 0xFFFFFFFFFFFFFFFFFFFFFFFFFFFFFFFFFFFFFFFF AND DUP2 MSTORE POP POP DUP1 SWAP2 POP POP SWAP1 JUMP JUMPDEST PUSH0 DUP1 REVERT JUMPDEST PUSH0 PUSH20 0xFFFFFFFFFFFFFFFFFFFFFFFFFFFFFFFFFFFFFFFF DUP3 AND SWAP1 POP SWAP2 SWAP1 POP JUMP JUMPDEST PUSH0 PUSH2 0x2CCF DUP3 PUSH2 0x2CA6 JUMP JUMPDEST SWAP1 POP SWAP2 SWAP1 POP JUMP JUMPDEST PUSH2 0x2CDF DUP2 PUSH2 0x2CC5 JUMP JUMPDEST DUP2 EQ PUSH2 0x2CE9 JUMPI PUSH0 DUP1 REVERT JUMPDEST POP JUMP JUMPDEST PUSH0 DUP2 CALLDATALOAD SWAP1 POP PUSH2 0x2CFA DUP2 PUSH2 0x2CD6 JUMP JUMPDEST SWAP3 SWAP2 POP POP JUMP JUMPDEST PUSH0 PUSH1 0x20 DUP3 DUP5 SUB SLT ISZERO PUSH2 0x2D15 JUMPI PUSH2 0x2D14 PUSH2 0x2CA2 JUMP JUMPDEST JUMPDEST PUSH0 PUSH2 0x2D22 DUP5 DUP3 DUP6 ADD PUSH2 0x2CEC JUMP JUMPDEST SWAP2 POP POP SWAP3 SWAP2 POP POP JUMP JUMPDEST PUSH0 DUP2 SWAP1 POP SWAP2 SWAP1 POP JUMP JUMPDEST PUSH2 0x2D3D DUP2 PUSH2 0x2D2B JUMP JUMPDEST DUP3 MSTORE POP POP JUMP JUMPDEST PUSH0 PUSH1 0x20 DUP3 ADD SWAP1 POP PUSH2 0x2D56 PUSH0 DUP4 ADD DUP5 PUSH2 0x2D34 JUMP JUMPDEST SWAP3 SWAP2 POP POP JUMP JUMPDEST PUSH0 DUP2 MLOAD SWAP1 POP SWAP2 SWAP1 POP JUMP JUMPDEST PUSH0 DUP3 DUP3 MSTORE PUSH1 0x20 DUP3 ADD SWAP1 POP SWAP3 SWAP2 POP POP JUMP JUMPDEST PUSH0 JUMPDEST DUP4 DUP2 LT ISZERO PUSH2 0x2D93 JUMPI DUP1 DUP3 ADD MLOAD DUP2 DUP5 ADD MSTORE PUSH1 0x20 DUP2 ADD SWAP1 POP PUSH2 0x2D78 JUMP JUMPDEST PUSH0 DUP5 DUP5 ADD MSTORE POP POP POP POP JUMP JUMPDEST PUSH0 PUSH1 0x1F NOT PUSH1 0x1F DUP4 ADD AND SWAP1 POP SWAP2 SWAP1 POP JUMP JUMPDEST PUSH0 PUSH2 0x2DB8 DUP3 PUSH2 0x2D5C JUMP JUMPDEST PUSH2 0x2DC2 DUP2 DUP6 PUSH2 0x2D66 JUMP JUMPDEST SWAP4 POP PUSH2 0x2DD2 DUP2 DUP6 PUSH1 0x20 DUP7 ADD PUSH2 0x2D76 JUMP JUMPDEST PUSH2 0x2DDB DUP2 PUSH2 0x2D9E JUMP JUMPDEST DUP5 ADD SWAP2 POP POP SWAP3 SWAP2 POP POP JUMP JUMPDEST PUSH0 PUSH1 0x20 DUP3 ADD SWAP1 POP DUP2 DUP2 SUB PUSH0 DUP4 ADD MSTORE PUSH2 0x2DFE DUP2 DUP5 PUSH2 0x2DAE JUMP JUMPDEST SWAP1 POP SWAP3 SWAP2 POP POP JUMP JUMPDEST PUSH2 0x2E0F DUP2 PUSH2 0x2D2B JUMP JUMPDEST DUP2 EQ PUSH2 0x2E19 JUMPI PUSH0 DUP1 REVERT JUMPDEST POP JUMP JUMPDEST PUSH0 DUP2 CALLDATALOAD SWAP1 POP PUSH2 0x2E2A DUP2 PUSH2 0x2E06 JUMP JUMPDEST SWAP3 SWAP2 POP POP JUMP JUMPDEST PUSH0 DUP1 PUSH1 0x40 DUP4 DUP6 SUB SLT ISZERO PUSH2 0x2E46 JUMPI PUSH2 0x2E45 PUSH2 0x2CA2 JUMP JUMPDEST JUMPDEST PUSH0 PUSH2 0x2E53 DUP6 DUP3 DUP7 ADD PUSH2 0x2CEC JUMP JUMPDEST SWAP3 POP POP PUSH1 0x20 PUSH2 0x2E64 DUP6 DUP3 DUP7 ADD PUSH2 0x2E1C JUMP JUMPDEST SWAP2 POP POP SWAP3 POP SWAP3 SWAP1 POP JUMP JUMPDEST PUSH0 DUP2 ISZERO ISZERO SWAP1 POP SWAP2 SWAP1 POP JUMP JUMPDEST PUSH2 0x2E82 DUP2 PUSH2 0x2E6E JUMP JUMPDEST DUP3 MSTORE POP POP JUMP JUMPDEST PUSH0 PUSH1 0x20 DUP3 ADD SWAP1 POP PUSH2 0x2E9B PUSH0 DUP4 ADD DUP5 PUSH2 0x2E79 JUMP JUMPDEST SWAP3 SWAP2 POP POP JUMP JUMPDEST PUSH0 DUP1 PUSH0 PUSH1 0x60 DUP5 DUP7 SUB SLT ISZERO PUSH2 0x2EB8 JUMPI PUSH2 0x2EB7 PUSH2 0x2CA2 JUMP JUMPDEST JUMPDEST PUSH0 PUSH2 0x2EC5 DUP7 DUP3 DUP8 ADD PUSH2 0x2CEC JUMP JUMPDEST SWAP4 POP POP PUSH1 0x20 PUSH2 0x2ED6 DUP7 DUP3 DUP8 ADD PUSH2 0x2CEC JUMP JUMPDEST SWAP3 POP POP PUSH1 0x40 PUSH2 0x2EE7 DUP7 DUP3 DUP8 ADD PUSH2 0x2E1C JUMP JUMPDEST SWAP2 POP POP SWAP3 POP SWAP3 POP SWAP3 JUMP JUMPDEST PUSH0 PUSH1 0x20 DUP3 DUP5 SUB SLT ISZERO PUSH2 0x2F06 JUMPI PUSH2 0x2F05 PUSH2 0x2CA2 JUMP JUMPDEST JUMPDEST PUSH0 PUSH2 0x2F13 DUP5 DUP3 DUP6 ADD PUSH2 0x2E1C JUMP JUMPDEST SWAP2 POP POP SWAP3 SWAP2 POP POP JUMP JUMPDEST PUSH0 PUSH1 0xFF DUP3 AND SWAP1 POP SWAP2 SWAP1 POP JUMP JUMPDEST PUSH2 0x2F31 DUP2 PUSH2 0x2F1C JUMP JUMPDEST DUP3 MSTORE POP POP JUMP JUMPDEST PUSH0 PUSH1 0x20 DUP3 ADD SWAP1 POP PUSH2 0x2F4A PUSH0 DUP4 ADD DUP5 PUSH2 0x2F28 JUMP JUMPDEST SWAP3 SWAP2 POP POP JUMP JUMPDEST PUSH0 DUP2 SWAP1 POP SWAP2 SWAP1 POP JUMP JUMPDEST PUSH0 PUSH2 0x2F73 PUSH2 0x2F6E PUSH2 0x2F69 DUP5 PUSH2 0x2CA6 JUMP JUMPDEST PUSH2 0x2F50 JUMP JUMPDEST PUSH2 0x2CA6 JUMP JUMPDEST SWAP1 POP SWAP2 SWAP1 POP JUMP JUMPDEST PUSH0 PUSH2 0x2F84 DUP3 PUSH2 0x2F59 JUMP JUMPDEST SWAP1 POP SWAP2 SWAP1 POP JUMP JUMPDEST PUSH0 PUSH2 0x2F95 DUP3 PUSH2 0x2F7A JUMP JUMPDEST SWAP1 POP SWAP2 SWAP1 POP JUMP JUMPDEST PUSH2 0x2FA5 DUP2 PUSH2 0x2F8B JUMP JUMPDEST DUP3 MSTORE POP POP JUMP JUMPDEST PUSH0 PUSH1 0x20 DUP3 ADD SWAP1 POP PUSH2 0x2FBE PUSH0 DUP4 ADD DUP5 PUSH2 0x2F9C JUMP JUMPDEST SWAP3 SWAP2 POP POP JUMP JUMPDEST PUSH2 0x2FCD DUP2 PUSH2 0x2CC5 JUMP JUMPDEST DUP3 MSTORE POP POP JUMP JUMPDEST PUSH0 PUSH1 0x20 DUP3 ADD SWAP1 POP PUSH2 0x2FE6 PUSH0 DUP4 ADD DUP5 PUSH2 0x2FC4 JUMP JUMPDEST SWAP3 SWAP2 POP POP JUMP JUMPDEST PUSH0 PUSH2 0x2FF6 DUP3 PUSH2 0x2F7A JUMP JUMPDEST SWAP1 POP SWAP2 SWAP1 POP JUMP JUMPDEST PUSH2 0x3006 DUP2 PUSH2 0x2FEC JUMP JUMPDEST DUP3 MSTORE POP POP JUMP JUMPDEST PUSH0 PUSH1 0x20 DUP3 ADD SWAP1 POP PUSH2 0x301F PUSH0 DUP4 ADD DUP5 PUSH2 0x2FFD JUMP JUMPDEST SWAP3 SWAP2 POP POP JUMP JUMPDEST PUSH0 DUP1 PUSH1 0x40 DUP4 DUP6 SUB SLT ISZERO PUSH2 0x303B JUMPI PUSH2 0x303A PUSH2 0x2CA2 JUMP JUMPDEST JUMPDEST PUSH0 PUSH2 0x3048 DUP6 DUP3 DUP7 ADD PUSH2 0x2CEC JUMP JUMPDEST SWAP3 POP POP PUSH1 0x20 PUSH2 0x3059 DUP6 DUP3 DUP7 ADD PUSH2 0x2CEC JUMP JUMPDEST SWAP2 POP POP SWAP3 POP SWAP3 SWAP1 POP JUMP JUMPDEST PUSH32 0x4E487B7100000000000000000000000000000000000000000000000000000000 PUSH0 MSTORE PUSH1 0x11 PUSH1 0x4 MSTORE PUSH1 0x24 PUSH0 REVERT JUMPDEST PUSH0 PUSH2 0x309A DUP3 PUSH2 0x2D2B JUMP JUMPDEST SWAP2 POP PUSH2 0x30A5 DUP4 PUSH2 0x2D2B JUMP JUMPDEST SWAP3 POP DUP3 DUP3 SUB SWAP1 POP DUP2 DUP2 GT ISZERO PUSH2 0x30BD JUMPI PUSH2 0x30BC PUSH2 0x3063 JUMP JUMPDEST JUMPDEST SWAP3 SWAP2 POP POP JUMP JUMPDEST PUSH0 PUSH2 0x30CD DUP3 PUSH2 0x2D2B JUMP JUMPDEST SWAP2 POP PUSH2 0x30D8 DUP4 PUSH2 0x2D2B JUMP JUMPDEST SWAP3 POP DUP3 DUP3 MUL PUSH2 0x30E6 DUP2 PUSH2 0x2D2B JUMP JUMPDEST SWAP2 POP DUP3 DUP3 DIV DUP5 EQ DUP4 ISZERO OR PUSH2 0x30FD JUMPI PUSH2 0x30FC PUSH2 0x3063 JUMP JUMPDEST JUMPDEST POP SWAP3 SWAP2 POP POP JUMP JUMPDEST PUSH32 0x4E487B7100000000000000000000000000000000000000000000000000000000 PUSH0 MSTORE PUSH1 0x12 PUSH1 0x4 MSTORE PUSH1 0x24 PUSH0 REVERT JUMPDEST PUSH0 PUSH2 0x313B DUP3 PUSH2 0x2D2B JUMP JUMPDEST SWAP2 POP PUSH2 0x3146 DUP4 PUSH2 0x2D2B JUMP JUMPDEST SWAP3 POP DUP3 PUSH2 0x3156 JUMPI PUSH2 0x3155 PUSH2 0x3104 JUMP JUMPDEST JUMPDEST DUP3 DUP3 DIV SWAP1 POP SWAP3 SWAP2 POP POP JUMP JUMPDEST PUSH0 PUSH2 0x316B DUP3 PUSH2 0x2D2B JUMP JUMPDEST SWAP2 POP PUSH2 0x3176 DUP4 PUSH2 0x2D2B JUMP JUMPDEST SWAP3 POP DUP3 DUP3 ADD SWAP1 POP DUP1 DUP3 GT ISZERO PUSH2 0x318E JUMPI PUSH2 0x318D PUSH2 0x3063 JUMP JUMPDEST JUMPDEST SWAP3 SWAP2 POP POP JUMP JUMPDEST PUSH32 0x4E487B7100000000000000000000000000000000000000000000000000000000 PUSH0 MSTORE PUSH1 0x22 PUSH1 0x4 MSTORE PUSH1 0x24 PUSH0 REVERT JUMPDEST PUSH0 PUSH1 0x2 DUP3 DIV SWAP1 POP PUSH1 0x1 DUP3 AND DUP1 PUSH2 0x31D8 JUMPI PUSH1 0x7F DUP3 AND SWAP2 POP JUMPDEST PUSH1 0x20 DUP3 LT DUP2 SUB PUSH2 0x31EB JUMPI PUSH2 0x31EA PUSH2 0x3194 JUMP JUMPDEST JUMPDEST POP SWAP2 SWAP1 POP JUMP JUMPDEST PUSH32 0x576974686472617720616D6F756E7420657863656564732062616C616E636500 PUSH0 DUP3 ADD MSTORE POP JUMP JUMPDEST PUSH0 PUSH2 0x3225 PUSH1 0x1F DUP4 PUSH2 0x2D66 JUMP JUMPDEST SWAP2 POP PUSH2 0x3230 DUP3 PUSH2 0x31F1 JUMP JUMPDEST PUSH1 0x20 DUP3 ADD SWAP1 POP SWAP2 SWAP1 POP JUMP JUMPDEST PUSH0 PUSH1 0x20 DUP3 ADD SWAP1 POP DUP2 DUP2 SUB PUSH0 DUP4 ADD MSTORE PUSH2 0x3252 DUP2 PUSH2 0x3219 JUMP JUMPDEST SWAP1 POP SWAP2 SWAP1 POP JUMP JUMPDEST PUSH0 PUSH1 0x40 DUP3 ADD SWAP1 POP PUSH2 0x326C PUSH0 DUP4 ADD DUP6 PUSH2 0x2FC4 JUMP JUMPDEST PUSH2 0x3279 PUSH1 0x20 DUP4 ADD DUP5 PUSH2 0x2D34 JUMP JUMPDEST SWAP4 SWAP3 POP POP POP JUMP JUMPDEST PUSH2 0x3289 DUP2 PUSH2 0x2E6E JUMP JUMPDEST DUP2 EQ PUSH2 0x3293 JUMPI PUSH0 DUP1 REVERT JUMPDEST POP JUMP JUMPDEST PUSH0 DUP2 MLOAD SWAP1 POP PUSH2 0x32A4 DUP2 PUSH2 0x3280 JUMP JUMPDEST SWAP3 SWAP2 POP POP JUMP JUMPDEST PUSH0 PUSH1 0x20 DUP3 DUP5 SUB SLT ISZERO PUSH2 0x32BF JUMPI PUSH2 0x32BE PUSH2 0x2CA2 JUMP JUMPDEST JUMPDEST PUSH0 PUSH2 0x32CC DUP5 DUP3 DUP6 ADD PUSH2 0x3296 JUMP JUMPDEST SWAP2 POP POP SWAP3 SWAP2 POP POP JUMP JUMPDEST PUSH32 0x4E487B7100000000000000000000000000000000000000000000000000000000 PUSH0 MSTORE PUSH1 0x32 PUSH1 0x4 MSTORE PUSH1 0x24 PUSH0 REVERT JUMPDEST PUSH32 0x4E487B7100000000000000000000000000000000000000000000000000000000 PUSH0 MSTORE PUSH1 0x31 PUSH1 0x4 MSTORE PUSH1 0x24 PUSH0 REVERT JUMPDEST PUSH0 PUSH2 0x3339 DUP3 PUSH2 0x2D2B JUMP JUMPDEST SWAP2 POP PUSH32 0xFFFFFFFFFFFFFFFFFFFFFFFFFFFFFFFFFFFFFFFFFFFFFFFFFFFFFFFFFFFFFFFF DUP3 SUB PUSH2 0x336B JUMPI PUSH2 0x336A PUSH2 0x3063 JUMP JUMPDEST JUMPDEST PUSH1 0x1 DUP3 ADD SWAP1 POP SWAP2 SWAP1 POP JUMP JUMPDEST PUSH32 0x4E6F20746F6B656E7320746F2072656C65617365000000000000000000000000 PUSH0 DUP3 ADD MSTORE POP JUMP JUMPDEST PUSH0 PUSH2 0x33AA PUSH1 0x14 DUP4 PUSH2 0x2D66 JUMP JUMPDEST SWAP2 POP PUSH2 0x33B5 DUP3 PUSH2 0x3376 JUMP JUMPDEST PUSH1 0x20 DUP3 ADD SWAP1 POP SWAP2 SWAP1 POP JUMP JUMPDEST PUSH0 PUSH1 0x20 DUP3 ADD SWAP1 POP DUP2 DUP2 SUB PUSH0 DUP4 ADD MSTORE PUSH2 0x33D7 DUP2 PUSH2 0x339E JUMP JUMPDEST SWAP1 POP SWAP2 SWAP1 POP JUMP JUMPDEST PUSH0 DUP2 SWAP1 POP SWAP2 SWAP1 POP JUMP JUMPDEST PUSH0 PUSH2 0x3401 PUSH2 0x33FC PUSH2 0x33F7 DUP5 PUSH2 0x33DE JUMP JUMPDEST PUSH2 0x2F50 JUMP JUMPDEST PUSH2 0x2D2B JUMP JUMPDEST SWAP1 POP SWAP2 SWAP1 POP JUMP JUMPDEST PUSH2 0x3411 DUP2 PUSH2 0x33E7 JUMP JUMPDEST DUP3 MSTORE POP POP JUMP JUMPDEST PUSH0 PUSH1 0xC0 DUP3 ADD SWAP1 POP PUSH2 0x342A PUSH0 DUP4 ADD DUP10 PUSH2 0x2FC4 JUMP JUMPDEST PUSH2 0x3437 PUSH1 0x20 DUP4 ADD DUP9 PUSH2 0x2D34 JUMP JUMPDEST PUSH2 0x3444 PUSH1 0x40 DUP4 ADD DUP8 PUSH2 0x3408 JUMP JUMPDEST PUSH2 0x3451 PUSH1 0x60 DUP4 ADD DUP7 PUSH2 0x3408 JUMP JUMPDEST PUSH2 0x345E PUSH1 0x80 DUP4 ADD DUP6 PUSH2 0x2FC4 JUMP JUMPDEST PUSH2 0x346B PUSH1 0xA0 DUP4 ADD DUP5 PUSH2 0x2D34 JUMP JUMPDEST SWAP8 SWAP7 POP POP POP POP POP POP POP JUMP JUMPDEST PUSH0 DUP2 MLOAD SWAP1 POP PUSH2 0x3484 DUP2 PUSH2 0x2E06 JUMP JUMPDEST SWAP3 SWAP2 POP POP JUMP JUMPDEST PUSH0 DUP1 PUSH0 PUSH1 0x60 DUP5 DUP7 SUB SLT ISZERO PUSH2 0x34A1 JUMPI PUSH2 0x34A0 PUSH2 0x2CA2 JUMP JUMPDEST JUMPDEST PUSH0 PUSH2 0x34AE DUP7 DUP3 DUP8 ADD PUSH2 0x3476 JUMP JUMPDEST SWAP4 POP POP PUSH1 0x20 PUSH2 0x34BF DUP7 DUP3 DUP8 ADD PUSH2 0x3476 JUMP JUMPDEST SWAP3 POP POP PUSH1 0x40 PUSH2 0x34D0 DUP7 DUP3 DUP8 ADD PUSH2 0x3476 JUMP JUMPDEST SWAP2 POP POP SWAP3 POP SWAP3 POP SWAP3 JUMP JUMPDEST PUSH0 PUSH1 0x40 DUP3 ADD SWAP1 POP PUSH2 0x34ED PUSH0 DUP4 ADD DUP6 PUSH2 0x2D34 JUMP JUMPDEST PUSH2 0x34FA PUSH1 0x20 DUP4 ADD DUP5 PUSH2 0x2D34 JUMP JUMPDEST SWAP4 SWAP3 POP POP POP JUMP JUMPDEST PUSH32 0x43616E6E6F742064697374726962757465207265776172647320796574000000 PUSH0 DUP3 ADD MSTORE POP JUMP JUMPDEST PUSH0 PUSH2 0x3535 PUSH1 0x1D DUP4 PUSH2 0x2D66 JUMP JUMPDEST SWAP2 POP PUSH2 0x3540 DUP3 PUSH2 0x3501 JUMP JUMPDEST PUSH1 0x20 DUP3 ADD SWAP1 POP SWAP2 SWAP1 POP JUMP JUMPDEST PUSH0 PUSH1 0x20 DUP3 ADD SWAP1 POP DUP2 DUP2 SUB PUSH0 DUP4 ADD MSTORE PUSH2 0x3562 DUP2 PUSH2 0x3529 JUMP JUMPDEST SWAP1 POP SWAP2 SWAP1 POP JUMP JUMPDEST PUSH0 PUSH1 0x20 DUP3 DUP5 SUB SLT ISZERO PUSH2 0x357E JUMPI PUSH2 0x357D PUSH2 0x2CA2 JUMP JUMPDEST JUMPDEST PUSH0 PUSH2 0x358B DUP5 DUP3 DUP6 ADD PUSH2 0x3476 JUMP JUMPDEST SWAP2 POP POP SWAP3 SWAP2 POP POP JUMP JUMPDEST PUSH32 0x556E69737761702070616972206E6F7420736574000000000000000000000000 PUSH0 DUP3 ADD MSTORE POP JUMP JUMPDEST PUSH0 PUSH2 0x35C8 PUSH1 0x14 DUP4 PUSH2 0x2D66 JUMP JUMPDEST SWAP2 POP PUSH2 0x35D3 DUP3 PUSH2 0x3594 JUMP JUMPDEST PUSH1 0x20 DUP3 ADD SWAP1 POP SWAP2 SWAP1 POP JUMP JUMPDEST PUSH0 PUSH1 0x20 DUP3 ADD SWAP1 POP DUP2 DUP2 SUB PUSH0 DUP4 ADD MSTORE PUSH2 0x35F5 DUP2 PUSH2 0x35BC JUMP JUMPDEST SWAP1 POP SWAP2 SWAP1 POP JUMP JUMPDEST PUSH0 PUSH1 0x60 DUP3 ADD SWAP1 POP PUSH2 0x360F PUSH0 DUP4 ADD DUP7 PUSH2 0x2FC4 JUMP JUMPDEST PUSH2 0x361C PUSH1 0x20 DUP4 ADD DUP6 PUSH2 0x2FC4 JUMP JUMPDEST PUSH2 0x3629 PUSH1 0x40 DUP4 ADD DUP5 PUSH2 0x2D34 JUMP JUMPDEST SWAP5 SWAP4 POP POP POP POP JUMP JUMPDEST PUSH0 PUSH1 0x40 DUP3 ADD SWAP1 POP PUSH2 0x3644 PUSH0 DUP4 ADD DUP6 PUSH2 0x2D34 JUMP JUMPDEST PUSH2 0x3651 PUSH1 0x20 DUP4 ADD DUP5 PUSH2 0x3408 JUMP JUMPDEST SWAP4 SWAP3 POP POP POP JUMP JUMPDEST PUSH0 PUSH1 0x60 DUP3 ADD SWAP1 POP PUSH2 0x366B PUSH0 DUP4 ADD DUP7 PUSH2 0x2FC4 JUMP JUMPDEST PUSH2 0x3678 PUSH1 0x20 DUP4 ADD DUP6 PUSH2 0x2D34 JUMP JUMPDEST PUSH2 0x3685 PUSH1 0x40 DUP4 ADD DUP5 PUSH2 0x2D34 JUMP JUMPDEST SWAP5 SWAP4 POP POP POP POP JUMP JUMPDEST PUSH32 0x5265656E7472616E637947756172643A207265656E7472616E742063616C6C00 PUSH0 DUP3 ADD MSTORE POP JUMP JUMPDEST PUSH0 PUSH2 0x36C1 PUSH1 0x1F DUP4 PUSH2 0x2D66 JUMP JUMPDEST SWAP2 POP PUSH2 0x36CC DUP3 PUSH2 0x368D JUMP JUMPDEST PUSH1 0x20 DUP3 ADD SWAP1 POP SWAP2 SWAP1 POP JUMP JUMPDEST PUSH0 PUSH1 0x20 DUP3 ADD SWAP1 POP DUP2 DUP2 SUB PUSH0 DUP4 ADD MSTORE PUSH2 0x36EE DUP2 PUSH2 0x36B5 JUMP JUMPDEST SWAP1 POP SWAP2 SWAP1 POP JUMP JUMPDEST PUSH0 DUP2 MLOAD SWAP1 POP SWAP2 SWAP1 POP JUMP JUMPDEST PUSH0 DUP3 DUP3 MSTORE PUSH1 0x20 DUP3 ADD SWAP1 POP SWAP3 SWAP2 POP POP JUMP JUMPDEST PUSH0 DUP2 SWAP1 POP PUSH1 0x20 DUP3 ADD SWAP1 POP SWAP2 SWAP1 POP JUMP JUMPDEST PUSH2 0x3727 DUP2 PUSH2 0x2CC5 JUMP JUMPDEST DUP3 MSTORE POP POP JUMP JUMPDEST PUSH0 PUSH2 0x3738 DUP4 DUP4 PUSH2 0x371E JUMP JUMPDEST PUSH1 0x20 DUP4 ADD SWAP1 POP SWAP3 SWAP2 POP POP JUMP JUMPDEST PUSH0 PUSH1 0x20 DUP3 ADD SWAP1 POP SWAP2 SWAP1 POP JUMP JUMPDEST PUSH0 PUSH2 0x375A DUP3 PUSH2 0x36F5 JUMP JUMPDEST PUSH2 0x3764 DUP2 DUP6 PUSH2 0x36FF JUMP JUMPDEST SWAP4 POP PUSH2 0x376F DUP4 PUSH2 0x370F JUMP JUMPDEST DUP1 PUSH0 JUMPDEST DUP4 DUP2 LT ISZERO PUSH2 0x379F JUMPI DUP2 MLOAD PUSH2 0x3786 DUP9 DUP3 PUSH2 0x372D JUMP JUMPDEST SWAP8 POP PUSH2 0x3791 DUP4 PUSH2 0x3744 JUMP JUMPDEST SWAP3 POP POP PUSH1 0x1 DUP2 ADD SWAP1 POP PUSH2 0x3772 JUMP JUMPDEST POP DUP6 SWAP4 POP POP POP POP SWAP3 SWAP2 POP POP JUMP JUMPDEST PUSH0 PUSH1 0xA0 DUP3 ADD SWAP1 POP PUSH2 0x37BF PUSH0 DUP4 ADD DUP9 PUSH2 0x2D34 JUMP JUMPDEST PUSH2 0x37CC PUSH1 0x20 DUP4 ADD DUP8 PUSH2 0x3408 JUMP JUMPDEST DUP2 DUP2 SUB PUSH1 0x40 DUP4 ADD MSTORE PUSH2 0x37DE DUP2 DUP7 PUSH2 0x3750 JUMP JUMPDEST SWAP1 POP PUSH2 0x37ED PUSH1 0x60 DUP4 ADD DUP6 PUSH2 0x2FC4 JUMP JUMPDEST PUSH2 0x37FA PUSH1 0x80 DUP4 ADD DUP5 PUSH2 0x2D34 JUMP JUMPDEST SWAP7 SWAP6 POP POP POP POP POP POP JUMP JUMPDEST PUSH32 0x4E487B7100000000000000000000000000000000000000000000000000000000 PUSH0 MSTORE PUSH1 0x41 PUSH1 0x4 MSTORE PUSH1 0x24 PUSH0 REVERT JUMPDEST PUSH0 DUP2 MLOAD SWAP1 POP PUSH2 0x383F DUP2 PUSH2 0x2CD6 JUMP JUMPDEST SWAP3 SWAP2 POP POP JUMP JUMPDEST PUSH0 PUSH1 0x20 DUP3 DUP5 SUB SLT ISZERO PUSH2 0x385A JUMPI PUSH2 0x3859 PUSH2 0x2CA2 JUMP JUMPDEST JUMPDEST PUSH0 PUSH2 0x3867 DUP5 DUP3 DUP6 ADD PUSH2 0x3831 JUMP JUMPDEST SWAP2 POP POP SWAP3 SWAP2 POP POP JUMP INVALID LOG2 PUSH5 0x6970667358 0x22 SLT KECCAK256 0xE8 0xFC RETURNDATASIZE SWAP16 0xD1 0xF7 DUP10 EXP PUSH4 0x6D0BAA6F 0xE PUSH21 0x455A5AC6C3234E97189FE632A35DB3779A64736F6C PUSH4 0x43000814 STOP CALLER "
				},
				"gasEstimates": {
					"creation": {
						"codeDepositCost": "2900400",
						"executionCost": "infinite",
						"totalCost": "infinite"
					},
					"external": {
						"allowance(address,address)": "infinite",
						"approve(address,uint256)": "infinite",
						"balanceOf(address)": "2874",
						"calculateLiquidityMiningRewards(address)": "infinite",
						"currentRewardRate()": "infinite",
						"decimals()": "450",
						"developmentWallet()": "2553",
						"distributeLiquidityMiningRewards()": "infinite",
						"earned(address)": "infinite",
						"finalRewardRate()": "459",
						"getReward()": "infinite",
						"initialRewardRate()": "437",
						"isLiquidityProvider(address)": "2900",
						"lastUpdateTime()": "2514",
						"liquidityBalance(address)": "2846",
						"liquidityMiningRate()": "2493",
						"liquidityMiningRewards(address)": "2956",
						"liquidityProviders(uint256)": "4989",
						"lpTokenBalance(address)": "2892",
						"name()": "infinite",
						"owner()": "2627",
						"provideInitialLiquidity(uint256)": "infinite",
						"releasableAmount(address)": "infinite",
						"releaseVestedTokens()": "infinite",
						"renounceOwnership()": "infinite",
						"rewardPerToken()": "infinite",
						"rewardPerTokenStored()": "2513",
						"setUniswapPair(address)": "infinite",
						"stake(uint256)": "infinite",
						"stakeStartTime(address)": "2936",
						"symbol()": "infinite",
						"taxRate()": "2558",
						"totalSupply()": "2478",
						"transfer(address,uint256)": "infinite",
						"transferFrom(address,address,uint256)": "infinite",
						"transferOwnership(address)": "infinite",
						"uniswapPair()": "infinite",
						"uniswapRouter()": "infinite",
						"vestedAmount(address)": "2848",
						"vestingStart(address)": "2871",
						"withdraw(uint256)": "infinite"
					},
					"internal": {
						"_addLiquidity(uint256)": "infinite",
						"_addLiquidityMiningRewards(address)": "infinite",
						"_transfer(address,address,uint256)": "infinite",
						"_vestTokens(address,uint256,uint256,uint256)": "infinite",
						"getPathForTokenToETH()": "infinite",
						"updateReward(address)": "infinite"
					}
				},
				"methodIdentifiers": {
					"allowance(address,address)": "dd62ed3e",
					"approve(address,uint256)": "095ea7b3",
					"balanceOf(address)": "70a08231",
					"calculateLiquidityMiningRewards(address)": "9d4310ec",
					"currentRewardRate()": "f51ace70",
					"decimals()": "313ce567",
					"developmentWallet()": "c04a5414",
					"distributeLiquidityMiningRewards()": "7eb53785",
					"earned(address)": "008cc262",
					"finalRewardRate()": "35f53e8e",
					"getReward()": "3d18b912",
					"initialRewardRate()": "5971aa21",
					"isLiquidityProvider(address)": "99f7854a",
					"lastUpdateTime()": "c8f33c91",
					"liquidityBalance(address)": "dd296480",
					"liquidityMiningRate()": "82820511",
					"liquidityMiningRewards(address)": "f8297099",
					"liquidityProviders(uint256)": "96212916",
					"lpTokenBalance(address)": "85dcf86a",
					"name()": "06fdde03",
					"owner()": "8da5cb5b",
					"provideInitialLiquidity(uint256)": "718298a1",
					"releasableAmount(address)": "1726cbc8",
					"releaseVestedTokens()": "54dd1da4",
					"renounceOwnership()": "715018a6",
					"rewardPerToken()": "cd3daf9d",
					"rewardPerTokenStored()": "df136d65",
					"setUniswapPair(address)": "d5aed6bf",
					"stake(uint256)": "a694fc3a",
					"stakeStartTime(address)": "6985e6d8",
					"symbol()": "95d89b41",
					"taxRate()": "771a3a1d",
					"totalSupply()": "18160ddd",
					"transfer(address,uint256)": "a9059cbb",
					"transferFrom(address,address,uint256)": "23b872dd",
					"transferOwnership(address)": "f2fde38b",
					"uniswapPair()": "c816841b",
					"uniswapRouter()": "735de9f7",
					"vestedAmount(address)": "384711cc",
					"vestingStart(address)": "032bbf4f",
					"withdraw(uint256)": "2e1a7d4d"
				}
			},
			"storageLayout": {
				"storage": [
					{
						"astId": 1184,
						"contract": "octo_flattened.sol:OCTO",
						"label": "_balances",
						"offset": 0,
						"slot": "0",
						"type": "t_mapping(t_address,t_uint256)"
					},
					{
						"astId": 1190,
						"contract": "octo_flattened.sol:OCTO",
						"label": "_allowances",
						"offset": 0,
						"slot": "1",
						"type": "t_mapping(t_address,t_mapping(t_address,t_uint256))"
					},
					{
						"astId": 1192,
						"contract": "octo_flattened.sol:OCTO",
						"label": "_totalSupply",
						"offset": 0,
						"slot": "2",
						"type": "t_uint256"
					},
					{
						"astId": 1194,
						"contract": "octo_flattened.sol:OCTO",
						"label": "_name",
						"offset": 0,
						"slot": "3",
						"type": "t_string_storage"
					},
					{
						"astId": 1196,
						"contract": "octo_flattened.sol:OCTO",
						"label": "_symbol",
						"offset": 0,
						"slot": "4",
						"type": "t_string_storage"
					},
					{
						"astId": 706,
						"contract": "octo_flattened.sol:OCTO",
						"label": "_status",
						"offset": 0,
						"slot": "5",
						"type": "t_uint256"
					},
					{
						"astId": 931,
						"contract": "octo_flattened.sol:OCTO",
						"label": "_owner",
						"offset": 0,
						"slot": "6",
						"type": "t_address"
					},
					{
						"astId": 1686,
						"contract": "octo_flattened.sol:OCTO",
						"label": "uniswapRouter",
						"offset": 0,
						"slot": "7",
						"type": "t_contract(IUniswapV2Router02)696"
					},
					{
						"astId": 1689,
						"contract": "octo_flattened.sol:OCTO",
						"label": "uniswapPair",
						"offset": 0,
						"slot": "8",
						"type": "t_contract(IUniswapV2Pair)241"
					},
					{
						"astId": 1691,
						"contract": "octo_flattened.sol:OCTO",
						"label": "developmentWallet",
						"offset": 0,
						"slot": "9",
						"type": "t_address"
					},
					{
						"astId": 1704,
						"contract": "octo_flattened.sol:OCTO",
						"label": "taxRate",
						"offset": 0,
						"slot": "10",
						"type": "t_uint256"
					},
					{
						"astId": 1708,
						"contract": "octo_flattened.sol:OCTO",
						"label": "liquidityBalance",
						"offset": 0,
						"slot": "11",
						"type": "t_mapping(t_address,t_uint256)"
					},
					{
						"astId": 1712,
						"contract": "octo_flattened.sol:OCTO",
						"label": "lpTokenBalance",
						"offset": 0,
						"slot": "12",
						"type": "t_mapping(t_address,t_uint256)"
					},
					{
						"astId": 1716,
						"contract": "octo_flattened.sol:OCTO",
						"label": "stakeStartTime",
						"offset": 0,
						"slot": "13",
						"type": "t_mapping(t_address,t_uint256)"
					},
					{
						"astId": 1720,
						"contract": "octo_flattened.sol:OCTO",
						"label": "vestingStart",
						"offset": 0,
						"slot": "14",
						"type": "t_mapping(t_address,t_uint256)"
					},
					{
						"astId": 1724,
						"contract": "octo_flattened.sol:OCTO",
						"label": "vestedAmount",
						"offset": 0,
						"slot": "15",
						"type": "t_mapping(t_address,t_uint256)"
					},
					{
						"astId": 1728,
						"contract": "octo_flattened.sol:OCTO",
						"label": "liquidityMiningRewards",
						"offset": 0,
						"slot": "16",
						"type": "t_mapping(t_address,t_uint256)"
					},
					{
						"astId": 1730,
						"contract": "octo_flattened.sol:OCTO",
						"label": "lastUpdateTime",
						"offset": 0,
						"slot": "17",
						"type": "t_uint256"
					},
					{
						"astId": 1732,
						"contract": "octo_flattened.sol:OCTO",
						"label": "rewardPerTokenStored",
						"offset": 0,
						"slot": "18",
						"type": "t_uint256"
					},
					{
						"astId": 1737,
						"contract": "octo_flattened.sol:OCTO",
						"label": "liquidityMiningRate",
						"offset": 0,
						"slot": "19",
						"type": "t_uint256"
					},
					{
						"astId": 1740,
						"contract": "octo_flattened.sol:OCTO",
						"label": "liquidityProviders",
						"offset": 0,
						"slot": "20",
						"type": "t_array(t_address)dyn_storage"
					},
					{
						"astId": 1744,
						"contract": "octo_flattened.sol:OCTO",
						"label": "isLiquidityProvider",
						"offset": 0,
						"slot": "21",
						"type": "t_mapping(t_address,t_bool)"
					}
				],
				"types": {
					"t_address": {
						"encoding": "inplace",
						"label": "address",
						"numberOfBytes": "20"
					},
					"t_array(t_address)dyn_storage": {
						"base": "t_address",
						"encoding": "dynamic_array",
						"label": "address[]",
						"numberOfBytes": "32"
					},
					"t_bool": {
						"encoding": "inplace",
						"label": "bool",
						"numberOfBytes": "1"
					},
					"t_contract(IUniswapV2Pair)241": {
						"encoding": "inplace",
						"label": "contract IUniswapV2Pair",
						"numberOfBytes": "20"
					},
					"t_contract(IUniswapV2Router02)696": {
						"encoding": "inplace",
						"label": "contract IUniswapV2Router02",
						"numberOfBytes": "20"
					},
					"t_mapping(t_address,t_bool)": {
						"encoding": "mapping",
						"key": "t_address",
						"label": "mapping(address => bool)",
						"numberOfBytes": "32",
						"value": "t_bool"
					},
					"t_mapping(t_address,t_mapping(t_address,t_uint256))": {
						"encoding": "mapping",
						"key": "t_address",
						"label": "mapping(address => mapping(address => uint256))",
						"numberOfBytes": "32",
						"value": "t_mapping(t_address,t_uint256)"
					},
					"t_mapping(t_address,t_uint256)": {
						"encoding": "mapping",
						"key": "t_address",
						"label": "mapping(address => uint256)",
						"numberOfBytes": "32",
						"value": "t_uint256"
					},
					"t_string_storage": {
						"encoding": "bytes",
						"label": "string",
						"numberOfBytes": "32"
					},
					"t_uint256": {
						"encoding": "inplace",
						"label": "uint256",
						"numberOfBytes": "32"
					}
				}
			},
			"userdoc": {
				"kind": "user",
				"methods": {},
				"version": 1
			}
		}
	}
}