{
	"data": {
		"bytecode": {
			"linkReferences": {},
			"object": "60806040526004600b556001600c55678ac7230489e8000060155534801562000026575f80fd5b5060405162004de738038062004de783398181016040528101906200004c919062000987565b336040518060400160405280600981526020017f4f43544f204c61627300000000000000000000000000000000000000000000008152506040518060400160405280600481526020017f4f43544f000000000000000000000000000000000000000000000000000000008152508160039081620000ca919062000c44565b508060049081620000dc919062000c44565b50505060016005819055505f73ffffffffffffffffffffffffffffffffffffffff168173ffffffffffffffffffffffffffffffffffffffff16036200015a575f6040517f1e4fbdf700000000000000000000000000000000000000000000000000000000815260040162000151919062000d39565b60405180910390fd5b6200016b816200039b60201b60201c565b508160095f6101000a81548173ffffffffffffffffffffffffffffffffffffffff021916908373ffffffffffffffffffffffffffffffffffffffff16021790555080600a5f6101000a81548173ffffffffffffffffffffffffffffffffffffffff021916908373ffffffffffffffffffffffffffffffffffffffff1602179055508260075f6101000a81548173ffffffffffffffffffffffffffffffffffffffff021916908373ffffffffffffffffffffffffffffffffffffffff1602179055505f69d3c21bcecceda100000090505f60646014836200024c919062000d81565b62000258919062000df8565b90505f60646014846200026c919062000d81565b62000278919062000df8565b90505f8183856200028a919062000e2f565b62000296919062000e2f565b90505f6064604b85620002aa919062000d81565b620002b6919062000df8565b90505f8185620002c7919062000e2f565b9050620002fc60095f9054906101000a900473ffffffffffffffffffffffffffffffffffffffff16826200045e60201b60201c565b6200030e30836200045e60201b60201c565b62000341600a5f9054906101000a900473ffffffffffffffffffffffffffffffffffffffff16856200045e60201b60201c565b6200035333846200045e60201b60201c565b6200038c60095f9054906101000a900473ffffffffffffffffffffffffffffffffffffffff1683426301e13380620004e860201b60201c565b5050505050505050506200109f565b5f60065f9054906101000a900473ffffffffffffffffffffffffffffffffffffffff1690508160065f6101000a81548173ffffffffffffffffffffffffffffffffffffffff021916908373ffffffffffffffffffffffffffffffffffffffff1602179055508173ffffffffffffffffffffffffffffffffffffffff168173ffffffffffffffffffffffffffffffffffffffff167f8be0079c531659141344cd1fd0a4f28419497f9722a3daafe3b4186f6b6457e060405160405180910390a35050565b5f73ffffffffffffffffffffffffffffffffffffffff168273ffffffffffffffffffffffffffffffffffffffff1603620004d1575f6040517fec442f05000000000000000000000000000000000000000000000000000000008152600401620004c8919062000d39565b60405180910390fd5b620004e45f8383620006fe60201b60201c565b5050565b5f73ffffffffffffffffffffffffffffffffffffffff168473ffffffffffffffffffffffffffffffffffffffff160362000559576040517f08c379a0000000000000000000000000000000000000000000000000000000008152600401620005509062000ec7565b60405180910390fd5b5f83116200059e576040517f08c379a0000000000000000000000000000000000000000000000000000000008152600401620005959062000f35565b60405180910390fd5b5f60105f8673ffffffffffffffffffffffffffffffffffffffff1673ffffffffffffffffffffffffffffffffffffffff1681526020019081526020015f20541462000620576040517f08c379a0000000000000000000000000000000000000000000000000000000008152600401620006179062000fa3565b60405180910390fd5b8260115f8673ffffffffffffffffffffffffffffffffffffffff1673ffffffffffffffffffffffffffffffffffffffff1681526020019081526020015f20819055508160105f8673ffffffffffffffffffffffffffffffffffffffff1673ffffffffffffffffffffffffffffffffffffffff1681526020019081526020015f20819055508373ffffffffffffffffffffffffffffffffffffffff167fcf204ce1b55772bfa423f3f0c5d9a2cfe3197a5110073875f0b9c7dd3538c7d6848484604051620006f09392919062000fd4565b60405180910390a250505050565b5f73ffffffffffffffffffffffffffffffffffffffff168373ffffffffffffffffffffffffffffffffffffffff160362000752578060025f8282546200074591906200100f565b9250508190555062000823565b5f805f8573ffffffffffffffffffffffffffffffffffffffff1673ffffffffffffffffffffffffffffffffffffffff1681526020019081526020015f2054905081811015620007de578381836040517fe450d38c000000000000000000000000000000000000000000000000000000008152600401620007d59392919062001049565b60405180910390fd5b8181035f808673ffffffffffffffffffffffffffffffffffffffff1673ffffffffffffffffffffffffffffffffffffffff1681526020019081526020015f2081905550505b5f73ffffffffffffffffffffffffffffffffffffffff168273ffffffffffffffffffffffffffffffffffffffff16036200086c578060025f8282540392505081905550620008b6565b805f808473ffffffffffffffffffffffffffffffffffffffff1673ffffffffffffffffffffffffffffffffffffffff1681526020019081526020015f205f82825401925050819055505b8173ffffffffffffffffffffffffffffffffffffffff168373ffffffffffffffffffffffffffffffffffffffff167fddf252ad1be2c89b69c2b068fc378daa952ba7f163c4a11628f55a4df523b3ef8360405162000915919062001084565b60405180910390a3505050565b5f80fd5b5f73ffffffffffffffffffffffffffffffffffffffff82169050919050565b5f620009518262000926565b9050919050565b620009638162000945565b81146200096e575f80fd5b50565b5f81519050620009818162000958565b92915050565b5f805f60608486031215620009a157620009a062000922565b5b5f620009b08682870162000971565b9350506020620009c38682870162000971565b9250506040620009d68682870162000971565b9150509250925092565b5f81519050919050565b7f4e487b71000000000000000000000000000000000000000000000000000000005f52604160045260245ffd5b7f4e487b71000000000000000000000000000000000000000000000000000000005f52602260045260245ffd5b5f600282049050600182168062000a5c57607f821691505b60208210810362000a725762000a7162000a17565b5b50919050565b5f819050815f5260205f209050919050565b5f6020601f8301049050919050565b5f82821b905092915050565b5f6008830262000ad67fffffffffffffffffffffffffffffffffffffffffffffffffffffffffffffffff8262000a99565b62000ae2868362000a99565b95508019841693508086168417925050509392505050565b5f819050919050565b5f819050919050565b5f62000b2c62000b2662000b208462000afa565b62000b03565b62000afa565b9050919050565b5f819050919050565b62000b478362000b0c565b62000b5f62000b568262000b33565b84845462000aa5565b825550505050565b5f90565b62000b7562000b67565b62000b8281848462000b3c565b505050565b5b8181101562000ba95762000b9d5f8262000b6b565b60018101905062000b88565b5050565b601f82111562000bf85762000bc28162000a78565b62000bcd8462000a8a565b8101602085101562000bdd578190505b62000bf562000bec8562000a8a565b83018262000b87565b50505b505050565b5f82821c905092915050565b5f62000c1a5f198460080262000bfd565b1980831691505092915050565b5f62000c34838362000c09565b9150826002028217905092915050565b62000c4f82620009e0565b67ffffffffffffffff81111562000c6b5762000c6a620009ea565b5b62000c77825462000a44565b62000c8482828562000bad565b5f60209050601f83116001811462000cba575f841562000ca5578287015190505b62000cb1858262000c27565b86555062000d20565b601f19841662000cca8662000a78565b5f5b8281101562000cf35784890151825560018201915060208501945060208101905062000ccc565b8683101562000d13578489015162000d0f601f89168262000c09565b8355505b6001600288020188555050505b505050505050565b62000d338162000945565b82525050565b5f60208201905062000d4e5f83018462000d28565b92915050565b7f4e487b71000000000000000000000000000000000000000000000000000000005f52601160045260245ffd5b5f62000d8d8262000afa565b915062000d9a8362000afa565b925082820262000daa8162000afa565b9150828204841483151762000dc45762000dc362000d54565b5b5092915050565b7f4e487b71000000000000000000000000000000000000000000000000000000005f52601260045260245ffd5b5f62000e048262000afa565b915062000e118362000afa565b92508262000e245762000e2362000dcb565b5b828204905092915050565b5f62000e3b8262000afa565b915062000e488362000afa565b925082820390508181111562000e635762000e6262000d54565b5b92915050565b5f82825260208201905092915050565b7f42656e6566696369617279206973207a65726f206164647265737300000000005f82015250565b5f62000eaf601b8362000e69565b915062000ebc8262000e79565b602082019050919050565b5f6020820190508181035f83015262000ee08162000ea1565b9050919050565b7f416d6f756e74206973207a65726f0000000000000000000000000000000000005f82015250565b5f62000f1d600e8362000e69565b915062000f2a8262000ee7565b602082019050919050565b5f6020820190508181035f83015262000f4e8162000f0f565b9050919050565b7f416c7265616479207665737465640000000000000000000000000000000000005f82015250565b5f62000f8b600e8362000e69565b915062000f988262000f55565b602082019050919050565b5f6020820190508181035f83015262000fbc8162000f7d565b9050919050565b62000fce8162000afa565b82525050565b5f60608201905062000fe95f83018662000fc3565b62000ff8602083018562000fc3565b62001007604083018462000fc3565b949350505050565b5f6200101b8262000afa565b9150620010288362000afa565b925082820190508082111562001043576200104262000d54565b5b92915050565b5f6060820190506200105e5f83018662000d28565b6200106d602083018562000fc3565b6200107c604083018462000fc3565b949350505050565b5f602082019050620010995f83018462000fc3565b92915050565b613d3a80620010ad5f395ff3fe60806040526004361061025e575f3560e01c80637eb5378511610143578063c816841b116100b5578063dd29648011610079578063dd2964801461090d578063dd62ed3e14610949578063df136d6514610985578063f2fde38b146109af578063f51ace70146109d7578063f829709914610a0157610265565b8063c816841b1461083d578063c8f33c9114610867578063cd3daf9d14610891578063d5aed6bf146108bb578063d9c4941e146108e357610265565b8063962129161161010757806396212916146106fb57806399f7854a146107375780639d4310ec14610773578063a694fc3a146107af578063a9059cbb146107d7578063c04a54141461081357610265565b80637eb537851461062b578063828205111461064157806385dcf86a1461066b5780638da5cb5b146106a757806395d89b41146106d157610265565b806335f53e8e116101dc5780636985e6d8116101a05780636985e6d8146105215780636f2397b81461055d57806370a0823114610585578063715018a6146105c1578063735de9f7146105d7578063771a3a1d1461060157610265565b806335f53e8e14610465578063384711cc1461048f5780633d18b912146104cb57806354dd1da4146104e15780635971aa21146104f757610265565b806318160ddd1161022357806318160ddd146103835780631fc75e41146103ad57806323b872dd146103d75780632e1a7d4d14610413578063313ce5671461043b57610265565b80628cc26214610269578063032bbf4f146102a557806306fdde03146102e1578063095ea7b31461030b5780631726cbc81461034757610265565b3661026557005b5f80fd5b348015610274575f80fd5b5061028f600480360381019061028a9190612f49565b610a3d565b60405161029c9190612f8c565b60405180910390f35b3480156102b0575f80fd5b506102cb60048036038101906102c69190612f49565b610afd565b6040516102d89190612f8c565b60405180910390f35b3480156102ec575f80fd5b506102f5610b12565b604051610302919061302f565b60405180910390f35b348015610316575f80fd5b50610331600480360381019061032c9190613079565b610ba2565b60405161033e91906130d1565b60405180910390f35b348015610352575f80fd5b5061036d60048036038101906103689190612f49565b610bc4565b60405161037a9190612f8c565b60405180910390f35b34801561038e575f80fd5b50610397610c6c565b6040516103a49190612f8c565b60405180910390f35b3480156103b8575f80fd5b506103c1610c75565b6040516103ce91906130f9565b60405180910390f35b3480156103e2575f80fd5b506103fd60048036038101906103f89190613112565b610c9a565b60405161040a91906130d1565b60405180910390f35b34801561041e575f80fd5b5061043960048036038101906104349190613162565b610cc8565b005b348015610446575f80fd5b5061044f6110bb565b60405161045c91906131a8565b60405180910390f35b348015610470575f80fd5b506104796110c3565b6040516104869190612f8c565b60405180910390f35b34801561049a575f80fd5b506104b560048036038101906104b09190612f49565b6110cf565b6040516104c29190612f8c565b60405180910390f35b3480156104d6575f80fd5b506104df6110e4565b005b3480156104ec575f80fd5b506104f56111b0565b005b348015610502575f80fd5b5061050b6112ad565b6040516105189190612f8c565b60405180910390f35b34801561052c575f80fd5b5061054760048036038101906105429190612f49565b6112ba565b6040516105549190612f8c565b60405180910390f35b348015610568575f80fd5b50610583600480360381019061057e91906131c1565b6112cf565b005b348015610590575f80fd5b506105ab60048036038101906105a69190612f49565b611333565b6040516105b89190612f8c565b60405180910390f35b3480156105cc575f80fd5b506105d5611378565b005b3480156105e2575f80fd5b506105eb61138b565b6040516105f8919061326c565b60405180910390f35b34801561060c575f80fd5b506106156113b0565b6040516106229190612f8c565b60405180910390f35b348015610636575f80fd5b5061063f6113b6565b005b34801561064c575f80fd5b50610655611554565b6040516106629190612f8c565b60405180910390f35b348015610676575f80fd5b50610691600480360381019061068c9190612f49565b61155a565b60405161069e9190612f8c565b60405180910390f35b3480156106b2575f80fd5b506106bb61156f565b6040516106c891906130f9565b60405180910390f35b3480156106dc575f80fd5b506106e5611597565b6040516106f2919061302f565b60405180910390f35b348015610706575f80fd5b50610721600480360381019061071c9190613162565b611627565b60405161072e91906130f9565b60405180910390f35b348015610742575f80fd5b5061075d60048036038101906107589190612f49565b611662565b60405161076a91906130d1565b60405180910390f35b34801561077e575f80fd5b5061079960048036038101906107949190612f49565b61167f565b6040516107a69190612f8c565b60405180910390f35b3480156107ba575f80fd5b506107d560048036038101906107d09190613162565b61179d565b005b3480156107e2575f80fd5b506107fd60048036038101906107f89190613079565b611b15565b60405161080a91906130d1565b60405180910390f35b34801561081e575f80fd5b50610827611b37565b60405161083491906130f9565b60405180910390f35b348015610848575f80fd5b50610851611b5c565b60405161085e91906132a5565b60405180910390f35b348015610872575f80fd5b5061087b611b81565b6040516108889190612f8c565b60405180910390f35b34801561089c575f80fd5b506108a5611b87565b6040516108b29190612f8c565b60405180910390f35b3480156108c6575f80fd5b506108e160048036038101906108dc9190612f49565b611bf6565b005b3480156108ee575f80fd5b506108f7611c41565b6040516109049190612f8c565b60405180910390f35b348015610918575f80fd5b50610933600480360381019061092e9190612f49565b611c47565b6040516109409190612f8c565b60405180910390f35b348015610954575f80fd5b5061096f600480360381019061096a91906132be565b611c5c565b60405161097c9190612f8c565b60405180910390f35b348015610990575f80fd5b50610999611cde565b6040516109a69190612f8c565b60405180910390f35b3480156109ba575f80fd5b506109d560048036038101906109d09190612f49565b611ce4565b005b3480156109e2575f80fd5b506109eb611d68565b6040516109f89190612f8c565b60405180910390f35b348015610a0c575f80fd5b50610a276004803603810190610a229190612f49565b611fb6565b604051610a349190612f8c565b60405180910390f35b5f600e5f8373ffffffffffffffffffffffffffffffffffffffff1673ffffffffffffffffffffffffffffffffffffffff1681526020019081526020015f2054670de0b6b3a7640000601454610a90611b87565b610a9a9190613329565b600e5f8673ffffffffffffffffffffffffffffffffffffffff1673ffffffffffffffffffffffffffffffffffffffff1681526020019081526020015f2054610ae2919061335c565b610aec91906133ca565b610af691906133fa565b9050919050565b6010602052805f5260405f205f915090505481565b606060038054610b219061345a565b80601f0160208091040260200160405190810160405280929190818152602001828054610b4d9061345a565b8015610b985780601f10610b6f57610100808354040283529160200191610b98565b820191905f5260205f20905b815481529060010190602001808311610b7b57829003601f168201915b5050505050905090565b5f80610bac611fcb565b9050610bb9818585611fd2565b600191505092915050565b5f6301e1338060105f8473ffffffffffffffffffffffffffffffffffffffff1673ffffffffffffffffffffffffffffffffffffffff1681526020019081526020015f205442610c139190613329565b60115f8573ffffffffffffffffffffffffffffffffffffffff1673ffffffffffffffffffffffffffffffffffffffff1681526020019081526020015f2054610c5b919061335c565b610c6591906133ca565b9050919050565b5f600254905090565b600a5f9054906101000a900473ffffffffffffffffffffffffffffffffffffffff1681565b5f80610ca4611fcb565b9050610cb1858285611fe4565b610cbc858585612076565b60019150509392505050565b610cd06121bc565b80600e5f3373ffffffffffffffffffffffffffffffffffffffff1673ffffffffffffffffffffffffffffffffffffffff1681526020019081526020015f20541015610d50576040517f08c379a0000000000000000000000000000000000000000000000000000000008152600401610d47906134d4565b60405180910390fd5b610d593361220b565b80600e5f3373ffffffffffffffffffffffffffffffffffffffff1673ffffffffffffffffffffffffffffffffffffffff1681526020019081526020015f205f828254610da59190613329565b9250508190555060085f9054906101000a900473ffffffffffffffffffffffffffffffffffffffff1673ffffffffffffffffffffffffffffffffffffffff1663a9059cbb33836040518363ffffffff1660e01b8152600401610e089291906134f2565b6020604051808303815f875af1158015610e24573d5f803e3d5ffd5b505050506040513d601f19601f82011682018060405250810190610e489190613543565b505f600e5f3373ffffffffffffffffffffffffffffffffffffffff1673ffffffffffffffffffffffffffffffffffffffff1681526020019081526020015f205403611062575f60175f3373ffffffffffffffffffffffffffffffffffffffff1673ffffffffffffffffffffffffffffffffffffffff1681526020019081526020015f205f6101000a81548160ff0219169083151502179055505f5b601680549050811015611060573373ffffffffffffffffffffffffffffffffffffffff1660168281548110610f1b57610f1a61356e565b5b905f5260205f20015f9054906101000a900473ffffffffffffffffffffffffffffffffffffffff1673ffffffffffffffffffffffffffffffffffffffff160361104d5760166001601680549050610f729190613329565b81548110610f8357610f8261356e565b5b905f5260205f20015f9054906101000a900473ffffffffffffffffffffffffffffffffffffffff1660168281548110610fbf57610fbe61356e565b5b905f5260205f20015f6101000a81548173ffffffffffffffffffffffffffffffffffffffff021916908373ffffffffffffffffffffffffffffffffffffffff16021790555060168054806110165761101561359b565b5b600190038181905f5260205f20015f6101000a81549073ffffffffffffffffffffffffffffffffffffffff02191690559055611060565b8080611058906135c8565b915050610ee3565b505b3373ffffffffffffffffffffffffffffffffffffffff167fc2c3f06e49b9f15e7b4af9055e183b0d73362e033ad82a07dec9bf9840171719826040516110a89190612f8c565b60405180910390a26110b86122a1565b50565b5f6012905090565b678ac7230489e8000081565b6011602052805f5260405f205f915090505481565b6110ec6121bc565b6110f53361220b565b5f6110ff33610a3d565b90505f8111156111a5575f600e5f3373ffffffffffffffffffffffffffffffffffffffff1673ffffffffffffffffffffffffffffffffffffffff1681526020019081526020015f20819055506111563033836122ab565b3373ffffffffffffffffffffffffffffffffffffffff167fe2403640ba68fed3a2f88b7557551d1993f84b99bb10ff833f0cf8db0c5e04868260405161119c9190612f8c565b60405180910390a25b506111ae6122a1565b565b5f6111ba33610bc4565b90505f81116111fe576040517f08c379a00000000000000000000000000000000000000000000000000000000081526004016111f590613659565b60405180910390fd5b8060115f3373ffffffffffffffffffffffffffffffffffffffff1673ffffffffffffffffffffffffffffffffffffffff1681526020019081526020015f205f82825461124a9190613329565b9250508190555061125c303383612076565b3373ffffffffffffffffffffffffffffffffffffffff167fc7798891864187665ac6dd119286e44ec13f014527aeeb2b8eb3fd413df93179826040516112a29190612f8c565b60405180910390a250565b68056bc75e2d6310000081565b600f602052805f5260405f205f915090505481565b6112d761239b565b816112e130611333565b1015611322576040517f08c379a0000000000000000000000000000000000000000000000000000000008152600401611319906136e7565b60405180910390fd5b61132e83834284612422565b505050565b5f805f8373ffffffffffffffffffffffffffffffffffffffff1673ffffffffffffffffffffffffffffffffffffffff1681526020019081526020015f20549050919050565b61138061239b565b6113895f61262d565b565b60075f9054906101000a900473ffffffffffffffffffffffffffffffffffffffff1681565b600b5481565b6113be61239b565b6013544211611402576040517f08c379a00000000000000000000000000000000000000000000000000000000081526004016113f99061374f565b60405180910390fd5b5f5b60168054905081101561154a575f601682815481106114265761142561356e565b5b905f5260205f20015f9054906101000a900473ffffffffffffffffffffffffffffffffffffffff1690505f60125f8373ffffffffffffffffffffffffffffffffffffffff1673ffffffffffffffffffffffffffffffffffffffff1681526020019081526020015f205490505f811115611535575f60125f8473ffffffffffffffffffffffffffffffffffffffff1673ffffffffffffffffffffffffffffffffffffffff1681526020019081526020015f20819055506114e6308383612076565b8173ffffffffffffffffffffffffffffffffffffffff167ffe72567e4f43723d5f9a3a8b91484edb24388f30c47851012e52a0c2fcd73fde8260405161152c9190612f8c565b60405180910390a25b50508080611542906135c8565b915050611404565b5042601381905550565b60155481565b600e602052805f5260405f205f915090505481565b5f60065f9054906101000a900473ffffffffffffffffffffffffffffffffffffffff16905090565b6060600480546115a69061345a565b80601f01602080910402602001604051908101604052809291908181526020018280546115d29061345a565b801561161d5780601f106115f45761010080835404028352916020019161161d565b820191905f5260205f20905b81548152906001019060200180831161160057829003601f168201915b5050505050905090565b60168181548110611636575f80fd5b905f5260205f20015f915054906101000a900473ffffffffffffffffffffffffffffffffffffffff1681565b6017602052805f5260405f205f915054906101000a900460ff1681565b5f8060085f9054906101000a900473ffffffffffffffffffffffffffffffffffffffff1673ffffffffffffffffffffffffffffffffffffffff166370a08231846040518263ffffffff1660e01b81526004016116db91906130f9565b602060405180830381865afa1580156116f6573d5f803e3d5ffd5b505050506040513d601f19601f8201168201806040525081019061171a9190613781565b90505f600f5f8573ffffffffffffffffffffffffffffffffffffffff1673ffffffffffffffffffffffffffffffffffffffff1681526020019081526020015f2054426117669190613329565b9050670de0b6b3a76400006015548284611780919061335c565b61178a919061335c565b61179491906133ca565b92505050919050565b6117a56121bc565b5f73ffffffffffffffffffffffffffffffffffffffff1660085f9054906101000a900473ffffffffffffffffffffffffffffffffffffffff1673ffffffffffffffffffffffffffffffffffffffff1603611834576040517f08c379a000000000000000000000000000000000000000000000000000000000815260040161182b906137f6565b60405180910390fd5b5f600f5f3373ffffffffffffffffffffffffffffffffffffffff1673ffffffffffffffffffffffffffffffffffffffff1681526020019081526020015f2054036118bb5742600f5f3373ffffffffffffffffffffffffffffffffffffffff1673ffffffffffffffffffffffffffffffffffffffff1681526020019081526020015f20819055505b6118c43361220b565b60085f9054906101000a900473ffffffffffffffffffffffffffffffffffffffff1673ffffffffffffffffffffffffffffffffffffffff166323b872dd3330846040518463ffffffff1660e01b815260040161192293929190613814565b6020604051808303815f875af115801561193e573d5f803e3d5ffd5b505050506040513d601f19601f820116820180604052508101906119629190613543565b5080600e5f3373ffffffffffffffffffffffffffffffffffffffff1673ffffffffffffffffffffffffffffffffffffffff1681526020019081526020015f205f8282546119af91906133fa565b9250508190555060175f3373ffffffffffffffffffffffffffffffffffffffff1673ffffffffffffffffffffffffffffffffffffffff1681526020019081526020015f205f9054906101000a900460ff16611aba57601633908060018154018082558091505060019003905f5260205f20015f9091909190916101000a81548173ffffffffffffffffffffffffffffffffffffffff021916908373ffffffffffffffffffffffffffffffffffffffff160217905550600160175f3373ffffffffffffffffffffffffffffffffffffffff1673ffffffffffffffffffffffffffffffffffffffff1681526020019081526020015f205f6101000a81548160ff0219169083151502179055505b3373ffffffffffffffffffffffffffffffffffffffff167fac1d76749e5447b7b16f5ab61447e1bd502f3bb4807af3b28e620d1700a6ee45825f604051611b02929190613882565b60405180910390a2611b126122a1565b50565b5f80611b1f611fcb565b9050611b2c818585612076565b600191505092915050565b60095f9054906101000a900473ffffffffffffffffffffffffffffffffffffffff1681565b60085f9054906101000a900473ffffffffffffffffffffffffffffffffffffffff1681565b60135481565b5f80611b91610c6c565b03611b9e575f9050611bf3565b611ba6610c6c565b670de0b6b3a7640000611bb7611d68565b60135442611bc59190613329565b611bcf919061335c565b611bd9919061335c565b611be391906133ca565b601454611bf091906133fa565b90505b90565b611bfe61239b565b8060085f6101000a81548173ffffffffffffffffffffffffffffffffffffffff021916908373ffffffffffffffffffffffffffffffffffffffff16021790555050565b600c5481565b600d602052805f5260405f205f915090505481565b5f60015f8473ffffffffffffffffffffffffffffffffffffffff1673ffffffffffffffffffffffffffffffffffffffff1681526020019081526020015f205f8373ffffffffffffffffffffffffffffffffffffffff1673ffffffffffffffffffffffffffffffffffffffff1681526020019081526020015f2054905092915050565b60145481565b611cec61239b565b5f73ffffffffffffffffffffffffffffffffffffffff168173ffffffffffffffffffffffffffffffffffffffff1603611d5c575f6040517f1e4fbdf7000000000000000000000000000000000000000000000000000000008152600401611d5391906130f9565b60405180910390fd5b611d658161262d565b50565b5f80600f5f3373ffffffffffffffffffffffffffffffffffffffff1673ffffffffffffffffffffffffffffffffffffffff1681526020019081526020015f205442611db39190613329565b90506213c680811015611de0576201518068056bc75e2d63100000611dd891906133ca565b915050611fb3565b621d0100811015611e1e5762015180678ac7230489e8000068056bc75e2d63100000611e0c9190613329565b611e1691906133ca565b915050611fb3565b62263b80811015611e5d57620151806801158e460913d0000068056bc75e2d63100000611e4b9190613329565b611e5591906133ca565b915050611fb3565b622f7600811015611e9c57620151806801a055690d9db8000068056bc75e2d63100000611e8a9190613329565b611e9491906133ca565b915050611fb3565b6238b080811015611edb576201518068022b1c8c1227a0000068056bc75e2d63100000611ec99190613329565b611ed391906133ca565b915050611fb3565b6241eb00811015611f1a57620151806802b5e3af16b188000068056bc75e2d63100000611f089190613329565b611f1291906133ca565b915050611fb3565b624b2580811015611f595762015180680340aad21b3b70000068056bc75e2d63100000611f479190613329565b611f5191906133ca565b915050611fb3565b62546000811015611f9857620151806803cb71f51fc558000068056bc75e2d63100000611f869190613329565b611f9091906133ca565b915050611fb3565b62015180678ac7230489e80000611faf91906133ca565b9150505b90565b6012602052805f5260405f205f915090505481565b5f33905090565b611fdf83838360016126f0565b505050565b5f611fef8484611c5c565b90507fffffffffffffffffffffffffffffffffffffffffffffffffffffffffffffffff81146120705781811015612061578281836040517ffb8f41b2000000000000000000000000000000000000000000000000000000008152600401612058939291906138a9565b60405180910390fd5b61206f84848484035f6126f0565b5b50505050565b5f805f60175f8773ffffffffffffffffffffffffffffffffffffffff1673ffffffffffffffffffffffffffffffffffffffff1681526020019081526020015f205f9054906101000a900460ff16156120ef576064600c54856120d8919061335c565b6120e291906133ca565b92508290505f9150612135565b6064600b54856120ff919061335c565b61210991906133ca565b92506064604b8461211a919061335c565b61212491906133ca565b915081836121329190613329565b90505b5f83856121429190613329565b90505f831115612161576121578730856122ab565b612160836128bf565b5b5f821115612196576121958760095f9054906101000a900473ffffffffffffffffffffffffffffffffffffffff16846122ab565b5b6121a18787836122ab565b6121aa87612ae6565b6121b386612ae6565b50505050505050565b600260055403612201576040517f08c379a00000000000000000000000000000000000000000000000000000000081526004016121f890613928565b60405180910390fd5b6002600581905550565b612213611b87565b601481905550426013819055505f73ffffffffffffffffffffffffffffffffffffffff168173ffffffffffffffffffffffffffffffffffffffff161461229e5761225c81610a3d565b600e5f8373ffffffffffffffffffffffffffffffffffffffff1673ffffffffffffffffffffffffffffffffffffffff1681526020019081526020015f20819055505b50565b6001600581905550565b5f73ffffffffffffffffffffffffffffffffffffffff168373ffffffffffffffffffffffffffffffffffffffff160361231b575f6040517f96c6fd1e00000000000000000000000000000000000000000000000000000000815260040161231291906130f9565b60405180910390fd5b5f73ffffffffffffffffffffffffffffffffffffffff168273ffffffffffffffffffffffffffffffffffffffff160361238b575f6040517fec442f0500000000000000000000000000000000000000000000000000000000815260040161238291906130f9565b60405180910390fd5b612396838383612b52565b505050565b6123a3611fcb565b73ffffffffffffffffffffffffffffffffffffffff166123c161156f565b73ffffffffffffffffffffffffffffffffffffffff1614612420576123e4611fcb565b6040517f118cdaa700000000000000000000000000000000000000000000000000000000815260040161241791906130f9565b60405180910390fd5b565b5f73ffffffffffffffffffffffffffffffffffffffff168473ffffffffffffffffffffffffffffffffffffffff1603612490576040517f08c379a000000000000000000000000000000000000000000000000000000000815260040161248790613990565b60405180910390fd5b5f83116124d2576040517f08c379a00000000000000000000000000000000000000000000000000000000081526004016124c9906139f8565b60405180910390fd5b5f60105f8673ffffffffffffffffffffffffffffffffffffffff1673ffffffffffffffffffffffffffffffffffffffff1681526020019081526020015f205414612551576040517f08c379a000000000000000000000000000000000000000000000000000000000815260040161254890613a60565b60405180910390fd5b8260115f8673ffffffffffffffffffffffffffffffffffffffff1673ffffffffffffffffffffffffffffffffffffffff1681526020019081526020015f20819055508160105f8673ffffffffffffffffffffffffffffffffffffffff1673ffffffffffffffffffffffffffffffffffffffff1681526020019081526020015f20819055508373ffffffffffffffffffffffffffffffffffffffff167fcf204ce1b55772bfa423f3f0c5d9a2cfe3197a5110073875f0b9c7dd3538c7d684848460405161261f93929190613a7e565b60405180910390a250505050565b5f60065f9054906101000a900473ffffffffffffffffffffffffffffffffffffffff1690508160065f6101000a81548173ffffffffffffffffffffffffffffffffffffffff021916908373ffffffffffffffffffffffffffffffffffffffff1602179055508173ffffffffffffffffffffffffffffffffffffffff168173ffffffffffffffffffffffffffffffffffffffff167f8be0079c531659141344cd1fd0a4f28419497f9722a3daafe3b4186f6b6457e060405160405180910390a35050565b5f73ffffffffffffffffffffffffffffffffffffffff168473ffffffffffffffffffffffffffffffffffffffff1603612760575f6040517fe602df0500000000000000000000000000000000000000000000000000000000815260040161275791906130f9565b60405180910390fd5b5f73ffffffffffffffffffffffffffffffffffffffff168373ffffffffffffffffffffffffffffffffffffffff16036127d0575f6040517f94280d620000000000000000000000000000000000000000000000000000000081526004016127c791906130f9565b60405180910390fd5b8160015f8673ffffffffffffffffffffffffffffffffffffffff1673ffffffffffffffffffffffffffffffffffffffff1681526020019081526020015f205f8573ffffffffffffffffffffffffffffffffffffffff1673ffffffffffffffffffffffffffffffffffffffff1681526020019081526020015f208190555080156128b9578273ffffffffffffffffffffffffffffffffffffffff168473ffffffffffffffffffffffffffffffffffffffff167f8c5be1e5ebec7d5bd14f71427d1e84f3dd0314c0f7b2291e5b200ac8c7c3b925846040516128b09190612f8c565b60405180910390a35b50505050565b5f6002826128cd91906133ca565b90505f81836128dc9190613329565b90505f47905061290e3060075f9054906101000a900473ffffffffffffffffffffffffffffffffffffffff1685611fd2565b60075f9054906101000a900473ffffffffffffffffffffffffffffffffffffffff1673ffffffffffffffffffffffffffffffffffffffff1663791ac947845f612955612d6b565b30426040518663ffffffff1660e01b8152600401612977959493929190613b6a565b5f604051808303815f87803b15801561298e575f80fd5b505af11580156129a0573d5f803e3d5ffd5b505050505f81476129b19190613329565b90506129df3060075f9054906101000a900473ffffffffffffffffffffffffffffffffffffffff1685611fd2565b60075f9054906101000a900473ffffffffffffffffffffffffffffffffffffffff1673ffffffffffffffffffffffffffffffffffffffff1663f305d7198230865f80612a2961156f565b426040518863ffffffff1660e01b8152600401612a4b96959493929190613bc2565b60606040518083038185885af1158015612a67573d5f803e3d5ffd5b50505050506040513d601f19601f82011682018060405250810190612a8c9190613c21565b5050503073ffffffffffffffffffffffffffffffffffffffff167fac1d76749e5447b7b16f5ab61447e1bd502f3bb4807af3b28e620d1700a6ee458483604051612ad7929190613c71565b60405180910390a25050505050565b5f612af08261167f565b90505f811115612b4e578060125f8473ffffffffffffffffffffffffffffffffffffffff1673ffffffffffffffffffffffffffffffffffffffff1681526020019081526020015f205f828254612b4691906133fa565b925050819055505b5050565b5f73ffffffffffffffffffffffffffffffffffffffff168373ffffffffffffffffffffffffffffffffffffffff1603612ba2578060025f828254612b9691906133fa565b92505081905550612c70565b5f805f8573ffffffffffffffffffffffffffffffffffffffff1673ffffffffffffffffffffffffffffffffffffffff1681526020019081526020015f2054905081811015612c2b578381836040517fe450d38c000000000000000000000000000000000000000000000000000000008152600401612c22939291906138a9565b60405180910390fd5b8181035f808673ffffffffffffffffffffffffffffffffffffffff1673ffffffffffffffffffffffffffffffffffffffff1681526020019081526020015f2081905550505b5f73ffffffffffffffffffffffffffffffffffffffff168273ffffffffffffffffffffffffffffffffffffffff1603612cb7578060025f8282540392505081905550612d01565b805f808473ffffffffffffffffffffffffffffffffffffffff1673ffffffffffffffffffffffffffffffffffffffff1681526020019081526020015f205f82825401925050819055505b8173ffffffffffffffffffffffffffffffffffffffff168373ffffffffffffffffffffffffffffffffffffffff167fddf252ad1be2c89b69c2b068fc378daa952ba7f163c4a11628f55a4df523b3ef83604051612d5e9190612f8c565b60405180910390a3505050565b60605f600267ffffffffffffffff811115612d8957612d88613c98565b5b604051908082528060200260200182016040528015612db75781602001602082028036833780820191505090505b50905030815f81518110612dce57612dcd61356e565b5b602002602001019073ffffffffffffffffffffffffffffffffffffffff16908173ffffffffffffffffffffffffffffffffffffffff168152505060075f9054906101000a900473ffffffffffffffffffffffffffffffffffffffff1673ffffffffffffffffffffffffffffffffffffffff1663ad5c46486040518163ffffffff1660e01b8152600401602060405180830381865afa158015612e72573d5f803e3d5ffd5b505050506040513d601f19601f82011682018060405250810190612e969190613cd9565b81600181518110612eaa57612ea961356e565b5b602002602001019073ffffffffffffffffffffffffffffffffffffffff16908173ffffffffffffffffffffffffffffffffffffffff16815250508091505090565b5f80fd5b5f73ffffffffffffffffffffffffffffffffffffffff82169050919050565b5f612f1882612eef565b9050919050565b612f2881612f0e565b8114612f32575f80fd5b50565b5f81359050612f4381612f1f565b92915050565b5f60208284031215612f5e57612f5d612eeb565b5b5f612f6b84828501612f35565b91505092915050565b5f819050919050565b612f8681612f74565b82525050565b5f602082019050612f9f5f830184612f7d565b92915050565b5f81519050919050565b5f82825260208201905092915050565b5f5b83811015612fdc578082015181840152602081019050612fc1565b5f8484015250505050565b5f601f19601f8301169050919050565b5f61300182612fa5565b61300b8185612faf565b935061301b818560208601612fbf565b61302481612fe7565b840191505092915050565b5f6020820190508181035f8301526130478184612ff7565b905092915050565b61305881612f74565b8114613062575f80fd5b50565b5f813590506130738161304f565b92915050565b5f806040838503121561308f5761308e612eeb565b5b5f61309c85828601612f35565b92505060206130ad85828601613065565b9150509250929050565b5f8115159050919050565b6130cb816130b7565b82525050565b5f6020820190506130e45f8301846130c2565b92915050565b6130f381612f0e565b82525050565b5f60208201905061310c5f8301846130ea565b92915050565b5f805f6060848603121561312957613128612eeb565b5b5f61313686828701612f35565b935050602061314786828701612f35565b925050604061315886828701613065565b9150509250925092565b5f6020828403121561317757613176612eeb565b5b5f61318484828501613065565b91505092915050565b5f60ff82169050919050565b6131a28161318d565b82525050565b5f6020820190506131bb5f830184613199565b92915050565b5f805f606084860312156131d8576131d7612eeb565b5b5f6131e586828701612f35565b93505060206131f686828701613065565b925050604061320786828701613065565b9150509250925092565b5f819050919050565b5f61323461322f61322a84612eef565b613211565b612eef565b9050919050565b5f6132458261321a565b9050919050565b5f6132568261323b565b9050919050565b6132668161324c565b82525050565b5f60208201905061327f5f83018461325d565b92915050565b5f61328f8261323b565b9050919050565b61329f81613285565b82525050565b5f6020820190506132b85f830184613296565b92915050565b5f80604083850312156132d4576132d3612eeb565b5b5f6132e185828601612f35565b92505060206132f285828601612f35565b9150509250929050565b7f4e487b71000000000000000000000000000000000000000000000000000000005f52601160045260245ffd5b5f61333382612f74565b915061333e83612f74565b9250828203905081811115613356576133556132fc565b5b92915050565b5f61336682612f74565b915061337183612f74565b925082820261337f81612f74565b91508282048414831517613396576133956132fc565b5b5092915050565b7f4e487b71000000000000000000000000000000000000000000000000000000005f52601260045260245ffd5b5f6133d482612f74565b91506133df83612f74565b9250826133ef576133ee61339d565b5b828204905092915050565b5f61340482612f74565b915061340f83612f74565b9250828201905080821115613427576134266132fc565b5b92915050565b7f4e487b71000000000000000000000000000000000000000000000000000000005f52602260045260245ffd5b5f600282049050600182168061347157607f821691505b6020821081036134845761348361342d565b5b50919050565b7f576974686472617720616d6f756e7420657863656564732062616c616e6365005f82015250565b5f6134be601f83612faf565b91506134c98261348a565b602082019050919050565b5f6020820190508181035f8301526134eb816134b2565b9050919050565b5f6040820190506135055f8301856130ea565b6135126020830184612f7d565b9392505050565b613522816130b7565b811461352c575f80fd5b50565b5f8151905061353d81613519565b92915050565b5f6020828403121561355857613557612eeb565b5b5f6135658482850161352f565b91505092915050565b7f4e487b71000000000000000000000000000000000000000000000000000000005f52603260045260245ffd5b7f4e487b71000000000000000000000000000000000000000000000000000000005f52603160045260245ffd5b5f6135d282612f74565b91507fffffffffffffffffffffffffffffffffffffffffffffffffffffffffffffffff8203613604576136036132fc565b5b600182019050919050565b7f4e6f20746f6b656e7320746f2072656c656173650000000000000000000000005f82015250565b5f613643601483612faf565b915061364e8261360f565b602082019050919050565b5f6020820190508181035f83015261367081613637565b9050919050565b7f4e6f7420656e6f75676820746f6b656e7320696e20636f6e747261637420746f5f8201527f2076657374000000000000000000000000000000000000000000000000000000602082015250565b5f6136d1602583612faf565b91506136dc82613677565b604082019050919050565b5f6020820190508181035f8301526136fe816136c5565b9050919050565b7f43616e6e6f7420646973747269627574652072657761726473207965740000005f82015250565b5f613739601d83612faf565b915061374482613705565b602082019050919050565b5f6020820190508181035f8301526137668161372d565b9050919050565b5f8151905061377b8161304f565b92915050565b5f6020828403121561379657613795612eeb565b5b5f6137a38482850161376d565b91505092915050565b7f556e69737761702070616972206e6f74207365740000000000000000000000005f82015250565b5f6137e0601483612faf565b91506137eb826137ac565b602082019050919050565b5f6020820190508181035f83015261380d816137d4565b9050919050565b5f6060820190506138275f8301866130ea565b61383460208301856130ea565b6138416040830184612f7d565b949350505050565b5f819050919050565b5f61386c61386761386284613849565b613211565b612f74565b9050919050565b61387c81613852565b82525050565b5f6040820190506138955f830185612f7d565b6138a26020830184613873565b9392505050565b5f6060820190506138bc5f8301866130ea565b6138c96020830185612f7d565b6138d66040830184612f7d565b949350505050565b7f5265656e7472616e637947756172643a207265656e7472616e742063616c6c005f82015250565b5f613912601f83612faf565b915061391d826138de565b602082019050919050565b5f6020820190508181035f83015261393f81613906565b9050919050565b7f42656e6566696369617279206973207a65726f206164647265737300000000005f82015250565b5f61397a601b83612faf565b915061398582613946565b602082019050919050565b5f6020820190508181035f8301526139a78161396e565b9050919050565b7f416d6f756e74206973207a65726f0000000000000000000000000000000000005f82015250565b5f6139e2600e83612faf565b91506139ed826139ae565b602082019050919050565b5f6020820190508181035f830152613a0f816139d6565b9050919050565b7f416c7265616479207665737465640000000000000000000000000000000000005f82015250565b5f613a4a600e83612faf565b9150613a5582613a16565b602082019050919050565b5f6020820190508181035f830152613a7781613a3e565b9050919050565b5f606082019050613a915f830186612f7d565b613a9e6020830185612f7d565b613aab6040830184612f7d565b949350505050565b5f81519050919050565b5f82825260208201905092915050565b5f819050602082019050919050565b613ae581612f0e565b82525050565b5f613af68383613adc565b60208301905092915050565b5f602082019050919050565b5f613b1882613ab3565b613b228185613abd565b9350613b2d83613acd565b805f5b83811015613b5d578151613b448882613aeb565b9750613b4f83613b02565b925050600181019050613b30565b5085935050505092915050565b5f60a082019050613b7d5f830188612f7d565b613b8a6020830187613873565b8181036040830152613b9c8186613b0e565b9050613bab60608301856130ea565b613bb86080830184612f7d565b9695505050505050565b5f60c082019050613bd55f8301896130ea565b613be26020830188612f7d565b613bef6040830187613873565b613bfc6060830186613873565b613c0960808301856130ea565b613c1660a0830184612f7d565b979650505050505050565b5f805f60608486031215613c3857613c37612eeb565b5b5f613c458682870161376d565b9350506020613c568682870161376d565b9250506040613c678682870161376d565b9150509250925092565b5f604082019050613c845f830185612f7d565b613c916020830184612f7d565b9392505050565b7f4e487b71000000000000000000000000000000000000000000000000000000005f52604160045260245ffd5b5f81519050613cd381612f1f565b92915050565b5f60208284031215613cee57613ced612eeb565b5b5f613cfb84828501613cc5565b9150509291505056fea2646970667358221220b2c5d90503cfa8ebefae818d14a934d13c3f7ed5aaf3e60a186c78e0a340d55864736f6c63430008140033",
			"opcodes": "PUSH1 0x80 PUSH1 0x40 MSTORE PUSH1 0x4 PUSH1 0xB SSTORE PUSH1 0x1 PUSH1 0xC SSTORE PUSH8 0x8AC7230489E80000 PUSH1 0x15 SSTORE CALLVALUE DUP1 ISZERO PUSH3 0x26 JUMPI PUSH0 DUP1 REVERT JUMPDEST POP PUSH1 0x40 MLOAD PUSH3 0x4DE7 CODESIZE SUB DUP1 PUSH3 0x4DE7 DUP4 CODECOPY DUP2 DUP2 ADD PUSH1 0x40 MSTORE DUP2 ADD SWAP1 PUSH3 0x4C SWAP2 SWAP1 PUSH3 0x987 JUMP JUMPDEST CALLER PUSH1 0x40 MLOAD DUP1 PUSH1 0x40 ADD PUSH1 0x40 MSTORE DUP1 PUSH1 0x9 DUP2 MSTORE PUSH1 0x20 ADD PUSH32 0x4F43544F204C6162730000000000000000000000000000000000000000000000 DUP2 MSTORE POP PUSH1 0x40 MLOAD DUP1 PUSH1 0x40 ADD PUSH1 0x40 MSTORE DUP1 PUSH1 0x4 DUP2 MSTORE PUSH1 0x20 ADD PUSH32 0x4F43544F00000000000000000000000000000000000000000000000000000000 DUP2 MSTORE POP DUP2 PUSH1 0x3 SWAP1 DUP2 PUSH3 0xCA SWAP2 SWAP1 PUSH3 0xC44 JUMP JUMPDEST POP DUP1 PUSH1 0x4 SWAP1 DUP2 PUSH3 0xDC SWAP2 SWAP1 PUSH3 0xC44 JUMP JUMPDEST POP POP POP PUSH1 0x1 PUSH1 0x5 DUP2 SWAP1 SSTORE POP PUSH0 PUSH20 0xFFFFFFFFFFFFFFFFFFFFFFFFFFFFFFFFFFFFFFFF AND DUP2 PUSH20 0xFFFFFFFFFFFFFFFFFFFFFFFFFFFFFFFFFFFFFFFF AND SUB PUSH3 0x15A JUMPI PUSH0 PUSH1 0x40 MLOAD PUSH32 0x1E4FBDF700000000000000000000000000000000000000000000000000000000 DUP2 MSTORE PUSH1 0x4 ADD PUSH3 0x151 SWAP2 SWAP1 PUSH3 0xD39 JUMP JUMPDEST PUSH1 0x40 MLOAD DUP1 SWAP2 SUB SWAP1 REVERT JUMPDEST PUSH3 0x16B DUP2 PUSH3 0x39B PUSH1 0x20 SHL PUSH1 0x20 SHR JUMP JUMPDEST POP DUP2 PUSH1 0x9 PUSH0 PUSH2 0x100 EXP DUP2 SLOAD DUP2 PUSH20 0xFFFFFFFFFFFFFFFFFFFFFFFFFFFFFFFFFFFFFFFF MUL NOT AND SWAP1 DUP4 PUSH20 0xFFFFFFFFFFFFFFFFFFFFFFFFFFFFFFFFFFFFFFFF AND MUL OR SWAP1 SSTORE POP DUP1 PUSH1 0xA PUSH0 PUSH2 0x100 EXP DUP2 SLOAD DUP2 PUSH20 0xFFFFFFFFFFFFFFFFFFFFFFFFFFFFFFFFFFFFFFFF MUL NOT AND SWAP1 DUP4 PUSH20 0xFFFFFFFFFFFFFFFFFFFFFFFFFFFFFFFFFFFFFFFF AND MUL OR SWAP1 SSTORE POP DUP3 PUSH1 0x7 PUSH0 PUSH2 0x100 EXP DUP2 SLOAD DUP2 PUSH20 0xFFFFFFFFFFFFFFFFFFFFFFFFFFFFFFFFFFFFFFFF MUL NOT AND SWAP1 DUP4 PUSH20 0xFFFFFFFFFFFFFFFFFFFFFFFFFFFFFFFFFFFFFFFF AND MUL OR SWAP1 SSTORE POP PUSH0 PUSH10 0xD3C21BCECCEDA1000000 SWAP1 POP PUSH0 PUSH1 0x64 PUSH1 0x14 DUP4 PUSH3 0x24C SWAP2 SWAP1 PUSH3 0xD81 JUMP JUMPDEST PUSH3 0x258 SWAP2 SWAP1 PUSH3 0xDF8 JUMP JUMPDEST SWAP1 POP PUSH0 PUSH1 0x64 PUSH1 0x14 DUP5 PUSH3 0x26C SWAP2 SWAP1 PUSH3 0xD81 JUMP JUMPDEST PUSH3 0x278 SWAP2 SWAP1 PUSH3 0xDF8 JUMP JUMPDEST SWAP1 POP PUSH0 DUP2 DUP4 DUP6 PUSH3 0x28A SWAP2 SWAP1 PUSH3 0xE2F JUMP JUMPDEST PUSH3 0x296 SWAP2 SWAP1 PUSH3 0xE2F JUMP JUMPDEST SWAP1 POP PUSH0 PUSH1 0x64 PUSH1 0x4B DUP6 PUSH3 0x2AA SWAP2 SWAP1 PUSH3 0xD81 JUMP JUMPDEST PUSH3 0x2B6 SWAP2 SWAP1 PUSH3 0xDF8 JUMP JUMPDEST SWAP1 POP PUSH0 DUP2 DUP6 PUSH3 0x2C7 SWAP2 SWAP1 PUSH3 0xE2F JUMP JUMPDEST SWAP1 POP PUSH3 0x2FC PUSH1 0x9 PUSH0 SWAP1 SLOAD SWAP1 PUSH2 0x100 EXP SWAP1 DIV PUSH20 0xFFFFFFFFFFFFFFFFFFFFFFFFFFFFFFFFFFFFFFFF AND DUP3 PUSH3 0x45E PUSH1 0x20 SHL PUSH1 0x20 SHR JUMP JUMPDEST PUSH3 0x30E ADDRESS DUP4 PUSH3 0x45E PUSH1 0x20 SHL PUSH1 0x20 SHR JUMP JUMPDEST PUSH3 0x341 PUSH1 0xA PUSH0 SWAP1 SLOAD SWAP1 PUSH2 0x100 EXP SWAP1 DIV PUSH20 0xFFFFFFFFFFFFFFFFFFFFFFFFFFFFFFFFFFFFFFFF AND DUP6 PUSH3 0x45E PUSH1 0x20 SHL PUSH1 0x20 SHR JUMP JUMPDEST PUSH3 0x353 CALLER DUP5 PUSH3 0x45E PUSH1 0x20 SHL PUSH1 0x20 SHR JUMP JUMPDEST PUSH3 0x38C PUSH1 0x9 PUSH0 SWAP1 SLOAD SWAP1 PUSH2 0x100 EXP SWAP1 DIV PUSH20 0xFFFFFFFFFFFFFFFFFFFFFFFFFFFFFFFFFFFFFFFF AND DUP4 TIMESTAMP PUSH4 0x1E13380 PUSH3 0x4E8 PUSH1 0x20 SHL PUSH1 0x20 SHR JUMP JUMPDEST POP POP POP POP POP POP POP POP POP PUSH3 0x109F JUMP JUMPDEST PUSH0 PUSH1 0x6 PUSH0 SWAP1 SLOAD SWAP1 PUSH2 0x100 EXP SWAP1 DIV PUSH20 0xFFFFFFFFFFFFFFFFFFFFFFFFFFFFFFFFFFFFFFFF AND SWAP1 POP DUP2 PUSH1 0x6 PUSH0 PUSH2 0x100 EXP DUP2 SLOAD DUP2 PUSH20 0xFFFFFFFFFFFFFFFFFFFFFFFFFFFFFFFFFFFFFFFF MUL NOT AND SWAP1 DUP4 PUSH20 0xFFFFFFFFFFFFFFFFFFFFFFFFFFFFFFFFFFFFFFFF AND MUL OR SWAP1 SSTORE POP DUP2 PUSH20 0xFFFFFFFFFFFFFFFFFFFFFFFFFFFFFFFFFFFFFFFF AND DUP2 PUSH20 0xFFFFFFFFFFFFFFFFFFFFFFFFFFFFFFFFFFFFFFFF AND PUSH32 0x8BE0079C531659141344CD1FD0A4F28419497F9722A3DAAFE3B4186F6B6457E0 PUSH1 0x40 MLOAD PUSH1 0x40 MLOAD DUP1 SWAP2 SUB SWAP1 LOG3 POP POP JUMP JUMPDEST PUSH0 PUSH20 0xFFFFFFFFFFFFFFFFFFFFFFFFFFFFFFFFFFFFFFFF AND DUP3 PUSH20 0xFFFFFFFFFFFFFFFFFFFFFFFFFFFFFFFFFFFFFFFF AND SUB PUSH3 0x4D1 JUMPI PUSH0 PUSH1 0x40 MLOAD PUSH32 0xEC442F0500000000000000000000000000000000000000000000000000000000 DUP2 MSTORE PUSH1 0x4 ADD PUSH3 0x4C8 SWAP2 SWAP1 PUSH3 0xD39 JUMP JUMPDEST PUSH1 0x40 MLOAD DUP1 SWAP2 SUB SWAP1 REVERT JUMPDEST PUSH3 0x4E4 PUSH0 DUP4 DUP4 PUSH3 0x6FE PUSH1 0x20 SHL PUSH1 0x20 SHR JUMP JUMPDEST POP POP JUMP JUMPDEST PUSH0 PUSH20 0xFFFFFFFFFFFFFFFFFFFFFFFFFFFFFFFFFFFFFFFF AND DUP5 PUSH20 0xFFFFFFFFFFFFFFFFFFFFFFFFFFFFFFFFFFFFFFFF AND SUB PUSH3 0x559 JUMPI PUSH1 0x40 MLOAD PUSH32 0x8C379A000000000000000000000000000000000000000000000000000000000 DUP2 MSTORE PUSH1 0x4 ADD PUSH3 0x550 SWAP1 PUSH3 0xEC7 JUMP JUMPDEST PUSH1 0x40 MLOAD DUP1 SWAP2 SUB SWAP1 REVERT JUMPDEST PUSH0 DUP4 GT PUSH3 0x59E JUMPI PUSH1 0x40 MLOAD PUSH32 0x8C379A000000000000000000000000000000000000000000000000000000000 DUP2 MSTORE PUSH1 0x4 ADD PUSH3 0x595 SWAP1 PUSH3 0xF35 JUMP JUMPDEST PUSH1 0x40 MLOAD DUP1 SWAP2 SUB SWAP1 REVERT JUMPDEST PUSH0 PUSH1 0x10 PUSH0 DUP7 PUSH20 0xFFFFFFFFFFFFFFFFFFFFFFFFFFFFFFFFFFFFFFFF AND PUSH20 0xFFFFFFFFFFFFFFFFFFFFFFFFFFFFFFFFFFFFFFFF AND DUP2 MSTORE PUSH1 0x20 ADD SWAP1 DUP2 MSTORE PUSH1 0x20 ADD PUSH0 KECCAK256 SLOAD EQ PUSH3 0x620 JUMPI PUSH1 0x40 MLOAD PUSH32 0x8C379A000000000000000000000000000000000000000000000000000000000 DUP2 MSTORE PUSH1 0x4 ADD PUSH3 0x617 SWAP1 PUSH3 0xFA3 JUMP JUMPDEST PUSH1 0x40 MLOAD DUP1 SWAP2 SUB SWAP1 REVERT JUMPDEST DUP3 PUSH1 0x11 PUSH0 DUP7 PUSH20 0xFFFFFFFFFFFFFFFFFFFFFFFFFFFFFFFFFFFFFFFF AND PUSH20 0xFFFFFFFFFFFFFFFFFFFFFFFFFFFFFFFFFFFFFFFF AND DUP2 MSTORE PUSH1 0x20 ADD SWAP1 DUP2 MSTORE PUSH1 0x20 ADD PUSH0 KECCAK256 DUP2 SWAP1 SSTORE POP DUP2 PUSH1 0x10 PUSH0 DUP7 PUSH20 0xFFFFFFFFFFFFFFFFFFFFFFFFFFFFFFFFFFFFFFFF AND PUSH20 0xFFFFFFFFFFFFFFFFFFFFFFFFFFFFFFFFFFFFFFFF AND DUP2 MSTORE PUSH1 0x20 ADD SWAP1 DUP2 MSTORE PUSH1 0x20 ADD PUSH0 KECCAK256 DUP2 SWAP1 SSTORE POP DUP4 PUSH20 0xFFFFFFFFFFFFFFFFFFFFFFFFFFFFFFFFFFFFFFFF AND PUSH32 0xCF204CE1B55772BFA423F3F0C5D9A2CFE3197A5110073875F0B9C7DD3538C7D6 DUP5 DUP5 DUP5 PUSH1 0x40 MLOAD PUSH3 0x6F0 SWAP4 SWAP3 SWAP2 SWAP1 PUSH3 0xFD4 JUMP JUMPDEST PUSH1 0x40 MLOAD DUP1 SWAP2 SUB SWAP1 LOG2 POP POP POP POP JUMP JUMPDEST PUSH0 PUSH20 0xFFFFFFFFFFFFFFFFFFFFFFFFFFFFFFFFFFFFFFFF AND DUP4 PUSH20 0xFFFFFFFFFFFFFFFFFFFFFFFFFFFFFFFFFFFFFFFF AND SUB PUSH3 0x752 JUMPI DUP1 PUSH1 0x2 PUSH0 DUP3 DUP3 SLOAD PUSH3 0x745 SWAP2 SWAP1 PUSH3 0x100F JUMP JUMPDEST SWAP3 POP POP DUP2 SWAP1 SSTORE POP PUSH3 0x823 JUMP JUMPDEST PUSH0 DUP1 PUSH0 DUP6 PUSH20 0xFFFFFFFFFFFFFFFFFFFFFFFFFFFFFFFFFFFFFFFF AND PUSH20 0xFFFFFFFFFFFFFFFFFFFFFFFFFFFFFFFFFFFFFFFF AND DUP2 MSTORE PUSH1 0x20 ADD SWAP1 DUP2 MSTORE PUSH1 0x20 ADD PUSH0 KECCAK256 SLOAD SWAP1 POP DUP2 DUP2 LT ISZERO PUSH3 0x7DE JUMPI DUP4 DUP2 DUP4 PUSH1 0x40 MLOAD PUSH32 0xE450D38C00000000000000000000000000000000000000000000000000000000 DUP2 MSTORE PUSH1 0x4 ADD PUSH3 0x7D5 SWAP4 SWAP3 SWAP2 SWAP1 PUSH3 0x1049 JUMP JUMPDEST PUSH1 0x40 MLOAD DUP1 SWAP2 SUB SWAP1 REVERT JUMPDEST DUP2 DUP2 SUB PUSH0 DUP1 DUP7 PUSH20 0xFFFFFFFFFFFFFFFFFFFFFFFFFFFFFFFFFFFFFFFF AND PUSH20 0xFFFFFFFFFFFFFFFFFFFFFFFFFFFFFFFFFFFFFFFF AND DUP2 MSTORE PUSH1 0x20 ADD SWAP1 DUP2 MSTORE PUSH1 0x20 ADD PUSH0 KECCAK256 DUP2 SWAP1 SSTORE POP POP JUMPDEST PUSH0 PUSH20 0xFFFFFFFFFFFFFFFFFFFFFFFFFFFFFFFFFFFFFFFF AND DUP3 PUSH20 0xFFFFFFFFFFFFFFFFFFFFFFFFFFFFFFFFFFFFFFFF AND SUB PUSH3 0x86C JUMPI DUP1 PUSH1 0x2 PUSH0 DUP3 DUP3 SLOAD SUB SWAP3 POP POP DUP2 SWAP1 SSTORE POP PUSH3 0x8B6 JUMP JUMPDEST DUP1 PUSH0 DUP1 DUP5 PUSH20 0xFFFFFFFFFFFFFFFFFFFFFFFFFFFFFFFFFFFFFFFF AND PUSH20 0xFFFFFFFFFFFFFFFFFFFFFFFFFFFFFFFFFFFFFFFF AND DUP2 MSTORE PUSH1 0x20 ADD SWAP1 DUP2 MSTORE PUSH1 0x20 ADD PUSH0 KECCAK256 PUSH0 DUP3 DUP3 SLOAD ADD SWAP3 POP POP DUP2 SWAP1 SSTORE POP JUMPDEST DUP2 PUSH20 0xFFFFFFFFFFFFFFFFFFFFFFFFFFFFFFFFFFFFFFFF AND DUP4 PUSH20 0xFFFFFFFFFFFFFFFFFFFFFFFFFFFFFFFFFFFFFFFF AND PUSH32 0xDDF252AD1BE2C89B69C2B068FC378DAA952BA7F163C4A11628F55A4DF523B3EF DUP4 PUSH1 0x40 MLOAD PUSH3 0x915 SWAP2 SWAP1 PUSH3 0x1084 JUMP JUMPDEST PUSH1 0x40 MLOAD DUP1 SWAP2 SUB SWAP1 LOG3 POP POP POP JUMP JUMPDEST PUSH0 DUP1 REVERT JUMPDEST PUSH0 PUSH20 0xFFFFFFFFFFFFFFFFFFFFFFFFFFFFFFFFFFFFFFFF DUP3 AND SWAP1 POP SWAP2 SWAP1 POP JUMP JUMPDEST PUSH0 PUSH3 0x951 DUP3 PUSH3 0x926 JUMP JUMPDEST SWAP1 POP SWAP2 SWAP1 POP JUMP JUMPDEST PUSH3 0x963 DUP2 PUSH3 0x945 JUMP JUMPDEST DUP2 EQ PUSH3 0x96E JUMPI PUSH0 DUP1 REVERT JUMPDEST POP JUMP JUMPDEST PUSH0 DUP2 MLOAD SWAP1 POP PUSH3 0x981 DUP2 PUSH3 0x958 JUMP JUMPDEST SWAP3 SWAP2 POP POP JUMP JUMPDEST PUSH0 DUP1 PUSH0 PUSH1 0x60 DUP5 DUP7 SUB SLT ISZERO PUSH3 0x9A1 JUMPI PUSH3 0x9A0 PUSH3 0x922 JUMP JUMPDEST JUMPDEST PUSH0 PUSH3 0x9B0 DUP7 DUP3 DUP8 ADD PUSH3 0x971 JUMP JUMPDEST SWAP4 POP POP PUSH1 0x20 PUSH3 0x9C3 DUP7 DUP3 DUP8 ADD PUSH3 0x971 JUMP JUMPDEST SWAP3 POP POP PUSH1 0x40 PUSH3 0x9D6 DUP7 DUP3 DUP8 ADD PUSH3 0x971 JUMP JUMPDEST SWAP2 POP POP SWAP3 POP SWAP3 POP SWAP3 JUMP JUMPDEST PUSH0 DUP2 MLOAD SWAP1 POP SWAP2 SWAP1 POP JUMP JUMPDEST PUSH32 0x4E487B7100000000000000000000000000000000000000000000000000000000 PUSH0 MSTORE PUSH1 0x41 PUSH1 0x4 MSTORE PUSH1 0x24 PUSH0 REVERT JUMPDEST PUSH32 0x4E487B7100000000000000000000000000000000000000000000000000000000 PUSH0 MSTORE PUSH1 0x22 PUSH1 0x4 MSTORE PUSH1 0x24 PUSH0 REVERT JUMPDEST PUSH0 PUSH1 0x2 DUP3 DIV SWAP1 POP PUSH1 0x1 DUP3 AND DUP1 PUSH3 0xA5C JUMPI PUSH1 0x7F DUP3 AND SWAP2 POP JUMPDEST PUSH1 0x20 DUP3 LT DUP2 SUB PUSH3 0xA72 JUMPI PUSH3 0xA71 PUSH3 0xA17 JUMP JUMPDEST JUMPDEST POP SWAP2 SWAP1 POP JUMP JUMPDEST PUSH0 DUP2 SWAP1 POP DUP2 PUSH0 MSTORE PUSH1 0x20 PUSH0 KECCAK256 SWAP1 POP SWAP2 SWAP1 POP JUMP JUMPDEST PUSH0 PUSH1 0x20 PUSH1 0x1F DUP4 ADD DIV SWAP1 POP SWAP2 SWAP1 POP JUMP JUMPDEST PUSH0 DUP3 DUP3 SHL SWAP1 POP SWAP3 SWAP2 POP POP JUMP JUMPDEST PUSH0 PUSH1 0x8 DUP4 MUL PUSH3 0xAD6 PUSH32 0xFFFFFFFFFFFFFFFFFFFFFFFFFFFFFFFFFFFFFFFFFFFFFFFFFFFFFFFFFFFFFFFF DUP3 PUSH3 0xA99 JUMP JUMPDEST PUSH3 0xAE2 DUP7 DUP4 PUSH3 0xA99 JUMP JUMPDEST SWAP6 POP DUP1 NOT DUP5 AND SWAP4 POP DUP1 DUP7 AND DUP5 OR SWAP3 POP POP POP SWAP4 SWAP3 POP POP POP JUMP JUMPDEST PUSH0 DUP2 SWAP1 POP SWAP2 SWAP1 POP JUMP JUMPDEST PUSH0 DUP2 SWAP1 POP SWAP2 SWAP1 POP JUMP JUMPDEST PUSH0 PUSH3 0xB2C PUSH3 0xB26 PUSH3 0xB20 DUP5 PUSH3 0xAFA JUMP JUMPDEST PUSH3 0xB03 JUMP JUMPDEST PUSH3 0xAFA JUMP JUMPDEST SWAP1 POP SWAP2 SWAP1 POP JUMP JUMPDEST PUSH0 DUP2 SWAP1 POP SWAP2 SWAP1 POP JUMP JUMPDEST PUSH3 0xB47 DUP4 PUSH3 0xB0C JUMP JUMPDEST PUSH3 0xB5F PUSH3 0xB56 DUP3 PUSH3 0xB33 JUMP JUMPDEST DUP5 DUP5 SLOAD PUSH3 0xAA5 JUMP JUMPDEST DUP3 SSTORE POP POP POP POP JUMP JUMPDEST PUSH0 SWAP1 JUMP JUMPDEST PUSH3 0xB75 PUSH3 0xB67 JUMP JUMPDEST PUSH3 0xB82 DUP2 DUP5 DUP5 PUSH3 0xB3C JUMP JUMPDEST POP POP POP JUMP JUMPDEST JUMPDEST DUP2 DUP2 LT ISZERO PUSH3 0xBA9 JUMPI PUSH3 0xB9D PUSH0 DUP3 PUSH3 0xB6B JUMP JUMPDEST PUSH1 0x1 DUP2 ADD SWAP1 POP PUSH3 0xB88 JUMP JUMPDEST POP POP JUMP JUMPDEST PUSH1 0x1F DUP3 GT ISZERO PUSH3 0xBF8 JUMPI PUSH3 0xBC2 DUP2 PUSH3 0xA78 JUMP JUMPDEST PUSH3 0xBCD DUP5 PUSH3 0xA8A JUMP JUMPDEST DUP2 ADD PUSH1 0x20 DUP6 LT ISZERO PUSH3 0xBDD JUMPI DUP2 SWAP1 POP JUMPDEST PUSH3 0xBF5 PUSH3 0xBEC DUP6 PUSH3 0xA8A JUMP JUMPDEST DUP4 ADD DUP3 PUSH3 0xB87 JUMP JUMPDEST POP POP JUMPDEST POP POP POP JUMP JUMPDEST PUSH0 DUP3 DUP3 SHR SWAP1 POP SWAP3 SWAP2 POP POP JUMP JUMPDEST PUSH0 PUSH3 0xC1A PUSH0 NOT DUP5 PUSH1 0x8 MUL PUSH3 0xBFD JUMP JUMPDEST NOT DUP1 DUP4 AND SWAP2 POP POP SWAP3 SWAP2 POP POP JUMP JUMPDEST PUSH0 PUSH3 0xC34 DUP4 DUP4 PUSH3 0xC09 JUMP JUMPDEST SWAP2 POP DUP3 PUSH1 0x2 MUL DUP3 OR SWAP1 POP SWAP3 SWAP2 POP POP JUMP JUMPDEST PUSH3 0xC4F DUP3 PUSH3 0x9E0 JUMP JUMPDEST PUSH8 0xFFFFFFFFFFFFFFFF DUP2 GT ISZERO PUSH3 0xC6B JUMPI PUSH3 0xC6A PUSH3 0x9EA JUMP JUMPDEST JUMPDEST PUSH3 0xC77 DUP3 SLOAD PUSH3 0xA44 JUMP JUMPDEST PUSH3 0xC84 DUP3 DUP3 DUP6 PUSH3 0xBAD JUMP JUMPDEST PUSH0 PUSH1 0x20 SWAP1 POP PUSH1 0x1F DUP4 GT PUSH1 0x1 DUP2 EQ PUSH3 0xCBA JUMPI PUSH0 DUP5 ISZERO PUSH3 0xCA5 JUMPI DUP3 DUP8 ADD MLOAD SWAP1 POP JUMPDEST PUSH3 0xCB1 DUP6 DUP3 PUSH3 0xC27 JUMP JUMPDEST DUP7 SSTORE POP PUSH3 0xD20 JUMP JUMPDEST PUSH1 0x1F NOT DUP5 AND PUSH3 0xCCA DUP7 PUSH3 0xA78 JUMP JUMPDEST PUSH0 JUMPDEST DUP3 DUP2 LT ISZERO PUSH3 0xCF3 JUMPI DUP5 DUP10 ADD MLOAD DUP3 SSTORE PUSH1 0x1 DUP3 ADD SWAP2 POP PUSH1 0x20 DUP6 ADD SWAP5 POP PUSH1 0x20 DUP2 ADD SWAP1 POP PUSH3 0xCCC JUMP JUMPDEST DUP7 DUP4 LT ISZERO PUSH3 0xD13 JUMPI DUP5 DUP10 ADD MLOAD PUSH3 0xD0F PUSH1 0x1F DUP10 AND DUP3 PUSH3 0xC09 JUMP JUMPDEST DUP4 SSTORE POP JUMPDEST PUSH1 0x1 PUSH1 0x2 DUP9 MUL ADD DUP9 SSTORE POP POP POP JUMPDEST POP POP POP POP POP POP JUMP JUMPDEST PUSH3 0xD33 DUP2 PUSH3 0x945 JUMP JUMPDEST DUP3 MSTORE POP POP JUMP JUMPDEST PUSH0 PUSH1 0x20 DUP3 ADD SWAP1 POP PUSH3 0xD4E PUSH0 DUP4 ADD DUP5 PUSH3 0xD28 JUMP JUMPDEST SWAP3 SWAP2 POP POP JUMP JUMPDEST PUSH32 0x4E487B7100000000000000000000000000000000000000000000000000000000 PUSH0 MSTORE PUSH1 0x11 PUSH1 0x4 MSTORE PUSH1 0x24 PUSH0 REVERT JUMPDEST PUSH0 PUSH3 0xD8D DUP3 PUSH3 0xAFA JUMP JUMPDEST SWAP2 POP PUSH3 0xD9A DUP4 PUSH3 0xAFA JUMP JUMPDEST SWAP3 POP DUP3 DUP3 MUL PUSH3 0xDAA DUP2 PUSH3 0xAFA JUMP JUMPDEST SWAP2 POP DUP3 DUP3 DIV DUP5 EQ DUP4 ISZERO OR PUSH3 0xDC4 JUMPI PUSH3 0xDC3 PUSH3 0xD54 JUMP JUMPDEST JUMPDEST POP SWAP3 SWAP2 POP POP JUMP JUMPDEST PUSH32 0x4E487B7100000000000000000000000000000000000000000000000000000000 PUSH0 MSTORE PUSH1 0x12 PUSH1 0x4 MSTORE PUSH1 0x24 PUSH0 REVERT JUMPDEST PUSH0 PUSH3 0xE04 DUP3 PUSH3 0xAFA JUMP JUMPDEST SWAP2 POP PUSH3 0xE11 DUP4 PUSH3 0xAFA JUMP JUMPDEST SWAP3 POP DUP3 PUSH3 0xE24 JUMPI PUSH3 0xE23 PUSH3 0xDCB JUMP JUMPDEST JUMPDEST DUP3 DUP3 DIV SWAP1 POP SWAP3 SWAP2 POP POP JUMP JUMPDEST PUSH0 PUSH3 0xE3B DUP3 PUSH3 0xAFA JUMP JUMPDEST SWAP2 POP PUSH3 0xE48 DUP4 PUSH3 0xAFA JUMP JUMPDEST SWAP3 POP DUP3 DUP3 SUB SWAP1 POP DUP2 DUP2 GT ISZERO PUSH3 0xE63 JUMPI PUSH3 0xE62 PUSH3 0xD54 JUMP JUMPDEST JUMPDEST SWAP3 SWAP2 POP POP JUMP JUMPDEST PUSH0 DUP3 DUP3 MSTORE PUSH1 0x20 DUP3 ADD SWAP1 POP SWAP3 SWAP2 POP POP JUMP JUMPDEST PUSH32 0x42656E6566696369617279206973207A65726F20616464726573730000000000 PUSH0 DUP3 ADD MSTORE POP JUMP JUMPDEST PUSH0 PUSH3 0xEAF PUSH1 0x1B DUP4 PUSH3 0xE69 JUMP JUMPDEST SWAP2 POP PUSH3 0xEBC DUP3 PUSH3 0xE79 JUMP JUMPDEST PUSH1 0x20 DUP3 ADD SWAP1 POP SWAP2 SWAP1 POP JUMP JUMPDEST PUSH0 PUSH1 0x20 DUP3 ADD SWAP1 POP DUP2 DUP2 SUB PUSH0 DUP4 ADD MSTORE PUSH3 0xEE0 DUP2 PUSH3 0xEA1 JUMP JUMPDEST SWAP1 POP SWAP2 SWAP1 POP JUMP JUMPDEST PUSH32 0x416D6F756E74206973207A65726F000000000000000000000000000000000000 PUSH0 DUP3 ADD MSTORE POP JUMP JUMPDEST PUSH0 PUSH3 0xF1D PUSH1 0xE DUP4 PUSH3 0xE69 JUMP JUMPDEST SWAP2 POP PUSH3 0xF2A DUP3 PUSH3 0xEE7 JUMP JUMPDEST PUSH1 0x20 DUP3 ADD SWAP1 POP SWAP2 SWAP1 POP JUMP JUMPDEST PUSH0 PUSH1 0x20 DUP3 ADD SWAP1 POP DUP2 DUP2 SUB PUSH0 DUP4 ADD MSTORE PUSH3 0xF4E DUP2 PUSH3 0xF0F JUMP JUMPDEST SWAP1 POP SWAP2 SWAP1 POP JUMP JUMPDEST PUSH32 0x416C726561647920766573746564000000000000000000000000000000000000 PUSH0 DUP3 ADD MSTORE POP JUMP JUMPDEST PUSH0 PUSH3 0xF8B PUSH1 0xE DUP4 PUSH3 0xE69 JUMP JUMPDEST SWAP2 POP PUSH3 0xF98 DUP3 PUSH3 0xF55 JUMP JUMPDEST PUSH1 0x20 DUP3 ADD SWAP1 POP SWAP2 SWAP1 POP JUMP JUMPDEST PUSH0 PUSH1 0x20 DUP3 ADD SWAP1 POP DUP2 DUP2 SUB PUSH0 DUP4 ADD MSTORE PUSH3 0xFBC DUP2 PUSH3 0xF7D JUMP JUMPDEST SWAP1 POP SWAP2 SWAP1 POP JUMP JUMPDEST PUSH3 0xFCE DUP2 PUSH3 0xAFA JUMP JUMPDEST DUP3 MSTORE POP POP JUMP JUMPDEST PUSH0 PUSH1 0x60 DUP3 ADD SWAP1 POP PUSH3 0xFE9 PUSH0 DUP4 ADD DUP7 PUSH3 0xFC3 JUMP JUMPDEST PUSH3 0xFF8 PUSH1 0x20 DUP4 ADD DUP6 PUSH3 0xFC3 JUMP JUMPDEST PUSH3 0x1007 PUSH1 0x40 DUP4 ADD DUP5 PUSH3 0xFC3 JUMP JUMPDEST SWAP5 SWAP4 POP POP POP POP JUMP JUMPDEST PUSH0 PUSH3 0x101B DUP3 PUSH3 0xAFA JUMP JUMPDEST SWAP2 POP PUSH3 0x1028 DUP4 PUSH3 0xAFA JUMP JUMPDEST SWAP3 POP DUP3 DUP3 ADD SWAP1 POP DUP1 DUP3 GT ISZERO PUSH3 0x1043 JUMPI PUSH3 0x1042 PUSH3 0xD54 JUMP JUMPDEST JUMPDEST SWAP3 SWAP2 POP POP JUMP JUMPDEST PUSH0 PUSH1 0x60 DUP3 ADD SWAP1 POP PUSH3 0x105E PUSH0 DUP4 ADD DUP7 PUSH3 0xD28 JUMP JUMPDEST PUSH3 0x106D PUSH1 0x20 DUP4 ADD DUP6 PUSH3 0xFC3 JUMP JUMPDEST PUSH3 0x107C PUSH1 0x40 DUP4 ADD DUP5 PUSH3 0xFC3 JUMP JUMPDEST SWAP5 SWAP4 POP POP POP POP JUMP JUMPDEST PUSH0 PUSH1 0x20 DUP3 ADD SWAP1 POP PUSH3 0x1099 PUSH0 DUP4 ADD DUP5 PUSH3 0xFC3 JUMP JUMPDEST SWAP3 SWAP2 POP POP JUMP JUMPDEST PUSH2 0x3D3A DUP1 PUSH3 0x10AD PUSH0 CODECOPY PUSH0 RETURN INVALID PUSH1 0x80 PUSH1 0x40 MSTORE PUSH1 0x4 CALLDATASIZE LT PUSH2 0x25E JUMPI PUSH0 CALLDATALOAD PUSH1 0xE0 SHR DUP1 PUSH4 0x7EB53785 GT PUSH2 0x143 JUMPI DUP1 PUSH4 0xC816841B GT PUSH2 0xB5 JUMPI DUP1 PUSH4 0xDD296480 GT PUSH2 0x79 JUMPI DUP1 PUSH4 0xDD296480 EQ PUSH2 0x90D JUMPI DUP1 PUSH4 0xDD62ED3E EQ PUSH2 0x949 JUMPI DUP1 PUSH4 0xDF136D65 EQ PUSH2 0x985 JUMPI DUP1 PUSH4 0xF2FDE38B EQ PUSH2 0x9AF JUMPI DUP1 PUSH4 0xF51ACE70 EQ PUSH2 0x9D7 JUMPI DUP1 PUSH4 0xF8297099 EQ PUSH2 0xA01 JUMPI PUSH2 0x265 JUMP JUMPDEST DUP1 PUSH4 0xC816841B EQ PUSH2 0x83D JUMPI DUP1 PUSH4 0xC8F33C91 EQ PUSH2 0x867 JUMPI DUP1 PUSH4 0xCD3DAF9D EQ PUSH2 0x891 JUMPI DUP1 PUSH4 0xD5AED6BF EQ PUSH2 0x8BB JUMPI DUP1 PUSH4 0xD9C4941E EQ PUSH2 0x8E3 JUMPI PUSH2 0x265 JUMP JUMPDEST DUP1 PUSH4 0x96212916 GT PUSH2 0x107 JUMPI DUP1 PUSH4 0x96212916 EQ PUSH2 0x6FB JUMPI DUP1 PUSH4 0x99F7854A EQ PUSH2 0x737 JUMPI DUP1 PUSH4 0x9D4310EC EQ PUSH2 0x773 JUMPI DUP1 PUSH4 0xA694FC3A EQ PUSH2 0x7AF JUMPI DUP1 PUSH4 0xA9059CBB EQ PUSH2 0x7D7 JUMPI DUP1 PUSH4 0xC04A5414 EQ PUSH2 0x813 JUMPI PUSH2 0x265 JUMP JUMPDEST DUP1 PUSH4 0x7EB53785 EQ PUSH2 0x62B JUMPI DUP1 PUSH4 0x82820511 EQ PUSH2 0x641 JUMPI DUP1 PUSH4 0x85DCF86A EQ PUSH2 0x66B JUMPI DUP1 PUSH4 0x8DA5CB5B EQ PUSH2 0x6A7 JUMPI DUP1 PUSH4 0x95D89B41 EQ PUSH2 0x6D1 JUMPI PUSH2 0x265 JUMP JUMPDEST DUP1 PUSH4 0x35F53E8E GT PUSH2 0x1DC JUMPI DUP1 PUSH4 0x6985E6D8 GT PUSH2 0x1A0 JUMPI DUP1 PUSH4 0x6985E6D8 EQ PUSH2 0x521 JUMPI DUP1 PUSH4 0x6F2397B8 EQ PUSH2 0x55D JUMPI DUP1 PUSH4 0x70A08231 EQ PUSH2 0x585 JUMPI DUP1 PUSH4 0x715018A6 EQ PUSH2 0x5C1 JUMPI DUP1 PUSH4 0x735DE9F7 EQ PUSH2 0x5D7 JUMPI DUP1 PUSH4 0x771A3A1D EQ PUSH2 0x601 JUMPI PUSH2 0x265 JUMP JUMPDEST DUP1 PUSH4 0x35F53E8E EQ PUSH2 0x465 JUMPI DUP1 PUSH4 0x384711CC EQ PUSH2 0x48F JUMPI DUP1 PUSH4 0x3D18B912 EQ PUSH2 0x4CB JUMPI DUP1 PUSH4 0x54DD1DA4 EQ PUSH2 0x4E1 JUMPI DUP1 PUSH4 0x5971AA21 EQ PUSH2 0x4F7 JUMPI PUSH2 0x265 JUMP JUMPDEST DUP1 PUSH4 0x18160DDD GT PUSH2 0x223 JUMPI DUP1 PUSH4 0x18160DDD EQ PUSH2 0x383 JUMPI DUP1 PUSH4 0x1FC75E41 EQ PUSH2 0x3AD JUMPI DUP1 PUSH4 0x23B872DD EQ PUSH2 0x3D7 JUMPI DUP1 PUSH4 0x2E1A7D4D EQ PUSH2 0x413 JUMPI DUP1 PUSH4 0x313CE567 EQ PUSH2 0x43B JUMPI PUSH2 0x265 JUMP JUMPDEST DUP1 PUSH3 0x8CC262 EQ PUSH2 0x269 JUMPI DUP1 PUSH4 0x32BBF4F EQ PUSH2 0x2A5 JUMPI DUP1 PUSH4 0x6FDDE03 EQ PUSH2 0x2E1 JUMPI DUP1 PUSH4 0x95EA7B3 EQ PUSH2 0x30B JUMPI DUP1 PUSH4 0x1726CBC8 EQ PUSH2 0x347 JUMPI PUSH2 0x265 JUMP JUMPDEST CALLDATASIZE PUSH2 0x265 JUMPI STOP JUMPDEST PUSH0 DUP1 REVERT JUMPDEST CALLVALUE DUP1 ISZERO PUSH2 0x274 JUMPI PUSH0 DUP1 REVERT JUMPDEST POP PUSH2 0x28F PUSH1 0x4 DUP1 CALLDATASIZE SUB DUP2 ADD SWAP1 PUSH2 0x28A SWAP2 SWAP1 PUSH2 0x2F49 JUMP JUMPDEST PUSH2 0xA3D JUMP JUMPDEST PUSH1 0x40 MLOAD PUSH2 0x29C SWAP2 SWAP1 PUSH2 0x2F8C JUMP JUMPDEST PUSH1 0x40 MLOAD DUP1 SWAP2 SUB SWAP1 RETURN JUMPDEST CALLVALUE DUP1 ISZERO PUSH2 0x2B0 JUMPI PUSH0 DUP1 REVERT JUMPDEST POP PUSH2 0x2CB PUSH1 0x4 DUP1 CALLDATASIZE SUB DUP2 ADD SWAP1 PUSH2 0x2C6 SWAP2 SWAP1 PUSH2 0x2F49 JUMP JUMPDEST PUSH2 0xAFD JUMP JUMPDEST PUSH1 0x40 MLOAD PUSH2 0x2D8 SWAP2 SWAP1 PUSH2 0x2F8C JUMP JUMPDEST PUSH1 0x40 MLOAD DUP1 SWAP2 SUB SWAP1 RETURN JUMPDEST CALLVALUE DUP1 ISZERO PUSH2 0x2EC JUMPI PUSH0 DUP1 REVERT JUMPDEST POP PUSH2 0x2F5 PUSH2 0xB12 JUMP JUMPDEST PUSH1 0x40 MLOAD PUSH2 0x302 SWAP2 SWAP1 PUSH2 0x302F JUMP JUMPDEST PUSH1 0x40 MLOAD DUP1 SWAP2 SUB SWAP1 RETURN JUMPDEST CALLVALUE DUP1 ISZERO PUSH2 0x316 JUMPI PUSH0 DUP1 REVERT JUMPDEST POP PUSH2 0x331 PUSH1 0x4 DUP1 CALLDATASIZE SUB DUP2 ADD SWAP1 PUSH2 0x32C SWAP2 SWAP1 PUSH2 0x3079 JUMP JUMPDEST PUSH2 0xBA2 JUMP JUMPDEST PUSH1 0x40 MLOAD PUSH2 0x33E SWAP2 SWAP1 PUSH2 0x30D1 JUMP JUMPDEST PUSH1 0x40 MLOAD DUP1 SWAP2 SUB SWAP1 RETURN JUMPDEST CALLVALUE DUP1 ISZERO PUSH2 0x352 JUMPI PUSH0 DUP1 REVERT JUMPDEST POP PUSH2 0x36D PUSH1 0x4 DUP1 CALLDATASIZE SUB DUP2 ADD SWAP1 PUSH2 0x368 SWAP2 SWAP1 PUSH2 0x2F49 JUMP JUMPDEST PUSH2 0xBC4 JUMP JUMPDEST PUSH1 0x40 MLOAD PUSH2 0x37A SWAP2 SWAP1 PUSH2 0x2F8C JUMP JUMPDEST PUSH1 0x40 MLOAD DUP1 SWAP2 SUB SWAP1 RETURN JUMPDEST CALLVALUE DUP1 ISZERO PUSH2 0x38E JUMPI PUSH0 DUP1 REVERT JUMPDEST POP PUSH2 0x397 PUSH2 0xC6C JUMP JUMPDEST PUSH1 0x40 MLOAD PUSH2 0x3A4 SWAP2 SWAP1 PUSH2 0x2F8C JUMP JUMPDEST PUSH1 0x40 MLOAD DUP1 SWAP2 SUB SWAP1 RETURN JUMPDEST CALLVALUE DUP1 ISZERO PUSH2 0x3B8 JUMPI PUSH0 DUP1 REVERT JUMPDEST POP PUSH2 0x3C1 PUSH2 0xC75 JUMP JUMPDEST PUSH1 0x40 MLOAD PUSH2 0x3CE SWAP2 SWAP1 PUSH2 0x30F9 JUMP JUMPDEST PUSH1 0x40 MLOAD DUP1 SWAP2 SUB SWAP1 RETURN JUMPDEST CALLVALUE DUP1 ISZERO PUSH2 0x3E2 JUMPI PUSH0 DUP1 REVERT JUMPDEST POP PUSH2 0x3FD PUSH1 0x4 DUP1 CALLDATASIZE SUB DUP2 ADD SWAP1 PUSH2 0x3F8 SWAP2 SWAP1 PUSH2 0x3112 JUMP JUMPDEST PUSH2 0xC9A JUMP JUMPDEST PUSH1 0x40 MLOAD PUSH2 0x40A SWAP2 SWAP1 PUSH2 0x30D1 JUMP JUMPDEST PUSH1 0x40 MLOAD DUP1 SWAP2 SUB SWAP1 RETURN JUMPDEST CALLVALUE DUP1 ISZERO PUSH2 0x41E JUMPI PUSH0 DUP1 REVERT JUMPDEST POP PUSH2 0x439 PUSH1 0x4 DUP1 CALLDATASIZE SUB DUP2 ADD SWAP1 PUSH2 0x434 SWAP2 SWAP1 PUSH2 0x3162 JUMP JUMPDEST PUSH2 0xCC8 JUMP JUMPDEST STOP JUMPDEST CALLVALUE DUP1 ISZERO PUSH2 0x446 JUMPI PUSH0 DUP1 REVERT JUMPDEST POP PUSH2 0x44F PUSH2 0x10BB JUMP JUMPDEST PUSH1 0x40 MLOAD PUSH2 0x45C SWAP2 SWAP1 PUSH2 0x31A8 JUMP JUMPDEST PUSH1 0x40 MLOAD DUP1 SWAP2 SUB SWAP1 RETURN JUMPDEST CALLVALUE DUP1 ISZERO PUSH2 0x470 JUMPI PUSH0 DUP1 REVERT JUMPDEST POP PUSH2 0x479 PUSH2 0x10C3 JUMP JUMPDEST PUSH1 0x40 MLOAD PUSH2 0x486 SWAP2 SWAP1 PUSH2 0x2F8C JUMP JUMPDEST PUSH1 0x40 MLOAD DUP1 SWAP2 SUB SWAP1 RETURN JUMPDEST CALLVALUE DUP1 ISZERO PUSH2 0x49A JUMPI PUSH0 DUP1 REVERT JUMPDEST POP PUSH2 0x4B5 PUSH1 0x4 DUP1 CALLDATASIZE SUB DUP2 ADD SWAP1 PUSH2 0x4B0 SWAP2 SWAP1 PUSH2 0x2F49 JUMP JUMPDEST PUSH2 0x10CF JUMP JUMPDEST PUSH1 0x40 MLOAD PUSH2 0x4C2 SWAP2 SWAP1 PUSH2 0x2F8C JUMP JUMPDEST PUSH1 0x40 MLOAD DUP1 SWAP2 SUB SWAP1 RETURN JUMPDEST CALLVALUE DUP1 ISZERO PUSH2 0x4D6 JUMPI PUSH0 DUP1 REVERT JUMPDEST POP PUSH2 0x4DF PUSH2 0x10E4 JUMP JUMPDEST STOP JUMPDEST CALLVALUE DUP1 ISZERO PUSH2 0x4EC JUMPI PUSH0 DUP1 REVERT JUMPDEST POP PUSH2 0x4F5 PUSH2 0x11B0 JUMP JUMPDEST STOP JUMPDEST CALLVALUE DUP1 ISZERO PUSH2 0x502 JUMPI PUSH0 DUP1 REVERT JUMPDEST POP PUSH2 0x50B PUSH2 0x12AD JUMP JUMPDEST PUSH1 0x40 MLOAD PUSH2 0x518 SWAP2 SWAP1 PUSH2 0x2F8C JUMP JUMPDEST PUSH1 0x40 MLOAD DUP1 SWAP2 SUB SWAP1 RETURN JUMPDEST CALLVALUE DUP1 ISZERO PUSH2 0x52C JUMPI PUSH0 DUP1 REVERT JUMPDEST POP PUSH2 0x547 PUSH1 0x4 DUP1 CALLDATASIZE SUB DUP2 ADD SWAP1 PUSH2 0x542 SWAP2 SWAP1 PUSH2 0x2F49 JUMP JUMPDEST PUSH2 0x12BA JUMP JUMPDEST PUSH1 0x40 MLOAD PUSH2 0x554 SWAP2 SWAP1 PUSH2 0x2F8C JUMP JUMPDEST PUSH1 0x40 MLOAD DUP1 SWAP2 SUB SWAP1 RETURN JUMPDEST CALLVALUE DUP1 ISZERO PUSH2 0x568 JUMPI PUSH0 DUP1 REVERT JUMPDEST POP PUSH2 0x583 PUSH1 0x4 DUP1 CALLDATASIZE SUB DUP2 ADD SWAP1 PUSH2 0x57E SWAP2 SWAP1 PUSH2 0x31C1 JUMP JUMPDEST PUSH2 0x12CF JUMP JUMPDEST STOP JUMPDEST CALLVALUE DUP1 ISZERO PUSH2 0x590 JUMPI PUSH0 DUP1 REVERT JUMPDEST POP PUSH2 0x5AB PUSH1 0x4 DUP1 CALLDATASIZE SUB DUP2 ADD SWAP1 PUSH2 0x5A6 SWAP2 SWAP1 PUSH2 0x2F49 JUMP JUMPDEST PUSH2 0x1333 JUMP JUMPDEST PUSH1 0x40 MLOAD PUSH2 0x5B8 SWAP2 SWAP1 PUSH2 0x2F8C JUMP JUMPDEST PUSH1 0x40 MLOAD DUP1 SWAP2 SUB SWAP1 RETURN JUMPDEST CALLVALUE DUP1 ISZERO PUSH2 0x5CC JUMPI PUSH0 DUP1 REVERT JUMPDEST POP PUSH2 0x5D5 PUSH2 0x1378 JUMP JUMPDEST STOP JUMPDEST CALLVALUE DUP1 ISZERO PUSH2 0x5E2 JUMPI PUSH0 DUP1 REVERT JUMPDEST POP PUSH2 0x5EB PUSH2 0x138B JUMP JUMPDEST PUSH1 0x40 MLOAD PUSH2 0x5F8 SWAP2 SWAP1 PUSH2 0x326C JUMP JUMPDEST PUSH1 0x40 MLOAD DUP1 SWAP2 SUB SWAP1 RETURN JUMPDEST CALLVALUE DUP1 ISZERO PUSH2 0x60C JUMPI PUSH0 DUP1 REVERT JUMPDEST POP PUSH2 0x615 PUSH2 0x13B0 JUMP JUMPDEST PUSH1 0x40 MLOAD PUSH2 0x622 SWAP2 SWAP1 PUSH2 0x2F8C JUMP JUMPDEST PUSH1 0x40 MLOAD DUP1 SWAP2 SUB SWAP1 RETURN JUMPDEST CALLVALUE DUP1 ISZERO PUSH2 0x636 JUMPI PUSH0 DUP1 REVERT JUMPDEST POP PUSH2 0x63F PUSH2 0x13B6 JUMP JUMPDEST STOP JUMPDEST CALLVALUE DUP1 ISZERO PUSH2 0x64C JUMPI PUSH0 DUP1 REVERT JUMPDEST POP PUSH2 0x655 PUSH2 0x1554 JUMP JUMPDEST PUSH1 0x40 MLOAD PUSH2 0x662 SWAP2 SWAP1 PUSH2 0x2F8C JUMP JUMPDEST PUSH1 0x40 MLOAD DUP1 SWAP2 SUB SWAP1 RETURN JUMPDEST CALLVALUE DUP1 ISZERO PUSH2 0x676 JUMPI PUSH0 DUP1 REVERT JUMPDEST POP PUSH2 0x691 PUSH1 0x4 DUP1 CALLDATASIZE SUB DUP2 ADD SWAP1 PUSH2 0x68C SWAP2 SWAP1 PUSH2 0x2F49 JUMP JUMPDEST PUSH2 0x155A JUMP JUMPDEST PUSH1 0x40 MLOAD PUSH2 0x69E SWAP2 SWAP1 PUSH2 0x2F8C JUMP JUMPDEST PUSH1 0x40 MLOAD DUP1 SWAP2 SUB SWAP1 RETURN JUMPDEST CALLVALUE DUP1 ISZERO PUSH2 0x6B2 JUMPI PUSH0 DUP1 REVERT JUMPDEST POP PUSH2 0x6BB PUSH2 0x156F JUMP JUMPDEST PUSH1 0x40 MLOAD PUSH2 0x6C8 SWAP2 SWAP1 PUSH2 0x30F9 JUMP JUMPDEST PUSH1 0x40 MLOAD DUP1 SWAP2 SUB SWAP1 RETURN JUMPDEST CALLVALUE DUP1 ISZERO PUSH2 0x6DC JUMPI PUSH0 DUP1 REVERT JUMPDEST POP PUSH2 0x6E5 PUSH2 0x1597 JUMP JUMPDEST PUSH1 0x40 MLOAD PUSH2 0x6F2 SWAP2 SWAP1 PUSH2 0x302F JUMP JUMPDEST PUSH1 0x40 MLOAD DUP1 SWAP2 SUB SWAP1 RETURN JUMPDEST CALLVALUE DUP1 ISZERO PUSH2 0x706 JUMPI PUSH0 DUP1 REVERT JUMPDEST POP PUSH2 0x721 PUSH1 0x4 DUP1 CALLDATASIZE SUB DUP2 ADD SWAP1 PUSH2 0x71C SWAP2 SWAP1 PUSH2 0x3162 JUMP JUMPDEST PUSH2 0x1627 JUMP JUMPDEST PUSH1 0x40 MLOAD PUSH2 0x72E SWAP2 SWAP1 PUSH2 0x30F9 JUMP JUMPDEST PUSH1 0x40 MLOAD DUP1 SWAP2 SUB SWAP1 RETURN JUMPDEST CALLVALUE DUP1 ISZERO PUSH2 0x742 JUMPI PUSH0 DUP1 REVERT JUMPDEST POP PUSH2 0x75D PUSH1 0x4 DUP1 CALLDATASIZE SUB DUP2 ADD SWAP1 PUSH2 0x758 SWAP2 SWAP1 PUSH2 0x2F49 JUMP JUMPDEST PUSH2 0x1662 JUMP JUMPDEST PUSH1 0x40 MLOAD PUSH2 0x76A SWAP2 SWAP1 PUSH2 0x30D1 JUMP JUMPDEST PUSH1 0x40 MLOAD DUP1 SWAP2 SUB SWAP1 RETURN JUMPDEST CALLVALUE DUP1 ISZERO PUSH2 0x77E JUMPI PUSH0 DUP1 REVERT JUMPDEST POP PUSH2 0x799 PUSH1 0x4 DUP1 CALLDATASIZE SUB DUP2 ADD SWAP1 PUSH2 0x794 SWAP2 SWAP1 PUSH2 0x2F49 JUMP JUMPDEST PUSH2 0x167F JUMP JUMPDEST PUSH1 0x40 MLOAD PUSH2 0x7A6 SWAP2 SWAP1 PUSH2 0x2F8C JUMP JUMPDEST PUSH1 0x40 MLOAD DUP1 SWAP2 SUB SWAP1 RETURN JUMPDEST CALLVALUE DUP1 ISZERO PUSH2 0x7BA JUMPI PUSH0 DUP1 REVERT JUMPDEST POP PUSH2 0x7D5 PUSH1 0x4 DUP1 CALLDATASIZE SUB DUP2 ADD SWAP1 PUSH2 0x7D0 SWAP2 SWAP1 PUSH2 0x3162 JUMP JUMPDEST PUSH2 0x179D JUMP JUMPDEST STOP JUMPDEST CALLVALUE DUP1 ISZERO PUSH2 0x7E2 JUMPI PUSH0 DUP1 REVERT JUMPDEST POP PUSH2 0x7FD PUSH1 0x4 DUP1 CALLDATASIZE SUB DUP2 ADD SWAP1 PUSH2 0x7F8 SWAP2 SWAP1 PUSH2 0x3079 JUMP JUMPDEST PUSH2 0x1B15 JUMP JUMPDEST PUSH1 0x40 MLOAD PUSH2 0x80A SWAP2 SWAP1 PUSH2 0x30D1 JUMP JUMPDEST PUSH1 0x40 MLOAD DUP1 SWAP2 SUB SWAP1 RETURN JUMPDEST CALLVALUE DUP1 ISZERO PUSH2 0x81E JUMPI PUSH0 DUP1 REVERT JUMPDEST POP PUSH2 0x827 PUSH2 0x1B37 JUMP JUMPDEST PUSH1 0x40 MLOAD PUSH2 0x834 SWAP2 SWAP1 PUSH2 0x30F9 JUMP JUMPDEST PUSH1 0x40 MLOAD DUP1 SWAP2 SUB SWAP1 RETURN JUMPDEST CALLVALUE DUP1 ISZERO PUSH2 0x848 JUMPI PUSH0 DUP1 REVERT JUMPDEST POP PUSH2 0x851 PUSH2 0x1B5C JUMP JUMPDEST PUSH1 0x40 MLOAD PUSH2 0x85E SWAP2 SWAP1 PUSH2 0x32A5 JUMP JUMPDEST PUSH1 0x40 MLOAD DUP1 SWAP2 SUB SWAP1 RETURN JUMPDEST CALLVALUE DUP1 ISZERO PUSH2 0x872 JUMPI PUSH0 DUP1 REVERT JUMPDEST POP PUSH2 0x87B PUSH2 0x1B81 JUMP JUMPDEST PUSH1 0x40 MLOAD PUSH2 0x888 SWAP2 SWAP1 PUSH2 0x2F8C JUMP JUMPDEST PUSH1 0x40 MLOAD DUP1 SWAP2 SUB SWAP1 RETURN JUMPDEST CALLVALUE DUP1 ISZERO PUSH2 0x89C JUMPI PUSH0 DUP1 REVERT JUMPDEST POP PUSH2 0x8A5 PUSH2 0x1B87 JUMP JUMPDEST PUSH1 0x40 MLOAD PUSH2 0x8B2 SWAP2 SWAP1 PUSH2 0x2F8C JUMP JUMPDEST PUSH1 0x40 MLOAD DUP1 SWAP2 SUB SWAP1 RETURN JUMPDEST CALLVALUE DUP1 ISZERO PUSH2 0x8C6 JUMPI PUSH0 DUP1 REVERT JUMPDEST POP PUSH2 0x8E1 PUSH1 0x4 DUP1 CALLDATASIZE SUB DUP2 ADD SWAP1 PUSH2 0x8DC SWAP2 SWAP1 PUSH2 0x2F49 JUMP JUMPDEST PUSH2 0x1BF6 JUMP JUMPDEST STOP JUMPDEST CALLVALUE DUP1 ISZERO PUSH2 0x8EE JUMPI PUSH0 DUP1 REVERT JUMPDEST POP PUSH2 0x8F7 PUSH2 0x1C41 JUMP JUMPDEST PUSH1 0x40 MLOAD PUSH2 0x904 SWAP2 SWAP1 PUSH2 0x2F8C JUMP JUMPDEST PUSH1 0x40 MLOAD DUP1 SWAP2 SUB SWAP1 RETURN JUMPDEST CALLVALUE DUP1 ISZERO PUSH2 0x918 JUMPI PUSH0 DUP1 REVERT JUMPDEST POP PUSH2 0x933 PUSH1 0x4 DUP1 CALLDATASIZE SUB DUP2 ADD SWAP1 PUSH2 0x92E SWAP2 SWAP1 PUSH2 0x2F49 JUMP JUMPDEST PUSH2 0x1C47 JUMP JUMPDEST PUSH1 0x40 MLOAD PUSH2 0x940 SWAP2 SWAP1 PUSH2 0x2F8C JUMP JUMPDEST PUSH1 0x40 MLOAD DUP1 SWAP2 SUB SWAP1 RETURN JUMPDEST CALLVALUE DUP1 ISZERO PUSH2 0x954 JUMPI PUSH0 DUP1 REVERT JUMPDEST POP PUSH2 0x96F PUSH1 0x4 DUP1 CALLDATASIZE SUB DUP2 ADD SWAP1 PUSH2 0x96A SWAP2 SWAP1 PUSH2 0x32BE JUMP JUMPDEST PUSH2 0x1C5C JUMP JUMPDEST PUSH1 0x40 MLOAD PUSH2 0x97C SWAP2 SWAP1 PUSH2 0x2F8C JUMP JUMPDEST PUSH1 0x40 MLOAD DUP1 SWAP2 SUB SWAP1 RETURN JUMPDEST CALLVALUE DUP1 ISZERO PUSH2 0x990 JUMPI PUSH0 DUP1 REVERT JUMPDEST POP PUSH2 0x999 PUSH2 0x1CDE JUMP JUMPDEST PUSH1 0x40 MLOAD PUSH2 0x9A6 SWAP2 SWAP1 PUSH2 0x2F8C JUMP JUMPDEST PUSH1 0x40 MLOAD DUP1 SWAP2 SUB SWAP1 RETURN JUMPDEST CALLVALUE DUP1 ISZERO PUSH2 0x9BA JUMPI PUSH0 DUP1 REVERT JUMPDEST POP PUSH2 0x9D5 PUSH1 0x4 DUP1 CALLDATASIZE SUB DUP2 ADD SWAP1 PUSH2 0x9D0 SWAP2 SWAP1 PUSH2 0x2F49 JUMP JUMPDEST PUSH2 0x1CE4 JUMP JUMPDEST STOP JUMPDEST CALLVALUE DUP1 ISZERO PUSH2 0x9E2 JUMPI PUSH0 DUP1 REVERT JUMPDEST POP PUSH2 0x9EB PUSH2 0x1D68 JUMP JUMPDEST PUSH1 0x40 MLOAD PUSH2 0x9F8 SWAP2 SWAP1 PUSH2 0x2F8C JUMP JUMPDEST PUSH1 0x40 MLOAD DUP1 SWAP2 SUB SWAP1 RETURN JUMPDEST CALLVALUE DUP1 ISZERO PUSH2 0xA0C JUMPI PUSH0 DUP1 REVERT JUMPDEST POP PUSH2 0xA27 PUSH1 0x4 DUP1 CALLDATASIZE SUB DUP2 ADD SWAP1 PUSH2 0xA22 SWAP2 SWAP1 PUSH2 0x2F49 JUMP JUMPDEST PUSH2 0x1FB6 JUMP JUMPDEST PUSH1 0x40 MLOAD PUSH2 0xA34 SWAP2 SWAP1 PUSH2 0x2F8C JUMP JUMPDEST PUSH1 0x40 MLOAD DUP1 SWAP2 SUB SWAP1 RETURN JUMPDEST PUSH0 PUSH1 0xE PUSH0 DUP4 PUSH20 0xFFFFFFFFFFFFFFFFFFFFFFFFFFFFFFFFFFFFFFFF AND PUSH20 0xFFFFFFFFFFFFFFFFFFFFFFFFFFFFFFFFFFFFFFFF AND DUP2 MSTORE PUSH1 0x20 ADD SWAP1 DUP2 MSTORE PUSH1 0x20 ADD PUSH0 KECCAK256 SLOAD PUSH8 0xDE0B6B3A7640000 PUSH1 0x14 SLOAD PUSH2 0xA90 PUSH2 0x1B87 JUMP JUMPDEST PUSH2 0xA9A SWAP2 SWAP1 PUSH2 0x3329 JUMP JUMPDEST PUSH1 0xE PUSH0 DUP7 PUSH20 0xFFFFFFFFFFFFFFFFFFFFFFFFFFFFFFFFFFFFFFFF AND PUSH20 0xFFFFFFFFFFFFFFFFFFFFFFFFFFFFFFFFFFFFFFFF AND DUP2 MSTORE PUSH1 0x20 ADD SWAP1 DUP2 MSTORE PUSH1 0x20 ADD PUSH0 KECCAK256 SLOAD PUSH2 0xAE2 SWAP2 SWAP1 PUSH2 0x335C JUMP JUMPDEST PUSH2 0xAEC SWAP2 SWAP1 PUSH2 0x33CA JUMP JUMPDEST PUSH2 0xAF6 SWAP2 SWAP1 PUSH2 0x33FA JUMP JUMPDEST SWAP1 POP SWAP2 SWAP1 POP JUMP JUMPDEST PUSH1 0x10 PUSH1 0x20 MSTORE DUP1 PUSH0 MSTORE PUSH1 0x40 PUSH0 KECCAK256 PUSH0 SWAP2 POP SWAP1 POP SLOAD DUP2 JUMP JUMPDEST PUSH1 0x60 PUSH1 0x3 DUP1 SLOAD PUSH2 0xB21 SWAP1 PUSH2 0x345A JUMP JUMPDEST DUP1 PUSH1 0x1F ADD PUSH1 0x20 DUP1 SWAP2 DIV MUL PUSH1 0x20 ADD PUSH1 0x40 MLOAD SWAP1 DUP2 ADD PUSH1 0x40 MSTORE DUP1 SWAP3 SWAP2 SWAP1 DUP2 DUP2 MSTORE PUSH1 0x20 ADD DUP3 DUP1 SLOAD PUSH2 0xB4D SWAP1 PUSH2 0x345A JUMP JUMPDEST DUP1 ISZERO PUSH2 0xB98 JUMPI DUP1 PUSH1 0x1F LT PUSH2 0xB6F JUMPI PUSH2 0x100 DUP1 DUP4 SLOAD DIV MUL DUP4 MSTORE SWAP2 PUSH1 0x20 ADD SWAP2 PUSH2 0xB98 JUMP JUMPDEST DUP3 ADD SWAP2 SWAP1 PUSH0 MSTORE PUSH1 0x20 PUSH0 KECCAK256 SWAP1 JUMPDEST DUP2 SLOAD DUP2 MSTORE SWAP1 PUSH1 0x1 ADD SWAP1 PUSH1 0x20 ADD DUP1 DUP4 GT PUSH2 0xB7B JUMPI DUP3 SWAP1 SUB PUSH1 0x1F AND DUP3 ADD SWAP2 JUMPDEST POP POP POP POP POP SWAP1 POP SWAP1 JUMP JUMPDEST PUSH0 DUP1 PUSH2 0xBAC PUSH2 0x1FCB JUMP JUMPDEST SWAP1 POP PUSH2 0xBB9 DUP2 DUP6 DUP6 PUSH2 0x1FD2 JUMP JUMPDEST PUSH1 0x1 SWAP2 POP POP SWAP3 SWAP2 POP POP JUMP JUMPDEST PUSH0 PUSH4 0x1E13380 PUSH1 0x10 PUSH0 DUP5 PUSH20 0xFFFFFFFFFFFFFFFFFFFFFFFFFFFFFFFFFFFFFFFF AND PUSH20 0xFFFFFFFFFFFFFFFFFFFFFFFFFFFFFFFFFFFFFFFF AND DUP2 MSTORE PUSH1 0x20 ADD SWAP1 DUP2 MSTORE PUSH1 0x20 ADD PUSH0 KECCAK256 SLOAD TIMESTAMP PUSH2 0xC13 SWAP2 SWAP1 PUSH2 0x3329 JUMP JUMPDEST PUSH1 0x11 PUSH0 DUP6 PUSH20 0xFFFFFFFFFFFFFFFFFFFFFFFFFFFFFFFFFFFFFFFF AND PUSH20 0xFFFFFFFFFFFFFFFFFFFFFFFFFFFFFFFFFFFFFFFF AND DUP2 MSTORE PUSH1 0x20 ADD SWAP1 DUP2 MSTORE PUSH1 0x20 ADD PUSH0 KECCAK256 SLOAD PUSH2 0xC5B SWAP2 SWAP1 PUSH2 0x335C JUMP JUMPDEST PUSH2 0xC65 SWAP2 SWAP1 PUSH2 0x33CA JUMP JUMPDEST SWAP1 POP SWAP2 SWAP1 POP JUMP JUMPDEST PUSH0 PUSH1 0x2 SLOAD SWAP1 POP SWAP1 JUMP JUMPDEST PUSH1 0xA PUSH0 SWAP1 SLOAD SWAP1 PUSH2 0x100 EXP SWAP1 DIV PUSH20 0xFFFFFFFFFFFFFFFFFFFFFFFFFFFFFFFFFFFFFFFF AND DUP2 JUMP JUMPDEST PUSH0 DUP1 PUSH2 0xCA4 PUSH2 0x1FCB JUMP JUMPDEST SWAP1 POP PUSH2 0xCB1 DUP6 DUP3 DUP6 PUSH2 0x1FE4 JUMP JUMPDEST PUSH2 0xCBC DUP6 DUP6 DUP6 PUSH2 0x2076 JUMP JUMPDEST PUSH1 0x1 SWAP2 POP POP SWAP4 SWAP3 POP POP POP JUMP JUMPDEST PUSH2 0xCD0 PUSH2 0x21BC JUMP JUMPDEST DUP1 PUSH1 0xE PUSH0 CALLER PUSH20 0xFFFFFFFFFFFFFFFFFFFFFFFFFFFFFFFFFFFFFFFF AND PUSH20 0xFFFFFFFFFFFFFFFFFFFFFFFFFFFFFFFFFFFFFFFF AND DUP2 MSTORE PUSH1 0x20 ADD SWAP1 DUP2 MSTORE PUSH1 0x20 ADD PUSH0 KECCAK256 SLOAD LT ISZERO PUSH2 0xD50 JUMPI PUSH1 0x40 MLOAD PUSH32 0x8C379A000000000000000000000000000000000000000000000000000000000 DUP2 MSTORE PUSH1 0x4 ADD PUSH2 0xD47 SWAP1 PUSH2 0x34D4 JUMP JUMPDEST PUSH1 0x40 MLOAD DUP1 SWAP2 SUB SWAP1 REVERT JUMPDEST PUSH2 0xD59 CALLER PUSH2 0x220B JUMP JUMPDEST DUP1 PUSH1 0xE PUSH0 CALLER PUSH20 0xFFFFFFFFFFFFFFFFFFFFFFFFFFFFFFFFFFFFFFFF AND PUSH20 0xFFFFFFFFFFFFFFFFFFFFFFFFFFFFFFFFFFFFFFFF AND DUP2 MSTORE PUSH1 0x20 ADD SWAP1 DUP2 MSTORE PUSH1 0x20 ADD PUSH0 KECCAK256 PUSH0 DUP3 DUP3 SLOAD PUSH2 0xDA5 SWAP2 SWAP1 PUSH2 0x3329 JUMP JUMPDEST SWAP3 POP POP DUP2 SWAP1 SSTORE POP PUSH1 0x8 PUSH0 SWAP1 SLOAD SWAP1 PUSH2 0x100 EXP SWAP1 DIV PUSH20 0xFFFFFFFFFFFFFFFFFFFFFFFFFFFFFFFFFFFFFFFF AND PUSH20 0xFFFFFFFFFFFFFFFFFFFFFFFFFFFFFFFFFFFFFFFF AND PUSH4 0xA9059CBB CALLER DUP4 PUSH1 0x40 MLOAD DUP4 PUSH4 0xFFFFFFFF AND PUSH1 0xE0 SHL DUP2 MSTORE PUSH1 0x4 ADD PUSH2 0xE08 SWAP3 SWAP2 SWAP1 PUSH2 0x34F2 JUMP JUMPDEST PUSH1 0x20 PUSH1 0x40 MLOAD DUP1 DUP4 SUB DUP2 PUSH0 DUP8 GAS CALL ISZERO DUP1 ISZERO PUSH2 0xE24 JUMPI RETURNDATASIZE PUSH0 DUP1 RETURNDATACOPY RETURNDATASIZE PUSH0 REVERT JUMPDEST POP POP POP POP PUSH1 0x40 MLOAD RETURNDATASIZE PUSH1 0x1F NOT PUSH1 0x1F DUP3 ADD AND DUP3 ADD DUP1 PUSH1 0x40 MSTORE POP DUP2 ADD SWAP1 PUSH2 0xE48 SWAP2 SWAP1 PUSH2 0x3543 JUMP JUMPDEST POP PUSH0 PUSH1 0xE PUSH0 CALLER PUSH20 0xFFFFFFFFFFFFFFFFFFFFFFFFFFFFFFFFFFFFFFFF AND PUSH20 0xFFFFFFFFFFFFFFFFFFFFFFFFFFFFFFFFFFFFFFFF AND DUP2 MSTORE PUSH1 0x20 ADD SWAP1 DUP2 MSTORE PUSH1 0x20 ADD PUSH0 KECCAK256 SLOAD SUB PUSH2 0x1062 JUMPI PUSH0 PUSH1 0x17 PUSH0 CALLER PUSH20 0xFFFFFFFFFFFFFFFFFFFFFFFFFFFFFFFFFFFFFFFF AND PUSH20 0xFFFFFFFFFFFFFFFFFFFFFFFFFFFFFFFFFFFFFFFF AND DUP2 MSTORE PUSH1 0x20 ADD SWAP1 DUP2 MSTORE PUSH1 0x20 ADD PUSH0 KECCAK256 PUSH0 PUSH2 0x100 EXP DUP2 SLOAD DUP2 PUSH1 0xFF MUL NOT AND SWAP1 DUP4 ISZERO ISZERO MUL OR SWAP1 SSTORE POP PUSH0 JUMPDEST PUSH1 0x16 DUP1 SLOAD SWAP1 POP DUP2 LT ISZERO PUSH2 0x1060 JUMPI CALLER PUSH20 0xFFFFFFFFFFFFFFFFFFFFFFFFFFFFFFFFFFFFFFFF AND PUSH1 0x16 DUP3 DUP2 SLOAD DUP2 LT PUSH2 0xF1B JUMPI PUSH2 0xF1A PUSH2 0x356E JUMP JUMPDEST JUMPDEST SWAP1 PUSH0 MSTORE PUSH1 0x20 PUSH0 KECCAK256 ADD PUSH0 SWAP1 SLOAD SWAP1 PUSH2 0x100 EXP SWAP1 DIV PUSH20 0xFFFFFFFFFFFFFFFFFFFFFFFFFFFFFFFFFFFFFFFF AND PUSH20 0xFFFFFFFFFFFFFFFFFFFFFFFFFFFFFFFFFFFFFFFF AND SUB PUSH2 0x104D JUMPI PUSH1 0x16 PUSH1 0x1 PUSH1 0x16 DUP1 SLOAD SWAP1 POP PUSH2 0xF72 SWAP2 SWAP1 PUSH2 0x3329 JUMP JUMPDEST DUP2 SLOAD DUP2 LT PUSH2 0xF83 JUMPI PUSH2 0xF82 PUSH2 0x356E JUMP JUMPDEST JUMPDEST SWAP1 PUSH0 MSTORE PUSH1 0x20 PUSH0 KECCAK256 ADD PUSH0 SWAP1 SLOAD SWAP1 PUSH2 0x100 EXP SWAP1 DIV PUSH20 0xFFFFFFFFFFFFFFFFFFFFFFFFFFFFFFFFFFFFFFFF AND PUSH1 0x16 DUP3 DUP2 SLOAD DUP2 LT PUSH2 0xFBF JUMPI PUSH2 0xFBE PUSH2 0x356E JUMP JUMPDEST JUMPDEST SWAP1 PUSH0 MSTORE PUSH1 0x20 PUSH0 KECCAK256 ADD PUSH0 PUSH2 0x100 EXP DUP2 SLOAD DUP2 PUSH20 0xFFFFFFFFFFFFFFFFFFFFFFFFFFFFFFFFFFFFFFFF MUL NOT AND SWAP1 DUP4 PUSH20 0xFFFFFFFFFFFFFFFFFFFFFFFFFFFFFFFFFFFFFFFF AND MUL OR SWAP1 SSTORE POP PUSH1 0x16 DUP1 SLOAD DUP1 PUSH2 0x1016 JUMPI PUSH2 0x1015 PUSH2 0x359B JUMP JUMPDEST JUMPDEST PUSH1 0x1 SWAP1 SUB DUP2 DUP2 SWAP1 PUSH0 MSTORE PUSH1 0x20 PUSH0 KECCAK256 ADD PUSH0 PUSH2 0x100 EXP DUP2 SLOAD SWAP1 PUSH20 0xFFFFFFFFFFFFFFFFFFFFFFFFFFFFFFFFFFFFFFFF MUL NOT AND SWAP1 SSTORE SWAP1 SSTORE PUSH2 0x1060 JUMP JUMPDEST DUP1 DUP1 PUSH2 0x1058 SWAP1 PUSH2 0x35C8 JUMP JUMPDEST SWAP2 POP POP PUSH2 0xEE3 JUMP JUMPDEST POP JUMPDEST CALLER PUSH20 0xFFFFFFFFFFFFFFFFFFFFFFFFFFFFFFFFFFFFFFFF AND PUSH32 0xC2C3F06E49B9F15E7B4AF9055E183B0D73362E033AD82A07DEC9BF9840171719 DUP3 PUSH1 0x40 MLOAD PUSH2 0x10A8 SWAP2 SWAP1 PUSH2 0x2F8C JUMP JUMPDEST PUSH1 0x40 MLOAD DUP1 SWAP2 SUB SWAP1 LOG2 PUSH2 0x10B8 PUSH2 0x22A1 JUMP JUMPDEST POP JUMP JUMPDEST PUSH0 PUSH1 0x12 SWAP1 POP SWAP1 JUMP JUMPDEST PUSH8 0x8AC7230489E80000 DUP2 JUMP JUMPDEST PUSH1 0x11 PUSH1 0x20 MSTORE DUP1 PUSH0 MSTORE PUSH1 0x40 PUSH0 KECCAK256 PUSH0 SWAP2 POP SWAP1 POP SLOAD DUP2 JUMP JUMPDEST PUSH2 0x10EC PUSH2 0x21BC JUMP JUMPDEST PUSH2 0x10F5 CALLER PUSH2 0x220B JUMP JUMPDEST PUSH0 PUSH2 0x10FF CALLER PUSH2 0xA3D JUMP JUMPDEST SWAP1 POP PUSH0 DUP2 GT ISZERO PUSH2 0x11A5 JUMPI PUSH0 PUSH1 0xE PUSH0 CALLER PUSH20 0xFFFFFFFFFFFFFFFFFFFFFFFFFFFFFFFFFFFFFFFF AND PUSH20 0xFFFFFFFFFFFFFFFFFFFFFFFFFFFFFFFFFFFFFFFF AND DUP2 MSTORE PUSH1 0x20 ADD SWAP1 DUP2 MSTORE PUSH1 0x20 ADD PUSH0 KECCAK256 DUP2 SWAP1 SSTORE POP PUSH2 0x1156 ADDRESS CALLER DUP4 PUSH2 0x22AB JUMP JUMPDEST CALLER PUSH20 0xFFFFFFFFFFFFFFFFFFFFFFFFFFFFFFFFFFFFFFFF AND PUSH32 0xE2403640BA68FED3A2F88B7557551D1993F84B99BB10FF833F0CF8DB0C5E0486 DUP3 PUSH1 0x40 MLOAD PUSH2 0x119C SWAP2 SWAP1 PUSH2 0x2F8C JUMP JUMPDEST PUSH1 0x40 MLOAD DUP1 SWAP2 SUB SWAP1 LOG2 JUMPDEST POP PUSH2 0x11AE PUSH2 0x22A1 JUMP JUMPDEST JUMP JUMPDEST PUSH0 PUSH2 0x11BA CALLER PUSH2 0xBC4 JUMP JUMPDEST SWAP1 POP PUSH0 DUP2 GT PUSH2 0x11FE JUMPI PUSH1 0x40 MLOAD PUSH32 0x8C379A000000000000000000000000000000000000000000000000000000000 DUP2 MSTORE PUSH1 0x4 ADD PUSH2 0x11F5 SWAP1 PUSH2 0x3659 JUMP JUMPDEST PUSH1 0x40 MLOAD DUP1 SWAP2 SUB SWAP1 REVERT JUMPDEST DUP1 PUSH1 0x11 PUSH0 CALLER PUSH20 0xFFFFFFFFFFFFFFFFFFFFFFFFFFFFFFFFFFFFFFFF AND PUSH20 0xFFFFFFFFFFFFFFFFFFFFFFFFFFFFFFFFFFFFFFFF AND DUP2 MSTORE PUSH1 0x20 ADD SWAP1 DUP2 MSTORE PUSH1 0x20 ADD PUSH0 KECCAK256 PUSH0 DUP3 DUP3 SLOAD PUSH2 0x124A SWAP2 SWAP1 PUSH2 0x3329 JUMP JUMPDEST SWAP3 POP POP DUP2 SWAP1 SSTORE POP PUSH2 0x125C ADDRESS CALLER DUP4 PUSH2 0x2076 JUMP JUMPDEST CALLER PUSH20 0xFFFFFFFFFFFFFFFFFFFFFFFFFFFFFFFFFFFFFFFF AND PUSH32 0xC7798891864187665AC6DD119286E44EC13F014527AEEB2B8EB3FD413DF93179 DUP3 PUSH1 0x40 MLOAD PUSH2 0x12A2 SWAP2 SWAP1 PUSH2 0x2F8C JUMP JUMPDEST PUSH1 0x40 MLOAD DUP1 SWAP2 SUB SWAP1 LOG2 POP JUMP JUMPDEST PUSH9 0x56BC75E2D63100000 DUP2 JUMP JUMPDEST PUSH1 0xF PUSH1 0x20 MSTORE DUP1 PUSH0 MSTORE PUSH1 0x40 PUSH0 KECCAK256 PUSH0 SWAP2 POP SWAP1 POP SLOAD DUP2 JUMP JUMPDEST PUSH2 0x12D7 PUSH2 0x239B JUMP JUMPDEST DUP2 PUSH2 0x12E1 ADDRESS PUSH2 0x1333 JUMP JUMPDEST LT ISZERO PUSH2 0x1322 JUMPI PUSH1 0x40 MLOAD PUSH32 0x8C379A000000000000000000000000000000000000000000000000000000000 DUP2 MSTORE PUSH1 0x4 ADD PUSH2 0x1319 SWAP1 PUSH2 0x36E7 JUMP JUMPDEST PUSH1 0x40 MLOAD DUP1 SWAP2 SUB SWAP1 REVERT JUMPDEST PUSH2 0x132E DUP4 DUP4 TIMESTAMP DUP5 PUSH2 0x2422 JUMP JUMPDEST POP POP POP JUMP JUMPDEST PUSH0 DUP1 PUSH0 DUP4 PUSH20 0xFFFFFFFFFFFFFFFFFFFFFFFFFFFFFFFFFFFFFFFF AND PUSH20 0xFFFFFFFFFFFFFFFFFFFFFFFFFFFFFFFFFFFFFFFF AND DUP2 MSTORE PUSH1 0x20 ADD SWAP1 DUP2 MSTORE PUSH1 0x20 ADD PUSH0 KECCAK256 SLOAD SWAP1 POP SWAP2 SWAP1 POP JUMP JUMPDEST PUSH2 0x1380 PUSH2 0x239B JUMP JUMPDEST PUSH2 0x1389 PUSH0 PUSH2 0x262D JUMP JUMPDEST JUMP JUMPDEST PUSH1 0x7 PUSH0 SWAP1 SLOAD SWAP1 PUSH2 0x100 EXP SWAP1 DIV PUSH20 0xFFFFFFFFFFFFFFFFFFFFFFFFFFFFFFFFFFFFFFFF AND DUP2 JUMP JUMPDEST PUSH1 0xB SLOAD DUP2 JUMP JUMPDEST PUSH2 0x13BE PUSH2 0x239B JUMP JUMPDEST PUSH1 0x13 SLOAD TIMESTAMP GT PUSH2 0x1402 JUMPI PUSH1 0x40 MLOAD PUSH32 0x8C379A000000000000000000000000000000000000000000000000000000000 DUP2 MSTORE PUSH1 0x4 ADD PUSH2 0x13F9 SWAP1 PUSH2 0x374F JUMP JUMPDEST PUSH1 0x40 MLOAD DUP1 SWAP2 SUB SWAP1 REVERT JUMPDEST PUSH0 JUMPDEST PUSH1 0x16 DUP1 SLOAD SWAP1 POP DUP2 LT ISZERO PUSH2 0x154A JUMPI PUSH0 PUSH1 0x16 DUP3 DUP2 SLOAD DUP2 LT PUSH2 0x1426 JUMPI PUSH2 0x1425 PUSH2 0x356E JUMP JUMPDEST JUMPDEST SWAP1 PUSH0 MSTORE PUSH1 0x20 PUSH0 KECCAK256 ADD PUSH0 SWAP1 SLOAD SWAP1 PUSH2 0x100 EXP SWAP1 DIV PUSH20 0xFFFFFFFFFFFFFFFFFFFFFFFFFFFFFFFFFFFFFFFF AND SWAP1 POP PUSH0 PUSH1 0x12 PUSH0 DUP4 PUSH20 0xFFFFFFFFFFFFFFFFFFFFFFFFFFFFFFFFFFFFFFFF AND PUSH20 0xFFFFFFFFFFFFFFFFFFFFFFFFFFFFFFFFFFFFFFFF AND DUP2 MSTORE PUSH1 0x20 ADD SWAP1 DUP2 MSTORE PUSH1 0x20 ADD PUSH0 KECCAK256 SLOAD SWAP1 POP PUSH0 DUP2 GT ISZERO PUSH2 0x1535 JUMPI PUSH0 PUSH1 0x12 PUSH0 DUP5 PUSH20 0xFFFFFFFFFFFFFFFFFFFFFFFFFFFFFFFFFFFFFFFF AND PUSH20 0xFFFFFFFFFFFFFFFFFFFFFFFFFFFFFFFFFFFFFFFF AND DUP2 MSTORE PUSH1 0x20 ADD SWAP1 DUP2 MSTORE PUSH1 0x20 ADD PUSH0 KECCAK256 DUP2 SWAP1 SSTORE POP PUSH2 0x14E6 ADDRESS DUP4 DUP4 PUSH2 0x2076 JUMP JUMPDEST DUP2 PUSH20 0xFFFFFFFFFFFFFFFFFFFFFFFFFFFFFFFFFFFFFFFF AND PUSH32 0xFE72567E4F43723D5F9A3A8B91484EDB24388F30C47851012E52A0C2FCD73FDE DUP3 PUSH1 0x40 MLOAD PUSH2 0x152C SWAP2 SWAP1 PUSH2 0x2F8C JUMP JUMPDEST PUSH1 0x40 MLOAD DUP1 SWAP2 SUB SWAP1 LOG2 JUMPDEST POP POP DUP1 DUP1 PUSH2 0x1542 SWAP1 PUSH2 0x35C8 JUMP JUMPDEST SWAP2 POP POP PUSH2 0x1404 JUMP JUMPDEST POP TIMESTAMP PUSH1 0x13 DUP2 SWAP1 SSTORE POP JUMP JUMPDEST PUSH1 0x15 SLOAD DUP2 JUMP JUMPDEST PUSH1 0xE PUSH1 0x20 MSTORE DUP1 PUSH0 MSTORE PUSH1 0x40 PUSH0 KECCAK256 PUSH0 SWAP2 POP SWAP1 POP SLOAD DUP2 JUMP JUMPDEST PUSH0 PUSH1 0x6 PUSH0 SWAP1 SLOAD SWAP1 PUSH2 0x100 EXP SWAP1 DIV PUSH20 0xFFFFFFFFFFFFFFFFFFFFFFFFFFFFFFFFFFFFFFFF AND SWAP1 POP SWAP1 JUMP JUMPDEST PUSH1 0x60 PUSH1 0x4 DUP1 SLOAD PUSH2 0x15A6 SWAP1 PUSH2 0x345A JUMP JUMPDEST DUP1 PUSH1 0x1F ADD PUSH1 0x20 DUP1 SWAP2 DIV MUL PUSH1 0x20 ADD PUSH1 0x40 MLOAD SWAP1 DUP2 ADD PUSH1 0x40 MSTORE DUP1 SWAP3 SWAP2 SWAP1 DUP2 DUP2 MSTORE PUSH1 0x20 ADD DUP3 DUP1 SLOAD PUSH2 0x15D2 SWAP1 PUSH2 0x345A JUMP JUMPDEST DUP1 ISZERO PUSH2 0x161D JUMPI DUP1 PUSH1 0x1F LT PUSH2 0x15F4 JUMPI PUSH2 0x100 DUP1 DUP4 SLOAD DIV MUL DUP4 MSTORE SWAP2 PUSH1 0x20 ADD SWAP2 PUSH2 0x161D JUMP JUMPDEST DUP3 ADD SWAP2 SWAP1 PUSH0 MSTORE PUSH1 0x20 PUSH0 KECCAK256 SWAP1 JUMPDEST DUP2 SLOAD DUP2 MSTORE SWAP1 PUSH1 0x1 ADD SWAP1 PUSH1 0x20 ADD DUP1 DUP4 GT PUSH2 0x1600 JUMPI DUP3 SWAP1 SUB PUSH1 0x1F AND DUP3 ADD SWAP2 JUMPDEST POP POP POP POP POP SWAP1 POP SWAP1 JUMP JUMPDEST PUSH1 0x16 DUP2 DUP2 SLOAD DUP2 LT PUSH2 0x1636 JUMPI PUSH0 DUP1 REVERT JUMPDEST SWAP1 PUSH0 MSTORE PUSH1 0x20 PUSH0 KECCAK256 ADD PUSH0 SWAP2 POP SLOAD SWAP1 PUSH2 0x100 EXP SWAP1 DIV PUSH20 0xFFFFFFFFFFFFFFFFFFFFFFFFFFFFFFFFFFFFFFFF AND DUP2 JUMP JUMPDEST PUSH1 0x17 PUSH1 0x20 MSTORE DUP1 PUSH0 MSTORE PUSH1 0x40 PUSH0 KECCAK256 PUSH0 SWAP2 POP SLOAD SWAP1 PUSH2 0x100 EXP SWAP1 DIV PUSH1 0xFF AND DUP2 JUMP JUMPDEST PUSH0 DUP1 PUSH1 0x8 PUSH0 SWAP1 SLOAD SWAP1 PUSH2 0x100 EXP SWAP1 DIV PUSH20 0xFFFFFFFFFFFFFFFFFFFFFFFFFFFFFFFFFFFFFFFF AND PUSH20 0xFFFFFFFFFFFFFFFFFFFFFFFFFFFFFFFFFFFFFFFF AND PUSH4 0x70A08231 DUP5 PUSH1 0x40 MLOAD DUP3 PUSH4 0xFFFFFFFF AND PUSH1 0xE0 SHL DUP2 MSTORE PUSH1 0x4 ADD PUSH2 0x16DB SWAP2 SWAP1 PUSH2 0x30F9 JUMP JUMPDEST PUSH1 0x20 PUSH1 0x40 MLOAD DUP1 DUP4 SUB DUP2 DUP7 GAS STATICCALL ISZERO DUP1 ISZERO PUSH2 0x16F6 JUMPI RETURNDATASIZE PUSH0 DUP1 RETURNDATACOPY RETURNDATASIZE PUSH0 REVERT JUMPDEST POP POP POP POP PUSH1 0x40 MLOAD RETURNDATASIZE PUSH1 0x1F NOT PUSH1 0x1F DUP3 ADD AND DUP3 ADD DUP1 PUSH1 0x40 MSTORE POP DUP2 ADD SWAP1 PUSH2 0x171A SWAP2 SWAP1 PUSH2 0x3781 JUMP JUMPDEST SWAP1 POP PUSH0 PUSH1 0xF PUSH0 DUP6 PUSH20 0xFFFFFFFFFFFFFFFFFFFFFFFFFFFFFFFFFFFFFFFF AND PUSH20 0xFFFFFFFFFFFFFFFFFFFFFFFFFFFFFFFFFFFFFFFF AND DUP2 MSTORE PUSH1 0x20 ADD SWAP1 DUP2 MSTORE PUSH1 0x20 ADD PUSH0 KECCAK256 SLOAD TIMESTAMP PUSH2 0x1766 SWAP2 SWAP1 PUSH2 0x3329 JUMP JUMPDEST SWAP1 POP PUSH8 0xDE0B6B3A7640000 PUSH1 0x15 SLOAD DUP3 DUP5 PUSH2 0x1780 SWAP2 SWAP1 PUSH2 0x335C JUMP JUMPDEST PUSH2 0x178A SWAP2 SWAP1 PUSH2 0x335C JUMP JUMPDEST PUSH2 0x1794 SWAP2 SWAP1 PUSH2 0x33CA JUMP JUMPDEST SWAP3 POP POP POP SWAP2 SWAP1 POP JUMP JUMPDEST PUSH2 0x17A5 PUSH2 0x21BC JUMP JUMPDEST PUSH0 PUSH20 0xFFFFFFFFFFFFFFFFFFFFFFFFFFFFFFFFFFFFFFFF AND PUSH1 0x8 PUSH0 SWAP1 SLOAD SWAP1 PUSH2 0x100 EXP SWAP1 DIV PUSH20 0xFFFFFFFFFFFFFFFFFFFFFFFFFFFFFFFFFFFFFFFF AND PUSH20 0xFFFFFFFFFFFFFFFFFFFFFFFFFFFFFFFFFFFFFFFF AND SUB PUSH2 0x1834 JUMPI PUSH1 0x40 MLOAD PUSH32 0x8C379A000000000000000000000000000000000000000000000000000000000 DUP2 MSTORE PUSH1 0x4 ADD PUSH2 0x182B SWAP1 PUSH2 0x37F6 JUMP JUMPDEST PUSH1 0x40 MLOAD DUP1 SWAP2 SUB SWAP1 REVERT JUMPDEST PUSH0 PUSH1 0xF PUSH0 CALLER PUSH20 0xFFFFFFFFFFFFFFFFFFFFFFFFFFFFFFFFFFFFFFFF AND PUSH20 0xFFFFFFFFFFFFFFFFFFFFFFFFFFFFFFFFFFFFFFFF AND DUP2 MSTORE PUSH1 0x20 ADD SWAP1 DUP2 MSTORE PUSH1 0x20 ADD PUSH0 KECCAK256 SLOAD SUB PUSH2 0x18BB JUMPI TIMESTAMP PUSH1 0xF PUSH0 CALLER PUSH20 0xFFFFFFFFFFFFFFFFFFFFFFFFFFFFFFFFFFFFFFFF AND PUSH20 0xFFFFFFFFFFFFFFFFFFFFFFFFFFFFFFFFFFFFFFFF AND DUP2 MSTORE PUSH1 0x20 ADD SWAP1 DUP2 MSTORE PUSH1 0x20 ADD PUSH0 KECCAK256 DUP2 SWAP1 SSTORE POP JUMPDEST PUSH2 0x18C4 CALLER PUSH2 0x220B JUMP JUMPDEST PUSH1 0x8 PUSH0 SWAP1 SLOAD SWAP1 PUSH2 0x100 EXP SWAP1 DIV PUSH20 0xFFFFFFFFFFFFFFFFFFFFFFFFFFFFFFFFFFFFFFFF AND PUSH20 0xFFFFFFFFFFFFFFFFFFFFFFFFFFFFFFFFFFFFFFFF AND PUSH4 0x23B872DD CALLER ADDRESS DUP5 PUSH1 0x40 MLOAD DUP5 PUSH4 0xFFFFFFFF AND PUSH1 0xE0 SHL DUP2 MSTORE PUSH1 0x4 ADD PUSH2 0x1922 SWAP4 SWAP3 SWAP2 SWAP1 PUSH2 0x3814 JUMP JUMPDEST PUSH1 0x20 PUSH1 0x40 MLOAD DUP1 DUP4 SUB DUP2 PUSH0 DUP8 GAS CALL ISZERO DUP1 ISZERO PUSH2 0x193E JUMPI RETURNDATASIZE PUSH0 DUP1 RETURNDATACOPY RETURNDATASIZE PUSH0 REVERT JUMPDEST POP POP POP POP PUSH1 0x40 MLOAD RETURNDATASIZE PUSH1 0x1F NOT PUSH1 0x1F DUP3 ADD AND DUP3 ADD DUP1 PUSH1 0x40 MSTORE POP DUP2 ADD SWAP1 PUSH2 0x1962 SWAP2 SWAP1 PUSH2 0x3543 JUMP JUMPDEST POP DUP1 PUSH1 0xE PUSH0 CALLER PUSH20 0xFFFFFFFFFFFFFFFFFFFFFFFFFFFFFFFFFFFFFFFF AND PUSH20 0xFFFFFFFFFFFFFFFFFFFFFFFFFFFFFFFFFFFFFFFF AND DUP2 MSTORE PUSH1 0x20 ADD SWAP1 DUP2 MSTORE PUSH1 0x20 ADD PUSH0 KECCAK256 PUSH0 DUP3 DUP3 SLOAD PUSH2 0x19AF SWAP2 SWAP1 PUSH2 0x33FA JUMP JUMPDEST SWAP3 POP POP DUP2 SWAP1 SSTORE POP PUSH1 0x17 PUSH0 CALLER PUSH20 0xFFFFFFFFFFFFFFFFFFFFFFFFFFFFFFFFFFFFFFFF AND PUSH20 0xFFFFFFFFFFFFFFFFFFFFFFFFFFFFFFFFFFFFFFFF AND DUP2 MSTORE PUSH1 0x20 ADD SWAP1 DUP2 MSTORE PUSH1 0x20 ADD PUSH0 KECCAK256 PUSH0 SWAP1 SLOAD SWAP1 PUSH2 0x100 EXP SWAP1 DIV PUSH1 0xFF AND PUSH2 0x1ABA JUMPI PUSH1 0x16 CALLER SWAP1 DUP1 PUSH1 0x1 DUP2 SLOAD ADD DUP1 DUP3 SSTORE DUP1 SWAP2 POP POP PUSH1 0x1 SWAP1 SUB SWAP1 PUSH0 MSTORE PUSH1 0x20 PUSH0 KECCAK256 ADD PUSH0 SWAP1 SWAP2 SWAP1 SWAP2 SWAP1 SWAP2 PUSH2 0x100 EXP DUP2 SLOAD DUP2 PUSH20 0xFFFFFFFFFFFFFFFFFFFFFFFFFFFFFFFFFFFFFFFF MUL NOT AND SWAP1 DUP4 PUSH20 0xFFFFFFFFFFFFFFFFFFFFFFFFFFFFFFFFFFFFFFFF AND MUL OR SWAP1 SSTORE POP PUSH1 0x1 PUSH1 0x17 PUSH0 CALLER PUSH20 0xFFFFFFFFFFFFFFFFFFFFFFFFFFFFFFFFFFFFFFFF AND PUSH20 0xFFFFFFFFFFFFFFFFFFFFFFFFFFFFFFFFFFFFFFFF AND DUP2 MSTORE PUSH1 0x20 ADD SWAP1 DUP2 MSTORE PUSH1 0x20 ADD PUSH0 KECCAK256 PUSH0 PUSH2 0x100 EXP DUP2 SLOAD DUP2 PUSH1 0xFF MUL NOT AND SWAP1 DUP4 ISZERO ISZERO MUL OR SWAP1 SSTORE POP JUMPDEST CALLER PUSH20 0xFFFFFFFFFFFFFFFFFFFFFFFFFFFFFFFFFFFFFFFF AND PUSH32 0xAC1D76749E5447B7B16F5AB61447E1BD502F3BB4807AF3B28E620D1700A6EE45 DUP3 PUSH0 PUSH1 0x40 MLOAD PUSH2 0x1B02 SWAP3 SWAP2 SWAP1 PUSH2 0x3882 JUMP JUMPDEST PUSH1 0x40 MLOAD DUP1 SWAP2 SUB SWAP1 LOG2 PUSH2 0x1B12 PUSH2 0x22A1 JUMP JUMPDEST POP JUMP JUMPDEST PUSH0 DUP1 PUSH2 0x1B1F PUSH2 0x1FCB JUMP JUMPDEST SWAP1 POP PUSH2 0x1B2C DUP2 DUP6 DUP6 PUSH2 0x2076 JUMP JUMPDEST PUSH1 0x1 SWAP2 POP POP SWAP3 SWAP2 POP POP JUMP JUMPDEST PUSH1 0x9 PUSH0 SWAP1 SLOAD SWAP1 PUSH2 0x100 EXP SWAP1 DIV PUSH20 0xFFFFFFFFFFFFFFFFFFFFFFFFFFFFFFFFFFFFFFFF AND DUP2 JUMP JUMPDEST PUSH1 0x8 PUSH0 SWAP1 SLOAD SWAP1 PUSH2 0x100 EXP SWAP1 DIV PUSH20 0xFFFFFFFFFFFFFFFFFFFFFFFFFFFFFFFFFFFFFFFF AND DUP2 JUMP JUMPDEST PUSH1 0x13 SLOAD DUP2 JUMP JUMPDEST PUSH0 DUP1 PUSH2 0x1B91 PUSH2 0xC6C JUMP JUMPDEST SUB PUSH2 0x1B9E JUMPI PUSH0 SWAP1 POP PUSH2 0x1BF3 JUMP JUMPDEST PUSH2 0x1BA6 PUSH2 0xC6C JUMP JUMPDEST PUSH8 0xDE0B6B3A7640000 PUSH2 0x1BB7 PUSH2 0x1D68 JUMP JUMPDEST PUSH1 0x13 SLOAD TIMESTAMP PUSH2 0x1BC5 SWAP2 SWAP1 PUSH2 0x3329 JUMP JUMPDEST PUSH2 0x1BCF SWAP2 SWAP1 PUSH2 0x335C JUMP JUMPDEST PUSH2 0x1BD9 SWAP2 SWAP1 PUSH2 0x335C JUMP JUMPDEST PUSH2 0x1BE3 SWAP2 SWAP1 PUSH2 0x33CA JUMP JUMPDEST PUSH1 0x14 SLOAD PUSH2 0x1BF0 SWAP2 SWAP1 PUSH2 0x33FA JUMP JUMPDEST SWAP1 POP JUMPDEST SWAP1 JUMP JUMPDEST PUSH2 0x1BFE PUSH2 0x239B JUMP JUMPDEST DUP1 PUSH1 0x8 PUSH0 PUSH2 0x100 EXP DUP2 SLOAD DUP2 PUSH20 0xFFFFFFFFFFFFFFFFFFFFFFFFFFFFFFFFFFFFFFFF MUL NOT AND SWAP1 DUP4 PUSH20 0xFFFFFFFFFFFFFFFFFFFFFFFFFFFFFFFFFFFFFFFF AND MUL OR SWAP1 SSTORE POP POP JUMP JUMPDEST PUSH1 0xC SLOAD DUP2 JUMP JUMPDEST PUSH1 0xD PUSH1 0x20 MSTORE DUP1 PUSH0 MSTORE PUSH1 0x40 PUSH0 KECCAK256 PUSH0 SWAP2 POP SWAP1 POP SLOAD DUP2 JUMP JUMPDEST PUSH0 PUSH1 0x1 PUSH0 DUP5 PUSH20 0xFFFFFFFFFFFFFFFFFFFFFFFFFFFFFFFFFFFFFFFF AND PUSH20 0xFFFFFFFFFFFFFFFFFFFFFFFFFFFFFFFFFFFFFFFF AND DUP2 MSTORE PUSH1 0x20 ADD SWAP1 DUP2 MSTORE PUSH1 0x20 ADD PUSH0 KECCAK256 PUSH0 DUP4 PUSH20 0xFFFFFFFFFFFFFFFFFFFFFFFFFFFFFFFFFFFFFFFF AND PUSH20 0xFFFFFFFFFFFFFFFFFFFFFFFFFFFFFFFFFFFFFFFF AND DUP2 MSTORE PUSH1 0x20 ADD SWAP1 DUP2 MSTORE PUSH1 0x20 ADD PUSH0 KECCAK256 SLOAD SWAP1 POP SWAP3 SWAP2 POP POP JUMP JUMPDEST PUSH1 0x14 SLOAD DUP2 JUMP JUMPDEST PUSH2 0x1CEC PUSH2 0x239B JUMP JUMPDEST PUSH0 PUSH20 0xFFFFFFFFFFFFFFFFFFFFFFFFFFFFFFFFFFFFFFFF AND DUP2 PUSH20 0xFFFFFFFFFFFFFFFFFFFFFFFFFFFFFFFFFFFFFFFF AND SUB PUSH2 0x1D5C JUMPI PUSH0 PUSH1 0x40 MLOAD PUSH32 0x1E4FBDF700000000000000000000000000000000000000000000000000000000 DUP2 MSTORE PUSH1 0x4 ADD PUSH2 0x1D53 SWAP2 SWAP1 PUSH2 0x30F9 JUMP JUMPDEST PUSH1 0x40 MLOAD DUP1 SWAP2 SUB SWAP1 REVERT JUMPDEST PUSH2 0x1D65 DUP2 PUSH2 0x262D JUMP JUMPDEST POP JUMP JUMPDEST PUSH0 DUP1 PUSH1 0xF PUSH0 CALLER PUSH20 0xFFFFFFFFFFFFFFFFFFFFFFFFFFFFFFFFFFFFFFFF AND PUSH20 0xFFFFFFFFFFFFFFFFFFFFFFFFFFFFFFFFFFFFFFFF AND DUP2 MSTORE PUSH1 0x20 ADD SWAP1 DUP2 MSTORE PUSH1 0x20 ADD PUSH0 KECCAK256 SLOAD TIMESTAMP PUSH2 0x1DB3 SWAP2 SWAP1 PUSH2 0x3329 JUMP JUMPDEST SWAP1 POP PUSH3 0x13C680 DUP2 LT ISZERO PUSH2 0x1DE0 JUMPI PUSH3 0x15180 PUSH9 0x56BC75E2D63100000 PUSH2 0x1DD8 SWAP2 SWAP1 PUSH2 0x33CA JUMP JUMPDEST SWAP2 POP POP PUSH2 0x1FB3 JUMP JUMPDEST PUSH3 0x1D0100 DUP2 LT ISZERO PUSH2 0x1E1E JUMPI PUSH3 0x15180 PUSH8 0x8AC7230489E80000 PUSH9 0x56BC75E2D63100000 PUSH2 0x1E0C SWAP2 SWAP1 PUSH2 0x3329 JUMP JUMPDEST PUSH2 0x1E16 SWAP2 SWAP1 PUSH2 0x33CA JUMP JUMPDEST SWAP2 POP POP PUSH2 0x1FB3 JUMP JUMPDEST PUSH3 0x263B80 DUP2 LT ISZERO PUSH2 0x1E5D JUMPI PUSH3 0x15180 PUSH9 0x1158E460913D00000 PUSH9 0x56BC75E2D63100000 PUSH2 0x1E4B SWAP2 SWAP1 PUSH2 0x3329 JUMP JUMPDEST PUSH2 0x1E55 SWAP2 SWAP1 PUSH2 0x33CA JUMP JUMPDEST SWAP2 POP POP PUSH2 0x1FB3 JUMP JUMPDEST PUSH3 0x2F7600 DUP2 LT ISZERO PUSH2 0x1E9C JUMPI PUSH3 0x15180 PUSH9 0x1A055690D9DB80000 PUSH9 0x56BC75E2D63100000 PUSH2 0x1E8A SWAP2 SWAP1 PUSH2 0x3329 JUMP JUMPDEST PUSH2 0x1E94 SWAP2 SWAP1 PUSH2 0x33CA JUMP JUMPDEST SWAP2 POP POP PUSH2 0x1FB3 JUMP JUMPDEST PUSH3 0x38B080 DUP2 LT ISZERO PUSH2 0x1EDB JUMPI PUSH3 0x15180 PUSH9 0x22B1C8C1227A00000 PUSH9 0x56BC75E2D63100000 PUSH2 0x1EC9 SWAP2 SWAP1 PUSH2 0x3329 JUMP JUMPDEST PUSH2 0x1ED3 SWAP2 SWAP1 PUSH2 0x33CA JUMP JUMPDEST SWAP2 POP POP PUSH2 0x1FB3 JUMP JUMPDEST PUSH3 0x41EB00 DUP2 LT ISZERO PUSH2 0x1F1A JUMPI PUSH3 0x15180 PUSH9 0x2B5E3AF16B1880000 PUSH9 0x56BC75E2D63100000 PUSH2 0x1F08 SWAP2 SWAP1 PUSH2 0x3329 JUMP JUMPDEST PUSH2 0x1F12 SWAP2 SWAP1 PUSH2 0x33CA JUMP JUMPDEST SWAP2 POP POP PUSH2 0x1FB3 JUMP JUMPDEST PUSH3 0x4B2580 DUP2 LT ISZERO PUSH2 0x1F59 JUMPI PUSH3 0x15180 PUSH9 0x340AAD21B3B700000 PUSH9 0x56BC75E2D63100000 PUSH2 0x1F47 SWAP2 SWAP1 PUSH2 0x3329 JUMP JUMPDEST PUSH2 0x1F51 SWAP2 SWAP1 PUSH2 0x33CA JUMP JUMPDEST SWAP2 POP POP PUSH2 0x1FB3 JUMP JUMPDEST PUSH3 0x546000 DUP2 LT ISZERO PUSH2 0x1F98 JUMPI PUSH3 0x15180 PUSH9 0x3CB71F51FC5580000 PUSH9 0x56BC75E2D63100000 PUSH2 0x1F86 SWAP2 SWAP1 PUSH2 0x3329 JUMP JUMPDEST PUSH2 0x1F90 SWAP2 SWAP1 PUSH2 0x33CA JUMP JUMPDEST SWAP2 POP POP PUSH2 0x1FB3 JUMP JUMPDEST PUSH3 0x15180 PUSH8 0x8AC7230489E80000 PUSH2 0x1FAF SWAP2 SWAP1 PUSH2 0x33CA JUMP JUMPDEST SWAP2 POP POP JUMPDEST SWAP1 JUMP JUMPDEST PUSH1 0x12 PUSH1 0x20 MSTORE DUP1 PUSH0 MSTORE PUSH1 0x40 PUSH0 KECCAK256 PUSH0 SWAP2 POP SWAP1 POP SLOAD DUP2 JUMP JUMPDEST PUSH0 CALLER SWAP1 POP SWAP1 JUMP JUMPDEST PUSH2 0x1FDF DUP4 DUP4 DUP4 PUSH1 0x1 PUSH2 0x26F0 JUMP JUMPDEST POP POP POP JUMP JUMPDEST PUSH0 PUSH2 0x1FEF DUP5 DUP5 PUSH2 0x1C5C JUMP JUMPDEST SWAP1 POP PUSH32 0xFFFFFFFFFFFFFFFFFFFFFFFFFFFFFFFFFFFFFFFFFFFFFFFFFFFFFFFFFFFFFFFF DUP2 EQ PUSH2 0x2070 JUMPI DUP2 DUP2 LT ISZERO PUSH2 0x2061 JUMPI DUP3 DUP2 DUP4 PUSH1 0x40 MLOAD PUSH32 0xFB8F41B200000000000000000000000000000000000000000000000000000000 DUP2 MSTORE PUSH1 0x4 ADD PUSH2 0x2058 SWAP4 SWAP3 SWAP2 SWAP1 PUSH2 0x38A9 JUMP JUMPDEST PUSH1 0x40 MLOAD DUP1 SWAP2 SUB SWAP1 REVERT JUMPDEST PUSH2 0x206F DUP5 DUP5 DUP5 DUP5 SUB PUSH0 PUSH2 0x26F0 JUMP JUMPDEST JUMPDEST POP POP POP POP JUMP JUMPDEST PUSH0 DUP1 PUSH0 PUSH1 0x17 PUSH0 DUP8 PUSH20 0xFFFFFFFFFFFFFFFFFFFFFFFFFFFFFFFFFFFFFFFF AND PUSH20 0xFFFFFFFFFFFFFFFFFFFFFFFFFFFFFFFFFFFFFFFF AND DUP2 MSTORE PUSH1 0x20 ADD SWAP1 DUP2 MSTORE PUSH1 0x20 ADD PUSH0 KECCAK256 PUSH0 SWAP1 SLOAD SWAP1 PUSH2 0x100 EXP SWAP1 DIV PUSH1 0xFF AND ISZERO PUSH2 0x20EF JUMPI PUSH1 0x64 PUSH1 0xC SLOAD DUP6 PUSH2 0x20D8 SWAP2 SWAP1 PUSH2 0x335C JUMP JUMPDEST PUSH2 0x20E2 SWAP2 SWAP1 PUSH2 0x33CA JUMP JUMPDEST SWAP3 POP DUP3 SWAP1 POP PUSH0 SWAP2 POP PUSH2 0x2135 JUMP JUMPDEST PUSH1 0x64 PUSH1 0xB SLOAD DUP6 PUSH2 0x20FF SWAP2 SWAP1 PUSH2 0x335C JUMP JUMPDEST PUSH2 0x2109 SWAP2 SWAP1 PUSH2 0x33CA JUMP JUMPDEST SWAP3 POP PUSH1 0x64 PUSH1 0x4B DUP5 PUSH2 0x211A SWAP2 SWAP1 PUSH2 0x335C JUMP JUMPDEST PUSH2 0x2124 SWAP2 SWAP1 PUSH2 0x33CA JUMP JUMPDEST SWAP2 POP DUP2 DUP4 PUSH2 0x2132 SWAP2 SWAP1 PUSH2 0x3329 JUMP JUMPDEST SWAP1 POP JUMPDEST PUSH0 DUP4 DUP6 PUSH2 0x2142 SWAP2 SWAP1 PUSH2 0x3329 JUMP JUMPDEST SWAP1 POP PUSH0 DUP4 GT ISZERO PUSH2 0x2161 JUMPI PUSH2 0x2157 DUP8 ADDRESS DUP6 PUSH2 0x22AB JUMP JUMPDEST PUSH2 0x2160 DUP4 PUSH2 0x28BF JUMP JUMPDEST JUMPDEST PUSH0 DUP3 GT ISZERO PUSH2 0x2196 JUMPI PUSH2 0x2195 DUP8 PUSH1 0x9 PUSH0 SWAP1 SLOAD SWAP1 PUSH2 0x100 EXP SWAP1 DIV PUSH20 0xFFFFFFFFFFFFFFFFFFFFFFFFFFFFFFFFFFFFFFFF AND DUP5 PUSH2 0x22AB JUMP JUMPDEST JUMPDEST PUSH2 0x21A1 DUP8 DUP8 DUP4 PUSH2 0x22AB JUMP JUMPDEST PUSH2 0x21AA DUP8 PUSH2 0x2AE6 JUMP JUMPDEST PUSH2 0x21B3 DUP7 PUSH2 0x2AE6 JUMP JUMPDEST POP POP POP POP POP POP POP JUMP JUMPDEST PUSH1 0x2 PUSH1 0x5 SLOAD SUB PUSH2 0x2201 JUMPI PUSH1 0x40 MLOAD PUSH32 0x8C379A000000000000000000000000000000000000000000000000000000000 DUP2 MSTORE PUSH1 0x4 ADD PUSH2 0x21F8 SWAP1 PUSH2 0x3928 JUMP JUMPDEST PUSH1 0x40 MLOAD DUP1 SWAP2 SUB SWAP1 REVERT JUMPDEST PUSH1 0x2 PUSH1 0x5 DUP2 SWAP1 SSTORE POP JUMP JUMPDEST PUSH2 0x2213 PUSH2 0x1B87 JUMP JUMPDEST PUSH1 0x14 DUP2 SWAP1 SSTORE POP TIMESTAMP PUSH1 0x13 DUP2 SWAP1 SSTORE POP PUSH0 PUSH20 0xFFFFFFFFFFFFFFFFFFFFFFFFFFFFFFFFFFFFFFFF AND DUP2 PUSH20 0xFFFFFFFFFFFFFFFFFFFFFFFFFFFFFFFFFFFFFFFF AND EQ PUSH2 0x229E JUMPI PUSH2 0x225C DUP2 PUSH2 0xA3D JUMP JUMPDEST PUSH1 0xE PUSH0 DUP4 PUSH20 0xFFFFFFFFFFFFFFFFFFFFFFFFFFFFFFFFFFFFFFFF AND PUSH20 0xFFFFFFFFFFFFFFFFFFFFFFFFFFFFFFFFFFFFFFFF AND DUP2 MSTORE PUSH1 0x20 ADD SWAP1 DUP2 MSTORE PUSH1 0x20 ADD PUSH0 KECCAK256 DUP2 SWAP1 SSTORE POP JUMPDEST POP JUMP JUMPDEST PUSH1 0x1 PUSH1 0x5 DUP2 SWAP1 SSTORE POP JUMP JUMPDEST PUSH0 PUSH20 0xFFFFFFFFFFFFFFFFFFFFFFFFFFFFFFFFFFFFFFFF AND DUP4 PUSH20 0xFFFFFFFFFFFFFFFFFFFFFFFFFFFFFFFFFFFFFFFF AND SUB PUSH2 0x231B JUMPI PUSH0 PUSH1 0x40 MLOAD PUSH32 0x96C6FD1E00000000000000000000000000000000000000000000000000000000 DUP2 MSTORE PUSH1 0x4 ADD PUSH2 0x2312 SWAP2 SWAP1 PUSH2 0x30F9 JUMP JUMPDEST PUSH1 0x40 MLOAD DUP1 SWAP2 SUB SWAP1 REVERT JUMPDEST PUSH0 PUSH20 0xFFFFFFFFFFFFFFFFFFFFFFFFFFFFFFFFFFFFFFFF AND DUP3 PUSH20 0xFFFFFFFFFFFFFFFFFFFFFFFFFFFFFFFFFFFFFFFF AND SUB PUSH2 0x238B JUMPI PUSH0 PUSH1 0x40 MLOAD PUSH32 0xEC442F0500000000000000000000000000000000000000000000000000000000 DUP2 MSTORE PUSH1 0x4 ADD PUSH2 0x2382 SWAP2 SWAP1 PUSH2 0x30F9 JUMP JUMPDEST PUSH1 0x40 MLOAD DUP1 SWAP2 SUB SWAP1 REVERT JUMPDEST PUSH2 0x2396 DUP4 DUP4 DUP4 PUSH2 0x2B52 JUMP JUMPDEST POP POP POP JUMP JUMPDEST PUSH2 0x23A3 PUSH2 0x1FCB JUMP JUMPDEST PUSH20 0xFFFFFFFFFFFFFFFFFFFFFFFFFFFFFFFFFFFFFFFF AND PUSH2 0x23C1 PUSH2 0x156F JUMP JUMPDEST PUSH20 0xFFFFFFFFFFFFFFFFFFFFFFFFFFFFFFFFFFFFFFFF AND EQ PUSH2 0x2420 JUMPI PUSH2 0x23E4 PUSH2 0x1FCB JUMP JUMPDEST PUSH1 0x40 MLOAD PUSH32 0x118CDAA700000000000000000000000000000000000000000000000000000000 DUP2 MSTORE PUSH1 0x4 ADD PUSH2 0x2417 SWAP2 SWAP1 PUSH2 0x30F9 JUMP JUMPDEST PUSH1 0x40 MLOAD DUP1 SWAP2 SUB SWAP1 REVERT JUMPDEST JUMP JUMPDEST PUSH0 PUSH20 0xFFFFFFFFFFFFFFFFFFFFFFFFFFFFFFFFFFFFFFFF AND DUP5 PUSH20 0xFFFFFFFFFFFFFFFFFFFFFFFFFFFFFFFFFFFFFFFF AND SUB PUSH2 0x2490 JUMPI PUSH1 0x40 MLOAD PUSH32 0x8C379A000000000000000000000000000000000000000000000000000000000 DUP2 MSTORE PUSH1 0x4 ADD PUSH2 0x2487 SWAP1 PUSH2 0x3990 JUMP JUMPDEST PUSH1 0x40 MLOAD DUP1 SWAP2 SUB SWAP1 REVERT JUMPDEST PUSH0 DUP4 GT PUSH2 0x24D2 JUMPI PUSH1 0x40 MLOAD PUSH32 0x8C379A000000000000000000000000000000000000000000000000000000000 DUP2 MSTORE PUSH1 0x4 ADD PUSH2 0x24C9 SWAP1 PUSH2 0x39F8 JUMP JUMPDEST PUSH1 0x40 MLOAD DUP1 SWAP2 SUB SWAP1 REVERT JUMPDEST PUSH0 PUSH1 0x10 PUSH0 DUP7 PUSH20 0xFFFFFFFFFFFFFFFFFFFFFFFFFFFFFFFFFFFFFFFF AND PUSH20 0xFFFFFFFFFFFFFFFFFFFFFFFFFFFFFFFFFFFFFFFF AND DUP2 MSTORE PUSH1 0x20 ADD SWAP1 DUP2 MSTORE PUSH1 0x20 ADD PUSH0 KECCAK256 SLOAD EQ PUSH2 0x2551 JUMPI PUSH1 0x40 MLOAD PUSH32 0x8C379A000000000000000000000000000000000000000000000000000000000 DUP2 MSTORE PUSH1 0x4 ADD PUSH2 0x2548 SWAP1 PUSH2 0x3A60 JUMP JUMPDEST PUSH1 0x40 MLOAD DUP1 SWAP2 SUB SWAP1 REVERT JUMPDEST DUP3 PUSH1 0x11 PUSH0 DUP7 PUSH20 0xFFFFFFFFFFFFFFFFFFFFFFFFFFFFFFFFFFFFFFFF AND PUSH20 0xFFFFFFFFFFFFFFFFFFFFFFFFFFFFFFFFFFFFFFFF AND DUP2 MSTORE PUSH1 0x20 ADD SWAP1 DUP2 MSTORE PUSH1 0x20 ADD PUSH0 KECCAK256 DUP2 SWAP1 SSTORE POP DUP2 PUSH1 0x10 PUSH0 DUP7 PUSH20 0xFFFFFFFFFFFFFFFFFFFFFFFFFFFFFFFFFFFFFFFF AND PUSH20 0xFFFFFFFFFFFFFFFFFFFFFFFFFFFFFFFFFFFFFFFF AND DUP2 MSTORE PUSH1 0x20 ADD SWAP1 DUP2 MSTORE PUSH1 0x20 ADD PUSH0 KECCAK256 DUP2 SWAP1 SSTORE POP DUP4 PUSH20 0xFFFFFFFFFFFFFFFFFFFFFFFFFFFFFFFFFFFFFFFF AND PUSH32 0xCF204CE1B55772BFA423F3F0C5D9A2CFE3197A5110073875F0B9C7DD3538C7D6 DUP5 DUP5 DUP5 PUSH1 0x40 MLOAD PUSH2 0x261F SWAP4 SWAP3 SWAP2 SWAP1 PUSH2 0x3A7E JUMP JUMPDEST PUSH1 0x40 MLOAD DUP1 SWAP2 SUB SWAP1 LOG2 POP POP POP POP JUMP JUMPDEST PUSH0 PUSH1 0x6 PUSH0 SWAP1 SLOAD SWAP1 PUSH2 0x100 EXP SWAP1 DIV PUSH20 0xFFFFFFFFFFFFFFFFFFFFFFFFFFFFFFFFFFFFFFFF AND SWAP1 POP DUP2 PUSH1 0x6 PUSH0 PUSH2 0x100 EXP DUP2 SLOAD DUP2 PUSH20 0xFFFFFFFFFFFFFFFFFFFFFFFFFFFFFFFFFFFFFFFF MUL NOT AND SWAP1 DUP4 PUSH20 0xFFFFFFFFFFFFFFFFFFFFFFFFFFFFFFFFFFFFFFFF AND MUL OR SWAP1 SSTORE POP DUP2 PUSH20 0xFFFFFFFFFFFFFFFFFFFFFFFFFFFFFFFFFFFFFFFF AND DUP2 PUSH20 0xFFFFFFFFFFFFFFFFFFFFFFFFFFFFFFFFFFFFFFFF AND PUSH32 0x8BE0079C531659141344CD1FD0A4F28419497F9722A3DAAFE3B4186F6B6457E0 PUSH1 0x40 MLOAD PUSH1 0x40 MLOAD DUP1 SWAP2 SUB SWAP1 LOG3 POP POP JUMP JUMPDEST PUSH0 PUSH20 0xFFFFFFFFFFFFFFFFFFFFFFFFFFFFFFFFFFFFFFFF AND DUP5 PUSH20 0xFFFFFFFFFFFFFFFFFFFFFFFFFFFFFFFFFFFFFFFF AND SUB PUSH2 0x2760 JUMPI PUSH0 PUSH1 0x40 MLOAD PUSH32 0xE602DF0500000000000000000000000000000000000000000000000000000000 DUP2 MSTORE PUSH1 0x4 ADD PUSH2 0x2757 SWAP2 SWAP1 PUSH2 0x30F9 JUMP JUMPDEST PUSH1 0x40 MLOAD DUP1 SWAP2 SUB SWAP1 REVERT JUMPDEST PUSH0 PUSH20 0xFFFFFFFFFFFFFFFFFFFFFFFFFFFFFFFFFFFFFFFF AND DUP4 PUSH20 0xFFFFFFFFFFFFFFFFFFFFFFFFFFFFFFFFFFFFFFFF AND SUB PUSH2 0x27D0 JUMPI PUSH0 PUSH1 0x40 MLOAD PUSH32 0x94280D6200000000000000000000000000000000000000000000000000000000 DUP2 MSTORE PUSH1 0x4 ADD PUSH2 0x27C7 SWAP2 SWAP1 PUSH2 0x30F9 JUMP JUMPDEST PUSH1 0x40 MLOAD DUP1 SWAP2 SUB SWAP1 REVERT JUMPDEST DUP2 PUSH1 0x1 PUSH0 DUP7 PUSH20 0xFFFFFFFFFFFFFFFFFFFFFFFFFFFFFFFFFFFFFFFF AND PUSH20 0xFFFFFFFFFFFFFFFFFFFFFFFFFFFFFFFFFFFFFFFF AND DUP2 MSTORE PUSH1 0x20 ADD SWAP1 DUP2 MSTORE PUSH1 0x20 ADD PUSH0 KECCAK256 PUSH0 DUP6 PUSH20 0xFFFFFFFFFFFFFFFFFFFFFFFFFFFFFFFFFFFFFFFF AND PUSH20 0xFFFFFFFFFFFFFFFFFFFFFFFFFFFFFFFFFFFFFFFF AND DUP2 MSTORE PUSH1 0x20 ADD SWAP1 DUP2 MSTORE PUSH1 0x20 ADD PUSH0 KECCAK256 DUP2 SWAP1 SSTORE POP DUP1 ISZERO PUSH2 0x28B9 JUMPI DUP3 PUSH20 0xFFFFFFFFFFFFFFFFFFFFFFFFFFFFFFFFFFFFFFFF AND DUP5 PUSH20 0xFFFFFFFFFFFFFFFFFFFFFFFFFFFFFFFFFFFFFFFF AND PUSH32 0x8C5BE1E5EBEC7D5BD14F71427D1E84F3DD0314C0F7B2291E5B200AC8C7C3B925 DUP5 PUSH1 0x40 MLOAD PUSH2 0x28B0 SWAP2 SWAP1 PUSH2 0x2F8C JUMP JUMPDEST PUSH1 0x40 MLOAD DUP1 SWAP2 SUB SWAP1 LOG3 JUMPDEST POP POP POP POP JUMP JUMPDEST PUSH0 PUSH1 0x2 DUP3 PUSH2 0x28CD SWAP2 SWAP1 PUSH2 0x33CA JUMP JUMPDEST SWAP1 POP PUSH0 DUP2 DUP4 PUSH2 0x28DC SWAP2 SWAP1 PUSH2 0x3329 JUMP JUMPDEST SWAP1 POP PUSH0 SELFBALANCE SWAP1 POP PUSH2 0x290E ADDRESS PUSH1 0x7 PUSH0 SWAP1 SLOAD SWAP1 PUSH2 0x100 EXP SWAP1 DIV PUSH20 0xFFFFFFFFFFFFFFFFFFFFFFFFFFFFFFFFFFFFFFFF AND DUP6 PUSH2 0x1FD2 JUMP JUMPDEST PUSH1 0x7 PUSH0 SWAP1 SLOAD SWAP1 PUSH2 0x100 EXP SWAP1 DIV PUSH20 0xFFFFFFFFFFFFFFFFFFFFFFFFFFFFFFFFFFFFFFFF AND PUSH20 0xFFFFFFFFFFFFFFFFFFFFFFFFFFFFFFFFFFFFFFFF AND PUSH4 0x791AC947 DUP5 PUSH0 PUSH2 0x2955 PUSH2 0x2D6B JUMP JUMPDEST ADDRESS TIMESTAMP PUSH1 0x40 MLOAD DUP7 PUSH4 0xFFFFFFFF AND PUSH1 0xE0 SHL DUP2 MSTORE PUSH1 0x4 ADD PUSH2 0x2977 SWAP6 SWAP5 SWAP4 SWAP3 SWAP2 SWAP1 PUSH2 0x3B6A JUMP JUMPDEST PUSH0 PUSH1 0x40 MLOAD DUP1 DUP4 SUB DUP2 PUSH0 DUP8 DUP1 EXTCODESIZE ISZERO DUP1 ISZERO PUSH2 0x298E JUMPI PUSH0 DUP1 REVERT JUMPDEST POP GAS CALL ISZERO DUP1 ISZERO PUSH2 0x29A0 JUMPI RETURNDATASIZE PUSH0 DUP1 RETURNDATACOPY RETURNDATASIZE PUSH0 REVERT JUMPDEST POP POP POP POP PUSH0 DUP2 SELFBALANCE PUSH2 0x29B1 SWAP2 SWAP1 PUSH2 0x3329 JUMP JUMPDEST SWAP1 POP PUSH2 0x29DF ADDRESS PUSH1 0x7 PUSH0 SWAP1 SLOAD SWAP1 PUSH2 0x100 EXP SWAP1 DIV PUSH20 0xFFFFFFFFFFFFFFFFFFFFFFFFFFFFFFFFFFFFFFFF AND DUP6 PUSH2 0x1FD2 JUMP JUMPDEST PUSH1 0x7 PUSH0 SWAP1 SLOAD SWAP1 PUSH2 0x100 EXP SWAP1 DIV PUSH20 0xFFFFFFFFFFFFFFFFFFFFFFFFFFFFFFFFFFFFFFFF AND PUSH20 0xFFFFFFFFFFFFFFFFFFFFFFFFFFFFFFFFFFFFFFFF AND PUSH4 0xF305D719 DUP3 ADDRESS DUP7 PUSH0 DUP1 PUSH2 0x2A29 PUSH2 0x156F JUMP JUMPDEST TIMESTAMP PUSH1 0x40 MLOAD DUP9 PUSH4 0xFFFFFFFF AND PUSH1 0xE0 SHL DUP2 MSTORE PUSH1 0x4 ADD PUSH2 0x2A4B SWAP7 SWAP6 SWAP5 SWAP4 SWAP3 SWAP2 SWAP1 PUSH2 0x3BC2 JUMP JUMPDEST PUSH1 0x60 PUSH1 0x40 MLOAD DUP1 DUP4 SUB DUP2 DUP6 DUP9 GAS CALL ISZERO DUP1 ISZERO PUSH2 0x2A67 JUMPI RETURNDATASIZE PUSH0 DUP1 RETURNDATACOPY RETURNDATASIZE PUSH0 REVERT JUMPDEST POP POP POP POP POP PUSH1 0x40 MLOAD RETURNDATASIZE PUSH1 0x1F NOT PUSH1 0x1F DUP3 ADD AND DUP3 ADD DUP1 PUSH1 0x40 MSTORE POP DUP2 ADD SWAP1 PUSH2 0x2A8C SWAP2 SWAP1 PUSH2 0x3C21 JUMP JUMPDEST POP POP POP ADDRESS PUSH20 0xFFFFFFFFFFFFFFFFFFFFFFFFFFFFFFFFFFFFFFFF AND PUSH32 0xAC1D76749E5447B7B16F5AB61447E1BD502F3BB4807AF3B28E620D1700A6EE45 DUP5 DUP4 PUSH1 0x40 MLOAD PUSH2 0x2AD7 SWAP3 SWAP2 SWAP1 PUSH2 0x3C71 JUMP JUMPDEST PUSH1 0x40 MLOAD DUP1 SWAP2 SUB SWAP1 LOG2 POP POP POP POP POP JUMP JUMPDEST PUSH0 PUSH2 0x2AF0 DUP3 PUSH2 0x167F JUMP JUMPDEST SWAP1 POP PUSH0 DUP2 GT ISZERO PUSH2 0x2B4E JUMPI DUP1 PUSH1 0x12 PUSH0 DUP5 PUSH20 0xFFFFFFFFFFFFFFFFFFFFFFFFFFFFFFFFFFFFFFFF AND PUSH20 0xFFFFFFFFFFFFFFFFFFFFFFFFFFFFFFFFFFFFFFFF AND DUP2 MSTORE PUSH1 0x20 ADD SWAP1 DUP2 MSTORE PUSH1 0x20 ADD PUSH0 KECCAK256 PUSH0 DUP3 DUP3 SLOAD PUSH2 0x2B46 SWAP2 SWAP1 PUSH2 0x33FA JUMP JUMPDEST SWAP3 POP POP DUP2 SWAP1 SSTORE POP JUMPDEST POP POP JUMP JUMPDEST PUSH0 PUSH20 0xFFFFFFFFFFFFFFFFFFFFFFFFFFFFFFFFFFFFFFFF AND DUP4 PUSH20 0xFFFFFFFFFFFFFFFFFFFFFFFFFFFFFFFFFFFFFFFF AND SUB PUSH2 0x2BA2 JUMPI DUP1 PUSH1 0x2 PUSH0 DUP3 DUP3 SLOAD PUSH2 0x2B96 SWAP2 SWAP1 PUSH2 0x33FA JUMP JUMPDEST SWAP3 POP POP DUP2 SWAP1 SSTORE POP PUSH2 0x2C70 JUMP JUMPDEST PUSH0 DUP1 PUSH0 DUP6 PUSH20 0xFFFFFFFFFFFFFFFFFFFFFFFFFFFFFFFFFFFFFFFF AND PUSH20 0xFFFFFFFFFFFFFFFFFFFFFFFFFFFFFFFFFFFFFFFF AND DUP2 MSTORE PUSH1 0x20 ADD SWAP1 DUP2 MSTORE PUSH1 0x20 ADD PUSH0 KECCAK256 SLOAD SWAP1 POP DUP2 DUP2 LT ISZERO PUSH2 0x2C2B JUMPI DUP4 DUP2 DUP4 PUSH1 0x40 MLOAD PUSH32 0xE450D38C00000000000000000000000000000000000000000000000000000000 DUP2 MSTORE PUSH1 0x4 ADD PUSH2 0x2C22 SWAP4 SWAP3 SWAP2 SWAP1 PUSH2 0x38A9 JUMP JUMPDEST PUSH1 0x40 MLOAD DUP1 SWAP2 SUB SWAP1 REVERT JUMPDEST DUP2 DUP2 SUB PUSH0 DUP1 DUP7 PUSH20 0xFFFFFFFFFFFFFFFFFFFFFFFFFFFFFFFFFFFFFFFF AND PUSH20 0xFFFFFFFFFFFFFFFFFFFFFFFFFFFFFFFFFFFFFFFF AND DUP2 MSTORE PUSH1 0x20 ADD SWAP1 DUP2 MSTORE PUSH1 0x20 ADD PUSH0 KECCAK256 DUP2 SWAP1 SSTORE POP POP JUMPDEST PUSH0 PUSH20 0xFFFFFFFFFFFFFFFFFFFFFFFFFFFFFFFFFFFFFFFF AND DUP3 PUSH20 0xFFFFFFFFFFFFFFFFFFFFFFFFFFFFFFFFFFFFFFFF AND SUB PUSH2 0x2CB7 JUMPI DUP1 PUSH1 0x2 PUSH0 DUP3 DUP3 SLOAD SUB SWAP3 POP POP DUP2 SWAP1 SSTORE POP PUSH2 0x2D01 JUMP JUMPDEST DUP1 PUSH0 DUP1 DUP5 PUSH20 0xFFFFFFFFFFFFFFFFFFFFFFFFFFFFFFFFFFFFFFFF AND PUSH20 0xFFFFFFFFFFFFFFFFFFFFFFFFFFFFFFFFFFFFFFFF AND DUP2 MSTORE PUSH1 0x20 ADD SWAP1 DUP2 MSTORE PUSH1 0x20 ADD PUSH0 KECCAK256 PUSH0 DUP3 DUP3 SLOAD ADD SWAP3 POP POP DUP2 SWAP1 SSTORE POP JUMPDEST DUP2 PUSH20 0xFFFFFFFFFFFFFFFFFFFFFFFFFFFFFFFFFFFFFFFF AND DUP4 PUSH20 0xFFFFFFFFFFFFFFFFFFFFFFFFFFFFFFFFFFFFFFFF AND PUSH32 0xDDF252AD1BE2C89B69C2B068FC378DAA952BA7F163C4A11628F55A4DF523B3EF DUP4 PUSH1 0x40 MLOAD PUSH2 0x2D5E SWAP2 SWAP1 PUSH2 0x2F8C JUMP JUMPDEST PUSH1 0x40 MLOAD DUP1 SWAP2 SUB SWAP1 LOG3 POP POP POP JUMP JUMPDEST PUSH1 0x60 PUSH0 PUSH1 0x2 PUSH8 0xFFFFFFFFFFFFFFFF DUP2 GT ISZERO PUSH2 0x2D89 JUMPI PUSH2 0x2D88 PUSH2 0x3C98 JUMP JUMPDEST JUMPDEST PUSH1 0x40 MLOAD SWAP1 DUP1 DUP3 MSTORE DUP1 PUSH1 0x20 MUL PUSH1 0x20 ADD DUP3 ADD PUSH1 0x40 MSTORE DUP1 ISZERO PUSH2 0x2DB7 JUMPI DUP2 PUSH1 0x20 ADD PUSH1 0x20 DUP3 MUL DUP1 CALLDATASIZE DUP4 CALLDATACOPY DUP1 DUP3 ADD SWAP2 POP POP SWAP1 POP JUMPDEST POP SWAP1 POP ADDRESS DUP2 PUSH0 DUP2 MLOAD DUP2 LT PUSH2 0x2DCE JUMPI PUSH2 0x2DCD PUSH2 0x356E JUMP JUMPDEST JUMPDEST PUSH1 0x20 MUL PUSH1 0x20 ADD ADD SWAP1 PUSH20 0xFFFFFFFFFFFFFFFFFFFFFFFFFFFFFFFFFFFFFFFF AND SWAP1 DUP2 PUSH20 0xFFFFFFFFFFFFFFFFFFFFFFFFFFFFFFFFFFFFFFFF AND DUP2 MSTORE POP POP PUSH1 0x7 PUSH0 SWAP1 SLOAD SWAP1 PUSH2 0x100 EXP SWAP1 DIV PUSH20 0xFFFFFFFFFFFFFFFFFFFFFFFFFFFFFFFFFFFFFFFF AND PUSH20 0xFFFFFFFFFFFFFFFFFFFFFFFFFFFFFFFFFFFFFFFF AND PUSH4 0xAD5C4648 PUSH1 0x40 MLOAD DUP2 PUSH4 0xFFFFFFFF AND PUSH1 0xE0 SHL DUP2 MSTORE PUSH1 0x4 ADD PUSH1 0x20 PUSH1 0x40 MLOAD DUP1 DUP4 SUB DUP2 DUP7 GAS STATICCALL ISZERO DUP1 ISZERO PUSH2 0x2E72 JUMPI RETURNDATASIZE PUSH0 DUP1 RETURNDATACOPY RETURNDATASIZE PUSH0 REVERT JUMPDEST POP POP POP POP PUSH1 0x40 MLOAD RETURNDATASIZE PUSH1 0x1F NOT PUSH1 0x1F DUP3 ADD AND DUP3 ADD DUP1 PUSH1 0x40 MSTORE POP DUP2 ADD SWAP1 PUSH2 0x2E96 SWAP2 SWAP1 PUSH2 0x3CD9 JUMP JUMPDEST DUP2 PUSH1 0x1 DUP2 MLOAD DUP2 LT PUSH2 0x2EAA JUMPI PUSH2 0x2EA9 PUSH2 0x356E JUMP JUMPDEST JUMPDEST PUSH1 0x20 MUL PUSH1 0x20 ADD ADD SWAP1 PUSH20 0xFFFFFFFFFFFFFFFFFFFFFFFFFFFFFFFFFFFFFFFF AND SWAP1 DUP2 PUSH20 0xFFFFFFFFFFFFFFFFFFFFFFFFFFFFFFFFFFFFFFFF AND DUP2 MSTORE POP POP DUP1 SWAP2 POP POP SWAP1 JUMP JUMPDEST PUSH0 DUP1 REVERT JUMPDEST PUSH0 PUSH20 0xFFFFFFFFFFFFFFFFFFFFFFFFFFFFFFFFFFFFFFFF DUP3 AND SWAP1 POP SWAP2 SWAP1 POP JUMP JUMPDEST PUSH0 PUSH2 0x2F18 DUP3 PUSH2 0x2EEF JUMP JUMPDEST SWAP1 POP SWAP2 SWAP1 POP JUMP JUMPDEST PUSH2 0x2F28 DUP2 PUSH2 0x2F0E JUMP JUMPDEST DUP2 EQ PUSH2 0x2F32 JUMPI PUSH0 DUP1 REVERT JUMPDEST POP JUMP JUMPDEST PUSH0 DUP2 CALLDATALOAD SWAP1 POP PUSH2 0x2F43 DUP2 PUSH2 0x2F1F JUMP JUMPDEST SWAP3 SWAP2 POP POP JUMP JUMPDEST PUSH0 PUSH1 0x20 DUP3 DUP5 SUB SLT ISZERO PUSH2 0x2F5E JUMPI PUSH2 0x2F5D PUSH2 0x2EEB JUMP JUMPDEST JUMPDEST PUSH0 PUSH2 0x2F6B DUP5 DUP3 DUP6 ADD PUSH2 0x2F35 JUMP JUMPDEST SWAP2 POP POP SWAP3 SWAP2 POP POP JUMP JUMPDEST PUSH0 DUP2 SWAP1 POP SWAP2 SWAP1 POP JUMP JUMPDEST PUSH2 0x2F86 DUP2 PUSH2 0x2F74 JUMP JUMPDEST DUP3 MSTORE POP POP JUMP JUMPDEST PUSH0 PUSH1 0x20 DUP3 ADD SWAP1 POP PUSH2 0x2F9F PUSH0 DUP4 ADD DUP5 PUSH2 0x2F7D JUMP JUMPDEST SWAP3 SWAP2 POP POP JUMP JUMPDEST PUSH0 DUP2 MLOAD SWAP1 POP SWAP2 SWAP1 POP JUMP JUMPDEST PUSH0 DUP3 DUP3 MSTORE PUSH1 0x20 DUP3 ADD SWAP1 POP SWAP3 SWAP2 POP POP JUMP JUMPDEST PUSH0 JUMPDEST DUP4 DUP2 LT ISZERO PUSH2 0x2FDC JUMPI DUP1 DUP3 ADD MLOAD DUP2 DUP5 ADD MSTORE PUSH1 0x20 DUP2 ADD SWAP1 POP PUSH2 0x2FC1 JUMP JUMPDEST PUSH0 DUP5 DUP5 ADD MSTORE POP POP POP POP JUMP JUMPDEST PUSH0 PUSH1 0x1F NOT PUSH1 0x1F DUP4 ADD AND SWAP1 POP SWAP2 SWAP1 POP JUMP JUMPDEST PUSH0 PUSH2 0x3001 DUP3 PUSH2 0x2FA5 JUMP JUMPDEST PUSH2 0x300B DUP2 DUP6 PUSH2 0x2FAF JUMP JUMPDEST SWAP4 POP PUSH2 0x301B DUP2 DUP6 PUSH1 0x20 DUP7 ADD PUSH2 0x2FBF JUMP JUMPDEST PUSH2 0x3024 DUP2 PUSH2 0x2FE7 JUMP JUMPDEST DUP5 ADD SWAP2 POP POP SWAP3 SWAP2 POP POP JUMP JUMPDEST PUSH0 PUSH1 0x20 DUP3 ADD SWAP1 POP DUP2 DUP2 SUB PUSH0 DUP4 ADD MSTORE PUSH2 0x3047 DUP2 DUP5 PUSH2 0x2FF7 JUMP JUMPDEST SWAP1 POP SWAP3 SWAP2 POP POP JUMP JUMPDEST PUSH2 0x3058 DUP2 PUSH2 0x2F74 JUMP JUMPDEST DUP2 EQ PUSH2 0x3062 JUMPI PUSH0 DUP1 REVERT JUMPDEST POP JUMP JUMPDEST PUSH0 DUP2 CALLDATALOAD SWAP1 POP PUSH2 0x3073 DUP2 PUSH2 0x304F JUMP JUMPDEST SWAP3 SWAP2 POP POP JUMP JUMPDEST PUSH0 DUP1 PUSH1 0x40 DUP4 DUP6 SUB SLT ISZERO PUSH2 0x308F JUMPI PUSH2 0x308E PUSH2 0x2EEB JUMP JUMPDEST JUMPDEST PUSH0 PUSH2 0x309C DUP6 DUP3 DUP7 ADD PUSH2 0x2F35 JUMP JUMPDEST SWAP3 POP POP PUSH1 0x20 PUSH2 0x30AD DUP6 DUP3 DUP7 ADD PUSH2 0x3065 JUMP JUMPDEST SWAP2 POP POP SWAP3 POP SWAP3 SWAP1 POP JUMP JUMPDEST PUSH0 DUP2 ISZERO ISZERO SWAP1 POP SWAP2 SWAP1 POP JUMP JUMPDEST PUSH2 0x30CB DUP2 PUSH2 0x30B7 JUMP JUMPDEST DUP3 MSTORE POP POP JUMP JUMPDEST PUSH0 PUSH1 0x20 DUP3 ADD SWAP1 POP PUSH2 0x30E4 PUSH0 DUP4 ADD DUP5 PUSH2 0x30C2 JUMP JUMPDEST SWAP3 SWAP2 POP POP JUMP JUMPDEST PUSH2 0x30F3 DUP2 PUSH2 0x2F0E JUMP JUMPDEST DUP3 MSTORE POP POP JUMP JUMPDEST PUSH0 PUSH1 0x20 DUP3 ADD SWAP1 POP PUSH2 0x310C PUSH0 DUP4 ADD DUP5 PUSH2 0x30EA JUMP JUMPDEST SWAP3 SWAP2 POP POP JUMP JUMPDEST PUSH0 DUP1 PUSH0 PUSH1 0x60 DUP5 DUP7 SUB SLT ISZERO PUSH2 0x3129 JUMPI PUSH2 0x3128 PUSH2 0x2EEB JUMP JUMPDEST JUMPDEST PUSH0 PUSH2 0x3136 DUP7 DUP3 DUP8 ADD PUSH2 0x2F35 JUMP JUMPDEST SWAP4 POP POP PUSH1 0x20 PUSH2 0x3147 DUP7 DUP3 DUP8 ADD PUSH2 0x2F35 JUMP JUMPDEST SWAP3 POP POP PUSH1 0x40 PUSH2 0x3158 DUP7 DUP3 DUP8 ADD PUSH2 0x3065 JUMP JUMPDEST SWAP2 POP POP SWAP3 POP SWAP3 POP SWAP3 JUMP JUMPDEST PUSH0 PUSH1 0x20 DUP3 DUP5 SUB SLT ISZERO PUSH2 0x3177 JUMPI PUSH2 0x3176 PUSH2 0x2EEB JUMP JUMPDEST JUMPDEST PUSH0 PUSH2 0x3184 DUP5 DUP3 DUP6 ADD PUSH2 0x3065 JUMP JUMPDEST SWAP2 POP POP SWAP3 SWAP2 POP POP JUMP JUMPDEST PUSH0 PUSH1 0xFF DUP3 AND SWAP1 POP SWAP2 SWAP1 POP JUMP JUMPDEST PUSH2 0x31A2 DUP2 PUSH2 0x318D JUMP JUMPDEST DUP3 MSTORE POP POP JUMP JUMPDEST PUSH0 PUSH1 0x20 DUP3 ADD SWAP1 POP PUSH2 0x31BB PUSH0 DUP4 ADD DUP5 PUSH2 0x3199 JUMP JUMPDEST SWAP3 SWAP2 POP POP JUMP JUMPDEST PUSH0 DUP1 PUSH0 PUSH1 0x60 DUP5 DUP7 SUB SLT ISZERO PUSH2 0x31D8 JUMPI PUSH2 0x31D7 PUSH2 0x2EEB JUMP JUMPDEST JUMPDEST PUSH0 PUSH2 0x31E5 DUP7 DUP3 DUP8 ADD PUSH2 0x2F35 JUMP JUMPDEST SWAP4 POP POP PUSH1 0x20 PUSH2 0x31F6 DUP7 DUP3 DUP8 ADD PUSH2 0x3065 JUMP JUMPDEST SWAP3 POP POP PUSH1 0x40 PUSH2 0x3207 DUP7 DUP3 DUP8 ADD PUSH2 0x3065 JUMP JUMPDEST SWAP2 POP POP SWAP3 POP SWAP3 POP SWAP3 JUMP JUMPDEST PUSH0 DUP2 SWAP1 POP SWAP2 SWAP1 POP JUMP JUMPDEST PUSH0 PUSH2 0x3234 PUSH2 0x322F PUSH2 0x322A DUP5 PUSH2 0x2EEF JUMP JUMPDEST PUSH2 0x3211 JUMP JUMPDEST PUSH2 0x2EEF JUMP JUMPDEST SWAP1 POP SWAP2 SWAP1 POP JUMP JUMPDEST PUSH0 PUSH2 0x3245 DUP3 PUSH2 0x321A JUMP JUMPDEST SWAP1 POP SWAP2 SWAP1 POP JUMP JUMPDEST PUSH0 PUSH2 0x3256 DUP3 PUSH2 0x323B JUMP JUMPDEST SWAP1 POP SWAP2 SWAP1 POP JUMP JUMPDEST PUSH2 0x3266 DUP2 PUSH2 0x324C JUMP JUMPDEST DUP3 MSTORE POP POP JUMP JUMPDEST PUSH0 PUSH1 0x20 DUP3 ADD SWAP1 POP PUSH2 0x327F PUSH0 DUP4 ADD DUP5 PUSH2 0x325D JUMP JUMPDEST SWAP3 SWAP2 POP POP JUMP JUMPDEST PUSH0 PUSH2 0x328F DUP3 PUSH2 0x323B JUMP JUMPDEST SWAP1 POP SWAP2 SWAP1 POP JUMP JUMPDEST PUSH2 0x329F DUP2 PUSH2 0x3285 JUMP JUMPDEST DUP3 MSTORE POP POP JUMP JUMPDEST PUSH0 PUSH1 0x20 DUP3 ADD SWAP1 POP PUSH2 0x32B8 PUSH0 DUP4 ADD DUP5 PUSH2 0x3296 JUMP JUMPDEST SWAP3 SWAP2 POP POP JUMP JUMPDEST PUSH0 DUP1 PUSH1 0x40 DUP4 DUP6 SUB SLT ISZERO PUSH2 0x32D4 JUMPI PUSH2 0x32D3 PUSH2 0x2EEB JUMP JUMPDEST JUMPDEST PUSH0 PUSH2 0x32E1 DUP6 DUP3 DUP7 ADD PUSH2 0x2F35 JUMP JUMPDEST SWAP3 POP POP PUSH1 0x20 PUSH2 0x32F2 DUP6 DUP3 DUP7 ADD PUSH2 0x2F35 JUMP JUMPDEST SWAP2 POP POP SWAP3 POP SWAP3 SWAP1 POP JUMP JUMPDEST PUSH32 0x4E487B7100000000000000000000000000000000000000000000000000000000 PUSH0 MSTORE PUSH1 0x11 PUSH1 0x4 MSTORE PUSH1 0x24 PUSH0 REVERT JUMPDEST PUSH0 PUSH2 0x3333 DUP3 PUSH2 0x2F74 JUMP JUMPDEST SWAP2 POP PUSH2 0x333E DUP4 PUSH2 0x2F74 JUMP JUMPDEST SWAP3 POP DUP3 DUP3 SUB SWAP1 POP DUP2 DUP2 GT ISZERO PUSH2 0x3356 JUMPI PUSH2 0x3355 PUSH2 0x32FC JUMP JUMPDEST JUMPDEST SWAP3 SWAP2 POP POP JUMP JUMPDEST PUSH0 PUSH2 0x3366 DUP3 PUSH2 0x2F74 JUMP JUMPDEST SWAP2 POP PUSH2 0x3371 DUP4 PUSH2 0x2F74 JUMP JUMPDEST SWAP3 POP DUP3 DUP3 MUL PUSH2 0x337F DUP2 PUSH2 0x2F74 JUMP JUMPDEST SWAP2 POP DUP3 DUP3 DIV DUP5 EQ DUP4 ISZERO OR PUSH2 0x3396 JUMPI PUSH2 0x3395 PUSH2 0x32FC JUMP JUMPDEST JUMPDEST POP SWAP3 SWAP2 POP POP JUMP JUMPDEST PUSH32 0x4E487B7100000000000000000000000000000000000000000000000000000000 PUSH0 MSTORE PUSH1 0x12 PUSH1 0x4 MSTORE PUSH1 0x24 PUSH0 REVERT JUMPDEST PUSH0 PUSH2 0x33D4 DUP3 PUSH2 0x2F74 JUMP JUMPDEST SWAP2 POP PUSH2 0x33DF DUP4 PUSH2 0x2F74 JUMP JUMPDEST SWAP3 POP DUP3 PUSH2 0x33EF JUMPI PUSH2 0x33EE PUSH2 0x339D JUMP JUMPDEST JUMPDEST DUP3 DUP3 DIV SWAP1 POP SWAP3 SWAP2 POP POP JUMP JUMPDEST PUSH0 PUSH2 0x3404 DUP3 PUSH2 0x2F74 JUMP JUMPDEST SWAP2 POP PUSH2 0x340F DUP4 PUSH2 0x2F74 JUMP JUMPDEST SWAP3 POP DUP3 DUP3 ADD SWAP1 POP DUP1 DUP3 GT ISZERO PUSH2 0x3427 JUMPI PUSH2 0x3426 PUSH2 0x32FC JUMP JUMPDEST JUMPDEST SWAP3 SWAP2 POP POP JUMP JUMPDEST PUSH32 0x4E487B7100000000000000000000000000000000000000000000000000000000 PUSH0 MSTORE PUSH1 0x22 PUSH1 0x4 MSTORE PUSH1 0x24 PUSH0 REVERT JUMPDEST PUSH0 PUSH1 0x2 DUP3 DIV SWAP1 POP PUSH1 0x1 DUP3 AND DUP1 PUSH2 0x3471 JUMPI PUSH1 0x7F DUP3 AND SWAP2 POP JUMPDEST PUSH1 0x20 DUP3 LT DUP2 SUB PUSH2 0x3484 JUMPI PUSH2 0x3483 PUSH2 0x342D JUMP JUMPDEST JUMPDEST POP SWAP2 SWAP1 POP JUMP JUMPDEST PUSH32 0x576974686472617720616D6F756E7420657863656564732062616C616E636500 PUSH0 DUP3 ADD MSTORE POP JUMP JUMPDEST PUSH0 PUSH2 0x34BE PUSH1 0x1F DUP4 PUSH2 0x2FAF JUMP JUMPDEST SWAP2 POP PUSH2 0x34C9 DUP3 PUSH2 0x348A JUMP JUMPDEST PUSH1 0x20 DUP3 ADD SWAP1 POP SWAP2 SWAP1 POP JUMP JUMPDEST PUSH0 PUSH1 0x20 DUP3 ADD SWAP1 POP DUP2 DUP2 SUB PUSH0 DUP4 ADD MSTORE PUSH2 0x34EB DUP2 PUSH2 0x34B2 JUMP JUMPDEST SWAP1 POP SWAP2 SWAP1 POP JUMP JUMPDEST PUSH0 PUSH1 0x40 DUP3 ADD SWAP1 POP PUSH2 0x3505 PUSH0 DUP4 ADD DUP6 PUSH2 0x30EA JUMP JUMPDEST PUSH2 0x3512 PUSH1 0x20 DUP4 ADD DUP5 PUSH2 0x2F7D JUMP JUMPDEST SWAP4 SWAP3 POP POP POP JUMP JUMPDEST PUSH2 0x3522 DUP2 PUSH2 0x30B7 JUMP JUMPDEST DUP2 EQ PUSH2 0x352C JUMPI PUSH0 DUP1 REVERT JUMPDEST POP JUMP JUMPDEST PUSH0 DUP2 MLOAD SWAP1 POP PUSH2 0x353D DUP2 PUSH2 0x3519 JUMP JUMPDEST SWAP3 SWAP2 POP POP JUMP JUMPDEST PUSH0 PUSH1 0x20 DUP3 DUP5 SUB SLT ISZERO PUSH2 0x3558 JUMPI PUSH2 0x3557 PUSH2 0x2EEB JUMP JUMPDEST JUMPDEST PUSH0 PUSH2 0x3565 DUP5 DUP3 DUP6 ADD PUSH2 0x352F JUMP JUMPDEST SWAP2 POP POP SWAP3 SWAP2 POP POP JUMP JUMPDEST PUSH32 0x4E487B7100000000000000000000000000000000000000000000000000000000 PUSH0 MSTORE PUSH1 0x32 PUSH1 0x4 MSTORE PUSH1 0x24 PUSH0 REVERT JUMPDEST PUSH32 0x4E487B7100000000000000000000000000000000000000000000000000000000 PUSH0 MSTORE PUSH1 0x31 PUSH1 0x4 MSTORE PUSH1 0x24 PUSH0 REVERT JUMPDEST PUSH0 PUSH2 0x35D2 DUP3 PUSH2 0x2F74 JUMP JUMPDEST SWAP2 POP PUSH32 0xFFFFFFFFFFFFFFFFFFFFFFFFFFFFFFFFFFFFFFFFFFFFFFFFFFFFFFFFFFFFFFFF DUP3 SUB PUSH2 0x3604 JUMPI PUSH2 0x3603 PUSH2 0x32FC JUMP JUMPDEST JUMPDEST PUSH1 0x1 DUP3 ADD SWAP1 POP SWAP2 SWAP1 POP JUMP JUMPDEST PUSH32 0x4E6F20746F6B656E7320746F2072656C65617365000000000000000000000000 PUSH0 DUP3 ADD MSTORE POP JUMP JUMPDEST PUSH0 PUSH2 0x3643 PUSH1 0x14 DUP4 PUSH2 0x2FAF JUMP JUMPDEST SWAP2 POP PUSH2 0x364E DUP3 PUSH2 0x360F JUMP JUMPDEST PUSH1 0x20 DUP3 ADD SWAP1 POP SWAP2 SWAP1 POP JUMP JUMPDEST PUSH0 PUSH1 0x20 DUP3 ADD SWAP1 POP DUP2 DUP2 SUB PUSH0 DUP4 ADD MSTORE PUSH2 0x3670 DUP2 PUSH2 0x3637 JUMP JUMPDEST SWAP1 POP SWAP2 SWAP1 POP JUMP JUMPDEST PUSH32 0x4E6F7420656E6F75676820746F6B656E7320696E20636F6E747261637420746F PUSH0 DUP3 ADD MSTORE PUSH32 0x2076657374000000000000000000000000000000000000000000000000000000 PUSH1 0x20 DUP3 ADD MSTORE POP JUMP JUMPDEST PUSH0 PUSH2 0x36D1 PUSH1 0x25 DUP4 PUSH2 0x2FAF JUMP JUMPDEST SWAP2 POP PUSH2 0x36DC DUP3 PUSH2 0x3677 JUMP JUMPDEST PUSH1 0x40 DUP3 ADD SWAP1 POP SWAP2 SWAP1 POP JUMP JUMPDEST PUSH0 PUSH1 0x20 DUP3 ADD SWAP1 POP DUP2 DUP2 SUB PUSH0 DUP4 ADD MSTORE PUSH2 0x36FE DUP2 PUSH2 0x36C5 JUMP JUMPDEST SWAP1 POP SWAP2 SWAP1 POP JUMP JUMPDEST PUSH32 0x43616E6E6F742064697374726962757465207265776172647320796574000000 PUSH0 DUP3 ADD MSTORE POP JUMP JUMPDEST PUSH0 PUSH2 0x3739 PUSH1 0x1D DUP4 PUSH2 0x2FAF JUMP JUMPDEST SWAP2 POP PUSH2 0x3744 DUP3 PUSH2 0x3705 JUMP JUMPDEST PUSH1 0x20 DUP3 ADD SWAP1 POP SWAP2 SWAP1 POP JUMP JUMPDEST PUSH0 PUSH1 0x20 DUP3 ADD SWAP1 POP DUP2 DUP2 SUB PUSH0 DUP4 ADD MSTORE PUSH2 0x3766 DUP2 PUSH2 0x372D JUMP JUMPDEST SWAP1 POP SWAP2 SWAP1 POP JUMP JUMPDEST PUSH0 DUP2 MLOAD SWAP1 POP PUSH2 0x377B DUP2 PUSH2 0x304F JUMP JUMPDEST SWAP3 SWAP2 POP POP JUMP JUMPDEST PUSH0 PUSH1 0x20 DUP3 DUP5 SUB SLT ISZERO PUSH2 0x3796 JUMPI PUSH2 0x3795 PUSH2 0x2EEB JUMP JUMPDEST JUMPDEST PUSH0 PUSH2 0x37A3 DUP5 DUP3 DUP6 ADD PUSH2 0x376D JUMP JUMPDEST SWAP2 POP POP SWAP3 SWAP2 POP POP JUMP JUMPDEST PUSH32 0x556E69737761702070616972206E6F7420736574000000000000000000000000 PUSH0 DUP3 ADD MSTORE POP JUMP JUMPDEST PUSH0 PUSH2 0x37E0 PUSH1 0x14 DUP4 PUSH2 0x2FAF JUMP JUMPDEST SWAP2 POP PUSH2 0x37EB DUP3 PUSH2 0x37AC JUMP JUMPDEST PUSH1 0x20 DUP3 ADD SWAP1 POP SWAP2 SWAP1 POP JUMP JUMPDEST PUSH0 PUSH1 0x20 DUP3 ADD SWAP1 POP DUP2 DUP2 SUB PUSH0 DUP4 ADD MSTORE PUSH2 0x380D DUP2 PUSH2 0x37D4 JUMP JUMPDEST SWAP1 POP SWAP2 SWAP1 POP JUMP JUMPDEST PUSH0 PUSH1 0x60 DUP3 ADD SWAP1 POP PUSH2 0x3827 PUSH0 DUP4 ADD DUP7 PUSH2 0x30EA JUMP JUMPDEST PUSH2 0x3834 PUSH1 0x20 DUP4 ADD DUP6 PUSH2 0x30EA JUMP JUMPDEST PUSH2 0x3841 PUSH1 0x40 DUP4 ADD DUP5 PUSH2 0x2F7D JUMP JUMPDEST SWAP5 SWAP4 POP POP POP POP JUMP JUMPDEST PUSH0 DUP2 SWAP1 POP SWAP2 SWAP1 POP JUMP JUMPDEST PUSH0 PUSH2 0x386C PUSH2 0x3867 PUSH2 0x3862 DUP5 PUSH2 0x3849 JUMP JUMPDEST PUSH2 0x3211 JUMP JUMPDEST PUSH2 0x2F74 JUMP JUMPDEST SWAP1 POP SWAP2 SWAP1 POP JUMP JUMPDEST PUSH2 0x387C DUP2 PUSH2 0x3852 JUMP JUMPDEST DUP3 MSTORE POP POP JUMP JUMPDEST PUSH0 PUSH1 0x40 DUP3 ADD SWAP1 POP PUSH2 0x3895 PUSH0 DUP4 ADD DUP6 PUSH2 0x2F7D JUMP JUMPDEST PUSH2 0x38A2 PUSH1 0x20 DUP4 ADD DUP5 PUSH2 0x3873 JUMP JUMPDEST SWAP4 SWAP3 POP POP POP JUMP JUMPDEST PUSH0 PUSH1 0x60 DUP3 ADD SWAP1 POP PUSH2 0x38BC PUSH0 DUP4 ADD DUP7 PUSH2 0x30EA JUMP JUMPDEST PUSH2 0x38C9 PUSH1 0x20 DUP4 ADD DUP6 PUSH2 0x2F7D JUMP JUMPDEST PUSH2 0x38D6 PUSH1 0x40 DUP4 ADD DUP5 PUSH2 0x2F7D JUMP JUMPDEST SWAP5 SWAP4 POP POP POP POP JUMP JUMPDEST PUSH32 0x5265656E7472616E637947756172643A207265656E7472616E742063616C6C00 PUSH0 DUP3 ADD MSTORE POP JUMP JUMPDEST PUSH0 PUSH2 0x3912 PUSH1 0x1F DUP4 PUSH2 0x2FAF JUMP JUMPDEST SWAP2 POP PUSH2 0x391D DUP3 PUSH2 0x38DE JUMP JUMPDEST PUSH1 0x20 DUP3 ADD SWAP1 POP SWAP2 SWAP1 POP JUMP JUMPDEST PUSH0 PUSH1 0x20 DUP3 ADD SWAP1 POP DUP2 DUP2 SUB PUSH0 DUP4 ADD MSTORE PUSH2 0x393F DUP2 PUSH2 0x3906 JUMP JUMPDEST SWAP1 POP SWAP2 SWAP1 POP JUMP JUMPDEST PUSH32 0x42656E6566696369617279206973207A65726F20616464726573730000000000 PUSH0 DUP3 ADD MSTORE POP JUMP JUMPDEST PUSH0 PUSH2 0x397A PUSH1 0x1B DUP4 PUSH2 0x2FAF JUMP JUMPDEST SWAP2 POP PUSH2 0x3985 DUP3 PUSH2 0x3946 JUMP JUMPDEST PUSH1 0x20 DUP3 ADD SWAP1 POP SWAP2 SWAP1 POP JUMP JUMPDEST PUSH0 PUSH1 0x20 DUP3 ADD SWAP1 POP DUP2 DUP2 SUB PUSH0 DUP4 ADD MSTORE PUSH2 0x39A7 DUP2 PUSH2 0x396E JUMP JUMPDEST SWAP1 POP SWAP2 SWAP1 POP JUMP JUMPDEST PUSH32 0x416D6F756E74206973207A65726F000000000000000000000000000000000000 PUSH0 DUP3 ADD MSTORE POP JUMP JUMPDEST PUSH0 PUSH2 0x39E2 PUSH1 0xE DUP4 PUSH2 0x2FAF JUMP JUMPDEST SWAP2 POP PUSH2 0x39ED DUP3 PUSH2 0x39AE JUMP JUMPDEST PUSH1 0x20 DUP3 ADD SWAP1 POP SWAP2 SWAP1 POP JUMP JUMPDEST PUSH0 PUSH1 0x20 DUP3 ADD SWAP1 POP DUP2 DUP2 SUB PUSH0 DUP4 ADD MSTORE PUSH2 0x3A0F DUP2 PUSH2 0x39D6 JUMP JUMPDEST SWAP1 POP SWAP2 SWAP1 POP JUMP JUMPDEST PUSH32 0x416C726561647920766573746564000000000000000000000000000000000000 PUSH0 DUP3 ADD MSTORE POP JUMP JUMPDEST PUSH0 PUSH2 0x3A4A PUSH1 0xE DUP4 PUSH2 0x2FAF JUMP JUMPDEST SWAP2 POP PUSH2 0x3A55 DUP3 PUSH2 0x3A16 JUMP JUMPDEST PUSH1 0x20 DUP3 ADD SWAP1 POP SWAP2 SWAP1 POP JUMP JUMPDEST PUSH0 PUSH1 0x20 DUP3 ADD SWAP1 POP DUP2 DUP2 SUB PUSH0 DUP4 ADD MSTORE PUSH2 0x3A77 DUP2 PUSH2 0x3A3E JUMP JUMPDEST SWAP1 POP SWAP2 SWAP1 POP JUMP JUMPDEST PUSH0 PUSH1 0x60 DUP3 ADD SWAP1 POP PUSH2 0x3A91 PUSH0 DUP4 ADD DUP7 PUSH2 0x2F7D JUMP JUMPDEST PUSH2 0x3A9E PUSH1 0x20 DUP4 ADD DUP6 PUSH2 0x2F7D JUMP JUMPDEST PUSH2 0x3AAB PUSH1 0x40 DUP4 ADD DUP5 PUSH2 0x2F7D JUMP JUMPDEST SWAP5 SWAP4 POP POP POP POP JUMP JUMPDEST PUSH0 DUP2 MLOAD SWAP1 POP SWAP2 SWAP1 POP JUMP JUMPDEST PUSH0 DUP3 DUP3 MSTORE PUSH1 0x20 DUP3 ADD SWAP1 POP SWAP3 SWAP2 POP POP JUMP JUMPDEST PUSH0 DUP2 SWAP1 POP PUSH1 0x20 DUP3 ADD SWAP1 POP SWAP2 SWAP1 POP JUMP JUMPDEST PUSH2 0x3AE5 DUP2 PUSH2 0x2F0E JUMP JUMPDEST DUP3 MSTORE POP POP JUMP JUMPDEST PUSH0 PUSH2 0x3AF6 DUP4 DUP4 PUSH2 0x3ADC JUMP JUMPDEST PUSH1 0x20 DUP4 ADD SWAP1 POP SWAP3 SWAP2 POP POP JUMP JUMPDEST PUSH0 PUSH1 0x20 DUP3 ADD SWAP1 POP SWAP2 SWAP1 POP JUMP JUMPDEST PUSH0 PUSH2 0x3B18 DUP3 PUSH2 0x3AB3 JUMP JUMPDEST PUSH2 0x3B22 DUP2 DUP6 PUSH2 0x3ABD JUMP JUMPDEST SWAP4 POP PUSH2 0x3B2D DUP4 PUSH2 0x3ACD JUMP JUMPDEST DUP1 PUSH0 JUMPDEST DUP4 DUP2 LT ISZERO PUSH2 0x3B5D JUMPI DUP2 MLOAD PUSH2 0x3B44 DUP9 DUP3 PUSH2 0x3AEB JUMP JUMPDEST SWAP8 POP PUSH2 0x3B4F DUP4 PUSH2 0x3B02 JUMP JUMPDEST SWAP3 POP POP PUSH1 0x1 DUP2 ADD SWAP1 POP PUSH2 0x3B30 JUMP JUMPDEST POP DUP6 SWAP4 POP POP POP POP SWAP3 SWAP2 POP POP JUMP JUMPDEST PUSH0 PUSH1 0xA0 DUP3 ADD SWAP1 POP PUSH2 0x3B7D PUSH0 DUP4 ADD DUP9 PUSH2 0x2F7D JUMP JUMPDEST PUSH2 0x3B8A PUSH1 0x20 DUP4 ADD DUP8 PUSH2 0x3873 JUMP JUMPDEST DUP2 DUP2 SUB PUSH1 0x40 DUP4 ADD MSTORE PUSH2 0x3B9C DUP2 DUP7 PUSH2 0x3B0E JUMP JUMPDEST SWAP1 POP PUSH2 0x3BAB PUSH1 0x60 DUP4 ADD DUP6 PUSH2 0x30EA JUMP JUMPDEST PUSH2 0x3BB8 PUSH1 0x80 DUP4 ADD DUP5 PUSH2 0x2F7D JUMP JUMPDEST SWAP7 SWAP6 POP POP POP POP POP POP JUMP JUMPDEST PUSH0 PUSH1 0xC0 DUP3 ADD SWAP1 POP PUSH2 0x3BD5 PUSH0 DUP4 ADD DUP10 PUSH2 0x30EA JUMP JUMPDEST PUSH2 0x3BE2 PUSH1 0x20 DUP4 ADD DUP9 PUSH2 0x2F7D JUMP JUMPDEST PUSH2 0x3BEF PUSH1 0x40 DUP4 ADD DUP8 PUSH2 0x3873 JUMP JUMPDEST PUSH2 0x3BFC PUSH1 0x60 DUP4 ADD DUP7 PUSH2 0x3873 JUMP JUMPDEST PUSH2 0x3C09 PUSH1 0x80 DUP4 ADD DUP6 PUSH2 0x30EA JUMP JUMPDEST PUSH2 0x3C16 PUSH1 0xA0 DUP4 ADD DUP5 PUSH2 0x2F7D JUMP JUMPDEST SWAP8 SWAP7 POP POP POP POP POP POP POP JUMP JUMPDEST PUSH0 DUP1 PUSH0 PUSH1 0x60 DUP5 DUP7 SUB SLT ISZERO PUSH2 0x3C38 JUMPI PUSH2 0x3C37 PUSH2 0x2EEB JUMP JUMPDEST JUMPDEST PUSH0 PUSH2 0x3C45 DUP7 DUP3 DUP8 ADD PUSH2 0x376D JUMP JUMPDEST SWAP4 POP POP PUSH1 0x20 PUSH2 0x3C56 DUP7 DUP3 DUP8 ADD PUSH2 0x376D JUMP JUMPDEST SWAP3 POP POP PUSH1 0x40 PUSH2 0x3C67 DUP7 DUP3 DUP8 ADD PUSH2 0x376D JUMP JUMPDEST SWAP2 POP POP SWAP3 POP SWAP3 POP SWAP3 JUMP JUMPDEST PUSH0 PUSH1 0x40 DUP3 ADD SWAP1 POP PUSH2 0x3C84 PUSH0 DUP4 ADD DUP6 PUSH2 0x2F7D JUMP JUMPDEST PUSH2 0x3C91 PUSH1 0x20 DUP4 ADD DUP5 PUSH2 0x2F7D JUMP JUMPDEST SWAP4 SWAP3 POP POP POP JUMP JUMPDEST PUSH32 0x4E487B7100000000000000000000000000000000000000000000000000000000 PUSH0 MSTORE PUSH1 0x41 PUSH1 0x4 MSTORE PUSH1 0x24 PUSH0 REVERT JUMPDEST PUSH0 DUP2 MLOAD SWAP1 POP PUSH2 0x3CD3 DUP2 PUSH2 0x2F1F JUMP JUMPDEST SWAP3 SWAP2 POP POP JUMP JUMPDEST PUSH0 PUSH1 0x20 DUP3 DUP5 SUB SLT ISZERO PUSH2 0x3CEE JUMPI PUSH2 0x3CED PUSH2 0x2EEB JUMP JUMPDEST JUMPDEST PUSH0 PUSH2 0x3CFB DUP5 DUP3 DUP6 ADD PUSH2 0x3CC5 JUMP JUMPDEST SWAP2 POP POP SWAP3 SWAP2 POP POP JUMP INVALID LOG2 PUSH5 0x6970667358 0x22 SLT KECCAK256 0xB2 0xC5 0xD9 SDIV SUB 0xCF 0xA8 0xEB 0xEF 0xAE DUP2 DUP14 EQ 0xA9 CALLVALUE 0xD1 EXTCODECOPY EXTCODEHASH PUSH31 0xD5AAF3E60A186C78E0A340D55864736F6C6343000814003300000000000000 "
		},
		"gasEstimates": {
			"creation": {
				"codeDepositCost": "3134800",
				"executionCost": "infinite",
				"totalCost": "infinite"
			},
			"external": {
				"allowance(address,address)": "infinite",
				"approve(address,uint256)": "infinite",
				"balanceOf(address)": "2918",
				"calculateLiquidityMiningRewards(address)": "infinite",
				"currentRewardRate()": "infinite",
				"decimals()": "472",
				"developmentWallet()": "2663",
				"distributeLiquidityMiningRewards()": "infinite",
				"earned(address)": "infinite",
				"finalRewardRate()": "371",
				"getReward()": "infinite",
				"initialRewardRate()": "459",
				"isLiquidityProvider(address)": "2900",
				"lastUpdateTime()": "2492",
				"liquidityBalance(address)": "2846",
				"liquidityMiningRate()": "2493",
				"liquidityMiningRewards(address)": "2956",
				"liquidityProviders(uint256)": "4989",
				"lpTaxRate()": "2558",
				"lpTokenBalance(address)": "2892",
				"name()": "infinite",
				"owner()": "2627",
				"preSaleWallet()": "2576",
				"releasableAmount(address)": "infinite",
				"releaseVestedTokens()": "infinite",
				"renounceOwnership()": "infinite",
				"rewardPerToken()": "infinite",
				"rewardPerTokenStored()": "2513",
				"setUniswapPair(address)": "infinite",
				"stake(uint256)": "infinite",
				"stakeStartTime(address)": "2847",
				"symbol()": "infinite",
				"taxRate()": "2580",
				"totalSupply()": "2478",
				"transfer(address,uint256)": "infinite",
				"transferFrom(address,address,uint256)": "infinite",
				"transferOwnership(address)": "infinite",
				"uniswapPair()": "infinite",
				"uniswapRouter()": "infinite",
				"vestAdditionalTokens(address,uint256,uint256)": "infinite",
				"vestedAmount(address)": "2870",
				"vestingStart(address)": "2871",
				"withdraw(uint256)": "infinite"
			},
			"internal": {
				"_addLiquidity(uint256)": "infinite",
				"_addLiquidityMiningRewards(address)": "infinite",
				"_transfer(address,address,uint256)": "infinite",
				"_vestTokens(address,uint256,uint256,uint256)": "infinite",
				"getPathForTokenToETH()": "infinite",
				"updateReward(address)": "infinite"
			}
		},
		"methodIdentifiers": {
			"allowance(address,address)": "dd62ed3e",
			"approve(address,uint256)": "095ea7b3",
			"balanceOf(address)": "70a08231",
			"calculateLiquidityMiningRewards(address)": "9d4310ec",
			"currentRewardRate()": "f51ace70",
			"decimals()": "313ce567",
			"developmentWallet()": "c04a5414",
			"distributeLiquidityMiningRewards()": "7eb53785",
			"earned(address)": "008cc262",
			"finalRewardRate()": "35f53e8e",
			"getReward()": "3d18b912",
			"initialRewardRate()": "5971aa21",
			"isLiquidityProvider(address)": "99f7854a",
			"lastUpdateTime()": "c8f33c91",
			"liquidityBalance(address)": "dd296480",
			"liquidityMiningRate()": "82820511",
			"liquidityMiningRewards(address)": "f8297099",
			"liquidityProviders(uint256)": "96212916",
			"lpTaxRate()": "d9c4941e",
			"lpTokenBalance(address)": "85dcf86a",
			"name()": "06fdde03",
			"owner()": "8da5cb5b",
			"preSaleWallet()": "1fc75e41",
			"releasableAmount(address)": "1726cbc8",
			"releaseVestedTokens()": "54dd1da4",
			"renounceOwnership()": "715018a6",
			"rewardPerToken()": "cd3daf9d",
			"rewardPerTokenStored()": "df136d65",
			"setUniswapPair(address)": "d5aed6bf",
			"stake(uint256)": "a694fc3a",
			"stakeStartTime(address)": "6985e6d8",
			"symbol()": "95d89b41",
			"taxRate()": "771a3a1d",
			"totalSupply()": "18160ddd",
			"transfer(address,uint256)": "a9059cbb",
			"transferFrom(address,address,uint256)": "23b872dd",
			"transferOwnership(address)": "f2fde38b",
			"uniswapPair()": "c816841b",
			"uniswapRouter()": "735de9f7",
			"vestAdditionalTokens(address,uint256,uint256)": "6f2397b8",
			"vestedAmount(address)": "384711cc",
			"vestingStart(address)": "032bbf4f",
			"withdraw(uint256)": "2e1a7d4d"
		}
	},
	"abi": [
		{
			"inputs": [
				{
					"internalType": "address",
					"name": "router",
					"type": "address"
				},
				{
					"internalType": "address",
					"name": "_developmentWallet",
					"type": "address"
				},
				{
					"internalType": "address",
					"name": "_preSaleWallet",
					"type": "address"
				}
			],
			"stateMutability": "nonpayable",
			"type": "constructor"
		},
		{
			"inputs": [
				{
					"internalType": "address",
					"name": "spender",
					"type": "address"
				},
				{
					"internalType": "uint256",
					"name": "allowance",
					"type": "uint256"
				},
				{
					"internalType": "uint256",
					"name": "needed",
					"type": "uint256"
				}
			],
			"name": "ERC20InsufficientAllowance",
			"type": "error"
		},
		{
			"inputs": [
				{
					"internalType": "address",
					"name": "sender",
					"type": "address"
				},
				{
					"internalType": "uint256",
					"name": "balance",
					"type": "uint256"
				},
				{
					"internalType": "uint256",
					"name": "needed",
					"type": "uint256"
				}
			],
			"name": "ERC20InsufficientBalance",
			"type": "error"
		},
		{
			"inputs": [
				{
					"internalType": "address",
					"name": "approver",
					"type": "address"
				}
			],
			"name": "ERC20InvalidApprover",
			"type": "error"
		},
		{
			"inputs": [
				{
					"internalType": "address",
					"name": "receiver",
					"type": "address"
				}
			],
			"name": "ERC20InvalidReceiver",
			"type": "error"
		},
		{
			"inputs": [
				{
					"internalType": "address",
					"name": "sender",
					"type": "address"
				}
			],
			"name": "ERC20InvalidSender",
			"type": "error"
		},
		{
			"inputs": [
				{
					"internalType": "address",
					"name": "spender",
					"type": "address"
				}
			],
			"name": "ERC20InvalidSpender",
			"type": "error"
		},
		{
			"inputs": [
				{
					"internalType": "address",
					"name": "owner",
					"type": "address"
				}
			],
			"name": "OwnableInvalidOwner",
			"type": "error"
		},
		{
			"inputs": [
				{
					"internalType": "address",
					"name": "account",
					"type": "address"
				}
			],
			"name": "OwnableUnauthorizedAccount",
			"type": "error"
		},
		{
			"anonymous": false,
			"inputs": [
				{
					"indexed": true,
					"internalType": "address",
					"name": "owner",
					"type": "address"
				},
				{
					"indexed": true,
					"internalType": "address",
					"name": "spender",
					"type": "address"
				},
				{
					"indexed": false,
					"internalType": "uint256",
					"name": "value",
					"type": "uint256"
				}
			],
			"name": "Approval",
			"type": "event"
		},
		{
			"anonymous": false,
			"inputs": [
				{
					"indexed": true,
					"internalType": "address",
					"name": "provider",
					"type": "address"
				},
				{
					"indexed": false,
					"internalType": "uint256",
					"name": "tokenAmount",
					"type": "uint256"
				},
				{
					"indexed": false,
					"internalType": "uint256",
					"name": "ethAmount",
					"type": "uint256"
				}
			],
			"name": "LiquidityAdded",
			"type": "event"
		},
		{
			"anonymous": false,
			"inputs": [
				{
					"indexed": true,
					"internalType": "address",
					"name": "user",
					"type": "address"
				},
				{
					"indexed": false,
					"internalType": "uint256",
					"name": "reward",
					"type": "uint256"
				}
			],
			"name": "LiquidityMiningRewardPaid",
			"type": "event"
		},
		{
			"anonymous": false,
			"inputs": [
				{
					"indexed": true,
					"internalType": "address",
					"name": "provider",
					"type": "address"
				},
				{
					"indexed": false,
					"internalType": "uint256",
					"name": "amount",
					"type": "uint256"
				}
			],
			"name": "LiquidityRemoved",
			"type": "event"
		},
		{
			"anonymous": false,
			"inputs": [
				{
					"indexed": true,
					"internalType": "address",
					"name": "previousOwner",
					"type": "address"
				},
				{
					"indexed": true,
					"internalType": "address",
					"name": "newOwner",
					"type": "address"
				}
			],
			"name": "OwnershipTransferred",
			"type": "event"
		},
		{
			"anonymous": false,
			"inputs": [
				{
					"indexed": true,
					"internalType": "address",
					"name": "user",
					"type": "address"
				},
				{
					"indexed": false,
					"internalType": "uint256",
					"name": "reward",
					"type": "uint256"
				}
			],
			"name": "RewardPaid",
			"type": "event"
		},
		{
			"anonymous": false,
			"inputs": [
				{
					"indexed": true,
					"internalType": "address",
					"name": "beneficiary",
					"type": "address"
				},
				{
					"indexed": false,
					"internalType": "uint256",
					"name": "amount",
					"type": "uint256"
				}
			],
			"name": "TokensReleased",
			"type": "event"
		},
		{
			"anonymous": false,
			"inputs": [
				{
					"indexed": true,
					"internalType": "address",
					"name": "beneficiary",
					"type": "address"
				},
				{
					"indexed": false,
					"internalType": "uint256",
					"name": "amount",
					"type": "uint256"
				},
				{
					"indexed": false,
					"internalType": "uint256",
					"name": "start",
					"type": "uint256"
				},
				{
					"indexed": false,
					"internalType": "uint256",
					"name": "duration",
					"type": "uint256"
				}
			],
			"name": "TokensVested",
			"type": "event"
		},
		{
			"anonymous": false,
			"inputs": [
				{
					"indexed": true,
					"internalType": "address",
					"name": "from",
					"type": "address"
				},
				{
					"indexed": true,
					"internalType": "address",
					"name": "to",
					"type": "address"
				},
				{
					"indexed": false,
					"internalType": "uint256",
					"name": "value",
					"type": "uint256"
				}
			],
			"name": "Transfer",
			"type": "event"
		},
		{
			"inputs": [
				{
					"internalType": "address",
					"name": "owner",
					"type": "address"
				},
				{
					"internalType": "address",
					"name": "spender",
					"type": "address"
				}
			],
			"name": "allowance",
			"outputs": [
				{
					"internalType": "uint256",
					"name": "",
					"type": "uint256"
				}
			],
			"stateMutability": "view",
			"type": "function"
		},
		{
			"inputs": [
				{
					"internalType": "address",
					"name": "spender",
					"type": "address"
				},
				{
					"internalType": "uint256",
					"name": "value",
					"type": "uint256"
				}
			],
			"name": "approve",
			"outputs": [
				{
					"internalType": "bool",
					"name": "",
					"type": "bool"
				}
			],
			"stateMutability": "nonpayable",
			"type": "function"
		},
		{
			"inputs": [
				{
					"internalType": "address",
					"name": "account",
					"type": "address"
				}
			],
			"name": "balanceOf",
			"outputs": [
				{
					"internalType": "uint256",
					"name": "",
					"type": "uint256"
				}
			],
			"stateMutability": "view",
			"type": "function"
		},
		{
			"inputs": [
				{
					"internalType": "address",
					"name": "provider",
					"type": "address"
				}
			],
			"name": "calculateLiquidityMiningRewards",
			"outputs": [
				{
					"internalType": "uint256",
					"name": "",
					"type": "uint256"
				}
			],
			"stateMutability": "view",
			"type": "function"
		},
		{
			"inputs": [],
			"name": "currentRewardRate",
			"outputs": [
				{
					"internalType": "uint256",
					"name": "",
					"type": "uint256"
				}
			],
			"stateMutability": "view",
			"type": "function"
		},
		{
			"inputs": [],
			"name": "decimals",
			"outputs": [
				{
					"internalType": "uint8",
					"name": "",
					"type": "uint8"
				}
			],
			"stateMutability": "view",
			"type": "function"
		},
		{
			"inputs": [],
			"name": "developmentWallet",
			"outputs": [
				{
					"internalType": "address",
					"name": "",
					"type": "address"
				}
			],
			"stateMutability": "view",
			"type": "function"
		},
		{
			"inputs": [],
			"name": "distributeLiquidityMiningRewards",
			"outputs": [],
			"stateMutability": "nonpayable",
			"type": "function"
		},
		{
			"inputs": [
				{
					"internalType": "address",
					"name": "account",
					"type": "address"
				}
			],
			"name": "earned",
			"outputs": [
				{
					"internalType": "uint256",
					"name": "",
					"type": "uint256"
				}
			],
			"stateMutability": "view",
			"type": "function"
		},
		{
			"inputs": [],
			"name": "finalRewardRate",
			"outputs": [
				{
					"internalType": "uint256",
					"name": "",
					"type": "uint256"
				}
			],
			"stateMutability": "view",
			"type": "function"
		},
		{
			"inputs": [],
			"name": "getReward",
			"outputs": [],
			"stateMutability": "nonpayable",
			"type": "function"
		},
		{
			"inputs": [],
			"name": "initialRewardRate",
			"outputs": [
				{
					"internalType": "uint256",
					"name": "",
					"type": "uint256"
				}
			],
			"stateMutability": "view",
			"type": "function"
		},
		{
			"inputs": [
				{
					"internalType": "address",
					"name": "",
					"type": "address"
				}
			],
			"name": "isLiquidityProvider",
			"outputs": [
				{
					"internalType": "bool",
					"name": "",
					"type": "bool"
				}
			],
			"stateMutability": "view",
			"type": "function"
		},
		{
			"inputs": [],
			"name": "lastUpdateTime",
			"outputs": [
				{
					"internalType": "uint256",
					"name": "",
					"type": "uint256"
				}
			],
			"stateMutability": "view",
			"type": "function"
		},
		{
			"inputs": [
				{
					"internalType": "address",
					"name": "",
					"type": "address"
				}
			],
			"name": "liquidityBalance",
			"outputs": [
				{
					"internalType": "uint256",
					"name": "",
					"type": "uint256"
				}
			],
			"stateMutability": "view",
			"type": "function"
		},
		{
			"inputs": [],
			"name": "liquidityMiningRate",
			"outputs": [
				{
					"internalType": "uint256",
					"name": "",
					"type": "uint256"
				}
			],
			"stateMutability": "view",
			"type": "function"
		},
		{
			"inputs": [
				{
					"internalType": "address",
					"name": "",
					"type": "address"
				}
			],
			"name": "liquidityMiningRewards",
			"outputs": [
				{
					"internalType": "uint256",
					"name": "",
					"type": "uint256"
				}
			],
			"stateMutability": "view",
			"type": "function"
		},
		{
			"inputs": [
				{
					"internalType": "uint256",
					"name": "",
					"type": "uint256"
				}
			],
			"name": "liquidityProviders",
			"outputs": [
				{
					"internalType": "address",
					"name": "",
					"type": "address"
				}
			],
			"stateMutability": "view",
			"type": "function"
		},
		{
			"inputs": [],
			"name": "lpTaxRate",
			"outputs": [
				{
					"internalType": "uint256",
					"name": "",
					"type": "uint256"
				}
			],
			"stateMutability": "view",
			"type": "function"
		},
		{
			"inputs": [
				{
					"internalType": "address",
					"name": "",
					"type": "address"
				}
			],
			"name": "lpTokenBalance",
			"outputs": [
				{
					"internalType": "uint256",
					"name": "",
					"type": "uint256"
				}
			],
			"stateMutability": "view",
			"type": "function"
		},
		{
			"inputs": [],
			"name": "name",
			"outputs": [
				{
					"internalType": "string",
					"name": "",
					"type": "string"
				}
			],
			"stateMutability": "view",
			"type": "function"
		},
		{
			"inputs": [],
			"name": "owner",
			"outputs": [
				{
					"internalType": "address",
					"name": "",
					"type": "address"
				}
			],
			"stateMutability": "view",
			"type": "function"
		},
		{
			"inputs": [],
			"name": "preSaleWallet",
			"outputs": [
				{
					"internalType": "address",
					"name": "",
					"type": "address"
				}
			],
			"stateMutability": "view",
			"type": "function"
		},
		{
			"inputs": [
				{
					"internalType": "address",
					"name": "beneficiary",
					"type": "address"
				}
			],
			"name": "releasableAmount",
			"outputs": [
				{
					"internalType": "uint256",
					"name": "",
					"type": "uint256"
				}
			],
			"stateMutability": "view",
			"type": "function"
		},
		{
			"inputs": [],
			"name": "releaseVestedTokens",
			"outputs": [],
			"stateMutability": "nonpayable",
			"type": "function"
		},
		{
			"inputs": [],
			"name": "renounceOwnership",
			"outputs": [],
			"stateMutability": "nonpayable",
			"type": "function"
		},
		{
			"inputs": [],
			"name": "rewardPerToken",
			"outputs": [
				{
					"internalType": "uint256",
					"name": "",
					"type": "uint256"
				}
			],
			"stateMutability": "view",
			"type": "function"
		},
		{
			"inputs": [],
			"name": "rewardPerTokenStored",
			"outputs": [
				{
					"internalType": "uint256",
					"name": "",
					"type": "uint256"
				}
			],
			"stateMutability": "view",
			"type": "function"
		},
		{
			"inputs": [
				{
					"internalType": "address",
					"name": "pair",
					"type": "address"
				}
			],
			"name": "setUniswapPair",
			"outputs": [],
			"stateMutability": "nonpayable",
			"type": "function"
		},
		{
			"inputs": [
				{
					"internalType": "uint256",
					"name": "amount",
					"type": "uint256"
				}
			],
			"name": "stake",
			"outputs": [],
			"stateMutability": "nonpayable",
			"type": "function"
		},
		{
			"inputs": [
				{
					"internalType": "address",
					"name": "",
					"type": "address"
				}
			],
			"name": "stakeStartTime",
			"outputs": [
				{
					"internalType": "uint256",
					"name": "",
					"type": "uint256"
				}
			],
			"stateMutability": "view",
			"type": "function"
		},
		{
			"inputs": [],
			"name": "symbol",
			"outputs": [
				{
					"internalType": "string",
					"name": "",
					"type": "string"
				}
			],
			"stateMutability": "view",
			"type": "function"
		},
		{
			"inputs": [],
			"name": "taxRate",
			"outputs": [
				{
					"internalType": "uint256",
					"name": "",
					"type": "uint256"
				}
			],
			"stateMutability": "view",
			"type": "function"
		},
		{
			"inputs": [],
			"name": "totalSupply",
			"outputs": [
				{
					"internalType": "uint256",
					"name": "",
					"type": "uint256"
				}
			],
			"stateMutability": "view",
			"type": "function"
		},
		{
			"inputs": [
				{
					"internalType": "address",
					"name": "to",
					"type": "address"
				},
				{
					"internalType": "uint256",
					"name": "value",
					"type": "uint256"
				}
			],
			"name": "transfer",
			"outputs": [
				{
					"internalType": "bool",
					"name": "",
					"type": "bool"
				}
			],
			"stateMutability": "nonpayable",
			"type": "function"
		},
		{
			"inputs": [
				{
					"internalType": "address",
					"name": "from",
					"type": "address"
				},
				{
					"internalType": "address",
					"name": "to",
					"type": "address"
				},
				{
					"internalType": "uint256",
					"name": "value",
					"type": "uint256"
				}
			],
			"name": "transferFrom",
			"outputs": [
				{
					"internalType": "bool",
					"name": "",
					"type": "bool"
				}
			],
			"stateMutability": "nonpayable",
			"type": "function"
		},
		{
			"inputs": [
				{
					"internalType": "address",
					"name": "newOwner",
					"type": "address"
				}
			],
			"name": "transferOwnership",
			"outputs": [],
			"stateMutability": "nonpayable",
			"type": "function"
		},
		{
			"inputs": [],
			"name": "uniswapPair",
			"outputs": [
				{
					"internalType": "contract IUniswapV2Pair",
					"name": "",
					"type": "address"
				}
			],
			"stateMutability": "view",
			"type": "function"
		},
		{
			"inputs": [],
			"name": "uniswapRouter",
			"outputs": [
				{
					"internalType": "contract IUniswapV2Router02",
					"name": "",
					"type": "address"
				}
			],
			"stateMutability": "view",
			"type": "function"
		},
		{
			"inputs": [
				{
					"internalType": "address",
					"name": "beneficiary",
					"type": "address"
				},
				{
					"internalType": "uint256",
					"name": "amount",
					"type": "uint256"
				},
				{
					"internalType": "uint256",
					"name": "duration",
					"type": "uint256"
				}
			],
			"name": "vestAdditionalTokens",
			"outputs": [],
			"stateMutability": "nonpayable",
			"type": "function"
		},
		{
			"inputs": [
				{
					"internalType": "address",
					"name": "",
					"type": "address"
				}
			],
			"name": "vestedAmount",
			"outputs": [
				{
					"internalType": "uint256",
					"name": "",
					"type": "uint256"
				}
			],
			"stateMutability": "view",
			"type": "function"
		},
		{
			"inputs": [
				{
					"internalType": "address",
					"name": "",
					"type": "address"
				}
			],
			"name": "vestingStart",
			"outputs": [
				{
					"internalType": "uint256",
					"name": "",
					"type": "uint256"
				}
			],
			"stateMutability": "view",
			"type": "function"
		},
		{
			"inputs": [
				{
					"internalType": "uint256",
					"name": "amount",
					"type": "uint256"
				}
			],
			"name": "withdraw",
			"outputs": [],
			"stateMutability": "nonpayable",
			"type": "function"
		},
		{
			"stateMutability": "payable",
			"type": "receive"
		}
	]
}